:100000000080002099260000C5220000B9210000D0
:10001000B9210000B9210000B9210000B921000078
:10002000B9210000B9210000B9210000C52200005B
:10003000C5220000B9210000193400009D320000E3
:10004000C5220000C5220000C5220000C522000014
:10005000C5220000C5220000C5220000C522000004
:10006000C5220000C5220000C5220000C5220000F4
:10007000C5220000C5220000C5220000C5220000E4
:10008000C5220000C5220000C5220000C5220000D4
:10009000C5220000C5220000C5220000C5220000C4
:1000A000C5220000C5220000C5220000C5220000B4
:1000B000C5220000C5220000C5220000C5220000A4
:1000C000C5220000C5220000C5220000C522000094
:1000D000C5220000C5220000C5220000C522000084
:1000E000C5220000C5220000C5220000C522000074
:1000F000C5220000B9400000C5220000C13F000039
:10010000C52200000D3F0000C5220000C5220000EE
:10011000C5220000C5220000C5220000C522000043
:10012000C5220000C5220000C5220000C522000033
:10013000C5220000C5220000C5220000C522000023
:10014000C5220000C5220000C5220000C522000013
:10015000853200006D320000553200003D32000053
:10016000C5220000F1490000C5220000C5220000A0
:10017000C5220000C5220000C5220000C5220000E3
:10018000C5220000C5220000C5220000C5220000D3
:10019000C5220000C5220000C5220000C5220000C3
:1001A000C5220000C5220000C5220000C5220000B3
:1001B000C5220000C5220000C5220000FFFFFFFF8E
:1001C000FFFFFFFFFFFFFFFFFFFFFFFFFFFFFFFF3F
:1001D000FFFFFFFFFFFFFFFFFFFFFFFFFFFFFFFF2F
:1001E000FFFFFFFFFFFFFFFFFFFFFFFFFFFFFFFF1F
:1001F000FFFFFFFFFFFFFFFFFFFFFFFFFFFFFFFF0F
:10040000FFFFFFFFFFFFFFFFFFFFFFFFDEF9FFFF23
:1004100010B5054C237833B9044B13B10448AFF33E
:1004200000800123237010BDA0BAFF1F0000000050
:1004300028820000084B10B51BB108490848AFF3EB
:1004400000800848036803B910BD074B002BFBD0A0
:10045000BDE81040184700BF00000000A4BAFF1F0D
:1004600028820000A0BAFF1F000000002DE9F04F15
:100470004BF22424C1F6FF7487B0E37A33B372B62B
:10048000E37AD9071A4609D54EF28010CEF2000061
:10049000E26801681140A1611A4601609F0709D511
:1004A0004EF28412CEF20002236911680B40E36120
:1004B0001360E27A560708D54EF28812CEF2000297
:1004C000636911680B402362136062B623680022DF
:1004D000D968C3F60202914200F033840025284611
:1004E00044F201064CF25811C0F23F06C7F602056D
:1004F000C8F23F00C1F6FF711E60DA601D6118602E
:1005000091F82D2047F6DC76C0F20006012556F85A
:1005100032704FF00040D02287F80051D8625A6301
:10052000DA6A002AFCDA0A78996B4FF00041D96246
:100530005A63DA6A002AFCDA9B6BE27A01254BF2F5
:100540002421DBB2104687F88050C1F6FF71002AE3
:1005500040F038834BF6BC27A3F16003C1F6FF7768
:10056000B3FA83F35B093B7023680022D968C3F6B2
:100570000202914200F0ED8344F201050020C0F236
:100580003F051D6001464CF23415C7F60200C8F263
:100590003F01C1F6FF75DA60186119606A7A56F892
:1005A00032E001228EF800214FF000418022D96212
:1005B0005A63DA6A002AFCDA4FF000412A79986B14
:1005C000D9625A63DA6A002AFCDA996BE37A01206D
:1005D0004BF224225FFA81FC8EF880001946C1F6A6
:1005E000FF72CBB1D80706D54FF46141CEF20001BE
:1005F00092690A6019469A0706D54EF20413CEF2A4
:100600000003E2691A60E17A4B0705D54EF2081340
:10061000CEF20003226A1A600DF114084046ACF1D4
:10062000D10B05F017F9059805F01AF96B7A56F811
:1006300033102368012281F80021BBFA8BFB4FF0B5
:1006400000404022D8624FEA5B1B5A63DA6A002AF4
:10065000FCDA4FF000402C22D3F838E0D8625A631D
:10066000DA6A002AFCDA0120D3F838E081F8800049
:10067000C022013AFDD14FF0004E6D2281F80001F9
:10068000C3F82CE05A63DA6A002AFCDA4FF0004023
:100690000522D3F838E0D8625A63DA6A002AFCDA15
:1006A0000120C0229B6B81F880001346013BFDD1E5
:1006B000E37A4BF224221946C1F6FF72CBB1D80778
:1006C00006D54FF46141CEF2000192690A601946E5
:1006D0009A0706D54EF20413CEF20003E2691A60BF
:1006E000E17A4B0705D54EF20813CEF20003226AD9
:1006F0001A6005F00BF9404605F0ACF8059805F0D6
:10070000AFF804F09FFFE37A4BF224221946C1F6BA
:10071000FF72CBB1D80706D54FF46141CEF200018C
:1007200092690A601946980706D54EF20413CEF274
:100730000003E2691A60E17A490705D54EF2081311
:10074000CEF20003226A1A60697C287C03F088F8E4
:10075000020400F1DB8206F0D3FF4FF0824107F084
:1007600027F84FF0605107F023F8E97C8146A87C18
:1007700003F076F8010400F1C18206F0C1FF4FF0EA
:10078000824107F015F84FF0605107F011F8697DCC
:100790000090287D03F064F8020400F1A78206F0BF
:1007A000AFFF4FF0824107F003F84FF0605106F0C1
:1007B000FFFF0290404605F04DF8059805F050F80F
:1007C0006A7A236856F83210012281F800214FF02E
:1007D00000404022D8625A63DA6A002AFCDA4FF0FD
:1007E00000402C22D3F838E0D8625A63DA6A002A33
:1007F000FCDA0120D3F838E081F88000C022013A09
:10080000FDD14FF0004E6D2281F80001C3F82CE0BD
:100810005A63DA6A002AFCDA4FF000400122D3F86A
:1008200038E0D8625A63DA6A002AFCDA0120C02272
:100830009B6B81F880001346013BFDD1E37A4BF2BC
:1008400024221946C1F6FF72CBB1D80706D54FF462
:100850006141CEF2000192690A6019469A0706D5F5
:100860004EF20413CEF20003E2691A60E17A4B07FC
:1008700005D54EF20813CEF20003226A1A6005F085
:1008800045F8404604F0E6FF059804F0E9FF04F05F
:10089000D9FEE37A4BF224221946C1F6FF72CBB19E
:1008A000D80706D54FF46141CEF2000192690A6083
:1008B0001946980706D54EF20413CEF20003E269FA
:1008C0001A60E17A490705D54EF20813CEF200030B
:1008D000226A1A60697C287C02F0C2FF020400F1DF
:1008E000FD8106F00DFF4FF0824106F061FF4FF0F1
:1008F000605106F05DFFE97C8246A87C02F0B0FF03
:10090000010400F1E38106F0FBFE4FF0824106F0A6
:100910004FFF4FF0605106F04BFF697D0190287D3D
:1009200002F09EFF020400F1C98106F0E9FE4FF0DB
:10093000824106F03DFF4FF0605106F039FF51460D
:100940000390484606F02AFE0021814607F0ECF8A5
:10095000002800F0858148464FF0804107F0E4F818
:100960008146002840F08381404604F073FF0598DB
:1009700004F076FF6B7A56F833102368012281F871
:1009800000214FF000406D22D8625A63DA6A002AD3
:10099000FCDA4FF000401022D3F838E0D8625A63F6
:1009A000DA6A002AFCDA4FF0010A9B6B81F880A01A
:1009B00004F0ACFF6A7A236856F832004FF0004129
:1009C0009B2280F800A1D9625A63DA6A002AFCDA15
:1009D0004FF000412A79D3F838E0D9625A63DA6AD5
:1009E000002AFCDA4FF0010EC022996B80F880E0FB
:1009F0001346013BFDD1E37A4BF224221846C1F69F
:100A0000FF72D3B113F0010F06D04FF46140CEF264
:100A100000009269026018469A0706D54EF2041348
:100A2000CEF20003E2691A60E07A430705D54EF280
:100A30000813CEF20003226A1A6001F00203404656
:100A400049EA030904F006FF059804F009FF6B7AF0
:100A500056F833102368012281F800214FF000403E
:100A60006D22D8624FFA89F95A63DA6A002AFCDAF1
:100A70004FF0004000229D6BD8625A63DA6A002A68
:100A8000FCDA0120C0229B6B81F880001346013BF9
:100A9000FDD1E37A4BF224221946C1F6FF72CBB1A5
:100AA000D80706D54FF46141CEF2000192690A6081
:100AB00019469A0706D54EF20413CEF20003E269F6
:100AC0001A60E17A4B0705D54EF20813CEF2000307
:100AD000226A1A604BF64C44C1F6FF74D94404F004
:100AE00015FFA9F1040902F0F1FF207DB9FA89F997
:100AF0004FEA5919282887F8019000F21C8102F06A
:100B0000A7F8804606F0FCFD4FF05E5106F050FE5F
:100B100006462068C4F81C8005F06CFF25698046F5
:100B200089462846314606F043FE0146284606F02F
:100B3000F3FE4FF07E5106F031FD616806F038FE9D
:100B4000A16806F0E9FE05F055FF06F041FA0246FD
:100B50000B464046494605F0A1FF8046E0688946BD
:100B600005F048FF02460B464046494605F0E4FDC5
:100B70000B4600210246C3F6F071002006F0B8F8DB
:100B800041F266234FF0C042C4F2710305F0D2FD7A
:100B900006F0B0FC0021CCF22021A061054606F051
:100BA000B9FF58B100212846C4F2FA2106F0A8FF87
:100BB0004FF00103002800F0B980D8B2B87007B038
:100BC000BDE8F08FD50706D54FF46140CEF20000A6
:100BD000896901601046970700F1A080450706D596
:100BE0004EF20812CEF20002216A1160E07A4BF652
:100BF000BC27A3F16003C1F6FF77B3FA83F35B0967
:100C00003B7000283FF4B0AC72B6E37A4BF224227A
:100C1000D8071946C1F6FF7209D54EF28015CEF2FB
:100C20000005D168286808409061194628609B0734
:100C300009D54EF28412CEF20002236911680B40EE
:100C4000E3611360E17A4D0708D54EF28812CEF2C7
:100C50000002636911680B402362136062B683E48B
:100C600048464FF0404106F041FF002867D0019907
:100C7000009806F093FC0021814606F055FF0028FD
:100C800056D048464FF0804106F04EFF002856D01F
:100C90000399029806F082FC0021814606F044FF89
:100CA00000285CD048464FF0804106F03DFF4FF0F1
:100CB000010900B981464FFA89F955E6C34398B254
:100CC000013006F01DFD00F1004030E6C34398B24C
:100CD000013006F015FD00F1004016E6C34398B25E
:100CE000013006F00DFD00F10040FCE5C34398B271
:100CF000013006F005FD00F1004052E5C34398B213
:100D0000013006F0FDFC00F1004038E5C34398B225
:100D1000013006F0F5FC00F100401EE54EF2041231
:100D2000CEF20002E1691160E07A57E7034644E73A
:100D300009F10040A6E700264FF00008E9E68146E9
:100D400012E64CF25811C1F6FF7191F82D20FFF711
:100D5000D9BB4CF23415C1F6FF756A7A1FE409F16C
:100D60000040A0E7F8B54BF22425C1F6FF75EB7AF9
:100D700033B372B6EB7ADF071A4609D54EF280100C
:100D8000CEF20000EA6801681140A9611A460160CC
:100D90009E0709D54EF28412CEF200022B6911682B
:100DA0000B40EB611360EA7A540708D54EF28812C3
:100DB000CEF200026B6911680B402B62136062B6C1
:100DC0002B680022D968C3F60202914200F0D98252
:100DD0000020014644F201064CF25814C8F23F01CB
:100DE000C0F23F06C7F60200C1F6FF741E60DA606B
:100DF0001861196094F82D1047F6DC76C0F20006F1
:100E0000012256F831104FF00047602081F8002190
:100E100081F8802081F80021DF625863DA6A002AB5
:100E2000FCDA4FF00040B6229F6BD8625A63DA6A50
:100E3000002AFCDA01279B6B81F8807004F066FDC4
:100E400094F82D20EB7A56F832104BF2242281F8D8
:100E50000071C1F6FF7281F880701946CBB1D807D6
:100E600006D54FF46141CEF2000192690A6019463D
:100E70009B0706D54EF20413CEF20003EA691A600E
:100E8000E97A4F0705D54EF20813CEF200032A6A1D
:100E90001A6004F03BFDEA7A4BF22423C1F6FF739B
:100EA00032B372B6DA7AD007114609D54EF28017FE
:100EB000CEF20007D968386808409861114638605A
:100EC000970709D54EF28412CEF200022B69116801
:100ED0000B40EB611360E97A480708D54EF288129F
:100EE000CEF200026B6911680B402B62136062B690
:100EF0002B680022D968C3F6020291420DD000206F
:100F0000014644F20107C0F23F07C7F60200C8F2EB
:100F10003F011F60DA601861196094F82D2056F8BF
:100F2000321001274FF00040722281F80071D86220
:100F30005A63DA6A002AFCDA4FF0004062789F6B4D
:100F4000D8625A63DA6A002AFCDA4FF00040742251
:100F50009F6BD8625A63DA6A002AFCDA4FF00040CD
:100F6000E2789F6BD8625A63DA6A002AFCDA4FF0A3
:100F7000004075229F6BD8625A63DA6A002AFCDA55
:100F80004FF0004022799F6BD8625A63DA6A002AD8
:100F9000FCDAEA7A9B6B01274BF22423104681F896
:100FA0008070C1F6FF73C2B1D10705D54FF461411E
:100FB000CEF200019B690B60930706D54EF2041335
:100FC000CEF20003EA691A60E87A470705D54EF2C7
:100FD0000813CEF200032A6A1A6004F097FCEA7A3A
:100FE0004BF22423C1F6FF7332B372B6DA7AD0071C
:100FF000114609D54EF28017CEF20007D96838683D
:101000000840986111463860930709D54EF2841262
:10101000CEF200022B6911680B40EB611360E97A94
:101020004F0708D54EF28812CEF200026B691168A4
:101030000B402B62136062B62B680022D968C3F69E
:10104000020291420DD00020014644F20107C0F295
:101050003F07C7F60200C8F23F011F60DA6018615F
:10106000196094F82D2056F832004FF00041012607
:10107000882280F80061D9625A63DA6A002AFCDAB1
:101080004FF0004122789E6BD9625A63D96A0029D9
:10109000FCDA996B4FF00047DF62CEB25A63D96A2F
:1010A0000029FCDA996B46EA01214FF00046DE6226
:1010B000A1815A63D96A0029FCDA996B4FF0004785
:1010C000DF62CEB25A63D96A0029FCDA996B46EA2C
:1010D00001214FF00046DE6221825A63D96A00295D
:1010E000FCDA996B4FF00047DF62CEB25A63D96ADF
:1010F0000029FCDA996B46EA01214FF00046DE62D6
:1011000061825A63D96A0029FCDA996B4FF0004773
:10111000DF62CEB25A63D96A0029FCDA996B46EADB
:1011200001214FF00046DE62E1815A63D96A00294D
:10113000FCDA996B4FF00047DF62CEB25A63D96A8E
:101140000029FCDA996B46EA01214FF00046DE6285
:10115000A1825A63D96A0029FCDA996B4FF00047E3
:10116000DF62CEB25A63D96A0029FCDA996B46EA8B
:1011700001214FF00046DE62E1825A63D96A0029FC
:10118000FCDA996B4FF00047DF62CEB25A63D96A3E
:101190000029FCDA996B46EA01214FF00046DE6235
:1011A00021835A63D96A0029FCDA996B4FF0004712
:1011B000DF62CEB25A63D96A0029FCDA996B46EA3B
:1011C00001214FF00046DE6261835A63D96A00292B
:1011D000FCDA996B4FF00047DF62CEB25A63D96AEE
:1011E0000029FCDA996B46EA01214FF00046DE62E5
:1011F000A1835A63D96A0029FCDA996B4FF0004742
:10120000DF62CEB25A63D96A0029FCDA996B46EAEA
:1012100001214FF00046DE62E1835A63D96A00295A
:10122000FCDA996B4FF00047DF62CEB25A63D96A9D
:101230000029FCDA996B46EA01214FF00046DE6294
:1012400021845A63D96A0029FCDA996B4FF0004770
:10125000DF62CEB25A63D96A0029FCDA996B46EA9A
:1012600001214FF00046DE6261845A63D96A002989
:10127000FCDA996B84F82A104FF000470121E1262F
:1012800080F8801080F80011DF625E63D96A00295F
:10129000FCDA4FF000419E6BD9625A63D96A00298B
:1012A000FCDA996B4FF00047DF62CEB25A63D96A1D
:1012B0000029FCDA996B46EA01214FF00046DE6214
:1012C000A1845A63D96A0029FCDA996B84F82B103F
:1012D0004FF00041D9625A63D96A0029FCDA9E6B4B
:1012E0004FF000413601D96206F47F665A63D96A2D
:1012F0000029FCDA996BC9B201F00F073E434FF0A9
:101300000047E684DF620E095A63D96A0029FCDAD5
:10131000996B090101F47F6131434FF00046DE62B1
:1013200021855A63DA6A002AFCDA9B6BEA7A84F830
:101330002C3001244BF22423114680F88040C1F662
:10134000FF73CAB1D00706D54FF46141CEF2000158
:101350009B690B601146920706D54EF20413CEF23C
:101360000003EA691A60E97A4B0705D54EF20813C3
:10137000CEF200032A6A1A600120BDE8F84004F0AA
:101380001FBB4CF25814C1F6FF7494F82D1033E5CE
:101390002DE9F04F4FF24403C4F20F034FF48032B3
:1013A00095B01A6072B64EF218034CF250114EF618
:1013B0000452C1F6FF71CEF20003CEF200021B68A8
:1013C00002910C68126862B6520102D5322B88BFB6
:1013D0000134C3F50C3348F6396703F27F23C3F6B3
:1013E000E3074FF47A72A7FB031302FB04F44EF2F7
:1013F00018094EF60458029D04EB5314CEF200096E
:10140000CEF200080A2672B6D9F800102A68D8F879
:1014100000E062B6C1F50C3303F27F23A7FB0303A0
:101420001EF0806FC4EB53134FF47A7002D0322950
:1014300088BF013200FB0233B3F57A7F04D3013E4B
:101440000CD004F57A74DEE74CF25413C1F6FF7346
:101450001B78002BD7D102F099FFD4E741F210039B
:101460004BF21002C4F20402C4F2FE3301214FF425
:10147000A27483F880121460106841F604074CF2DD
:101480000403C4F20403C4F2FE3720F0200010600D
:1014900087F880121C601C684BF67C40C1F6FF7018
:1014A0004FF288074FF2C802AC4624F020040546EC
:1014B000C4F20F07C4F20F0206901C601020022332
:1014C0003860402413604FF2840EA9704FF2C401BB
:1014D0006E702C70C4F20F0EC4F20F016546CEF888
:1014E000000010260B60022700BF00BF00BF013CB8
:1014F00014F0FF041360F2D14BF64830C1F6FF70D0
:101500002346162217214BF2242BC1F6FF7B0295AE
:1015100002F050FE4CF258054BF67030C1F6FF75E4
:10152000C1F6FF70012314221521059502F042FE39
:10153000DBF804306E700822AA7093E80600802061
:101540006860086802430A6041F2010ADBF8002083
:10155000D14644F201010020C0F21F01C3F6000A87
:10156000C7F60009C8F21F001160C2F80CA0C2F84B
:10157000109010609BF8092003900D46991847F6CB
:10158000DC7E91F82410C0F2000E0EEBC1010A328D
:10159000496853F822200A609BF80810CDF804E04F
:1015A0005A1803EB8101127EC8690EEBC2024CF29D
:1015B0003418526810609BF80A20981803EB8203D5
:1015C00090F83020D3F834C00EEBC2024FF4C05074
:1015D00051684FF44043C1F6FF78C4F20403C4F2EB
:1015E000FE30C1F800C001224FF4A27188F80970E2
:1015F00080F8802219601868019920F02000186096
:1016000051F83730DBF8040083F880200768416820
:101610003B6804920B433B60DBF80030039A1D608B
:10162000C3F80CA0C3F810901A609BF80970019AD7
:10163000C3190A3793F8243050F8271002EBC3037C
:1016400006275B6819609BF8083000EB030E00EB7F
:1016500083039EF818E0DB6902EBCE0EDEF804107F
:101660000B609BF80A3000EB030E00EB83039EF83F
:1016700030005B6B02EBC0004068036002F026FAAA
:10168000032388F8063004F037F888F8057004F072
:1016900033F8042388F8083001F066FC88F80770F6
:1016A00001F062FC4CF25813C1F6FF7341F20C00DA
:1016B0004BF20C01C4F20401C4F2FE30092783F896
:1016C0002D70049A80F880224FF4A2730B60086892
:1016D000019F20F020000860BB6CDBF8041083F849
:1016E000802091E80C00106803431360DBF80030A1
:1016F000039A1D60C3F80CA0C3F810901A609BF801
:101700000930CA180A3392F8242051F8230007EB55
:10171000C2035B6818609BF80830CA1801EB8303AA
:10172000127ED86907EBC2035B6818609BF80A3029
:10173000CA1801EB830192F830304A6B07EBC30300
:101740004FF480775B681A60FFF70CFB4BF64C4256
:1017500040F60C004AF20C01C1F6FF72C4F204011B
:10176000C4F2FE304BF270134FF0120EC1F6FF734D
:1017700082F814E080F880420F604BF6244219781A
:10178000C1F6FF724BF62247B1421470C1F6FF77E3
:1017900006D01E703B78002B40F0CE8201F0C4FFD3
:1017A0003B78002B40F0AA844BF224000146C4F29F
:1017B0000B01C4F203004BF648430624C1F6FF7345
:1017C00004604BF271120C60C1F6FF721C78102697
:1017D00016703CB13C7800221A70002C40F0B682A2
:1017E00001F0A2FF4BF678424BF670304BF6C02367
:1017F0001546C1F6FF7001211C4602F035F82A4655
:10180000C1F6FF722346C1F6FF73002415464BF65E
:10181000C420049221464022C1F6FF7007931C7039
:101820002C7004F021FA4EF204154BF67032C1F61A
:10183000FF72CEF200054BF648334EF288114EF29D
:101840000810C1F6FF730D92CEF20001CEF2000037
:101850000B950122029D0A9109900392984698F8EF
:10186000026098F804704FF0000966B14BF64830FA
:1018700009F10109C1F6FF70394601F0F5FF5FFA81
:1018800089F3B342F2D34BF64830C1F6FF7098F8B3
:10189000031001F0E9FF98F804605CB100274BF6F3
:1018A00048300137C1F6FF70314601F0DDFFFBB271
:1018B0009C42F4D802F0C6FC98F8027098F80490A4
:1018C000064677B14FF0000A4BF648300AF1010A9C
:1018D000C1F6FF70494601F0C7FF5FFA8AF39F42E5
:1018E000F2D8002E40F03D81079A0C951378013311
:1018F0004EF284114EF280101370039BCEF2000161
:10190000CEF20000B146029108909A4698F8026023
:1019100098F80470002556B14BF648300135C1F6F1
:10192000FF70394601F0A0FFEBB2B342F4D34BF69F
:101930004830C1F6FF7098F8031001F095FF98F851
:1019400004605CB100274BF648300137C1F6FF70E8
:10195000314601F089FFFBB2A342F4D39BF80B6040
:101960004BF22423C1F6FF73EEB172B6DA7AD007D8
:10197000114606D5089DD968286808409861114627
:101980002860970709D50299DBF810300A681340E0
:10199000CBF81C300B609BF80B104E0700F1C38195
:1019A00062B69BF80B60DBF800200023D168C3F619
:1019B000020399420DD044F20101C0F23F011160CF
:1019C00000200021C7F60200C8F23F01D360106179
:1019D000116000BF00BF00BF00BF00BF00BF00BF5D
:1019E00000BF00BF00BF00BF00BF00BF00BF4FF07F
:1019F00000410323D1625363D36A002BFCDA4FF01A
:101A00000043916BD362C2F83490D36A002BFCDAA6
:101A1000059B916B5B784CF25801C1F6FF7193B155
:101A2000581EC0B210AB01300D78184419464FF063
:101A30000047D7625563D36A002BFCDA936B01F839
:101A4000013B8142F5D100BF00BF00BF00BF00BF16
:101A500000BF00BF00BF00BF00BF00BF00BF00BF8E
:101A600000BF00BF00BF00BF00BF00BF00BF00BF7E
:101A700000BF00BF00BF00BF00BF00BF00BFC6B1B6
:101A8000F50708D54FF46143CEF20003DBF81820C8
:101A90001A609BF80B60B00705D50B9ADBF81C3079
:101AA00013609BF80B60710703D5099ADBF82030AF
:101AB000136098F8026098F80470002556B14BF650
:101AC00048300135C1F6FF70394601F0CDFEEBB26A
:101AD0009E42F4D89DF841109DF840209DF84200A8
:101AE0009DF843300A4402449DF844009DF8451097
:101AF000134403449DF846209DF8470019440A44C6
:101B00009DF848309DF84A1002449DF8490013445E
:101B100003449DF84B209DF84C0019440A449DF85D
:101B20004D309DF84E10024413449DF84F200B4455
:101B3000DA420BD04BF6C4220AF1FF33DBB2C1F616
:101B4000FF720121D154049B83F800A009F1100910
:101B50000AF1010AB9F1800F5FFA8AFA7FF4D6AE72
:101B60000C9D72B64EF218034EF60452CEF20003EC
:101B7000CEF200021B682E68126862B6570102D5C9
:101B8000322B88BF0136C3F50C3348F6396903F2AE
:101B90007F23C3F6E3094FF47A72A9FB031302FB18
:101BA00006F64EF218004EF6045A06EB5316CEF225
:101BB0000000CEF2000A7D2772B601682A68DAF8C2
:101BC00000E062B6C1F50C3303F27F23A9FB03C327
:101BD0001EF0806FC6EB53134FF47A7C02D032298B
:101BE00088BF01320CFB0233B3F57A7F04D3013F87
:101BF0000ED006F57A76DFE74CF25413C1F6FF7388
:101C00001B78002BD8D1029002F0C0FB0298D3E7DA
:101C10004BF67036C1F6FF763046394601F024FEA9
:101C2000039B0134E4B20833DBB2082C03937FF446
:101C300016AE049B0295187801F036FEB47836791A
:101C400064B1029D4BF670300137C1F6FF7031462A
:101C500001F00AFEFBB29C42F4D802954BF6043325
:101C60004BF670301C46C1F6FF70012101F0FCFDFF
:101C70002346C1F6FF7300244BF608302146C1F617
:101C8000FF7040220C931C700E940F9403F0ECFF35
:101C9000049B1B7813B34BF6C423C1F6FF734FF2BA
:101CA000C4084EF604570793DDF808A008940123F2
:101CB0002646C4F20F08CEF200070593CDF80CB00B
:101CC000079B9B5D002B5AD10136730741D0049BC3
:101CD0001B789E423DD0F6B29E42F1D30D9A957884
:101CE0001679002455B14BF670300134C1F6FF70FF
:101CF000314601F0B9FDE3B2AB42F4D310AC4BF680
:101D0000703014F8011DC1F6FF7001F0ADFD0EAB8F
:101D10009C42F4D14BF63543C1F6FF7301221A7091
:101D200015B0BDE8F08F0A99DBF814300A6813404B
:101D3000CBF820300B6033E64BF224021346C4F29A
:101D40000B03C4F2030214601C6027E502600A6002
:101D500046E54BF67030C1F6FF70002101F084FDBE
:101D6000089B9DF8140014AAD1185A1CD2B2049BE7
:101D7000089201221B7801F8180C0592ABE7039C2E
:101D8000636893E805004BF680450168C1F6FF756E
:101D900011432A68016021680A9541F20100254635
:101DA00044F20104C0F21F04C3F600000C60C860D6
:101DB00041F201040020C7F60004C8F21F000C61C4
:101DC0000860697A58180A3190F8240053F82140C5
:101DD000019901EBC001C6EBC60049680B900C608D
:101DE0000399097A0546581803EB8101047EC869F6
:101DF00001998E4601EBC4012A44496808600399A1
:101E0000897A581803EB810390F83010586B0EEB69
:101E1000C1034FF2C8045B680021186048F63969B5
:101E20000423C2F80310A2F80110C4F20F04C3F691
:101E3000E30909935546069A11789378C1B1002BAE
:101E400040F060814FF2880CC4F20F0C1A464FF03C
:101E5000100A0220CCF800A0C8F8000000BF00BFA4
:101E600000BF01325FFA82FE8E452060F2D3069AEF
:101E70005278002A00F03B814FF28402C4F20F0234
:101E8000102111600222C8F8002000BF00BF00BF6F
:101E90002260A6B1002B40F04B814FF28801C4F2C2
:101EA0000F014FF0100EC1F800E0C8F8002000BF8D
:101EB00000BF00BF0133D8B2B0422260F3D3039B0E
:101EC000D97A0A9BD3F800A04BF22423C1F6FF7302
:101ED00011B372B6D87AC20784460AD54EF2801E74
:101EE000CEF2000EDA68DEF8001011409961CEF8EB
:101EF000001083070BD54EF28411039ACEF2000135
:101F0000136908680340D3610B6092F80BC01CF0A2
:101F1000040F40F0378162B6039B1B6842F2030155
:101F2000D868C3F6010188420FD044F20100C0F224
:101F30003F00186042F2030E0020C7F6010EC8F2FF
:101F40003F00D960C3F810E018600B9B0AEB030256
:101F5000D11C0846042201F065FE039BDB7A4BF29C
:101F600024211A46C1F6FF71DBB1D80706D54FF41C
:101F70006142CEF20002896911601A469B0707D5BB
:101F800003994EF20413CEF20003CA691A60CA7AAA
:101F9000500706D5039A4EF20813CEF20003126AD8
:101FA0001A6006990A788B78AAB1002B40F0D58088
:101FB0004FF2880EC4F20F0E4FF0100C0221CEF833
:101FC00000C0C8F8001000BF00BF00BF0133D8B286
:101FD00090422160F3D372B64EF21803CEF20003A2
:101FE0001B682A68396862B6490102D5322B88BF5E
:101FF0000132C3F50C334FF47A7A03F27F23A9FB45
:1020000003130AFB02F24EF2180002EB531ACEF24F
:1020100000004FF0040B72B601682A68D7F800E0A0
:1020200062B6C1F50C3303F27F23A9FB03C31EF094
:10203000806FCAEB53134FF47A7C02D0322988BFE9
:1020400001320CFB0233B3F57A7F05D3BBF1010BF0
:102050000ED00AF57A7ADEE74CF25413C1F6FF731C
:102060001B78002BD7D1029002F090F90298D2E7AA
:10207000099B013B13F0FF0309937FF4DCAE0A9B3D
:102080001C680B9B1C44AA46A179607901F0E8FB0F
:10209000E3789B0940F08180401105F035FB41F663
:1020A0000311C3F6C85105F083FB0021C4F2482197
:1020B00005F074FA0021CCF2A011044605F02AFDC7
:1020C00040B100212046C4F2AA2105F019FD0028E4
:1020D0007FF4FAAD0C98037801214BF608320B44DB
:1020E000C1F6FF720370002391550593ECE54FF2A2
:1020F0008802C4F20F0210211160C3E600F0D8FC80
:10210000FFF752BB4FF2840CC4F20F0C00224FF0C9
:10211000100A0220CCF800A0C8F8000000BF00BFE1
:1021200000BF01325FFA82FE71452060F2D89EE660
:102130004FF284001346C4F20F0000224FF0100E3D
:10214000C0F800E0C8F8003000BF00BF00BF013297
:10215000D1B2B1422360F3D3B1E64FF2840EC4F2A0
:102160000F0E00234FF0100C0221CEF800C0C8F86B
:10217000001000BF00BF00BF0133D8B29042216001
:10218000F3D328E74EF28811039ACEF20001536987
:102190000868034013620B60BDE60C984BF60832EA
:1021A000C1F6FF720378012191550B44099A0592FB
:1021B000037089E5704700BF2DE980484BF618533E
:1021C00083B04BF6D0454BF6D1464BF6D4484BF690
:1021D000145A4BF615594BF6405748F2340B4FF44E
:1021E0004044C1F6FF73C1F6FF75C1F6FF76C1F634
:1021F000FF78C1F6FF7AC1F6FF790193C1F6FF7748
:10220000C4F2040BC4F206040BE0DBF80020500516
:1022100011D4DBF80020110513D4DBF80020D20420
:1022200015D4DBF800205303EFD502F0E1FBDBF817
:1022300000205005EDD501F03FFFDBF8002011052F
:10224000EBD501F0BDFEDBF80020D204E9D5227900
:1022500093060DD5E1792A78307801323F2AC8BF3C
:1022600000229042C9B203D0D0B208F80210287000
:10227000E278D2B2100609D45206D2D5227953069A
:10228000CFD500212C223970E270CAE721790906E6
:10229000F2D59AF8000099F80010C9B288420DD022
:1022A0000131272988BF0020019B8CBF0146C8B29D
:1022B000595CC9B2E17189F80000DDE76C21E17079
:1022C000DAE700BF08B5FFF777FF00BF4EF208134B
:1022D000CEF200034FF400002DE9F04318604FF0F8
:1022E000807018604FF00070186048F204014FF0E1
:1022F00080601860C4F203014FF0006048F2080CDF
:1023000048F20C0548F214021860C4F2030C0020D5
:10231000C4F20305C4F2030248F21C040860282337
:102320004BF6FF71C4F20304CCF8001048F2240EFF
:102330002B6048F22C07136048F2340648F23C0543
:1023400048F244022360C4F2030EC4F20307C4F24D
:102350000306C4F20305C4F203024FF40044C4F2BE
:102360000304CEF800303B6033602B601360092219
:10237000226049F2040E49F2080749F20C0649F2BC
:1023800014054FF41044C4F2030EC4F20307C4F260
:102390000306C4F20305C4F20304CEF8000039605A
:1023A00048F2040E336048F208072B6048F20C062E
:1023B000226048F214054FF40044C4F20B0EC4F23C
:1023C0000B07C4F20B06C4F20B05C4F20B04CEF8E3
:1023D000000085B0396033602B60226001F0A4F901
:1023E000192003F0CFF872B6002307200621C4F2AB
:1023F0000203C4F20200C4F20201702241260F253A
:1024000080241A7006701A460D701C7013781B0613
:10241000FCD50823C4F202031B6862B649F27F624E
:10242000C0F29802934298BF0A224CF6CD4698BF5C
:102430005343CCF6CC46A6FB0312D20802EB820132
:10244000A3EB410330338DF804301346002A00F02B
:10245000EE8001A804460021A6FB0352D20802EB3D
:102460008205A3EB4503303304F8013F01311346E5
:10247000002AF1D104AC0C4401AA0A4404F80B3C34
:102480001478057800F8014B0133CC1AA34202F806
:102490000159F5DB9DF804304BF28C11002B00F054
:1024A000C980C1F6FF719DF805204B80002A00F01D
:1024B000C5809DF806308A80002B00F0C1809DF811
:1024C0000720CB80002A00F0BD809DF808300A81EB
:1024D000002B00F0B9809DF809204B81002A00F004
:1024E000B5809DF80A308A81002B00F0B1809DF8FC
:1024F0000B20CB81002A00F0AD809DF80C300A82C1
:10250000002B00F08F809DF80D204B820920002ABF
:1025100000F089808A82162048F20003C1F6FF731A
:1025200048F234040022C4F2040408701A605A60AD
:102530009A60DA601A615A619A61DA611A625A62C3
:102540009A62DA621A635A639A63DA631A645A64A3
:102550009A64DA641A655A659A65DA651A665A6683
:102560009A66DA661A675A679A67DA67C3F880204C
:102570002168C3F8842042F29C05C4F2070541F4A7
:10258000802142F2B0002160C4F20700C3F30721AA
:1025900042F2B4092970C4F20709C3F307414FF4AA
:1025A000025C42F2880E42F210070170C4F2070C7E
:1025B000C4F2070EC4F207071B0E42F294084FF450
:1025C000045642F2840089F80030C4F20708FF2361
:1025D000C4F20706C4F207004EF249454EF2081451
:1025E00042F208118CF80030CEF200058EF800306F
:1025F000CEF200043B70C4F20701012388F80030DA
:102600004FF0700E32704FF400770370102240F2DA
:10261000131085F800E027600A7005B0BDE8F043AC
:1026200002F0B0BF082001304000C0B274E78DF85E
:1026300005202FE71846C1F6FF71F4E70120F2E705
:102640000220F0E70320EEE70420ECE70520EAE7AC
:102650000620E8E70720E6E7FEE700BFFEE700BF49
:1026600008B54BF27803C1F6FF73D3F8E02048B108
:1026700069461044A1F58051884205D2C3F8E000B4
:10268000104608BD104608BD03F0C0FA0C230360D5
:102690004FF0FF3008BD00BF08B542F20E03C4F290
:1026A00005034CF220521A804DF628121A8000BF02
:1026B00000BF4FF40053C4F2050310221A8048F201
:1026C0003003C4F204034FF010621A6048F238037A
:1026D000C4F2040343F68272C0F204021A6048F2A4
:1026E0003C03C4F204030122C2F600321A604DF228
:1026F0001002C4F20302136813F4807307D14DF281
:102700001401C4F203010B604FF4A85313604DF29F
:102710000203C4F207031A78100703D51A7842F0AF
:1027200008021A704FF46043C4F207032A221A7099
:1027300048F22C2148F220734BF6A022C0F200018F
:10274000C1F6FF73C1F6FF72934204D251F8040F31
:1027500043F8040BF8E74BF6A0234CF2D412C1F671
:10276000FF73C1F6FF720021934202D243F8041BAB
:10277000FAE748F2002040F200010023C1F6FF70A2
:10278000C0F2000151F8232040F82320013348F221
:1027900000226F2BC1F6FF72F4D14FF464434EF266
:1027A0005F41CEF200038020CEF2000103F8010B5E
:1027B0008B42FBD14EF60853CEF200031A604FF461
:1027C000A043C4F206038A221A704FF48043C4F275
:1027D000060324225A70A0221A709A799107FCD518
:1027E0009A79D206FCD44FF48042C4F2060293795F
:1027F00003F00C03082B4FF48043C4F20603F6D118
:1028000003221A714C225A719A799406FCD54FF41E
:102810008042C4F2060291794FF480434806C4F224
:102820000603F8D548F24402C4F204024FF00171E5
:10283000116048F24802C4F204020421116020220F
:102840001A709A7902F00C020C2AFAD148F20403A9
:10285000C4F204034FF48652C0F205021A604EF22D
:102860001403CEF2000343F27F22C0F202021A6088
:102870004EF21803CEF2000300241C604EF2100347
:10288000CEF2000307221A604EF62053CEF2000368
:102890002246C2F220021A6062B6FFF717FD4DF21F
:1028A0001403C4F203031A68D10719D54DF20401C9
:1028B000C4F203011C600C604FF45041C4F20301E8
:1028C0004CF26B32C5F693720A6010221A604EF217
:1028D0001C02C4F203024CF2A531C5F6942111602A
:1028E0004FF47042C4F20702127852061DD54EF220
:1028F0001C02C4F203024CF2A5311068C5F6942103
:10290000884212D14DF20404C4F20304002119607C
:1029100021604FF450444CF26B30C4F20304C5F60E
:102920009370206010201860116003F075F900F0BA
:1029300075FA00BFB0F5006F1FD2F0B50124C4F2E4
:10294000020405462378D80785B00E4616D505F152
:10295000A0500378B3420ED00022C4F202021378D2
:1029600013F0700318BF137001220670C4F2020244
:102970001378DB07FCD505B0F0BD704747F64C7304
:10298000C0F200036F46596818689A68DB680FC781
:1029900023789907EE4628D50022C4F202020720C8
:1029A0001378C4F2020013F070034FF0040118BF53
:1029B0001370C4F2020180240B220A230470C4F2B3
:1029C0000202C4F2020300240C70332003211070B1
:1029D000197072B6C4F202044EF001032046984703
:1029E00062B6237813F0700312D140F641530124EC
:1029F000C0F20303C4F2020401E0013BA7D0227835
:102A0000D207FAD505F1A0500378B342A4D1B2E7BA
:102A100023709CE7F0B547F64C73C0F2000385B015
:102A2000596818689A68DB686C460FC40123C4F2C1
:102A300002031B78990729D50022C4F2020207205D
:102A4000137813F0700318BF1370C4F2020004214E
:102A50000B220A23C4F20201C4F20202C4F20203EE
:102A6000802707700026332403200E706D461470F3
:102A7000187072B63446C4F2020445F001052046CF
:102A8000A84762B6237813F070030ED140F6415385
:102A90000121C0F20303C4F2020101E0013B02D0B4
:102AA0000A78D207FAD505B0F0BD237005B0F0BDA5
:102AB0004BF224021146C4F20B01C4F20302136864
:102AC0001B06FCD40B6813F08003F8D172B64BF6EA
:102AD0007832C1F6FF7292F8AA10002900F0B68091
:102AE000F0B44BF23C014BF238044BF24000C4F21C
:102AF0000304C4F20300C4F203014BF24407256847
:102B000009680468C4F203074BF24800C4F20300EA
:102B10004BF24C060D44C4F20306396800682C449D
:102B20000C443168204401444BF22C05C4F20305E7
:102B3000C1F34E014BF258044BF25C064BF26000BD
:102B400041F40041C4F20304C4F20306C4F20300DA
:102B500029604BF26407256831680468C4F20307F2
:102B60004BF26800C4F203004BF26C060D44C4F251
:102B70000306396800682C440C4431682044014441
:102B80004BF23005C4F20305C1F34E014BF2380499
:102B90004BF23C064BF2400041F40041C4F20B04FE
:102BA000C4F20B06C4F20B0029604BF244072568FF
:102BB00031680468C4F20B074BF24800C4F20B0002
:102BC0004BF24C060D44C4F20B06396800682C44E5
:102BD0000C443168204401444BF22C05C4F20B052F
:102BE000C1F34E014BF258044BF25C064BF260000D
:102BF00041F40041C4F20B04C4F20B06C4F20B0012
:102C000029604BF26407256831680468C4F20B0739
:102C10004BF26800C4F20B004BF26C060D44C4F298
:102C20000B06396800682C440C4431682044014488
:102C30004BF23000C4F20B00C1F34E0141F40041ED
:102C4000016082F8AA3062B6F0BC704762B6704785
:102C50002DE9F84F47F64C73C0F20003184490F882
:102C60001090B9F1FF0F00F0D5804BF67834C1F623
:102C7000FF7494F8AA30002B40F0818019F0800F87
:102C800040F0838072B64CF25416C1F6FF764FF4D2
:102C90003045B046C4F203050123C5F8009084F81E
:102CA000AB3062B64BF64A67C1F6FF774BF64C6C19
:102CB0004BF6415E4BF642504BF6D041C1F6FF7CDD
:102CC000C1F6FF7EC1F6FF70C1F6FF7172B62B68C8
:102CD0001A0645D494F8AB30002BDDD062B63378B9
:102CE000002BF3D14BF6D142C1F6FF72B7F800A02A
:102CF00088F80030BCF800309EF8003003780B787C
:102D00001378EFF30583002BE0D1EFF3108172B657
:102D10004CF26003C1F6FF731868E8B14CF2640A24
:102D2000C1F6FF7A9AF80020B2B9D0F814E0C3F8DF
:102D300000E001238AF80030BEF1000F01D0CEF888
:102D4000182001B962B64FF0000B80F81DB08368FF
:102D500098478AF800B0A9E70029A7D162B6A5E78D
:102D60004BF21003C4F2030300221B6884F8AB206B
:102D700062B694F8AC0043FA00F0BDE8F88FFFF7B4
:102D800097FE19F0800F3FF47DAF72B64BF20C0541
:102D900009F040064FF430484CF2541AF6B209F0EC
:102DA0003F09C4F20B05C4F20B08C1F6FF7A0127F4
:102DB0002B685EB323F010032B60C8F8009084F8F2
:102DC000AD7062B672B6D8F800301B060FD494F816
:102DD000AD30002BECD062B69AF80030002BF1D168
:102DE00001F0D4FA72B6D8F800301B06EFD54BF2DA
:102DF0001003C4F20B0300221B6884F8AD2062B6F6
:102E000094F8AC0043FA00F0BDE8F88F43F01003EB
:102E10002B60D2E70020BDE8F88F00BF4FF24805D5
:102E200080B5C4F20F05002002F05CFD30264FF49F
:102E3000803349F23004C4F204042B60C4F2FE363D
:102E4000012002F04FFD00274FF4003240F203133F
:102E50002A60042086F88072236002F043FD4FF25E
:102E6000040141F21C024BF21C03C4F20F01C4F234
:102E7000FE32C4F204034FF28805C4F20F054FF48A
:102E800080784FF40050086082F880720B20C3F8FD
:102E90000080402702F026FD2F600D2002F022FD69
:102EA00020232B60092002F01DFD4FF28403C4F2A1
:102EB0000F0308221A60022002F014FD4FF2C4032F
:102EC000C4F20F0301221A6002F014FE4BF67833AD
:102ED000C1F6FF7325212422197283F88C201F70FC
:102EE000236813F4E06308BF86F8803248F20023B9
:102EF00008BFC4F80080C1F6FF734AF23D754AF27C
:102F00000D744AF2DD604AF2AD614AF27D62C1F6AB
:102F1000FF75C1F6FF74C1F6FF70C1F6FF71C1F60F
:102F2000FF72C3F89C51C3F8A041C3F8A401C3F8D1
:102F3000A811C3F8AC2172B649F23003C4F20403FD
:102F40004BF278011A68C1F6FF7122F4702243F245
:102F50008D5042F08574C0F200001A60C1F8D800AC
:102F60001C6062B605F050F970B44BF22421C1F632
:102F7000FF71CB7A33B372B6CB7AD8071A4609D52C
:102F80004EF28014CEF20004CA68206810408861B6
:102F90001A4620609E0709D54EF28412CEF2000236
:102FA0000B6910680340CB611360CA7A550708D5D6
:102FB0004EF28812CEF200024B69106803400B6299
:102FC000136062B60B680022D868C3F60202904212
:102FD00072D000252C4644F201064CF23410C8F29F
:102FE0003F04C0F23F06C7F60205C1F6FF701E603F
:102FF000DA601D611C60447A47F6DC72C0F20002A0
:10300000012652F834404FF00045422284F8006116
:10301000DD625A63DA6A002AFCDA4FF00045C279B1
:103020009E6BDD625A63DA6A002AFCDA01259E6B28
:1030300084F88050C022013AFDD14FF0004643226F
:1030400084F80051DE625A63DA6A002AFCDA027AF6
:10305000986B4FF00040D8625A63DA6A002AFCDAB3
:103060000120C0229B6B84F880001346013BFDD1F8
:10307000CB7A4BF224221846C1F6FF72CBB1DC07A3
:1030800006D54FF46140CEF2000092690260184606
:103090009A0706D54EF20413CEF20003CA691A60ED
:1030A000C87A430705D54EF20813CEF200030A6A28
:1030B0001A6070BC02F02ABC4CF23410C1F6FF70EA
:1030C000447A99E72DE9F0414BF22424C1F6FF74CC
:1030D0000746E37A33B372B6E37AD9071A4609D5BD
:1030E0004EF28010CEF20000E26801681140A1614A
:1030F0001A4601609E0709D54EF28412CEF20002F4
:10310000236911680B40E3611360E27A550708D523
:103110004EF28812CEF20002636911680B402362FE
:10312000136062B623680022D968C3F60202914296
:103130007CD00020014644F201054CF23416C8F25E
:103140003F01C0F23F05C7F60200C1F6FF761D60E1
:10315000DA6018611960717A47F6DC75C0F2000513
:10316000012255F831104FF0004081F800217E22F5
:10317000D8625A63DA6A002AFCDA002F0CBF1022E8
:1031800011224FF00040D3F838E0D8625A63DA6A6F
:10319000002AFCDA4FF001089B6B81F8808002F076
:1031A000B5FB727A236855F832104FF000407E224A
:1031B00081F80081D8625A63DA6A002AFCDA002FAB
:1031C0000CBF142215224FF000409D6BD8625A6349
:1031D000DA6A002AFCDA01229B6B81F8802002F077
:1031E00095FBE37A4BF224221946C1F6FF72DBB15C
:1031F000D80706D54FF46141CEF2000192690A600A
:1032000019469A0706D54EF20413CEF20003E2697E
:103210001A60E17A4B0707D54EF20813CEF200038D
:10322000226A1A60BDE8F081BDE8F0814CF23416E4
:10323000C1F6FF76717A8FE7704700BF47F23C1204
:103240004BF25C13C4F20302C1F6FF73012111605B
:10325000DB68184747F22C124BF25C13C4F20302EE
:10326000C1F6FF73012111609B68184747F21C12D9
:103270004BF25C13C4F20302C1F6FF73012111602B
:103280005B68184747F20C124BF25C13C4F203025E
:10329000C1F6FF73012111601B6818474CF25013EF
:1032A0002DE9F041C1F6FF734BF62845C1F6FF75D5
:1032B0001A682C6801321A60002C31D02368002B68
:1032C0002CD198462E46022703E0346844B3236885
:1032D00023BBA3680BB1C3F80C8020692B60036883
:1032E00084F814801B682246002198476368002BED
:1032F000EBD030682360002800F0838001688B42A7
:1033000045D2CB1AA060C4F80C8034600360C4605E
:103310002046277504462368002BDAD0013B236042
:10332000EFF3108372B6002268686A6003B962B670
:1033300000286BD04FF000082E68C4464FF0020EF4
:103340000EE0CB1A8660C0F80CC001463360F06016
:103350004FF0010880F814E00E463846002F37D0B1
:103360008768002E39D0036831688B42E9D3344630
:1033700003E011688B4214461BD3A2685B1A0360FA
:10338000002AF6D18260C4603146A060E2E786463A
:1033900003E011688B42964625D3DEF808205B1ABD
:1033A0002360002AF5D1A260C4F80CE0CEF80840F2
:1033B000AFE7D268C2608460E060C268CB1A314671
:1033C00090600E46236080F814E03846002FC7D185
:1033D000B8F1000F1CD1BDE8F0818660C6600146DF
:1033E0004FF00108B6E7D268E260C4F808E0CEF812
:1033F0000C40E268CB1A9460CEF800302775044682
:1034000065E7A060E0603460204682E7BDE8F081B7
:103410002960BDE8F08100BF38B5EFF3108272B6C5
:103420004BF62844C1F6FF74A06878B100254369C3
:10343000A36003B19D6102B962B64577836898477E
:10344000EFF3108272B6A0680028F0D102B962B61C
:1034500038BD00BF70B44BF22423C1F6FF7348F2AD
:103460001F02196BC4F2000208791070D86A48F282
:103470001C02C4F2000204791470097911709A6A6E
:10348000002A4FD05968C9688A4247D80168CC8B56
:10349000240402F1FF3069D4C0F30E00C883C88B46
:1034A00080B2C882196B0968C88B000456D4C2F375
:1034B0000E00C883C88B002480B212F1FF32C8828C
:1034C00018BF01229C62D96A08684BF22421056862
:1034D000C1F6FF7101F12404A54237D00968CC6818
:1034E00014F0804F0468056815BF248824780235DD
:1034F000013544F0004405604C63196B48F21B032E
:10350000C4F20003097919704BF22421C1F6FF714E
:1035100012B1CA6A12791A7070BC7047521A9A6254
:103520000122D0E71968586B0A630024CFF60F74A4
:10353000CC62CC68066824F08044CC6034680325F3
:1035400083F825501146234670BC1847086891F847
:103550002410C46841F000414163CEE7CC8BC2F334
:10356000080004F47E442043C883A3E7CC8BC0F357
:10357000080004F47E442043C88390E74BF62843B8
:10358000C1F6FF7301221A73704700BFF8B54BF6FE
:103590002844C1F6FF74637B03B9F8BD2169012299
:1035A000227551B14FF40F43CBF6FC730B444EF22E
:1035B00044411B11CEF200015A544BF25C15C1F686
:1035C000FF7500212E69304604F09AFA48B94AF690
:1035D000AB21C4F6AA41304604F0A6FA07460028FB
:1035E00037D04FF208024FF24403C4F20F02C4F284
:1035F0000F034FF400554FF400300121156018609F
:10360000217672B64EF218034CF250124EF6045167
:10361000C1F6FF72CEF20001CEF200031B68106803
:103620000A6862B6520102D5322B88BF0130C3F559
:103630000C3348F6396103F27F23C3F6E3014FF4FC
:103640007A72A1FB031302FB00F202EB5313E36156
:10365000F8BD0021C4F24021304604F0A9F84FF033
:103660007C5103F09BFF04F069FA2328B9D926693D
:103670004BF62843C1F6FF7336B30123B760F360FE
:103680004FF40F43CBF6FC733344191101F144029C
:10369000531143F27D57C0F200079B0045F821709B
:1036A00003F1604330604EF244450320B060CEF237
:1036B000000503F5614302F01F020120277D4F55ED
:1036C00000FA02F21A608CE748F23C02C4F20402EB
:1036D000116841F40001116000BF4FF4E041C4F2F1
:1036E00003014FF4E242C4F2030201270F60916824
:1036F0001A61B1B147F21012C4F20302916869B1C4
:1037000047F22012C4F20302916839B147F2301235
:10371000C4F20302916809B11E6162E71646226194
:10372000AEE71646ACE700BF70B44FF4804144F2F8
:103730000102C4F20702C4F207014BF25C13E1205C
:103740006024C1F6FF730C7010701A7D4BF20806EE
:10375000082A4BF20C0530465ED00A2A6CD00C2A9F
:103760002A46C4F20306C4F20305C4F20B00C4F2F5
:103770000B020CBF35243D24122134602960046003
:1037800011604BF62842C1F6FF724BF2200092F80E
:1037900020201AB30246C4F20B02C4F20300012136
:1037A000016011605B7D012B4BF2240122D9042BB7
:1037B00029D9082B4BD9102B0B46C4F20B03C4F2AA
:1037C000030194BF862287220A601A604BF62243C7
:1037D000C1F6FF7301221A7070BC70470146C4F233
:1037E0000B01C4F2030002600A605B7D012B4BF207
:1037F0002401DCD80B46C4F20B03C4F2030180227F
:103800000A601A60E2E70B46C4F20B03C4F203013C
:1038100084220A601A60D9E72A46C4F20306C4F279
:103820000305C4F20B00C4F20B020124132134601F
:10383000296004601160A4E72A46C4F20306C4F2BA
:103840000305C4F20B00C4F20B023924EEE70B4669
:10385000C4F20B03C4F2030185220A601A60B5E7C3
:1038600041EA0020704700BF47F6DC730278C0F2DF
:10387000000391B153F83220012182F88010427880
:1038800053F83210012281F8802000BF00BF417838
:1038900053F8313083F80021704753F8322001216A
:1038A00082F80011EBE700BFF8B54BF210024BF6BF
:1038B000284441F21003C1F6FF74C4F20402C4F2BA
:1038C000FE3301274FF4A27684F8500083F880720B
:1038D0001660116841F6040E4CF20403C4F20403AE
:1038E000C4F2FE3E21F0200111608EF880721E604D
:1038F0001A684FF2880E4FF2C80122F02002C4F27B
:103900000F0EC4F20F011A60102602220023CEF817
:1039100000600A6084F8567084F8540084F85530CA
:10392000002850D04FF2840E4FF2C4070546C4F26F
:103930000F0E0846C4F20F07CEF800603A6000BFD1
:1039400000BF00BF0133D9B28D420260F4D8A66D2A
:1039500026B1304604F0DEFA94F8505028B2002622
:10396000C0EBC000A66504F0CDFA9DB36F1CC7EB99
:10397000C70132460144C31D03F8072C073399429F
:10398000FAD104237F00022194F86120A06513FB83
:103990000515FFB24BF6284384F86070E565C1F663
:1039A000FF7372B1012A0AD0A06E08B104F0B2FA16
:1039B000606E04F0A7FA23230370A066F8BD5D666D
:1039C000F2E75F66F0E7A66D002EC2D104F09AFA26
:1039D0003546D6E70127D4E7F0B583B0FFF71AF8EC
:1039E0004CF25013C1F6FF734BF628441A6801924B
:1039F000C1F6FF74019D65644CF60F75C3F65B3527
:103A000025634FF4C85525644FF4A045C4F2C3752F
:103A10004CF25810C1F6FF70A562E5620025C4F2B1
:103A2000C815E563856305254570B7258570B42500
:103A3000C5700C2505714EF28065C4F2C5751B6812
:103A4000C56300250093C4F2F0154CF258064CF201
:103A500034134BF64917C1F6FF730564C1F6FF76C0
:103A60000025C3F676176762057043F233370A20E4
:103A7000187098705871D871357004200326C4F2FC
:103A800053074BF2600245F6A9315E709E71D87003
:103A90001872C1F6FF726763C0F20001009F1D71CA
:103AA000802604F11000A7642561267502F0A2F8B3
:103AB0004BF25C13C1F6FF734CF6CD41C3F64C518B
:103AC000186903F075FEE06403B0F0BDF8B54BF281
:103AD0002425C1F6FF75EB7A33B372B6EB7ADE07B5
:103AE0001A4609D54EF28010CEF20000EA6801684D
:103AF0001140A9611A4601609C0709D54EF2841253
:103B0000CEF200022B6911680B40EB611360EA7A78
:103B1000500708D54EF28812CEF200026B69116888
:103B20000B402B62136062B62B680022D968C3F683
:103B30000202914270D00020014644F201064CF28C
:103B40003414C8F23F01C0F23F06C7F60200C1F6C6
:103B5000FF741E60DA6018611960617A47F6DC76DE
:103B6000C0F20006012256F831104FF000477E20C7
:103B700081F8002181F8802081F80021DF625863FC
:103B8000DA6A002AFCDA4FF00040B6229F6BD86256
:103B90005A63DA6A002AFCDA01279B6B81F880708D
:103BA00001F0B4FE627AEB7A56F832104BF224221E
:103BB00081F80071184681F88070C1F6FF72C3B1B8
:103BC000D90705D54FF46141CEF2000192690A6030
:103BD0009A0706D54EF20413CEF20003EA691A6082
:103BE000E87A430705D54EF20813CEF200032A6A9D
:103BF0001A6001F08BFE20786178A278E37860711A
:103C00000120A171E2712372FFF75CFA01F074FDEB
:103C1000BDE8F840FFF7A8B94CF23414C1F6FF74C0
:103C2000617A9BE72DE9F0414BF22425C1F6FF753F
:103C30002B68DC6814F0807F4FF48064C8F21F04A6
:103C40001C6053D1D70740F1B980002800F0EC8008
:103C5000012A047800F0E38044F0004495F82460E1
:103C60005C63013002F1FF3C46EA0628BCF1000F1C
:103C700000F0AD8020B1447810F8028B44EA0828A7
:103C80006C68267ABCF1020F06F1FF364FEA063661
:103C90000CBF48F0805448F01044B6B25C63ACF1FD
:103CA000020C08E009B10B700131013A04F47044D0
:103CB000B44216D92B68DC6A14F0F00FF6D09B6B77
:103CC00012F0010F0F464FEA232EEBD119B107F87E
:103CD00002EB4B70394604F47044B442A2F1020284
:103CE000E8D8BCF1000F72D02B68C3E7D4074FD5DA
:103CF000002800F0A280012A00F08B80067895F859
:103D0000244046F000465E63013002F1FF3E1FFA98
:103D100084FCBEF1000F43D028B190F801C00478B4
:103D2000023044EA0C2C6C68267ABEF1020F06F1D0
:103D3000FF364FEA06360CBF4CF080544CF010446E
:103D4000B6B25C63AEF1020E08E009B10B7001314E
:103D5000013A04F47044B44215D92B68DC6A14F0BB
:103D6000F00FF6D012F0010F0F469B6BEDD121B191
:103D700007F8023B1B124B70394604F47044B442FE
:103D8000A2F10202E9D8BEF1000F09D02B68C3E707
:103D900095F8244096461FFA84FCBEF1000FBBD173
:103DA0001AB32868C36A13F0F00FFBD0836BD007F7
:103DB0001DD509B10B700131013AF1E795F8246086
:103DC000944646EA0628BCF1000F7FF453AF62B177
:103DD0002868C36A13F0F00FFBD0D607836B0FD5AA
:103DE00009B10B700131013AF1E7BDE8F08129B169
:103DF00008461C1200F8023B4C700146023ACFE71D
:103E000029B108461C1200F8024B4B700146023AD9
:103E1000DDE704785C63013095F8244075E75C6366
:103E2000013095F824601DE795F82460012A1ABF37
:103E300046F000445C635E6314E795F82440012A71
:103E40001ABF44F000465E635C635EE772B64BF6F1
:103E50009443C1F6FF73DA78012A23D01CD3022AD7
:103E600007D0032A24D148F298020421C1F6FF7238
:103E700004E048F29002C1F6FF720521D970018872
:103E800012F0080F14BFC8238823083043EA014307
:103E90005060136062B6704748F290020321C1F689
:103EA000FF72EBE748F298020221C1F6FF72E5E7E4
:103EB0001A6922B11A6A5060186262B670471861B6
:103EC000FAE700BF72B64BF69443C1F6FF731B6965
:103ED00033B100205B680130002BFBD162B6704724
:103EE0001846FBE772B64BF69443C1F6FF73D86AE7
:103EF00048B101881A8F10B4521A4468DC621A87DC
:103F000062B610BC704762B6704700BF10B44FF481
:103F10004043C4F206031A79920611D54BF6D042FB
:103F2000C1F6FF72D9791378507801333F2BC8BF9F
:103F300000238342C9B203D0D018DBB201711370E1
:103F40004FF44041C4F20601CB78DBB21C0613D417
:103F500059060FD54FF44043C4F206031A795206AE
:103F600008D54BF6D042C1F6FF7200202C2182F812
:103F70007000D97010BC70470A791006E8D54BF66E
:103F8000D042C1F6FF7292F8444092F84500C0B2A8
:103F9000844211D0411C272986BF00242146CCB27F
:103FA00011444FF4404091F84810C4F20600C9B2E1
:103FB000C17182F84540CBE76C22CA70C8E700BFE8
:103FC000F0B44FF43043C4F206031A7912F0300F04
:103FD00025D072B6997D01F0FF0200293BD062B670
:103FE0004BF6D045C1F6FF75184695F8714095F827
:103FF0007270E4B2FFB2631C802BC17928BF00232A
:10400000BB4202F1FF32C9B203D0EE181C4686F85B
:10401000741012F0FF02EED1E4B285F871404FF453
:104020003042C4F20602D178C9B20D0618D449064E
:104030000FD54FF43043C4F206031A79520608D55F
:104040004BF6D042C1F6FF7200203C2182F8780185
:10405000D970F0BC70474022D9795A7462B6DEE755
:1040600013791C06E3D54BF6D045C1F6FF7595F8DC
:10407000F44095F8F530E4B2DBB29C4202D10EE098
:10408000A3420CD00133802B28BF0023E8181679F7
:1040900090F8F800C0B2D071107D0728F0D94FF425
:1040A0003042DBB2C4F2060285F8F5301379180607
:1040B00044BF7C23D370BAE7F0B44FF42043C4F27A
:1040C00006031A7912F0300F26D072B6997D01F0EE
:1040D000FF0200293CD062B64BF6D045C1F6FF7511
:1040E0001846B5F87A41B5F87C71A4B2BFB2631C2A
:1040F000B3F5807FC17928BF0023BB4202F1FF32B4
:10410000C9B203D0EE181C4686F8801112F0FF02E7
:10411000EDD1A4B2A5F87A414FF42042C4F20602D0
:10412000D178C9B20D0618D449060FD54FF42043F3
:10413000C4F206031A79520608D54BF6D042C1F6EE
:10414000FF7200203C2182F88403D970F0BC7047D4
:104150004022D9795A7462B6DEE713791C06E3D59A
:104160004BF6D045C1F6FF75B5F88042B5F88232FE
:10417000A4B29BB29C4202D10FE0A3420DD0013306
:10418000B3F5807F28BF0023E818167990F88402E1
:10419000C0B2D071107D0728EFD94FF420429BB2F6
:1041A000C4F20602A5F882321379180644BF7C23B4
:1041B000D370B9E770B5212905460170427047F602
:1041C000DC70C0F200000FD800EBC10250F83140A3
:1041D00052684FF4A271012684F880621160116860
:1041E00021F0200111606A78212A0ED800EBC2016B
:1041F00050F832404A6801264FF4A27184F8806278
:104200001160116821F0200111602A7850F83220E5
:10421000012182F800116A78B3FA83F650F832006F
:104220007609082280F800111446EB702E71AA70EE
:1042300031462846FFF718FB631E13F0FF04F7D141
:1042400070BD00BF70B44BF22421C1F6FF71CC7A6F
:104250003CB372B6CB7AD8071A4609D54EF2801411
:10426000CEF20004CA682068104088611A462060B7
:104270009B0709D54EF28412CEF200020B6910683A
:104280000340CB611360CA7A560708D54EF28812F4
:10429000CEF200024B69106803400B62136062B6F5
:1042A000CC7A0B680022D868C3F6020290420DD087
:1042B0000025284644F20106C0F23F06C7F6020573
:1042C000C8F23F001E60DA601D61186000BF00BFC9
:1042D00000BF00BF00BF00BF00BF00BF00BF00BFE6
:1042E00000BF00BF00BF00BF4FF000400522D862F2
:1042F0005A63DA6A002AFCDA4BF6D042C1F6FF7242
:104300004FF0004092F888239D6BD8625A63DA6AB6
:10431000002AFCDA986BC0B200BF00BF00BF00BF2C
:1043200000BF00BF00BF00BF00BF00BF00BF00BF95
:1043300000BF00BF00BF00BF00BF00BF00BF00BF85
:1043400000BF00BF00BF00BF00BF00BF00BF00BF75
:10435000CCB1E50706D54FF46143CEF200038A697C
:104360001A60CC7AA20706D54EF20413CEF20003EF
:10437000CA691A60CC7A630705D54EF20813CEF2EB
:1043800000030A6A1A6070BC704700BF38B54BF66C
:10439000D0444CF25413C1F6FF74C1F6FF730022EF
:1043A000B4F87A111A70B4F87C3194F8713094F83A
:1043B000723023786378EFF3058303B138BDEFF3F0
:1043C000108272B6D4F8900398B194F8943383B9FC
:1043D0004169C4F89013012584F8945301B18B61AD
:1043E00002B962B6002545778368984784F89453EC
:1043F00038BD002AE2D162B638BD00BF2DE9F04FCA
:104400004BF6D04585B0C1F6FF75012385F895338D
:104410000391002900F0A7804BF274134BF6984AE1
:10442000C1F6FF734CF2541BC1F6FF7A044688466E
:104430000193C1F6FF7BCDF800A006E0052385F8C7
:104440009E33B8F1000F00F08E80D5F89823002A33
:1044500000F09D805788C7F14003434528BF43467D
:10446000F81880B202F1080A0026C3EB0808508051
:1044700003F1FF3E0AEB070185F89D63002B41D055
:1044800007F108000C371744104404F1040C604590
:1044900038BFBC422CBF01270027092B94BF00273F
:1044A00007F00107002F69D044EA0007BF0765D174
:1044B0001F1FBF080137BEF1020F4FEA870C5BD9FF
:1044C000A4F104090292013659F8042F40F8042B94
:1044D000B742F8D86345029A6144CCEB0E0E04EB68
:1044E0000C0000F0B78006780E70BEF1000F41D0CE
:1044F00046784E70BEF1010F3CD08078887023441E
:1045000050881C463F2899D94023138072B64BF639
:104510009443C1F6FF73D978012900F0BE80C0F042
:10452000B680022900F0AD80032940F0978048F260
:1045300098010420C1F6FF71D8701288C1F804A058
:1045400011F0080F0CBF8823C82343EA02430B6015
:1045500062B60023C5F89833052385F89E33B8F179
:10456000000F7FF472AF0398002385F8953305B0F0
:10457000BDE8F08F2344C3E72046B4E70139234464
:1045800014F8010B01F8010F9C42F9D1B8E74FF67E
:10459000D96695F89C234BF6D04302F0FF01C1F693
:1045A000FF73002A66D072B6009BDB68002B53D0E5
:1045B00000225B680132002BFBD162B6072A0CD9BE
:1045C000013E3FD095F89D33002B3BD19BF8003046
:1045D000002BDED1FFF7DAFEDBE7012385F8953308
:1045E00072B6019B1A68B2FA82F30B2B1EDC4FF0F5
:1045F0000041D94022EA01024BF27411C1F6FF7169
:104600000A6062B648F2BC32C1F6FF7203EBC30324
:104610004BF6D04602EBC301C1F6FF76002042F80C
:104620003300C6F898130A46486013E762B64BF6A3
:10463000D042C1F6FF720023013EC2F8983382F8DF
:104640009533BFD101234FF0FF3085F89D3305B07E
:10465000BDE8F08F034653E71A46AEE7009BDB68E0
:104660004BF6A841FBB1C1F6FF71CB685A60CA6036
:1046700062B66EE74FF0FF3083F8951305B0BDE8E2
:10468000F08F48F290010520C1F6FF7154E748F21F
:1046900090010320C1F6FF714EE748F29801C1F680
:1046A000FF71022048E7009BC1F6FF71DA60DEE788
:1046B00048F2BC33C1F6FF7348F63962C31AC3F639
:1046C000E302A2FB03231B090B2B18D810B44BF6F3
:1046D000D042C1F6FF7292F89F1311B192F89C1369
:1046E00071B972B64BF27412C1F6FF724FF000400E
:1046F000116820FA03F31943116062B610BC7047C9
:1047000072B648F20001C1F6FF710C6E9CB18C6E5E
:1047100024B162B6002182F89F13E2E792F89F333A
:10472000C8240830013BC0F24004C86682F89F33B9
:104730008C6662B6E2E792F89F3388240830013B2A
:10474000C0F24004486682F89F330C6662B6D5E733
:104750004CF27402C1F6FF724BF6C843C1F6FF7308
:10476000126898881AB1138852889B1A18447047A7
:1047700070B54CF26805C1F6FF754CF26504C1F6E0
:10478000FF742E68012323702EB1708800232370DC
:10479000C0F1400070BD4CF26C03C1F6FF731B7892
:1047A00013B90020207070BDFFF78CFB0728F8D8E4
:1047B00072B64BF27412C1F6FF721168B1FA81F34E
:1047C0000B2B13DC4FF00040D84021EA00011160B0
:1047D00062B648F2BC3203EBC303DB00C1F6FF72E2
:1047E00099189E5029604E600E46CEE762B62E6044
:1047F000D7E700BF00B583B002A800F8011D012172
:10480000FFF7FCFD03B05DF804FB00BFF8B54CF208
:104810006C06C1F6FF763378ABB34CF27404C1F684
:10482000FF74206818B1FFF743FF0023236048F2AC
:10483000BC3448F63965C1F6FF74C3F6E305FFF7EB
:1048400051FB0146F8B1031BA5FB03231B090B2BEE
:10485000F5D84CF26F02C1F6FF7217780FB13778B6
:1048600097B972B64BF27412C1F6FF724FF0004066
:10487000116820FA03F31943116062B6FFF732FBA7
:1048800001460028DFD1F8BD72B648F20003C1F638
:10489000FF731F6E97B19F6E2FB162B60023137026
:1048A000FFF706FFCBE71078C82708310138C0F2C0
:1048B0004007D96610709F6662B6C0E710788827F7
:1048C00008310138C0F24007596610701F6662B6A1
:1048D000B5E700BF10B54CF27404C1F6FF74206850
:1048E00018B143881844007A10BD4CF26C03C1F62D
:1048F000FF731B7823B1FFF7F5FA20600028F0D191
:104900004FF0FF3010BD00BF38B54CF27404C1F653
:10491000FF74206878B143880288C118013393423C
:104920000D7A02D24380284638BDFFF7C1FE00232E
:104930002846236038BD4CF26C03C1F6FF731B7828
:1049400023B1FFF7CFFA20600028E4D14FF0FF3009
:1049500038BD00BF4CF26C03C1F6FF731B78DBB1AE
:1049600070B54CF26805C1F6FF754CF26504C1F6EE
:10497000FF742B68012222707BB14CF26E02C1F6EB
:10498000FF7200265988167018461980FFF75EFAE4
:104990002E600023237070BD704772B64BF2741006
:1049A000C1F6FF700568B5FA85F10B2919DC4FF0E7
:1049B0000042CA4025EA0205056062B648F2BC32F0
:1049C00001EBC101C900C1F6FF728E184CF26E05F1
:1049D000C1F6FF758B50304673602B70FFF736FAC7
:1049E000D7E762B64CF26E03C1F6FF731A70D0E7D8
:1049F0002DE9F04F42F2940389B042F298024FF44D
:104A0000035142F2C4004FF4025942F2900AC4F238
:104A10000703C4F20702C4F20701C4F20700C4F29C
:104A20000709C4F2070A00930192029103906EE015
:104A300048F200068F08C1F6FF7606EBC708013D75
:104A4000D8F8042001F00801EDB2A2F1080001F04D
:104A5000FF04002940F0C48056F837301B0C1FFAC1
:104A600083FE22F808EC002B00F0AD804BF6B84135
:104A7000C1F6FF7122F8064C51F8253042F8044C7B
:104A80004CF27804002B00F0E883C1F6FF74AB0011
:104A9000E218D26950604BF6C84BC1F6FF7B1C444C
:104AA0003BF81530E0619E442BF815E072B64BF2EE
:104AB0007412C1F6FF721168B1FA81F30B2B00F387
:104AC000D2834FF00040D84021EA0001116062B665
:104AD00048F2BC3103EBC303C1F6FF71C824C0F236
:104AE000400401EBC300882218F0080FC0F2400216
:104AF00000F1080518BF2246C8F80450002446F803
:104B0000372041F833404460082389F8003099F891
:104B10000040E4B2600723D54CF26C03C1F6FF738A
:104B20001B78D3B14CF27803C1F6FF73197A01F008
:104B3000FF0221B1013AD2B21A7202B900BE4CF2A0
:104B40006E03C1F6FF73197801F0FF0229B1013A33
:104B5000D2B21A70002A00F02183042389F80030B1
:104B600004F0080303F0FF02002B00F0AE809AF877
:104B70000010C9B20D097FF45BAF48F20008890844
:104B8000C1F6FF7808EBC10058F831304068C3F334
:104B90008303092B00F0B98050D8013B012B0ED8BC
:104BA0004CF27804C1F6FF7442F22103A5899D42BC
:104BB00000F06E82C823C0F2400348F83130009AFA
:104BC00001231370A0E7C822882318F0080FC0F251
:104BD0004002C0F2400318BF134646F8373093E74F
:104BE000FFF766FD4BF69842C1F6FF7252F82510AA
:104BF000002900F04D834BF69440C1F6FF704B68DE
:104C0000445D42F82530012C01F10803C8F8043056
:104C100000F03B83C0F03683022C00F03083032C7D
:104C200001D10423435518F0080F0A880CBF8823CC
:104C3000C82343EA024346F8373065E70D2BBED15F
:104C40004CF2780406684068C1F6FF74C823C0F2CD
:104C5000400348F831302061B3B240F28160012155
:104C60008342C8F81050C8F81850E6606561217694
:104C700000F28780B3F5D06F80F0D883B3F5817FE1
:104C800000F0688300F22483802B00F0C583822B20
:104C900040F06683238A03F07F034CF27800042BF4
:104CA000C1F6FF7000F25C834FF403519B00C4F225
:104CB000070119440023037043700B789D0740F1EE
:104CC00046840123037002258BE3E00700F17F8215
:104CD000210600F1ED82A2070CD542F28803C4F24E
:104CE00007034FF402511A78C4F20701D2B202202E
:104CF0001A700870E30605D54FF40253C4F2070397
:104D000010221A7009B0BDE8F08F4CF27804C1F699
:104D1000FF74636933B3618E257E94F831004029B6
:104D20000E4640F0020728BF4026002D85F0010501
:104D3000A1EB06010CBF4FF0880E4FF0C80E257690
:104D400008EBC70589B24EEA064280F001006B60AD
:104D5000618648F83720334484F83100002900F098
:104D600093816361A2894CF27803B2F5A06FC1F61A
:104D7000FF737FF424AF00219A7B5973019B1A7053
:104D80001DE742F22100834200F0048200F2B1816B
:104D9000B3F5086F00F01D83B3F5106F40F0E082AB
:104DA0004CF26C03C1F6FF73D8F82010A07B18708A
:104DB000090648F20003C1F6FF7300F16F83D8F8CB
:104DC000281048F200030A06C1F6FF7300F1B5830C
:104DD000D8F8301048F200030F06C1F6FF7300F157
:104DE000A783D8F8381048F200030E06C1F6FF7307
:104DF00000F19983D8F8401048F200030D06C1F67F
:104E0000FF7300F18B83D8F8481048F200030806BE
:104E1000C1F6FF7300F17D83D8F8501048F200030B
:104E20000906C1F6FF7300F16F83D8F8581048F2F5
:104E300000030A06C1F6FF7300F16183D8F8601021
:104E400048F200030F06C1F6FF7300F15383D8F850
:104E5000681048F200030E06C1F6FF7300F14583A7
:104E6000D8F8701048F200030D06C1F6FF7300F188
:104E70003783D8F8781048F200030806C1F6FF73AC
:104E800000F12983D8F8801048F200030906C1F622
:104E9000FF7300F11A83D8F8881048F200030A065D
:104EA000C1F6FF7300F10B83D8F8901048F20003AD
:104EB0000F06C1F6FF7300F1FC82D8F8981048F293
:104EC00000030E06C1F6FF7300F1ED824BF6B84306
:104ED0004BF698424BF6A8414BF6944000264BF611
:104EE000C84BC1F6FF73C1F6FF72C1F6FF71C1F680
:104EF000FF70CDF810800594CDF818903546C1F6B6
:104F0000FF7B174680461C468946CDF81CA02068CA
:104F1000A24630B14468FFF7CBFB2046002CF9D104
:104F200054464CF29403C1F6FF733868256043F889
:104F30002650A24630B14468FFF7BAFB2046002C49
:104F4000F9D1544698F800303D60032B49F8045BD2
:104F50002BF8165000F0F98140F22882042B00F063
:104F60002882052B00F0F1810136042E04F104049F
:104F700007F1040708F10108C9D14CF26F0142F2B0
:104F8000C80642F2CC00DDF81080039AC1F6FF712A
:104F9000C4F20706C4F20700002305AC4FF0150E5B
:104FA000192748F2000594E810060B70C1F6FF754A
:104FB0001370C8F83030C8F8383086F800E0C8F808
:104FC0005030C8F85830077072B64BF27410C1F602
:104FD000FF700768B7FA87F60B2E00F3C2824FF016
:104FE000004E2EFA06FE27EA0E07076062B648F268
:104FF000BC3706EBC606C1F6FF7707EBC60C882266
:1050000047F83630C0F240020CF10806CCF8043004
:105010006E662A6672B60068B0FA80F34BF27415B9
:105020000B2BC1F6FF7500F394824FF00041D9407D
:1050300020EA0100286062B648F2BC3103EBC303EA
:10504000C1F6FF7101EBC30000F10805C826C0F2EC
:105050004006C8F86C50002541F83350C8F8686025
:10506000456042F2D001C4F2070100231520C8F8C0
:105070007030C8F878300870257EC8F89030C8F8CD
:10508000983085F0010344E0402E18BF002368E605
:1050900003784678857884F83430C37884F83560AE
:1050A00084F8365084F83730636B06794579807917
:1050B00084F83950862B94F8315084F83A00207ED9
:1050C00084F8386004BF0F23237245F002030028E0
:1050D00085F0010584F831500CBF8825C82548F8B3
:1050E000335008EBC30380F00100002520765D609B
:1050F00060E542F22120834240F0BA814CF2501325
:10510000C1F6FF73A07B1B68E3622B4684F8300076
:105110000D4600210E468E460A46084694F8317028
:1051200047F0020C08EBCC0B002DCBF804000CBFB1
:105130008820C82040EA0E004CF2780B48F2000E9E
:1051400048F83C0087F001002376C1F6FF7EC1F6E7
:10515000FF7B84F83100002940F00981402A19D1F1
:1051600040F0020008EBC00248F2000E5660C1F6A3
:10517000FF7E002B40F010810B0443F088034EF8B3
:105180003030257684F831700E44402902D1002158
:1051900066616186009A0123137010E54CF2650286
:1051A000C1F6FF72127802F0FF06002A7FF4D5AC38
:1051B0004CF26805C1F6FF752A68002A00F0A48049
:1051C000538813801046FEF741FE2E60C5E442F27C
:1051D00094004CF27801C4F20700C1F6FF7148F266
:1051E0000003C1F6FF730224047081F8312001F13D
:1051F0003C047C31D9604FF4035C8821C0F240014B
:10520000C4F2070C42F2880E5C60196099601A6162
:105210009A61C4F2070E0D234FF4025742F298062A
:1052200042F28C0542F284048CF80030C4F2070785
:10523000FF23C4F20706C4F20705C4F207048EF880
:10524000003001214FF09F0E3B7032702B7084F8BC
:1052500000E0017009B0BDE8F08F41F82500C1F60B
:10526000FF74AB0017E462B64CF26F03C1F6FF7334
:1052700000211A7846F8371001321A7044E40523E9
:105280004355D0E403234355CDE402234355CAE4F8
:105290004BF69443C1F6FF735A5D022A00F08E80EC
:1052A000FFF432AC032A40F08C8001225A552BE4E3
:1052B0004FF40352C4F207024FF40253C4F207033F
:1052C0000D2010708021A20719707FF513AD04E541
:1052D00040F202318B4240F0C480218A01F07F010C
:1052E0004CF278030429C1F6FF7339D8DB89BBBBC4
:1052F0004FF403508900C4F20700084401250178E7
:1053000041F00201017004E772B64BF27410C1F66D
:10531000FF700568B5FA85F10B2900F313814FF092
:105320000043CB4025EA0305056062B648F2BC3372
:1053300001EBC101C1F6FF7303EBC10543F8312056
:1053400028466A60FEF782FD07E44FF0010388F803
:10535000003009E6238A03F07F03042B40F28D809E
:10536000029A0F231370009A0123137027E4402937
:105370007FF6F6AE40F002000EEBC0025660DBB1E5
:10538000C823C0F2400340398BF818508BF83170B5
:1053900040364EF83030FBE60B0443F0C803257668
:1053A00084F831700E444EF83030EEE6022B7FF474
:1053B000DBAD88F80050D7E58823E2E75955FFF7C1
:1053C000A3BB18F0080F0CBF022203225A55FFF7A7
:1053D0009BBB4CF26C03C1F6FF730D461B78237028
:1053E0002046618A4CF27803A942C1F6FF7380F02F
:1053F000BE8093F8317047F0020C08EBCC034029D3
:105400000A4628BF402258608618891A4FEA024E81
:1054100000230125C8208DE60023237063704CF221
:105420007804C1F6FF7420460225DAE74BF27810C3
:1054300047F68873E589268AC1F6FF70C0F200033B
:1054400003E00C33586800288AD01A88AA42F8D1A1
:105450005A88B242F5D12D0A032D0CBF05781D895B
:10546000BFE7B3F5A06F7FF47BAF0023012550E6C3
:1054700042F221318B42F8D072E7E18900297FF4B2
:105480006FAF4FF403519B00C4F20701194401258B
:10549000087820F00200002308703AE6586A0838BD
:1054A000FFF706F98BE4D3F89C000838FFF700F902
:1054B0000CE5D3F894000838FFF7FAF8FDE4D3F8C8
:1054C0008C000838FFF7F4F8EEE4D3F884000838CD
:1054D000FFF7EEF8DFE4D86F0838FFF7E9F8D1E41A
:1054E000586F0838FFF7E4F8C3E4D86E0838FFF7C0
:1054F000DFF8B5E4586E0838FFF7DAF8A7E4D86D9E
:105500000838FFF7D5F899E4586D0838FFF7D0F858
:105510008BE4D86C0838FFF7CBF87DE4586C08387A
:10552000FFF7C6F86FE4D86B0838FFF7C1F861E4FD
:10553000586B0838FFF7BCF853E4D86A0838FFF70F
:10554000B7F845E462B601221A70FFF706BB0225E0
:1055500047E762B60B7800200133C8F868000B708B
:105560007FE562B60E782B66731C0B7052E5402DFA
:105570002A4628BF4022A91A4FEA024E8618002365
:105580000125CBE52DE9F843054672B64EF2180326
:105590004CF250164EF60452C1F6FF76CEF20003DE
:1055A000CEF200021B683468126862B6520102D55E
:1055B000322B88BF0134002D42D0C3F50C3348F69E
:1055C000396703F27F23C3F6E3074FF47A72A7FB30
:1055D000031302FB04F44EF218094EF6045804EBD0
:1055E0005314CEF20009CEF2000872B6D9F80010BA
:1055F0003268D8F800E062B6C1F50C3303F27F23BD
:10560000A7FB03031EF0806FC4EB53134FF47A70B3
:1056100002D0322988BF013200FB0233B3F57A7F12
:1056200004D3013D0CD004F57A74DEE74CF2541338
:10563000C1F6FF731B78002BD7D1FEF7A7FED4E786
:10564000BDE8F88330B44CF23411C1F6FF7147F66F
:10565000DC724BF22423487AC0F20002C1F6FF73D9
:1056600052F830401B6801254FF00040922284F828
:105670000051D8625A63DA6A002AFCDA4FF000421D
:1056800008799D6BDA625863DA6A002AFCDA9A6B51
:105690004A744FF00042DA625863DA6A002AFCDA90
:1056A0009A6B0A744FF00042DA625863DA6A002A91
:1056B000FCDA9A6BCA744FF00042DA625863DA6A15
:1056C000002AFCDA9A6B8A744FF00042DA6258635F
:1056D000DA6A002AFCDA9A6B4A754FF00042DA6205
:1056E0005863DA6A002AFCDA9B6B0B75012384F895
:1056F000803030BC704700BF70B44BF22421C1F63B
:10570000FF71CB7A33B372B6CB7AD8071A4609D574
:105710004EF28014CEF20004CA68206810408861FE
:105720001A4620609E0709D54EF28412CEF200027E
:105730000B6910680340CB611360CA7A550708D51E
:105740004EF28812CEF200024B69106803400B62E1
:10575000136062B60B680022D868C3F6020290425A
:1057600072D000252C4644F201064CF23410C8F2E7
:105770003F04C0F23F06C7F60205C1F6FF701E6087
:10578000DA601D611C60447A47F6DC72C0F20002E8
:10579000012652F834404FF00045402284F8006161
:1057A000DD625A63DA6A002AFCDA4FF0004542797A
:1057B0009E6BDD625A63DA6A002AFCDA01259E6B71
:1057C00084F88050C022013AFDD14FF000464122BA
:1057D00084F80051DE625A63DA6A002AFCDA8279C0
:1057E000986B4FF00040D8625A63DA6A002AFCDAFC
:1057F0000120C0229B6B84F880001346013BFDD141
:10580000CB7A4BF224221846C1F6FF72CBB1DC07EB
:1058100006D54FF46140CEF200009269026018464E
:105820009A0706D54EF20413CEF20003CA691A6035
:10583000C87A430705D54EF20813CEF200030A6A70
:105840001A6070BC00F062B84CF23410C1F6FF7000
:10585000447A99E70023C3F602030360704700BF50
:1058600030B44BF22423C1F6FF73DA7AEAB172B690
:10587000DA7AD507114609D54EF28015CEF2000529
:10588000D9682C680C409C6111462C60940709D59E
:105890004EF28411CEF200011A690C682240DA61DE
:1058A0000A60D97A4A0713D462B61B68DA68904254
:1058B0000CD044F201010022C0F23F0140F08044CC
:1058C000C8F23F021960D8601C611A6030BC704792
:1058D0004EF28811CEF200015A690C6822401A6219
:1058E0000A60E1E747F6DC73C0F2000303EBC00295
:1058F00053F83010536801204FF4A27281F88002EF
:105900001A601A6822F020021A6070472DE9F843E5
:1059100072B64EF218034CF250164EF60452C1F60F
:10592000FF76CEF20003CEF200021B6834681268E4
:1059300062B6520102D5322B88BF0134C3F50C3355
:1059400048F6396703F27F23C3F6E3074FF47A7210
:10595000A7FB031302FB04F44EF218094EF6045899
:1059600004EB5314CEF20009CEF20008642572B69F
:10597000D9F800103268D8F800E062B6C1F50C33EF
:1059800003F27F23A7FB03031EF0806FC4EB5313C6
:105990004FF47A7002D0322988BF013200FB023303
:1059A000B3F57A7F04D3013D08D004F57A74DEE7BD
:1059B0003379002BDBD1FEF7E9FCD8E7BDE8F883AB
:1059C000F0B44BF22421C1F6FF71CB7A33B372B637
:1059D000CB7ADF071A4609D54EF28015CEF20005C4
:1059E000CA682C6814408C611A462C609E0709D541
:1059F0004EF28412CEF200020B6914682340CB6190
:105A00001360CA7A550708D54EF28812CEF200020A
:105A10004B69146823400B62136062B60B68002266
:105A2000DC68C3F60202944258D00026354644F2A0
:105A300001074CF25014C8F23F05C0F23F07C7F609
:105A40000206C1F6FF741F60DA601E611D6094F8E3
:105A5000355047F6DC72C0F20002012752F835508B
:105A60004FF00046742285F80071DE625A63DA6AEC
:105A7000002AFCDA9A6B00282ED1E27A4FF000401F
:105A8000D8625A63DA6A002AFCDACA7A9B6B01246C
:105A90004BF22423104685F88040C1F6FF73CAB14B
:105AA000D40706D54FF46140CEF200009B69036035
:105AB0001046920706D54EF20413CEF20003CA69CF
:105AC0001A60C87A430705D54EF20813CEF20003D8
:105AD0000A6A1A60F0BC19E7A27ACFE74CF25014B8
:105AE000C1F6FF7494F83550B3E700BF084611467D
:105AF000FEF784BC41F210034BF21002C4F2040220
:105B0000C4F2FE332DE9F0414FF4A270012583F871
:105B100080521060116841F604044CF20403C4F290
:105B20000403C4F2FE3421F02001116084F8805295
:105B300018601F684FF288004FF2C8014BF67C4690
:105B4000C1F6FF76C4F20F00C4F20F0127F0200760
:105B5000102402221F60046000270A604023757031
:105B60004FF2C405B7703370C4F20F0504602A60A9
:105B700000BF00BF00BF013B13F0FF030A60F5D177
:105B80004BF64830C1F6FF70012316221721FEF7AD
:105B900011FB4BF67030C1F6FF7001231422152162
:105BA000BDE8F041FEF706BB02680AB34FF40F43AD
:105BB000CBF6FC73F0B413441B1103F144024EF214
:105BC00080164BF25C1102F01F07CEF20006521154
:105BD0000125C1F6FF7143F23924BD40C0F2000433
:105BE00046F8225041F82340F0BC036800229A6036
:105BF000704700BF0B460146184600F001B800BFD1
:105C000013460A460146022000F07CB8014B186892
:105C1000704700BF88B6FF1F70B50F4E0F4D761B43
:105C2000B61018BF002405D0013455F8043B98473E
:105C3000A642F9D10A4E0B4D761B02F0DFFAB610E0
:105C400018BF002406D0013455F8043B9847A642FB
:105C5000F9D170BD70BD00BF18820000188200002D
:105C6000248200001882000070B4840746D0541EBD
:105C7000002A41D0CDB2034602E0621EE4B31446CE
:105C800003F8015B9A07F8D1032C2ED9CDB245EA6F
:105C900005250F2C45EA054519D903F110022646C2
:105CA000103E0F2E42F8105C42F80C5C42F8085C83
:105CB00042F8045C02F11002F2D8A4F1100222F0C2
:105CC0000F0204F00F041032032C13440DD91E46AA
:105CD0002246043A032A46F8045BFAD8221F22F02F
