:100000000080002071420000693E00005D3D00005C
:100010005D3D00005D3D00005D3D00005D3D000078
:100020005D3D00005D3D00005D3D0000693E00005B
:10003000693E00005D3D0000352E0000252E0000C9
:10004000693E0000693E0000693E0000693E000014
:10005000693E0000693E0000693E0000693E000004
:10006000693E0000693E0000693E0000693E0000F4
:10007000693E0000693E0000693E0000693E0000E4
:10008000693E0000693E0000693E0000693E0000D4
:10009000693E0000693E0000693E0000693E0000C4
:1000A000693E0000693E0000693E0000693E0000B4
:1000B000693E0000693E0000693E0000693E0000A4
:1000C000693E0000693E0000693E0000693E000094
:1000D000693E0000693E0000693E0000693E000084
:1000E000693E0000693E0000693E0000693E000074
:1000F000693E0000111F0000693E0000191E00004B
:10010000693E0000611D0000693E0000693E00007C
:10011000693E0000693E0000693E0000693E000043
:10012000693E0000693E0000693E0000693E000033
:10013000693E0000693E0000693E0000693E000023
:10014000693E0000693E0000693E0000693E000013
:100150000D2E0000F52D0000DD2D0000C52D000046
:10016000693E00000D200000693E0000693E00006D
:10017000693E0000693E0000693E0000693E0000E3
:10018000693E0000693E0000693E0000693E0000D3
:10019000693E0000693E0000693E0000693E0000C3
:1001A000693E0000693E0000693E0000693E0000B3
:1001B000693E0000693E0000693E0000FFFFFFFF4E
:1001C000FFFFFFFFFFFFFFFFFFFFFFFFFFFFFFFF3F
:1001D000FFFFFFFFFFFFFFFFFFFFFFFFFFFFFFFF2F
:1001E000FFFFFFFFFFFFFFFFFFFFFFFFFFFFFFFF1F
:1001F000FFFFFFFFFFFFFFFFFFFFFFFFFFFFFFFF0F
:10040000FFFFFFFFFFFFFFFFFFFFFFFFDEF9FFFF23
:1004100010B5054C237833B9044B13B10448AFF33E
:1004200000800123237010BD3C8EFF1F00000000E0
:1004300068500000084B10B51BB108490848AFF3DD
:1004400000800848036803B910BD074B002BFBD0A0
:10045000BDE81040184700BF00000000408EFF1F9D
:10046000685000003C8EFF1F000000002DE980480E
:1004700048F65863C1F6FF73A9B0596900AF01226D
:100480007B661A7651B14FF40F43CBF6FC730B44E5
:100490004EF244411B11CEF200015A540A2003F0DF
:1004A000FDF9002003F0FAF9012003F0F7F902202A
:1004B00003F0F4F9032003F0F1F9042003F0EEF95E
:1004C000052003F0EBF9062003F0E8F9072003F01C
:1004D000E5F9082003F0E2F941F20C064BF20C02B8
:1004E00041F20804C4F20402C4F2FE36C4F2FE343F
:1004F0004BF2080000254FF4807EC4F204004FF256
:1005000084084FF2480386F88052C4F20F03C2F801
:1005100000E0C4F20F0884F8805240F20314046033
:100520004FF4803510204FF2C801C8F80000C4F223
:100530000F011D604FF2040C4FF400351D60C4F232
:100540000F0C01254FF208040D60C4F20F044FF4A4
:1005500080554FF2C403CCF80050C4F20F034FF49F
:100560000055256080241C600425082418601D6047
:100570000C60136848F2B17113F4E063084648F266
:10058000817108BF86F880320C4608BFC2F800E0CF
:1005900048F2517148F2E1720D46C1F6FF7248F21D
:1005A00021710E467A6111460246C1F6FF7210466D
:1005B0003A612246C1F6FF721446BA602A46C1F675
:1005C000FF7215467A6048F200233246C1F6FF7387
:1005D000C1F6FF721646BA611A46FB60C3F89C1159
:1005E000C3F8A001C2F8A441C3F8A851C3F8AC6194
:1005F00072B64BF20C03C4F2040348F654111A68A5
:10060000C1F6FF7139620C4622F4702243F26D117B
:1006100042F08570C0F200011A60E160186062B6B5
:1006200041F60403C4F2FE334CF204000022C4F28B
:1006300004004FF4805183F88022C4F2FE3140F26E
:10064000031303604FF4304C4FF4006E4FF4204618
:1006500040F604054AF2040440F60C0081F88022BA
:10066000C4F2040CC4F2FE3EC4F20406C4F2FE3529
:10067000C4F20404C4F2FE304AF20C01C4F20401D4
:10068000CCF800308EF8802240F6080C33604AF235
:10069000080E85F8802241F6140623604CF21405FA
:1006A00080F8802241F618044CF218000B60C4F266
:1006B000FE3CC4F2040EC4F2FE36C4F20405C4F2D9
:1006C000FE34C4F2040041F20401C4F2FE318CF89D
:1006D0008022CEF800304BF2040C86F880224FF0D6
:1006E000140E2B6049F2140684F8802240F64C0563
:1006F00003604AF24C0442F2040081F88022C4F202
:10070000040CC4F2FE3EC4F20406C4F2FE35C4F288
:100710000404C4F2FE304DF20401C4F20401CCF82A
:1007200000308EF8802241F2240C33604BF2240E0C
:1007300085F880224FF4815623604BF2200580F823
:10074000802241F228044BF228000B60C4F2FE3CE8
:10075000C4F2040EC4F2FE36C4F20405C4F2FE3440
:10076000C4F2040041F22C01C4F2FE318CF8802264
:1007700049F21008CEF800304BF22C0C86F880229B
:100780004FF4005E2B604FF4504684F8802240F610
:10079000480503604AF24804102081F88022C4F220
:1007A000FE3EC4F20406C4F2FE35C4F20404C4F2F0
:1007B000FE30C4F2040CC4F2040848F61801C1F675
:1007C000FF71CCF800308EF88022F966336085F82E
:1007D0008022236080F88022C8F800304B680E46E3
:1007E00093E80600086802430A6041F20104326897
:1007F000204644F201050021C0F21F05C3F60004A3
:10080000C7F60000C8F21F011560D46010611160C6
:10081000717A581844F6347290F82400C0F200023D
:1008200002EBC0000A31406853F821100160317AB0
:10083000581803EB8101007ECC6902EBC0013546FC
:1008400049680C60A97A49F2AC700646581803EB67
:10085000810390F83000596B02EBC0023346C1F6B9
:10086000FF731846FB65536849F64C02196001682E
:10087000034649F2B07549F2B470C1F6FF72BA6727
:10088000C1F6FF70C1F6FF7540F2EE249E46137864
:1008900043B10378DE0705D5DEF800302E689B1BD8
:1008A0000E2B09D8DEF8003016785B1A002E00F007
:1008B0002781B3F5FA6FEAD91E2002F027FA49F62C
:1008C00050031C4602F0AAFC2346C1F6FF733B66A8
:1008D00049F66C0249F668039E46C1F6FF7248F27B
:1008E000BC33FA621A46C1F6FF7249F64803FA644D
:1008F0001A46C1F6FF7242F699737A671A46C0F239
:10090000000243F659537A631A46C0F2000242F6D7
:10091000C15349F6800149F6840049F6700449F64E
:10092000880548F624163A641A4642F6C57349F615
:10093000600BC1F6FF7EC1F6FF71C1F6FF70C1F614
:10094000FF74C1F6FF75C1F6FF76C0F20002C0F277
:100950000003C7F850E039637864BC62BD64FE618F
:10096000C1F6FF7BFA63BB6301E002F0ABFF7B6E75
:10097000DA6948F65863C1F6FF73002A40F0C48074
:100980007B6FBBF80410186849F66003C1F6FF736B
:10099000002800F0C28102884388D41ACC42E4D0F7
:1009A000C118013393420C7A80F0D681402C4380E9
:1009B00000F0DA81232C00F07C823F2C00F05F8372
:1009C000242C00F0A583252C00F0DC837E2C00F085
:1009D000DD83262C00F0F484212C00F08183C7F8FD
:1009E00024D0BBF8043018B102884188521A13444D
:1009F000FA6DDBB21268BB66073323F00703C7F852
:100A00009020ADEB030DD7F890307B650023C7F83D
:100A100058D03B67BB6D3A6F1946BB6E01EB0209BC
:100A20001946B1EB020800F07183BB6F1B7803F02D
:100A3000FF0A23B37B6F1C684FF0000A002C42D0E2
:100A400023886588FB675E1B464528BF464604F140
:100A5000080129444846324603F008FE3544FB6F3E
:100A6000ADB2AB42B244C6EB08086580B14422D9AE
:100A7000B8F1000F03D0BB6F1B78002BDED13B6FAA
:100A8000BA6E53449A423B6712D9FB6DFA6E1B68EB
:100A9000C7F88C30D16DD7F88C307A6D9B1A8B42A9
:100AA00048F61802C1F6FF72B4D3012382F8603011
:100AB000D7F824D059E7204603F08CF87B6F1A460C
:100AC00000241460D4E73D6E7E6F04E02388002B81
:100AD000B7D103F07FF872B6AC685CB12288BBF87E
:100AE0000430616849F65000C1F6FF709B1A8160BE
:100AF000ABF8043062B620463460002CE6D1BEE785
:100B0000A3427FF6C4AED7E6FA6E0021D27AD9614D
:100B100048F61803C1F6FF73002A2FD072B6DA7AAE
:100B2000D10708D54EF28011CEF20001DA680868CC
:100B300002409A610A60FB6EDA7A48F6180392075F
:100B4000C1F6FF7308D54EF28411CEF200011A6986
:100B500008680240DA610A60FB6EDA7A48F6180328
:100B60005607C1F6FF7308D54EF28811CEF2000188
:100B70005A69086802401A620A6062B6FB6E1B6816
:100B8000DA68B2F13C4F0ED044F20101C0F23F01ED
:100B900000221960C8F23F024FF03C404FF07C4108
:100BA000D86019611A604FF28803C4F20F03102253
:100BB0001A60FB6E93F8381048F61803C1F6FF73FD
:100BC00001B31A68D06810F0807F4FF48060C8F2DB
:100BD0001F00106040F00781CD0740F1F38101292B
:100BE00000F01985786E93F82480007848F6596CE7
:100BF00040F00043C1F6FF7C48EA0828536301F146
:100C0000FF39E8E14FF28403C4F20F0310221A60A7
:100C1000FB6EDB7A48F618021946C1F6FF72DBB1AB
:100C2000DD0706D54FF46141CEF2000192690A60FA
:100C300019469C0707D5F96E4EF20413CEF2000355
:100C4000CA691A60C97A480706D5FA6E4EF20813C7
:100C5000CEF20003126A1A607B6E93F8202048F6E9
:100C60005863C1F6FF73002A3FF48AAE5A6A0AB984
:100C7000DB6953B1786E4FF24402C36AC4F20F02CB
:100C800001334FF48031C3621160FC6E48F6586046
:100C9000C1F6FF7094F8381002F054FE94F8393021
:100CA000002B3FF46DAEBB6F1B78002B3FF468AE9A
:100CB000FB6A3A6D1B6801241470002B00F0368625
:100CC000386B5A88002101701A8072B67A6CD2781B
:100CD000A24200F0A286C0F0A786022A00F0AB86EE
:100CE000032A40F0B68648F298020421C1F6FF724A
:100CF000786CC170188812F0080F0CBF8821C821C9
:100D0000083341EA00415360116062B6FA6A002379
:100D100013603A6D0023137032E600293FF425AECC
:100D2000BA6F1278002A00F0288572B63A6E906881
:100D300048B104889A88416849F65005C1F6FF75A4
:100D4000121BA9609A8062B67B6F1860002800F0C1
:100D500014854388028823E602F03CFF7B6F002065
:100D6000402C18607FF426AEFB6EDC6B0021204621
:100D700003F0CCFF50B94AF6AB21C4F6AA41204695
:100D800003F0D8FF0546002800F09E837B6E93F8A1
:100D9000282048F65863C1F6FF737AB1022A40F260
:100DA0005F83042A0AD893F82930002B40F0E283AD
:100DB0004FF28803C4F20F0304221A607C6E4FF2D4
:100DC0004402C4F20F0200214FF24803E162C4F270
:100DD0000F034FF4003111604FF48031012219608C
:100DE00084F82020C1E5C80740F1E480012900F023
:100DF0001C84786E93F824E0007848F6596C40F033
:100E00000043C1F6FF7C536301F1FF38FB6E48F6E7
:100E10005860D3F80490C1F6FF7066462EB196F87C
:100E200001E03378023643EA0E2E99F80840B8F113
:100E3000020F04F1FF344FEA04340CBF4EF080532C
:100E40004EF01043A4B25363A8F1020807E008B1C2
:100E500005700130013903F47043A34214D9D36AF9
:100E600013F0F00FF7D011F0010F8446956BEED11F
:100E700020B10CF8025B2D124570604603F47043FC
:100E8000A342A1F10201EAD8B8F1000FC6D1FB6E6E
:100E90001A6800293FF4B6AED36A13F0F00FFBD006
:100EA000CE07936B40F15C8108B1037001300139CA
:100EB000EFE77B6E586948F65864C1F6FF74E0B1FD
:100EC0004FF40F43CBF6FC7303441B1103F14401B1
:100ED0004D114EF28012AD00CEF20002FE6E2A4499
:100EE00001F01F01012505FA01F106EB83031160F2
:100EF0000025FA6B1A64656185607B6E93F8283073
:100F0000033B48F65862012BC1F6FF724FF0040113
:100F100009D892F82930002B00F0D0824FF28803D4
:100F2000C4F20F0319604FF24803C4F20F034FF4E9
:100F300000321A6044F688507B6EC0F20000002434
:100F4000032183F8204002F0FDFCBB6F1B78002BCF
:100F50003FF40BADFB6A3A6D1B6801201070002B4B
:100F600000F06784396B5A880C701A8072B67A6CFC
:100F7000D278824200F00583C0F06C82022A00F031
:100F8000E582032A00F0D783BA6AD16849F6700275
:100F9000C1F6FF72002900F02586BA6CD268536052
:100FA000BA6CD36062B6FA6A002313603A6D00230C
:100FB0001370DAE448F6586C93F824E0C1F6FF7C2D
:100FC000884623E793F8248048F6586C48EA0828B6
:100FD000C1F6FF7C8946FB6E48F65860D3F804A042
:100FE000C1F6FF70BCF1000F05D09CF801301CF871
:100FF000028B43EA08289AF80840B9F1020F04F17D
:10100000FF344FEA04340CBF48F0805348F01043DB
:10101000A4B25363A9F1020907E008B105700130D9
:10102000013903F47043A34215D9D36A13F0F00FCA
:10103000F7D0956B11F0010F06464FEA252EECD143
:1010400018B106F802EB4570304603F47043A34232
:10105000A1F10201E9D8B9F1000FC3D1FB6E1A6802
:1010600000293FF4CFADD36A13F0F00FFBD0CC07CB
:10107000936B7ED508B1037001300139F0E77B6EC8
:101080000421DB6AC7F8943007F1940002F05AFC9F
:10109000BB6F1B78002B3FF468ACFB6A3A6D1B6892
:1010A00001241470002B00F06C83386B5A880021E7
:1010B00001701A8072B67A6CD278A24200F0618216
:1010C000C0F0C881022A00F04182032A00F0338375
:1010D000BA6AD268002A7FF460AFBA6AD3605FE769
:1010E00044F6BC600521C0F2000002F02BFC44F67F
:1010F0008C510222C0F2000107F1940003F0B6FA0D
:10110000022107F1940002F01DFC2EE4C246B6E471
:10111000002800F016837B6F186843880288C11886
:10112000013349F64804934291F80880C1F6FF74F0
:1011300080F0FC824380B8F1010F00F0EA82C0F039
:101140008082B8F1020F07D14FF2C803C4F20F0337
:101150001021802219601A607B6E83F8308004E4CD
:1011600028B104461D1204F8023B4570204602399E
:101170008FE628B104461D1204F8025B4370204636
:1011800002396DE702F04AF8FFF7EFBBFB6D1B6811
:10119000C7F88830D7F88830BB6600233B673A6FC2
:1011A00007F19401D2F10A0801EB020900F047822D
:1011B000BB6F1B7803F0FF0A33B37B6F1C684FF0E3
:1011C000000A002C00F0DE8023886588FB675E1B28
:1011D000464528BF464604F10801294448463246A0
:1011E00003F044FA3544FB6FADB29D42B244C6EB06
:1011F00008086580B14480F0BD80B8F1000F03D0CD
:10120000BB6F1B78002BDCD13B6F5344092B3B6732
:1012100012D8FB6DFA6E1B68C7F88430D16DD7F811
:101220008430BA6E9B1A8B4248F61802C1F6FF72E0
:10123000B5D3012382F860307C6E97F8941097F84C
:10124000952097F8963084F8341084F8352084F887
:101250003630002900F017814FF2C401C4F20F01AB
:1012600001200860002A00F017814FF20402C4F246
:101270000F024FF480511160002B00F017814FF2E4
:101280000403C4F20F034FF400521A6097F897302A
:10129000FA6E82F85030002B00F079814FF2C403CF
:1012A000C4F20F0310221A6097F89B2097F89D0054
:1012B00097F89C1097F89A3087F8811087F8822069
:1012C00087F88330FC6E87F8800097F89930D7F85C
:1012D000800084F838300021C4F27A41E06303F0E2
:1012E0001FFD48F61803C1F6FF73FB6619464FF061
:1012F000010200B9024697F8983081F839207A6ED9
:1013000048F65861022B82F82830C1F6FF7100F0D0
:10131000D28240F24381032B00F0A282042B7FF49F
:1013200024AB72B64BF20800C4F20400026822F04B
:10133000877222F4803242F0807202603A6A144668
:101340003A6CA26062B641F20802C4F2FE32012594
:101350004FF4A27482F88052046002684FF288044D
:10136000C4F20F0422F02002026081F829502360A9
:10137000FFF7FBBA204602F02DFC7B6F1A460024D3
:1013800014603AE73D6E7E6F05E02388002B7FF402
:101390001CAF02F01FFC72B6AC685CB12288BBF8CF
:1013A0000430616849F65000C1F6FF709B1A8160F5
:1013B000ABF8043062B620463460002CE5D123E758
:1013C00048F68C617E230322C1F6FF7107F1950078
:1013D00087F8943003F04AF9F96E7B6E91F850006B
:1013E00093F8282087F8980091F8383097F8820011
:1013F00097F8831087F8992087F89A3097F881201A
:1014000097F8803087F89B1087F89C000B2107F134
:10141000940087F89E3087F89D2002F093FABB6F06
:101420001B78002B3FF4A1AAFB6A396D1B680122CF
:101430000A70002B00F03383386B5A88002101704A
:101440001A8072B67A6CD278012A00F09A80002A4B
:101450007FF494AD48F290020321C1F6FF727AE066
:1014600072B64BF20802C4F20402136823F08773C9
:1014700023F4803343F0807313603B6A1A463B6C5D
:10148000936062B69AE44FF2C801C4F20F010120E2
:101490000860002A7FF4E9AE4FF20802C4F20F029E
:1014A0004FF480511160002B7FF4E9AE4FF2080336
:1014B000C4F20F034FF400521A60E7E64FF28403C0
:1014C000C4F20F0319602EE50021C4F2402120462A
:1014D00003F074FA4FF07C5103F066F903F034FC2A
:1014E00023287FF653AC7B6E5A6948F65861C1F6E3
:1014F000FF71002A00F0258301239560D3607E6E82
:10150000FA6E74694FF40F43CBF6FC732344191140
:1015100002EB810201F1440E7B6B13644FEA6E15FE
:101520004EF24442AD00CEF200020A4405F160459D
:101530000321206005F56145A1600EF01F03012124
:10154000307E107001FA03F32B601FE448F2900222
:101550000521C1F6FF72786CC170188812F0080F6F
:101560000CBF8821C821083341EA00415360116053
:1015700062B618E54FF28403C4F20F0304221A6026
:101580001CE448F29802C1F6FF720221E3E74FF231
:10159000C803C4F20F0310221A6085E6002B00F086
:1015A0002B81012B7FF4E1A941F208014BF20803E2
:1015B000C4F20403C4F2FE3140F20312002081F8A9
:1015C00080021A601A6812F4E06200F0A981FA68D9
:1015D0007969C2F89C113969C2F8A011B968C2F8DA
:1015E000A41113467968C2F8A811BA69C3F8AC21EE
:1015F00072B64BF20803C4F204031A6822F4702294
:1016000042F085711A603A6A1046BA6B82601960BE
:1016100062B6FFF7AAB97B6E1B78536348F658632E
:10162000C1F6FF737B66184618E57B6E1B78536323
:1016300048F65863C1F6FF737B66184627E4C24636
:10164000E2E57B6E93F83030012B00F0CE81022B67
:101650007FF482ADFB6E93F85030002B00F0F281E6
:101660004FF2C403C4F20F0310221A604FF2C403F6
:10167000C4F20F0380221A6072B64EF218034EF6BF
:101680000451FA6DCEF20003CEF200011B6812681D
:10169000096862B6490102D5322B88BF0132902118
:1016A000C3F50C334FF47A704EF218064EF604551B
:1016B00003F27F23CEF20006B3FBF1F38A4600FB70
:1016C0000234CEF200054FF01E0972B6FB6D316890
:1016D0001A68D5F800E062B6C1F50C331EF0806FD1
:1016E00003F27F234FF47A70B3FBFAF3A3EB040306
:1016F00002D0322988BF013200FB0233B3F57A7F72
:10170000C0F06C81B9F1010900F06B8104F57A74C5
:10171000DBE74FF2C402C4F20F024FF2C803C4F277
:101720000F031021116080221A6015E502F052FAB1
:1017300000232360FFE448F298020421C1F6FF72FF
:1017400009E7BB6F1B78ABB172B63B6E9B685BB1B0
:101750001988BBF80420586849F65004C1F6FF7494
:10176000521AA060ABF8042062B67A6F1360002BA7
:101770007FF4D1AC4FF0FF08EEE47B6F1868FFF701
:101780002EB972B6FA691168B1FA81F048F62412DE
:101790000B28C1F6FF7200F3C7814FF00044C4402C
:1017A00021EA0401116062B6482202FB00F2F96CE2
:1017B0003C6B881823708B50436072B67B6CDB786F
:1017C000012B00F0B681C0F05481022B00F0618142
:1017D000032B00F0EC80BB6ADA6849F67003C1F6AF
:1017E000FF73002A00F0FA81BB6CDB685860BB6CA9
:1017F000D86062B6FFF7DABB72B64BF20801C4F2EA
:1018000004010A6822F0877222F4803242F080726A
:101810000A603A6A10463A6C826062B641F2080287
:10182000C4F2FE3240F2031082F880320860FFF703
:101830009CB872B6FA691168B1FA81F448F62412BC
:101840000B2CC1F6FF7200F31F814FF00040E04007
:1018500021EA0001116062B6482202FB04F2A6E709
:1018600072B64BF20802C4F20402136823F08773C5
:1018700023F4803343F0807313603B6A18463B6C5B
:10188000836062B641F20803C4F2FE3301244FF4D0
:10189000A27083F88042106013684FF2840023F036
:1018A0002003C4F20F0013600024042381F82940B0
:1018B0000360FFF75AB841F208014BF20803C4F283
:1018C0000403C4F2FE314FF48172002081F88002DB
:1018D0001A601A6812F4E06204D14FF4807081F843
:1018E00080221860FA687969C2F89C113969C2F8D7
:1018F000A011B968C2F8A41113467968C2F8A811FA
:10190000BA69C3F8AC2172B64BF20803C4F20403FF
:101910001A6822F4702242F0847141F4803171E639
:101920004FF4807081F88022186050E672B6FA6930
:101930001268B2FA82F148F624100B29C1F6FF7042
:1019400000F39D804FF00044CC4022EA0402026084
:1019500062B6F86C3C6B482202FB01F102460A4475
:1019600043502370536072B67B6CDB78012B00F020
:101970001481C0F01E81022B00F01581032B40F072
:101980001E8148F298030420C1F6FF73FC6C645A70
:10199000796C13F0080FC8700CBF8821C821083279
:1019A00041EA04415A60196062B6FFF7B2B948F2E1
:1019B00098040421C1F6FF74FB6C14F0080F9D5AC3
:1019C0007B6C0CBF8822C822D97042EA054200F124
:1019D00008036360226062B6FFF7E8BA01F072FFA5
:1019E00073E601F01BFCFFF7B7BBFB6E93F85030BA
:1019F000002B00F092804FF2C403C4F20F031022B8
:101A00001A604FF2C402C4F20F0280214FF49653C1
:101A10001160013BFDD1FFF79FBB48F29802C1F670
:101A2000FF720221FFF764B948F290020321C1F668
:101A3000FF72FFF75DB948F290020521C1F6FF720F
:101A4000FFF756B94FF2C803C4F20F0310221A6011
:101A50000CE6BA6AD16849F67002C1F6FF72002935
:101A60006DD0BA6CD2685360BA6CD36062B6FFF7BF
:101A70004DB948F290040321C1F6FF749CE762B6A9
:101A80003B6B1C70FFF745B962B63B6B1870FFF7F4
:101A90008DBA48F290040521C1F6FF748CE772B646
:101AA000FB691B68B3FA83F20B2A00F3B9804FF08D
:101AB0000041D14023EA0103F9690B6062B6482373
:101AC000F86C03FB02F20021034681501344386B8B
:101AD0005960017072B6796CC978012900F09A805A
:101AE000C0F0A480022900F08F8003297DD148F244
:101AF00098000421C1F6FF70FC6CA45A7A6C10F0B7
:101B0000080FD1700CBF8822C822083342EA044271
:101B10004360026062B6FFF749BA4FF2C803C4F2ED
:101B20000F0310221A606CE762B63B6B1C70FFF764
:101B30003DBA48F29804C1F6FF7402213CE7D36035
:101B400092E748F23C03C4F204031C6844F4000426
:101B50001C6000BF4FF4E044C4F203044FF4E243BE
:101B600001252560C4F2030347F23F144B61C4F220
:101B7000030404E01033A3424FF0010208D899682F
:101B80000029F7D1002A3FF4BAAC7A6E5361B6E46B
:101B90007A6E00235361FFF7F9B848F29803C1F653
:101BA000FF730220F2E648F290030520C1F6FF73AE
:101BB000ECE648F290030320C1F6FF73E6E6BB6A49
:101BC000D96849F67003C1F6FF7349B1BB6CDB6895
:101BD0005A60BB6CDA6062B6FFF79BB8D86006E665
:101BE000DA60F6E7D360FFF7DBB9BA6AD16849F685
:101BF0007002C1F6FF72F9B1BA6CD2685360BA6C68
:101C0000D36062B6FFF7D2B948F290000521C1F661
:101C1000FF7071E748F29800C1F6FF7002216BE790
:101C200062B63A6B01231370FFF7C0B948F2900017
:101C30000321C1F6FF705FE7D360E0E770B549F6B6
:101C40004804C1F6FF742368002B35D05A881988E0
:101C5000981801328A42057A02D25A80284670BD0D
:101C600048F2BC32C1F6FF7248F639619A1AC3F6DF
:101C7000E301A1FB021212090B2A19D849F6A201AD
:101C8000C1F6FF71087830B149F64C00C1F6FF701B
:101C9000007800282ED172B648F62413C1F6FF73DF
:101CA0004FF00040196820FA02F21143196062B641
:101CB00000232846236070BD49F64C03C1F6FF732C
:101CC0001B78A3B172B649F65002C1F6FF72936851
:101CD0004BB149F66001C1F6FF711D8888885E68C6
:101CE0009660421B8A8062B62360002BAED14FF013
:101CF000FF3070BD72B648F20002C1F6FF72106E7E
:101D000098B1906E30B162B6002218460A7001F0A8
:101D100061FFCDE70878C82608330138C0F24006D5
:101D2000D3660870966662B6C2E7087888260833DC
:101D30000138C0F2400653660870166662B6B7E70F
:101D400049F64802C1F6FF7249F66003C1F6FF7317
:101D5000126898881AB1138852889B1A18447047E1
:101D600010B44FF44043C4F206031A7992060ED51C
:101D700048F69062C1F6FF72D979137892F8710033
:101D800001333F2BC8BF00238342C9B21BD14FF49C
:101D90004041C4F20601CB78DBB21C0618D45906C8
:101DA0000FD54FF44043C4F206031A79520608D502
:101DB00048F69062C1F6FF7200202C2182F8700074
:101DC000D97010BC7047D018DBB201711370DEE718
:101DD0000A791006E3D548F69062C1F6FF7292F8D0
:101DE000444092F84500C0B2844211D0411C2729DA
:101DF00086BF00242146CCB211444FF4404091F8F4
:101E00004810C4F20600C9B2C17182F84540C6E765
:101E10006C22CA70C3E700BFF0B44FF43043C4F281
:101E200006031A7912F0300F25D072B6997D01F0B1
:101E3000FF0200293BD062B648F69065C1F6FF75F7
:101E4000184695F8724095F87360E4B2F6B2631CD8
:101E5000402BC17928BF00239E4202F1FF32C9B254
:101E600003D0EF181C4687F8741012F0FF02EED171
:101E7000E4B285F872404FF43042C4F20602D178E1
:101E8000C9B20D0618D449060FD54FF43043C4F239
:101E900006031A79520608D548F69062C1F6FF7219
:101EA00000203C2182F8E000D970F0BC704740224D
:101EB000D9795A7462B6DEE713791C06E3D548F681
:101EC0009065C1F6FF7595F8B44095F8B530E4B269
:101ED000DBB29C4202D10EE0A3420CD00133282B8E
:101EE00028BF0023E818167990F8B800C0B2D07166
:101EF000107D0728F0D94FF43042DBB2C4F206025D
:101F000085F8B5301379180644BF7C23D370BAE73F
:101F1000F0B44FF42043C4F206031A7912F0300FE4
:101F200026D072B6997D01F0FF0200293CD062B63E
:101F300048F69065C1F6FF751846B5F8E240B5F869
:101F4000E460A4B2B6B2631CB3F5806FC17928BF58
:101F500000239E4202F1FF32C9B203D0EF181C46A3
:101F600087F8E81012F0FF02EDD1A4B2A5F8E24024
:101F70004FF42042C4F20602D178C9B20D0618D43B
:101F800049060FD54FF42043C4F206031A795206CE
:101F900008D548F69062C1F6FF7200203C2182F815
:101FA000EC08D970F0BC70474022D9795A7462B6F7
:101FB000DEE713791C06E3D548F69065C1F6FF7598
:101FC000B5F8E844B5F8EA34A4B29BB29C4202D119
:101FD0000FE0A3420DD00133B3F5806F28BF00237B
:101FE000E818167990F8EC04C0B2D071107D07287B
:101FF000EFD94FF420429BB2C4F20602A5F8EA34AE
:102000001379180644BF7C23D370B9E72DE9F04F4C
:1020100042F2940389B042F298024FF4035142F223
:10202000C4004FF4025942F2900BC4F20703C4F209
:102030000702C4F20701C4F20700C4F20709C4F2A0
:10204000070B00930192029103906FE048F20006A3
:102050009F08C1F6FF7606EBC708551ED8F8042086
:1020600003F00803EDB2A2F1080003F0FF04002B17
:1020700040F0C98056F837301B0C99B222F8081C82
:10208000002B00F0B38049F6500EC1F6FF7E22F817
:10209000064C5EF8253042F8044C48F69064002B5C
:1020A00000F0C881C1F6FF74AA00A318D3F80C3958
:1020B000586049F6600AC1F6FF7A14443AF81520D0
:1020C000C4F80C0911442AF8151072B648F6241207
:1020D000C1F6FF721168B1FA81F30B2B00F39E81F8
:1020E0004FF00040D84021EA0001116062B648F28A
:1020F000BC3103EBC303C1F6FF71C824C0F2400436
:1021000001EBC300882218F0080FC0F2400200F172
:10211000080518BF2246C8F80450002446F83720A6
:1021200041F833404460082389F8003099F80030C2
:10213000DBB25A0726D549F64C02C1F6FF72127877
:10214000EAB148F69062C1F6FF7292F8F80800F022
:10215000FF0130B10139C9B282F8F818002900F046
:10216000BE8549F68002C1F6FF72107800F0FF01CB
:1021700028B10139C9B21170002900F0268104226A
:1021800089F8002003F0080202F0FF01002A00F0A5
:10219000FC809BF80030DBB21A097FF457AF48F29D
:1021A00000059B08C1F6FF7505EBC30055F8331019
:1021B0004068C1F38301092900F0A28051D8013998
:1021C00001290FD848F69064C1F6FF7442F221024B
:1021D000B4F8FC18914200F02183C822C0F24002FA
:1021E00045F83320009A012313709CE7C822882306
:1021F00018F0080FC0F24002C0F2400318BF1346A7
:1022000046F837308FE701F0E5FC49F67002C1F679
:10221000FF7252F82510002900F0F08249F6840080
:10222000C1F6FF704B68445D42F82530012C01F186
:102230000803C8F8043000F00981C0F00481022CC2
:1022400000F0FE80032C01D10423435518F0080F41
:102250000A880CBF8823C82343EA024346F8373074
:1022600061E70D29BED148F6906406684068C1F662
:10227000FF74C821C0F2400145F83310C4F80009CA
:10228000B1B240F28160012381422A61C4F8FC6846
:10229000AA61C4F8042984F8083900F2DA80B1F59B
:1022A000D06F80F01084B1F5817F00F0F48300F2EC
:1022B000EC82802900F04182822940F0A883B4F8A2
:1022C000003903F07F0348F69062042BC1F6FF72D9
:1022D00000F29D834FF403519B00C4F2070119449F
:1022E000002382F8F03882F8F1380B789E0740F12D
:1022F0005484012382F8F03802F50F62022326E2AB
:1023000048F69064C1F6FF74D4F804395BB3B4F8AE
:10231000262994F8250994F80819402A164640F011
:10232000020728BF402680F00100002981F001014A
:1023300084F80819A2EB060284F8250908BF882151
:1023400005EBC70018BFC82192B241EA06414360BD
:10235000A4F82629334445F8371012B9402E18BF87
:102360000023C4F80439B4F8FC2848F69063B2F5A9
:10237000A06FC1F6FF737FF435AF002193F8FE28FC
:1023800083F8FD18019B1A702CE7D80700F1C6826C
:10239000190600F113839A070CD542F28802C4F2A1
:1023A00007024FF402501178C4F20700C9B20224A8
:1023B00011700470DB0605D54FF40253C4F2070315
:1023C00010221A7009B0BDE8F08F49F66801C1F615
:1023D000FF71097800297FF4D2AE49F66C00C1F68E
:1023E000FF700168002900F08B834A880A8072B66A
:1023F00049F68402C1F6FF72D478012C00F0C18343
:10240000C0F0C583022C00F00A83032C40F0CF8378
:1024100048F298040425C1F6FF7405E362B649F654
:10242000A203C1F6FF7300211A7846F83710013273
:102430001A7078E64EF82500C1F6FF74AA0038E657
:102440000523435502E703234355FFE60223435583
:10245000FCE642F22102914200F0CC8100F2498276
:10246000B1F5086F00F0BA82B1F5106F40F0CF827D
:1024700049F64C03C1F6FF7394F8FE281A702A6AD5
:1024800048F200031706C1F6FF7300F1F483AA6A4D
:1024900048F200031606C1F6FF7300F1E7832A6BCA
:1024A00048F200031006C1F6FF7300F1DA83AA6B4D
:1024B00048F200031106C1F6FF7300F1CD832A6CC8
:1024C00048F200031206C1F6FF7300F1C083AA6C44
:1024D00048F200031706C1F6FF7300F1B3832A6DBB
:1024E00048F200031606C1F6FF7300F1A683AA6D39
:1024F00048F200031006C1F6FF7300F199832A6EBB
:1025000048F200031106C1F6FF7300F18C83AA6E36
:1025100048F200031206C1F6FF7300F17F832A6FB1
:1025200048F200031706C1F6FF7300F17283AA6F29
:1025300048F200031606C1F6FF7300F16583D5F873
:10254000802048F200031006C1F6FF7300F15683A5
:10255000D5F8882048F200031106C1F6FF7300F198
:102560004783D5F8902048F200031206C1F6FF73A6
:1025700000F13883D5F8982048F200031706C1F619
:10258000FF7300F1298349F6700349F6880249F682
:102590008401002049F6500849F6600AC1F6FF732D
:1025A000C1F6FF72C1F6FF7104940595CDF818903D
:1025B000C1F6FF780646C1F6FF7A0F4604461D466F
:1025C0009146CDF81CB0D8F80000A34630B144685D
:1025D00001F000FB2046002CF9D15C4649F29C73C7
:1025E000C1F6FF732868C8F8006043F82460A3466A
:1025F00030B1446801F0EEFA2046002CF9D15C4677
:102600003B782E60032B49F8046B2AF8146006D03F
:1026100040F23A82042B00F03A82052B02D14FF0AF
:1026200001033B700134042C08F1040805F1040592
:1026300007F10107C7D104AC94E8300A49F6A202B9
:1026400042F2C80642F2CC01039FC1F6FF72C4F207
:102650000706C4F2070100234FF0150E4FF0190CC6
:1026600048F200001370C1F6FF703B702B63AB6340
:1026700086F800E02B65AB6581F800C072B648F6BD
:102680002411C1F6FF710F68B7FA87F60B2E00F31D
:1026900010834FF0004E2EFA06FE27EA0E070F6059
:1026A00062B648F2BC3706EBC606C1F6FF7707EB09
:1026B000C60C4FF0880E47F83630C0F2400E0CF1D1
:1026C00008064666CCF80430C0F860E072B60968C7
:1026D000B1FA81F348F624100B2BC1F6FF7000F31A
:1026E000DB824FF00042DA4021EA0201016062B66B
:1026F00048F2BC3203EBC303C1F6FF7202EBC30125
:1027000001F10800C826E866C0F24006002042F841
:102710003300AE66486042F2D002C4F207020023E2
:1027200015212B67AB67117094F80889C5F89030B4
:1027300088F00107C5F89830C8E0002349F280729C
:1027400084F8F03884F8F138C1F6FF720223B4F847
:10275000020948F690619842C1F6FF7180F0C68286
:1027600091F8256946F0020E05EBCE034028844619
:1027700028BF4FF0400C5A6002EB0C01CCEB000379
:1027800000274FEA0C404FF00108C822024348F6E8
:10279000906A48F2000045F83E2086F0010284F875
:1027A0000879C1F6FF70C1F6FF7A84F82529002B5D
:1027B00040F04B81BCF1400F1CD142F0020205EB0E
:1027C000C20548F200006960C1F6FF701D04002FC9
:1027D00040F0508145F0880584F8088984F825691F
:1027E00040F832501944402B04D10023C4F8041996
:1027F000A4F82639009A01231370F3E449F6840201
:10280000C1F6FF72535D022B00F0D580FFF48BAC54
:10281000032B40F0C8800123535584E4B4F8002909
:10282000CAB902784678817884F8A829C27884F8F1
:10283000A96984F8AA1984F8AB29D4F8A8290779DA
:102840004679817984F8AC79862A84F8AD6984F870
:10285000AE1900F0CD8094F8251994F8082941F0BC
:10286000020005EBC00681F00101002A84F8251959
:102870004FF00001716082F001020CBF8821C82175
:1028800045F8301084F80829A7E440F20233994251
:1028900040F0B280B4F8003903F07F0348F690624C
:1028A000042BC1F6FF7200F2B280B2F8FE78002F5E
:1028B00040F0AD804FF403529B00C4F207021A446B
:1028C0004FF00108137843F00203137000231946F8
:1028D00018469C461A4694F8256946F0020E05EB08
:1028E000CE0AB8F1000FCAF804200CBF8822C82213
:1028F0004CE742F22123994240F08580B4F8003938
:10290000002B7CD1D4F81C2994F8FE38C4F8202977
:10291000002784F824394FF00108D7E742F29400E9
:1029200048F69062C4F20700C1F6FF7248F2000355
:10293000C1F6FF7302254FF4035E88240570C0F2D0
:10294000400482F8251902F6281CC4F2070E02F68C
:10295000681242F288074FF402561C60C4F207075F
:10296000C3F804C0C4F207069C6042F29805DA601E
:1029700042F28C04196142F2840299610D238EF8AF
:102980000030C4F20705FF23C4F20704C4F20702B3
:102990003B7033709F2701262970237017700670D3
:1029A00009B0BDE8F08F18F0080F0CBF0223032315
:1029B0005355FFF7B8BB5155FFF7B5BB4FF4035163
:1029C0004FF40252C4F20702C4F207010D24802022
:1029D0000C7010709A077FF5EDACDEE449F64C02FE
:1029E000C1F6FF72127884F8F02804F50F62AEE6A3
:1029F0000F2284F8F8282EE7B1F5A06F07D1002741
:102A00004FF0010862E742F221339942F7D0029A6F
:102A10000F231370009A01231370FFF7E3BB48F2F2
:102A200090040525C1F6FF74D5700D8814F0080FC9
:102A30000CBF8822C822083142EA05426160226048
:102A400062B600220260FFF79ABB402B7FF6B5AE5C
:102A500042F0020200EBC2056960D7B1C825C0F29E
:102A600040058AF808898AF82569403B403140F8DA
:102A70003250BBE645F0C80584F8088984F825691A
:102A8000194440F83250AEE6022B7FF4CBAD3E70D5
:102A9000C8E58825E3E7B4F8003903F07F03042B89
:102AA000B5D8B4F8FE28002AB1D14FF403529B00E8
:102AB000C4F207021A440027137823F002031370AC
:102AC0004FF0010802E748F67C0244F6C463B4F80C
:102AD000FE08B4F80069C1F6FF72C0F2000303E01B
:102AE0000C335A68002A92D019888142F8D159884B
:102AF000B142F5D1000A03280CBF13781B8926E6E2
:102B000072B648F62414C1F6FF742568B5FA85F04C
:102B10000B285CDC4FF00042C24025EA020525602C
:102B200062B648F2BC3400EBC000C1F6FF7404EB9F
:102B3000C00544F83010696072B649F68402C1F6E7
:102B4000FF72D178012900F0A180C0F0998002299C
:102B500027D0032940F0B38048F298010426C1F63B
:102B6000FF7111F0080F34F83000D6700CBF8822C6
:102B7000C822083542EA00424D600A6062B6FFF79B
:102B8000FEBA48F29804C1F6FF7402254CE748F2F9
:102B900090040325C1F6FF7446E702F50F62022395
:102BA000D5E548F290010526C1F6FF71D9E749F64F
:102BB0007004C1F6FF74E268002A74D049F68802F6
:102BC000C1F6FF72D4686160D16062B639E762B65F
:102BD00001211170FFF7D3BAD3F89C00083800F038
:102BE000F9FFD0E4D3F89400083800F0F3FFC1E413
:102BF000D3F88C00083800F0EDFFB2E4D3F884007D
:102C0000083800F0E7FFA3E4D86F083800F0E2FFCF
:102C100095E4586F083800F0DDFF88E4D86E083876
:102C200000F0D8FF7BE4586E083800F0D3FF6EE464
:102C3000D86D083800F0CEFF61E4586D083800F018
:102C4000C9FF54E4D86C083800F0C4FF47E4586C5E
:102C5000083800F0BFFF3AE4D86B083800F0BAFF3C
:102C60002DE4586B083800F0B5FF20E4D86A083826
:102C700000F0B0FF13E4586A083800F0ABFF06E438
:102C800048F290010326C1F6FF716AE748F2980105
:102C9000C1F6FF71022664E762B6137800210133A2
:102CA000A966137037E549F68802E160C1F6FF7244
:102CB0008AE762B616780366731C137006E549F658
:102CC0007001C1F6FF71CA6852B149F68802C1F6B7
:102CD000FF72D1684D60D56062B6FFF750BA00BE92
:102CE00049F68802CD60C1F6FF72F4E7402B9C469E
:102CF00028BF4FF0400CCCEB03034FEA0C4002EB33
:102D00000C0100274FF00108E5E500BF2DE9F8436D
:102D1000054672B64EF2180348F690664EF6045217
:102D2000C1F6FF76CEF20003CEF200021B68D6F8A1
:102D30001C19126862B6520102D5322B88BF0131CC
:102D4000DDB3C3F50C334FF47A724EF218094EF628
:102D5000045848F63967902403F27F23CEF2000925
:102D6000B3FBF4F3CEF2000802FB0134C3F6E30731
:102D700072B6D9F80010D6F81C29D8F800E062B66F
:102D8000C1F50C3303F27F23A7FB03031EF0806F12
:102D9000C4EB53134FF47A7002D0322988BF01324A
:102DA00000FB0233B3F57A7F04D3013D05D004F56F
:102DB0007A74DDE700F086FDDAE7BDE8F88300BF4E
:102DC000704700BF47F23C1248F65803C4F20302B2
:102DD000C1F6FF7301211160DB68184747F22C121E
:102DE00048F65803C4F20302C1F6FF7301211160D3
:102DF0009B68184747F21C1248F65803C4F20302B6
:102E0000C1F6FF73012111605B68184747F20C128D
:102E100048F65803C4F20302C1F6FF7301211160A2
:102E20001B68184749F2AC73C1F6FF731A68013288
:102E30001A60704738B5EFF3108272B649F6400455
:102E4000C1F6FF74206878B100254369236003B19F
:102E50009D6102B962B6457783689847EFF31082A7
:102E600072B620680028F0D102B962B638BD00BF42
:102E700070B448F61803C1F6FF7348F21F02196BCD
:102E8000C4F2000208791070D86A48F21C02C4F239
:102E9000000204791470097911709A6A002A4FD0DF
:102EA0005968C9688A4247D80168CC8B240402F16A
:102EB000FF3069D4C0F30E00C883C88B80B2C882CB
:102EC000196B0968C88B000456D4C2F30E00C8837E
:102ED000C88B002480B212F1FF32C88218BF0122D1
:102EE0009C62D96A086848F618010568C1F6FF7146
:102EF00001F12404A54237D00968CC6814F0804F52
:102F00000468056815BF248824780235013544F02B
:102F1000004405604C63196B48F21B03C4F20003C4
:102F20000979197048F61801C1F6FF7112B1CA6A21
:102F300012791A7070BC7047521A9A620122D0E757
:102F40001968586B0A630024CFF60F74CC62CC6802
:102F5000066824F08044CC603468032583F825504B
:102F60001146234670BC1847086891F82410C468BD
:102F700041F000414163CEE7CC8BC2F3080004F47A
:102F80007E442043C883A3E7CC8BC0F3080004F43D
:102F90007E442043C88390E74FF2C803C4F20F0376
:102FA0000421196000BF00BF00BF00BF4FF2C40280
:102FB00048F67C63C4F20F02C1F6FF730120116072
:102FC00018607047F8B548F65403C1F6FF73002146
:102FD0001C68204601F09AFE48B94AF6AB21C4F6B7
:102FE000AA41204601F0A6FE0546002849D048F631
:102FF0008063C1F6FF731B7883B1022B29D9042BA0
:103000000CD848F68163C1F6FF731B78002B77D18B
:103010004FF28803C4F20F0304221A6048F6846258
:103020004FF244004FF2480148F67863C1F6FF7250
:10303000C4F20F00C4F20F01C1F6FF7300274FF472
:1030400000364FF480350124176006600D601C7057
:10305000F8BD72B64BF20800C4F2040048F65412F0
:10306000036823F08773C1F6FF7223F4803343F6BD
:10307000595143F08073C0F200010360916062B661
:10308000CCE70021C4F24021204601F097FC4FF02C
:103090007C5101F089FB01F057FE2328A7D948F69F
:1030A0006C66C1F6FF7634688CB30123A560E360DB
:1030B0004FF40F43CBF6FC732344191101F1440282
:1030C00048F658055311C1F6FF7542F69977C0F2DC
:1030D00000079B0045F8217003F160434EF2444520
:1030E0002060CEF2000503F5614302F01F020120CB
:1030F0003679032700FA02F2A7604E551A6076E788
:103100004FF28403C4F20F0304221A6086E748F2E8
:103110003C03C4F204031A6842F400021A6000BFC0
:103120004FF4E042C4F203024FF4E243C4F203035B
:10313000012111609A683360B2B147F21013C4F2F2
:1031400003039A686AB147F22013C4F203039A6832
:103150003AB147F23013C4F203039A680AB13460FB
:1031600045E71C463360A3E71C46A1E748F67C62AE
:1031700048F67463C1F6FF72C1F6FF7300200121A7
:1031800010601960704700BF02680AB34FF40F4324
:10319000CBF6FC73F0B413441B1103F144024EF25E
:1031A000801648F6580102F01F07CEF200065211B1
:1031B0000125C1F6FF7142F6C154BD40C0F20004C2
:1031C00046F8225041F82340F0BC036800229A6080
:1031D000704700BF0846114600F0B4BB00B583B08D
:1031E00002A800F8011D012100F0ACFB03B05DF85E
:1031F00004FB00BF70B5046843F2D5136568C0F2E4
:1032000000039D42144605D10846114600F09AFB82
:10321000204670BDA847204670BD00BF48F66C62CE
:10322000C1F6FF722DE9F047106800B34FF40F4369
:10323000CBF6FC7303441B1103F144014EF28017DB
:1032400001F01F060125491148F65804CEF2000787
:1032500005FA06F6C1F6FF7442F6C15547F821603B
:10326000C0F20005002144F823501160816048F647
:103270008063C1F6FF7304221B78033B012B0CD83B
:1032800048F68163C1F6FF731B78002B00F0E180E4
:103290004FF28803C4F20F031A604FF24801C4F2E0
:1032A0000F0148F6786448F684604FF2C402C1F614
:1032B000FF74C1F6FF70C4F20F024FF400330B60CD
:1032C00000264FF480370825302306602670184604
:1032D0000F6015600138FDD14FF2C801C4F20F0133
:1032E0000D60013BFDD10420086000BF00BF00BF9E
:1032F00000BF48F67C63C1F6FF73012448F6746191
:103300001060C1F6FF711C600A6848F67463C1F66C
:10331000FF73002AF8D048F61806C1F6FF760021A0
:10332000F27A196032B372B6F37AD9071A4609D520
:103330004EF28010CEF20000F26801681140B161D7
:103340001A4601609B0709D54EF28412CEF20002A4
:10335000336911680B40F3611360F27A570708D59F
:103360004EF28812CEF20002736911680B4033628C
:10337000136062B63368DA68B2F13C4F0ED044F2A3
:1033800001010022C0F23F014FF03C44C8F23F026D
:103390004FF07C401960DC6018611A604FF28802BF
:1033A000C4F20F0248F650031021C1F6FF731160FA
:1033B000197819B33268D06810F0807F4FF48060BC
:1033C00048F61803C8F21F00C1F6FF73106046D11B
:1033D000CD0740F1AA80012900F0248148F6586CFD
:1033E000C1F6FF7C93F824901CF8013B43F00043A6
:1033F00049EA0929536301F1FF389FE04FF2840342
:10340000C4F20F0310221A60F37A48F61802194624
:10341000C1F6FF72DBB1D80706D54FF46141CEF299
:10342000000192690A6019469A0706D54EF2041304
:10343000CEF20003F2691A60F17A4B0707D54EF21B
:103440000813CEF20003326A1A60BDE8F087BDE8C7
:10345000F0874FF28403C4F20F031A601DE7C80718
:1034600040F1BE80012900F0D58048F6586EC1F6C3
:10347000FF7E93F824801EF8013B43F00043536322
:1034800001F1FF3C48F65860D6F80490C1F6FF7091
:10349000BEF1000F07D09EF801809EF800300EF1BB
:1034A000020E43EA082899F80840BCF1020F04F123
:1034B000FF344FEA04340CBF48F0805348F0104307
:1034C000A4B25363ACF1020C07E008B105700130FF
:1034D000013903F47043A34214D9D36A13F0F00FF7
:1034E000F7D011F0010F0746956BEED120B107F828
:1034F000025B2D124570384603F47043A342A1F1DC
:103500000201EAD8BCF1000FC2D1326800293FF4B1
:1035100075AFD36A13F0F00FFBD0CC07936B70D567
:1035200008B1037001300139F0E793F8249048F6B0
:10353000586C49EA0929C1F6FF7C884648F658606C
:10354000D6F804A0C1F6FF70BCF1000F05D09CF8BE
:1035500001301CF8029B43EA09299AF80840B8F1A7
:10356000020F04F1FF344FEA04340CBF49F08053DA
:1035700049F01043A4B25363A8F1020807E008B170
:1035800005700130013903F47043A34215D9D36AA1
:1035900013F0F00FF7D0956B11F0010F07464FEACB
:1035A000252EECD118B107F802EB4570384603F42C
:1035B0007043A342A1F10201E9D8B8F1000FC3D1D1
:1035C000326800293FF41AAFD36A13F0F00FFBD032
:1035D000CC07936B0CD508B1037001300139F0E7CB
:1035E00048F6586E93F82480C1F6FF7E8C4649E772
:1035F00028B104461D1204F8025B437020460239CC
:10360000DFE728B104461D1204F8023B457020464E
:1036100002397BE748F65863C1F6FF7318461B78FA
:10362000536372E748F65863C1F6FF7318461B7878
:103630005363C5E730B448F66C63C1F6FF7380246A
:10364000002548F6140243F289111C711D601846CA
:10365000C1F6FF72C0F2000130BC00F057BF00BFDE
:1036600049F64802C1F6FF7213681BB15A88134429
:10367000187A704713798BB110B472B613692BB1F5
:103680001888918B5C681461091A918362B6136083
:103690003BB15A881344187A10BC70474FF0FF3082
:1036A00070474FF0FF30F7E749F64803C1F6FF7364
:1036B00001215A6A83F8201032B150880022C0F1EB
:1036C000400083F820207047197919B9002083F849
:1036D0002000704772B6596B61B349680132002906
:1036E000FBD162B6072AF1D872B648F62411C1F6AA
:1036F000FF710868B0FA80F20B2A1DDC10B44FF09D
:103700000044D44020EA0400086062B648F2BC31AC
:1037100002EBC202D200C1F6FF71881800248C505F
:10372000586244600022408883F82020C0F14000A5
:1037300010BC70470A46D4E762B600225A62C5E759
:1037400030B449F64803C1F6FF731A79002A35D020
:103750005A6A012183F82010002A43D000205188A2
:1037600083F83800118072B693F83F1001290DD00C
:1037700032D302292AD0032922D0596B002900F024
:103780008280D96C4A60DA6462B612E048F298012D
:103790000220C1F6FF7183F83F00148811F0080F72
:1037A00014BFC8208820083240EA04404A600860FC
:1037B00062B600225A62002283F8202030BC704793
:1037C00048F298010420C1F6FF71E4E748F2900145
:1037D000C1F6FF710520DEE748F290010320C1F633
:1037E000FF71D8E772B648F62414C1F6FF74256855
:1037F000B5FA85F00B2836DC4FF00041C14025EAD0
:103800000105256062B648F2BC3100EBC000C00083
:10381000C1F6FF710C180A5083F83820626072B646
:1038200093F83F20012A22D017D3022A25D0032A59
:103830002BD148F298020425C1F6FF72085A83F88A
:103840003F5012F0080F14BFC8218821083441EA04
:1038500000415460116062B6ADE748F29002032562
:10386000C1F6FF72EAE762B683F83810A3E748F2C0
:1038700098020225C1F6FF72E0E748F29002C1F615
:10388000FF720525DAE75A637DE75A6B22B1DA6CDD
:103890005460DC6462B68EE75C63FAE744F6347326
:1038A000C0F2000303EBC00253F83010536801204C
:1038B0004FF4A27281F880021A601A6822F0200286
:1038C0001A60704748F62413C1F6FF731A79DAB10B
:1038D00070B549F64804C1F6FF7494F8501091B9D8
:1038E000D10744BF02F0FE021A71002149F64803D5
:1038F0005207C1F6FF7384F8501004D55A6D12B107
:10390000EFF305820AB170BD7047EFF3108172B614
:10391000586D10B193F858201AB10029F3D162B64E
:1039200070BD45695D65012683F8586005B1AA61DF
:1039300001B962B6002545778368984784F85850E6
:10394000E1E700BF2DE9F04F49F6480585B0C1F623
:10395000FF75012385F820300391002900F0A8802D
:1039600048F62413C1F6FF73044601932F460E4612
:1039700005E0052385F83830002E00F099806A6A4A
:10398000002A00F0A980B2F802C0CCF14003B34293
:1039900028BF33460CEB030080B202F1080B4FF056
:1039A000000EF61A508003F1FF380BEB0C0185F87E
:1039B00059E0002B4FD00CF108000CF10C0C944492
:1039C000104404F10409484538BF64452CBF4FF04A
:1039D000010C4FF0000C092B94BF4FF0000C0CF0C1
:1039E000010CBCF1000F6ED044EA000C1CF0030F78
:1039F00069D1A3F1040C4FEA9C0C0CF1010CB8F155
:103A0000020F4FEA8C095CD9A4F1040A02960EF168
:103A1000010E5AF8046F40F8046BF445F7D84B4593
:103A2000029E4944C9EB080804EB090000F0B3808A
:103A300090F800E081F800E0B8F1000F3FD090F876
:103A400001E081F801E0B8F1010F38D0807888708A
:103A5000234450881C463F288BD94023138072B6DC
:103A600095F83F30012B00F0AD80C0F0A580022B0F
:103A700000F09C80032B40F0928048F298030421D0
:103A8000C1F6FF7385F83F101188C3F804B013F036
:103A9000080F0CBF8822C82242EA01421A6062B6AF
:103AA00000236B62052385F83830002E7FF467AF62
:103AB0000398002385F8203005B0BDE8F08F23443B
:103AC000C7E72046B4E70139234414F8010B01F895
:103AD000010F9C42F9D1BCE73B79DBB14FF6D969C4
:103AE0004FF0010872B66B6B002B56D000225B685A
:103AF0000132002BFBD162B6072A13D9B9F10109B3
:103B000041D095F85930002B3DD1FFF7DBFE3B79D2
:103B1000002BE7D100234FF0FF3085F8203005B0AF
:103B2000BDE8F08F85F8208072B6019B1A68B2FA62
:103B300082F348F624110B2BC1F6FF711BDC4FF00A
:103B40000040D84022EA00020A6062B648F2BC3265
:103B5000C1F6FF7203EBC30349F6480002EBC30151
:103B6000C1F6FF704FF0000E42F833E041620A46A2
:103B7000C1F804E007E762B60023B9F101097B62EE
:103B800087F82030BDD101234FF0FF3085F8593040
:103B900005B0BDE8F08F03465BE71A46ABE77B6BE9
:103BA000B3B1FB6C5A60EA6462B679E748F29003FD
:103BB0000521C1F6FF7365E748F290030321C1F6C2
:103BC000FF735FE748F29803C1F6FF73022159E7DC
:103BD0007A63E8E748F2BC33C1F6FF7348F639620E
:103BE000C31AC3F6E302A2FB03231B090B2B17D84E
:103BF00010B449F64802C1F6FF7292F85A1009B1A2
:103C0000117971B972B648F62412C1F6FF724FF0FD
:103C10000040116820FA03F31943116062B610BC2A
:103C2000704772B648F20001C1F6FF710C6E9CB18C
:103C30008C6E24B162B6002182F85A10E2E792F845
:103C40005A30C8240830013BC0F24004C86682F8EC
:103C50005A308C6662B6E2E792F85A30882408300F
:103C6000013BC0F24004486682F85A300C6662B6E6
:103C7000D5E700BF2DE9F04149F64805C1F6FF75CB
:103C80002B79002B3BD0286818B1FFF7A3FF002346
:103C90002B6049F6480448F2BC3748F6396848F6C4
:103CA0002416C1F6FF74C1F6FF77C3F6E308C1F628
:103CB000FF7672B6286928B10188A38B4268226119
:103CC0005B1AA38362B6D0B1C31BA8FB03231B09F5
:103CD0000B2BEED895F85A200AB122798AB972B620
:103CE0004FF00041326821FA03F31A43326062B6A2
:103CF00072B628690028DFD162B60028E4D1BDE899
:103D0000F08172B648F20003C1F6FF731A6EAAB1D1
:103D10009A6E32B162B6002384F85A30FFF75AFF28
:103D2000C7E794F85A20C8210830013AC0F2400190
:103D3000D86684F85A20996662B6BAE794F85A2091
:103D400088210830013AC0F24001586684F85A20B0
:103D5000196662B6ADE700BF704700BF2DE9804825
:103D600048F6D86383B048F6906548F6946848F6FC
:103D7000D46A48F6D56948F6007748F6017648F2E5
:103D8000340B4FF44044C1F6FF73C1F6FF75C1F622
:103D9000FF78C1F6FF7AC1F6FF790193C1F6FF778C
:103DA000C1F6FF76C4F2040BC4F206040BE0DBF8A4
:103DB0000020500511D4DBF80020110513D4DBF8E6
:103DC0000020D20415D4DBF800205303EFD5FEF712
:103DD0001DF9DBF800205005EDD5FEF799F8DBF86A
:103DE00000201105EBD5FEF717F8DBF80020D20410
:103DF000E9D5227993060DD5E1792A783078013218
:103E00003F2AC8BF00228242C9B203D0D0B208F80C
:103E100002102870E278D2B2100609D45206D2D528
:103E200022795306CFD500212C223970E270CAE7DF
:103E300021790906F2D59AF8000099F80010C9B264
:103E400088420DD00131272988BF0020019B8CBFFB
:103E50000146C8B2595CC9B2E17189F80000DDE7DA
:103E60006C21E170DAE700BF08B5FFF777FF00BF0C
:103E70004EF20813CEF200034FF400022DE9F04198
:103E80001A604FF080721A604FF000721A6048F2A8
:103E900004004FF080621A60C4F203004FF0006229
:103EA00048F2080C48F20C0748F214011A60C4F2F8
:103EB000030C0022C4F20307C4F2030148F21C06FB
:103EC00048F22405026028234BF6FF70C4F2030673
:103ED000C4F2030548F22C04CCF80000C4F2030439
:103EE0003B6048F2340E0B6048F23C0748F2440154
:103EF0003360C4F2030E2B60C4F20307C4F2030163
:103F00004FF4004649F204052360C4F20306C4F2EC
:103F1000030549F20804CEF80030C4F203043B6004
:103F200049F20C0E0B6009213160C4F2030E2A60C5
:103F300049F214074FF4104648F204052060C4F219
:103F40000307C4F20306C4F20B0548F20804CEF8D6
:103F50000030C4F20B0448F20C0C48F2140E3B6023
:103F6000C4F20B0C3160C4F20B0E2A604FF4004611
:103F70004FF480452060C4F20B06C4F2070544F2FA
:103F80000104CCF80030C4F20704CEF800304BF244
:103F9000080760233160C4F203072B704BF20C0C4E
:103FA000E1234BF2080E2370C4F2030CC4F20B0E93
:103FB00039214BF20C004BF220064BF220054BF25C
:103FC00024044BF224033960C4F20B031327C4F218
:103FD0000B00C4F20306C4F20B05C4F20304CCF8D0
:103FE0000070CEF800108421076084B03260142085
:103FF0002A6021601960FEF789FE72B6002307204F
:104000000621C4F20203C4F20200C4F202017022CB
:1040100041260F2580241A7006701A460D701C70F8
:1040200013781B06FCD50823C4F202031B6862B692
:1040300049F27F62C0F29802934298BF0A224CF67E
:10404000CD4698BF5343CCF6CC46A6FB0312D2080C
:1040500002EB8201A3EB410330338DF804301346A9
:10406000002A00F0D48001A804460021A6FB0352D8
:10407000D20802EB8205A3EB4503303304F8013F7D
:1040800001311346002AF1D104AC0C4401AA0A44C0
:1040900004F80B3C1478057800F8014B0133CC1A76
:1040A000A34202F80159F5DB9DF8043048F690026E
:1040B000C1F6FF72002B00F0A6809DF8051053801A
:1040C000002900F0A7809DF806309180002B00F0B9
:1040D000A3809DF80710D380002900F09F809DF8F1
:1040E00008301181002B00F09B809DF8091053814E
:1040F000002900F097809DF80A309181002B00F094
:1041000095809DF80B10D381002900F08D809DF8DB
:104110000C301182002B75D09DF80D1053820923AD
:10412000002970D091821620002348F200011070FF
:10413000C1F6FF71184601EBC30441F833000133A7
:1041400048F20002142B6060C1F6FF724FF00004C9
:10415000F1D148F23403C4F2040342F29C06196818
:10416000C4F2070641F4802142F2B0001960C4F2A3
:104170000700C2F3072342F2B4053370C4F2070507
:10418000C2F307434FF4025842F2880C42F2100E79
:104190000370C4F20708C4F2070CC4F2070E120E33
:1041A00042F294074FF4045642F284002A70FF232F
:1041B000C4F20707C4F20706C4F207004EF24945ED
:1041C0004EF2081142F2081288F80030CEF20005D3
:1041D0008CF80030CEF200018EF80030C4F20702F5
:1041E00001233B703470702703704FF40076102465
:1041F0004FF48C702F700E60147004B0BDE8F04165
:10420000FEF784BD0823581C4000C0B28CE78DF82F
:10421000052049E70123F6E70223F4E70323F2E749
:104220000423F0E70523EEE70723ECE70623EAE79C
:10423000FEE700BFFEE700BF08B548F62C13C1F645
:10424000FF73D3F8E02048B169461044A1F58051CE
:10425000884205D2C3F8E000104608BD104608BDEC
:1042600000F060F90C2303604FF0FF3008BD00BF81
:1042700008B542F20E03C4F205034CF220521A8034
:104280004DF628121A8000BF00BF4FF40053C4F24D
:10429000050310221A8048F23003C4F204034FF0E1
:1042A00010621A6048F23803C4F2040343F68272C3
:1042B000C0F204021A6048F23C03C4F20403012273
:1042C000C2F600321A604DF21002C4F20302136803
:1042D00013F4807307D14DF21401C4F203010B6093
:1042E0004FF4A06313604DF20203C4F207031A787F
:1042F000100703D51A7842F008021A704FF4604391
:10430000C4F207032A221A7045F26C0148F22073A6
:1043100048F63C62C0F20001C1F6FF73C1F6FF72BD
:10432000934204D251F8040F43F8040BF8E748F61F
:104330003C6349F6A402C1F6FF73C1F6FF72002187
:10434000934202D243F8041BFAE748F2002040F2FD
:1043500000010023C1F6FF70C0F2000151F82320D4
:1043600040F82320013348F200226F2BC1F6FF7280
:10437000F4D14FF464434EF25F41CEF2000380204B
:10438000CEF2000103F8010B8B42FBD14EF608532D
:10439000CEF200031A604FF4A043C4F206038A224F
:1043A0001A704FF48043C4F2060324225A70A022EC
:1043B0001A709A799107FCD59A79D206FCD44FF4F9
:1043C0008042C4F20602937903F00C03082B4FF4E9
:1043D0008043C4F20603F6D103221A714C225A71AB
:1043E0009A799406FCD54FF48042C4F20602917982
:1043F0004FF480434806C4F20603F8D548F244025D
:10440000C4F204024FF00171116048F24802C4F294
:1044100004020421116020221A709A7902F00C0221
:104420000C2AFAD148F20403C4F204034FF4865272
:10443000C0F205021A604EF21403CEF2000343F2FA
:104440007F22C0F202021A604EF21803CEF200037D
:1044500000241C604EF21003CEF2000307221A6003
:104460004EF62053CEF200032246C2F220021A601A
:1044700062B6FFF7FDFC4DF21403C4F203031A68A1
:10448000D10719D54DF20401C4F203011C600C6080
:104490004FF45041C4F203014DF2F352C6F2894287
:1044A0000A6010221A604EF21C02C4F203024CF29F
:1044B000A531C5F6942111604FF47042C4F2070291
:1044C000127852061DD54EF21C02C4F203024CF2C1
:1044D000A5311068C5F69421884212D14DF204042A
:1044E000C4F203040021196021604FF450444DF2DE
:1044F000F350C4F20304C6F2894020601020186013
:10450000116000F015F8FBF7B1FF00BF0B46014644
:10451000184600F001B800BF13460A4601460220C3
:1045200000F02EB8014B1868704700BF388EFF1F8F
:1045300070B50F4E0F4D761BB61018BF002405D076
:10454000013455F8043B9847A642F9D10A4E0B4D69
:10455000761B00F07BFDB61018BF002406D0013496
:1045600055F8043B9847A642F9D170BD70BD00BF15
:10457000585000005850000064500000585000008F
:104580002DE9F047254C2568D5F848410646884670
:1045900092469946C4B360681F2817DC431C76B165
:1045A00004EB80050122C5F888A0D4F88811824068
:1045B0001143022EC4F88811C5F808911ED00230AC
:1045C000636044F820800020BDE8F087144B03B3FB
:1045D0004FF4C870AFF300800446D0B1D5F848312D
:1045E000002780E88800C5F8484138460123C4F810
:1045F0008871C4F88C71002EE1D0D1E7D4F88C1109
:104600000A43C4F88C21DAE705F5A674C5F84841D9
:10461000C1E74FF0FF30BDE8F08700BF4850000011
:1046200000000000024B13B1024800F005B87047CB
:104630000000000045460000002301461A461846C7
:10464000FFF79EBF38B5074D074C2C1BA41005D0B3
:10465000013C55F8043D9847002CF9D1BDE838409D
:1046600000F000BD0000000000000000844641EAA8
:10467000000313F003036DD1403A41D351F8043BDA
:1046800040F8043B51F8043B40F8043B51F8043B2C
:1046900040F8043B51F8043B40F8043B51F8043B1C
:1046A00040F8043B51F8043B40F8043B51F8043B0C
:1046B00040F8043B51F8043B40F8043B51F8043BFC
:1046C00040F8043B51F8043B40F8043B51F8043BEC
:1046D00040F8043B51F8043B40F8043B51F8043BDC
:1046E00040F8043B51F8043B40F8043B51F8043BCC
:1046F00040F8043B51F8043B40F8043B403ABDD23B
:10470000303211D351F8043B40F8043B51F8043BDC
:1047100040F8043B51F8043B40F8043B51F8043B9B
:1047200040F8043B103AEDD20C3205D351F8043B6B
:1047300040F8043B043AF9D2043208D0D2071CBF37
:1047400011F8013B00F8013B01D30B880380604660
:10475000704700BF082A13D38B078DD010F00303D6
:104760008AD0C3F10403D21ADB071CBF11F8013B46
:1047700000F8013B80D331F8023B20F8023B7BE795
:10478000043AD9D3013A11F8013B00F8013BF9D2C0
:104790000B7803704B7843708B788370604670475A
:1047A00080F0004002E000BF81F0004142001FBFE6
:1047B0005FEA410392EA030F7FEA226C7FEA236CEF
:1047C0006AD04FEA1262D2EB1363C1BFD2184140E4
:1047D00048404140B8BF5B42192B88BF704710F07A
:1047E000004F40F4000020F07F4018BF404211F01D
:1047F000004F41F4000121F07F4118BF494292EA85
:10480000030F3FD0A2F1010241FA03FC10EB0C00B0
:10481000C3F1200301FA03F100F0004302D549423D
:1048200060EB4000B0F5000F13D3B0F1807F06D3EA
:1048300040084FEA310102F10102FE2A51D2B1F1E2
:10484000004F40EBC25008BF20F0010040EA0300D7
:104850007047490040EB000010F4000FA2F1010284
:10486000EDD1B0FA80FCACF1080CB2EB0C0200FA0E
:104870000CF0AABF00EBC25052421843BCBFD0405C
:104880001843704792F0000F81F4000106BF80F4D6
:1048900000000132013BB5E74FEA41037FEA226C99
:1048A00018BF7FEA236C21D092EA030F04D092F064
:1048B000000F08BF0846704790EA010F1CBF002098
:1048C000704712F07F4F04D1400028BF40F00040F5
:1048D000704712F100723CBF00F50000704700F015
:1048E000004343F0FE4040F4000070477FEA22623C
:1048F00016BF08467FEA23630146420206BF5FEA0D
:10490000412390EA010F40F4800070474FF000030C
:1049100004E000BF10F0004348BF40425FEA000CD3
:1049200008BF704743F0964301464FF000001CE07B
:1049300050EA010208BF70474FF000030AE000BFD1
:1049400050EA010208BF704711F0004302D540420F
:1049500061EB41015FEA010C02BF84460146002081
:1049600043F0B64308BFA3F18053A3F50003BCFA9C
:104970008CF2083AA3EBC25310DB01FA02FC634449
:1049800000FA02FCC2F12002BCF1004F20FA02F250
:1049900043EB020008BF20F00100704702F1200243
:1049A00001FA02FCC2F1200250EA4C0021FA02F2A4
:1049B00043EB020008BF20EADC7070474FF0FF0CA9
:1049C0001CEAD0521EBF1CEAD15392EA0C0F93EAA4
:1049D0000C0F6FD01A4480EA010C400218BF5FEA46
:1049E00041211ED04FF0006343EA501043EA5111B9
:1049F000A0FB01310CF00040B1F5000F3EBF4900B3
:104A000041EAD3715B0040EA010062F17F02FD2AB6
:104A10001DD8B3F1004F40EBC25008BF20F0010099
:104A2000704790F0000F0CF0004C08BF49024CEAB0
:104A3000502040EA51207F3AC2BFD2F1FF0340EA42
:104A4000C250704740F400004FF00003013A5DDCB3
:104A500012F1190FDCBF00F000407047C2F10002F4
:104A6000410021FA02F1C2F1200200FA02FC5FEAE1
:104A7000310040F1000053EA4C0308BF20EADC702B
:104A8000704792F0000F00F0004C02BF400010F49D
:104A9000000F013AF9D040EA0C0093F0000F01F04A
:104AA000004C02BF490011F4000F013BF9D041EA6C
:104AB0000C018FE70CEAD15392EA0C0F18BF93EA6E
:104AC0000C0F0AD030F0004C18BF31F0004CD8D198
:104AD00080EA010000F00040704790F0000F17BF1F
:104AE00090F0004F084691F0000F91F0004F14D065
:104AF00092EA0C0F01D142020FD193EA0C0F03D1BD
:104B00004B0218BF084608D180EA010000F00040BF
:104B100040F0FE4040F40000704740F0FE4040F49A
:104B2000400070474FF0FF0C1CEAD0521EBF1CEA39
:104B3000D15392EA0C0F93EA0C0F69D0A2EB030257
:104B400080EA010C49024FEA402037D04FF08053F1
:104B500043EA111143EA10130CF000408B4238BFB6
:104B60005B0042F17D024FF4000C8B4224BF5B1AC4
:104B700040EA0C00B3EB510F24BFA3EB510340EA12
:104B80005C00B3EB910F24BFA3EB910340EA9C00C0
:104B9000B3EBD10F24BFA3EBD10340EADC001B0130
:104BA00018BF5FEA1C1CE0D1FD2A3FF650AF8B42D4
:104BB00040EBC25008BF20F0010070470CF0004CE1
:104BC0004CEA50207F32C2BFD2F1FF0340EAC2500C
:104BD000704740F400004FF00003013A37E792F0CD
:104BE000000F00F0004C02BF400010F4000F013A2B
:104BF000F9D040EA0C0093F0000F01F0004C02BF26
:104C0000490011F4000F013BF9D041EA0C0195E78E
:104C10000CEAD15392EA0C0F08D142027FF47DAF27
:104C200093EA0C0F7FF470AF084676E793EA0C0F17
:104C300004D14B023FF44CAF08466EE730F0004C15
:104C400018BF31F0004CCAD130F000427FF45CAFA5
:104C500031F000437FF43CAF5FE700BF4FF0FF3C13
:104C600006E000BF4FF0010C02E000BF4FF0010C66
:104C70004DF804CD4FEA40024FEA41037FEA226C2F
:104C800018BF7FEA236C11D001B052EA530C18BF51
:104C900090EA010F58BFB2EB030088BFC81738BFB6
:104CA0006FEAE17018BF40F0010070477FEA226CA4
:104CB00002D15FEA402C05D17FEA236CE4D15FEAA0
:104CC000412CE1D05DF8040B704700BF84460846D4
:104CD0006146FFE70FB5FFF7C9FF002848BF10F195
:104CE000000F0FBD4DF808EDFFF7F4FF0CBF0120DA
:104CF00000205DF808FB00BF4DF808EDFFF7EAFF64
:104D000034BF012000205DF808FB00BF4DF808ED1E
:104D1000FFF7E0FF94BF012000205DF808FB00BF13
:104D20004DF808EDFFF7D2FF94BF012000205DF899
:104D300008FB00BF4DF808EDFFF7C8FF34BF0120A6
:104D400000205DF808FB00BF42000ED2B2F1FE4F1A
:104D50000BD34FF09E03B3EB126209D44FEA00234A
:104D600043F0004323FA02F070474FF00000704711
:104D700012F1610F01D1420202D14FF0FF307047B2
:104D80004FF00000704700BF232323000D0A0000EE
:104D90003C80044000100000041A0000FF7F000067
:104DA00011100000712E00000C080000000200002D
:104DB000000200000B07000040020000000200009B
:104DC0000D0E000040020000000200000A02090669
:104DD000141715160F00000000020000000200006A
:104DE00000020000000200000002000000020000BB
:104DF00000020000000200000002000001010202A7
:104E0000040408081000000000000000000000007A
:104E1000DD310000D5310000A93600004137000027
:104E2000411D00003D1C000061360000753C000083
:104E30000200030004000500060008000A000C0040
:104E40001000140018002000280038004000600006
:104E50008000C00000018001000280020003000009
:104E600000000080000001800000000000000280BF
:104E7000000001000110000000000200011001000C
:104E800003200000010002000320010004300000A4
:104E9000032002000320030005400000054001003C
:104EA0000650000006500100076000000760010086
:104EB00008700000076002000870010048656C6C13
:104EC0006F000000000100007C88FF1F120000003E
:104ED00000020000E088FF1F430000000003000004
:104EE000DC88FF1F0000000001030904C088FF1FC9
:104EF0000000000002030904A888FF1F0000000052
:104F0000030309049088FF1F000000000000000058
:104F10000000000000000000000000000000000091
:104F20002800000028000000000000000000000031
:104F3000400000004008FE4340A004404408FE43F7
:104F400044A004400018FE4300C004403000FE436B
:104F5000309004403400FE43349004401C18FE435B
:104F60001CC004401018FE4310C004400818FE4343
:104F700008C004400C18FE430CC004400C10FE4353
:104F80000CB004401010FE4310B004401810FE4353
:104F900018B004401C10FE431CB004401410FE4323
:104FA00014B004400418FE4304C004400010FE4343
:104FB00000B004400008FE4300A004400408FE4383
:104FC00004A004400C08FE430CA004400808FE4363
:104FD00008A004401418FE4314C004401818FE43EF
:104FE00018C004400410FE4304B004400810FE43FF
:104FF00008B004401400FE43149004404C08FE43E3
:105000004CA004400420FE4304D004402410FE437E
:1050100024B004402010FE4320B004402810FE437A
:1050200028B004402C10FE432CB004400020FE4366
:1050300000D004404808FE4348A004401000FE434E
:105040001090044000151915108AFF1FF8B500BF15
:10505000F8BC08BC9E467047254600003504000099
:0450600035360000E1
:04506400F8B500BFDC
:08506800A4F4FF7F0100000029
:1050700038B54DF2A003C4F204031C681C606CB187
:1050800048F62C15C1F6FF7594FAA4F3B3FA83F32E
:1050900055F823309847631E1C40F5D138BD00BF3A
:1050A00038B54CF2A003C4F204031C681C6074B150
:1050B00048F62C15C1F6FF7594FAA4F3B3FA83F3FE
:1050C00005EB83039B689847631E1C40F4D138BDF1
:1050D00038B54BF2A003C4F204031C681C6074B121
:1050E00048F62C15C1F6FF7594FAA4F3B3FA83F3CE
:1050F00005EB83039B6A9847631E1C40F4D138BDBF
:1051000038B54AF2A003C4F204031C681C6074B1F1
:1051100048F62C15C1F6FF7594FAA4F3B3FA83F39D
:1051200005EB83039B6D9847631E1C40F4D138BD8B
:1051300038B549F2A003C4F204031C681C607CB1BA
:1051400048F62C15C1F6FF7594FAA4F3B3FA83F36D
:1051500005EB8303D3F8A8309847631E1C40F3D1B6
:1051600038BD00BF0000000000C00240904D0000AC
:10517000000000000000000000000000000000002F
:10518000000000000000000000000000000000001F
:10519000000000000000000000000000000000000F
:1051A0001201000000007A44C12D0000C12D000052
:1051B000C12D0000C12D000001000000104E0000B4
:1051C00000000000E80300000000000012011001D0
:1051D00002000040C91FDB827502010203010000CA
:1051E0000C030000000000000000000000000000B0
:1051F00000000000000000001603550053004200AC
:105200002000530065007200690061006C0000001E
:105210001C0345006C0065006300740072006900A7
:10522000350020004C00740064002E0004030904C3
:1052300009024300020100C0320904000001020219
:1052400001000524001001052401010104240206C7
:10525000052406000107058203100040090401002F
:10526000020A00000007050302400000070584024F
:1052700040000000FFFFFFFF01000000593D00005B
:10528000593D0000593D0000593D0000593D0000C6
:10529000593D0000593D0000593D0000593D0000B6
:1052A000593D0000593D0000593D0000593D0000A6
:1052B000593D0000593D0000593D0000593D000096
:1052C000593D0000593D0000593D0000593D000086
:1052D000593D0000593D0000593D0000593D000076
:1052E000593D0000593D0000593D0000593D000066
:1052F000593D0000593D0000593D0000593D000056
:10530000593D0000593D0000593D0000593D000045
:10531000593D0000593D0000593D0000593D000035
:10532000593D0000593D0000593D0000593D000025
:10533000593D0000593D0000593D0000593D000015
:10534000593D0000593D0000593D0000593D000005
:10535000593D0000593D0000593D0000A498FF1F31
:1053600000000000FC8CFF1F648DFF1FCC8DFF1F11
:10537000000000000000000000000000000000002D
:10538000000000000000000000000000000000001D
:10539000000000000000000000000000000000000D
:1053A00000000000000000000000000000000000FD
:1053B00000000000000000000000000000000000ED
:1053C00000000000000000000000000000000000DD
:1053D00000000000000000000000000000000000CD
:1053E00000000000000000000000000000000000BD
:1053F00000000000000000000000000000000000AD
:10540000000000000000000001000000000000009B
:105410000E33CDAB34126DE6ECDE05000B00000060
:10542000000000000000000000000000000000007C
:10543000000000000000000000000000000000006C
:10544000000000000000000000000000000000005C
:10545000000000000000000000000000000000004C
:0C5780000000000000000000108AFF1F65
:00000001FF
