:1000000000800020C5420000F13E0000E53D0000F8
:10001000E53D0000E53D0000E53D0000E53D000058
:10002000E53D0000E53D0000E53D0000F13E00003B
:10003000F13E0000E53D0000092A00008D28000087
:10004000F13E0000F13E0000F13E0000F13E0000F4
:10005000F13E0000F13E0000F13E0000F13E0000E4
:10006000F13E0000F13E0000F13E0000F13E0000D4
:10007000F13E0000F13E0000F13E0000F13E0000C4
:10008000F13E0000F13E0000F13E0000F13E0000B4
:10009000F13E0000F13E0000F13E0000F13E0000A4
:1000A000F13E0000F13E0000F13E0000F13E000094
:1000B000F13E0000F13E0000F13E0000F13E000084
:1000C000F13E0000F13E0000F13E0000F13E000074
:1000D000F13E0000F13E0000F13E0000F13E000064
:1000E000F13E0000F13E0000F13E0000F13E000054
:1000F000F13E000069180000F13E000065170000A5
:10010000F13E0000A5160000F13E0000F13E0000A7
:10011000F13E0000F13E0000F13E0000F13E000023
:10012000F13E0000F13E0000F13E0000F13E000013
:10013000F13E0000F13E0000F13E0000F13E000003
:10014000F13E0000F13E0000F13E0000F13E0000F3
:10015000F13E0000F13E0000F13E0000F13E0000E3
:10016000F13E000071190000F13E0000F13E000078
:10017000F13E0000F13E0000F13E0000F13E0000C3
:10018000F13E0000F13E0000F13E0000F13E0000B3
:10019000F13E0000F13E0000F13E0000F13E0000A3
:1001A000F13E0000F13E0000F13E0000F13E000093
:1001B000F13E0000F13E0000F13E0000FFFFFFFFB6
:1001C000FFFFFFFFFFFFFFFFFFFFFFFFFFFFFFFF3F
:1001D000FFFFFFFFFFFFFFFFFFFFFFFFFFFFFFFF2F
:1001E000FFFFFFFFFFFFFFFFFFFFFFFFFFFFFFFF1F
:1001F000FFFFFFFFFFFFFFFFFFFFFFFFFFFFFFFF0F
:10040000FFFFFFFFFFFFFFFFFFFFFFFFDEF9FFFF23
:1004100010B5054C237833B9044B13B10448AFF33E
:1004200000800123237010BD00A6FF1F0000000004
:1004300010620000084B10B51BB108490848AFF323
:1004400000800848036803B910BD074B002BFBD0A0
:10045000BDE81040184700BF0000000004A6FF1FC1
:100460001062000000A6FF1F000000002DE9804878
:1004700041F21C024BF21C03C4F2FE32C4F204032C
:1004800000254FF480764FF2880785B082F88052BD
:10049000C4F20F071E600B2002F0A2FE40233B6057
:1004A0000D2002F09DFE342049F23401C4F2040113
:1004B000C4F2FE3020223A6001244FF4A27345F6C4
:1004C000C74280F88042C0F200020B60D1F800E021
:1004D0000092302749F23002C4F20402C4F2FE371F
:1004E0002EF0200EC1F800E080F8804087F88042AE
:1004F0001360D2F800E041F610004CF21001C4F293
:100500000401C4F2FE302EF0200EC2F800E087F89D
:10051000804080F880420B60D1F800E041F61C0773
:100520004CF21C02C4F20402C4F2FE372EF0200E7C
:10053000C1F800E080F8804087F880421360D2F86C
:1005400000E041F60C004CF20C01C4F20401C4F2CC
:10055000FE302EF0200EC2F800E087F8804080F8D0
:1005600080420B600F6841F6080E4CF20802C4F29C
:100570000402C4F2FE3E27F020070F6080F880409E
:100580008EF880421360176841F210004BF21001A0
:10059000C4F20401C4F2FE3027F0200717608EF881
:1005A000804080F880420B60D1F800E041F20C07F7
:1005B0004BF20C02C4F20402C4F2FE372EF0200EFD
:1005C000C1F800E080F8804087F880421360D2F8DC
:1005D00000E04FF480504FF43041C4F20401C4F203
:1005E000FE302EF0200EC2F800E087F8804080F840
:1005F00080420B60D1F800E041F604074CF204029F
:10060000C4F20402C4F2FE372EF0200EC1F800E05E
:1006100080F8804087F880421360D2F800E040F60E
:100620000C004AF20C01C4F20401C4F2FE302EF0B8
:10063000200EC2F800E087F8804080F880420B600E
:10064000D1F800E040F604074AF20402C4F20402C2
:10065000C4F2FE372EF0200EC1F800E080F8804092
:1006600087F880421360D2F800E041F614004CF2A3
:100670001401C4F20401C4F2FE302EF0200EC2F8C0
:1006800000E087F8804080F880420B60D1F800E0FD
:1006900040F608074AF20802C4F20402C4F2FE3728
:1006A0002EF0200EC1F800E080F8804087F88042EC
:1006B0001360D2F800E041F204004BF20401C4F2EE
:1006C0000401C4F2FE302EF0200EC2F800E087F8DC
:1006D000804080F880420B60D1F800E041F61807B6
:1006E0004CF21802C4F20402C4F2FE372EF0200EBF
:1006F000C1F800E080F8804087F8804213601368FA
:100700004FF400684FF4204C41F2080E4BF2080100
:10071000C4F2FE38C4F2040CC4F2FE3EC4F204017A
:1007200023F0200340F203191360022087F8804071
:1007300088F88052CCF800608EF88052C1F80090A2
:1007400002F04EFD45F6C742C0F2000208324FF2F9
:10075000C8030292C4F20F034AF21C6B46F2AC02C9
:10076000C1F6FF7B49F6E87A4AF640764EF6045821
:1007700048F63967C0F200021C605D46CDF80CB047
:10078000C1F6FF7AC1F6FF76CEF20008C3F6E307A2
:100790009346009B029913F8012F0093212A11F828
:1007A000013F02912A726B7220D80BEBC2035BF8F7
:1007B00032405B684FF4A272012084F880021A6014
:1007C0001A6822F020021A602A7A46F2AC03212A23
:1007D000C0F2000300F2228253F8324094F88012F3
:1007E000002900F0148284F880006B7A212B1ED837
:1007F0000BEBC3025BF83340536801204FF4A27245
:1008000084F880021A601A6822F020021A606A7A5C
:1008100046F2AC03212AC0F2000308D853F8324054
:1008200094F88012002900F0EA8184F88000DAF858
:10083000043093E80500046822430260DAF80020DF
:1008400044F2010041F20101C0F21F0010600C46A9
:100850000020C3F60001C7F60004C8F21F00D160F3
:10086000146110609AF8092098180A3290F8240050
:1008700053F822400BEBC0022846526814609AF8E5
:1008800008209C1803EB8202247ED1690BEBC40282
:10089000526811609AF80A209C1803EB820394F8BE
:1008A00030205C6B0BEBC2035B681C6000F0D8F976
:1008B0009AF80B3085F84C00002B33D072B649F60D
:1008C000E873C1F6FF73DB7ADA0710D54EF28012B7
:1008D00049F6E873CEF20002C1F6FF731068DB68D8
:1008E00049F6E871C1F6FF7103408B6113609AF815
:1008F0000B309B0710D54EF2841249F6E873CEF206
:100900000002C1F6FF7310681B6949F6E871C1F671
:10091000FF710340CB6113609AF80B305C0700F164
:100920007F8162B6DAF8002040F20113D068C3F686
:10093000002398420ED044F20100C0F23F00106044
:1009400040F201140020C7F60024C8F23F00D36033
:10095000146110602B7A5BF83300012406234FF0FA
:10096000004180F80041D1625363D36A002BFCDA66
:10097000936B72B64EF21803CEF200031B68346814
:10098000D8F8002062B6500102D5322B88BF01345E
:10099000C3F58C3303F23F134FF47A724BF23800F5
:1009A000A7FB031302FB04F44EF21809C1F6FF7013
:1009B000514604EB1314AA46CEF2000905464FF443
:1009C0007A7072B6D9F800303268D8F800E062B6B2
:1009D0001EF0806F02D0322B88BF0132C3F58C33FA
:1009E00003F23F13A7FB03E3C4EB131300FB023333
:1009F000B3F57A7FC0F0FA800B68554643228A46E9
:100A00004FF00041D9625A63DA6A002AFCDA95F89D
:100A10003C20986B4FF00041D9625A63DA6A002A91
:100A2000FCDA95F83D20986B4FF00041D9625A638B
:100A3000DA6A002AFCDA95F83E20986B4FF0004104
:100A4000D9625A63DA6A002AFCDA95F83F20986B7B
:100A50004FF00041D9625A63DA6A002AFCDA287A38
:100A60009AF80B205BF830009B6B012380F88030F4
:100A70003AB3D10709D549F6E8734FF46142C1F69C
:100A8000FF73CEF200029B6913609AF80B309A074D
:100A900009D549F6E8734EF20412C1F6FF73CEF29F
:100AA0000002DB6913609AF80B305B0709D549F641
:100AB000E8734EF20812C1F6FF73CEF200021B6A11
:100AC00013607423762285F8403040F6484385F859
:100AD0004120C5F89030284600F0BEFA009B1A4627
:100AE00045F6CF43C0F200039A4205F19C057FF41E
:100AF00050AE4FF400624FF420434AF21C65C4F23A
:100B0000FE32C4F20403C1F6FF75102000214FF439
:100B10008074DDF80CB085F8F40482F880121C6053
:100B20009AF8384085F800154AF21C6249F6E873D5
:100B30008442C1F6FF72C1F6FF7307D092F8012517
:100B400083F83800002A7DD102F0C0F94AF21C6314
:100B5000C1F6FF7393F80135002B7DD14BF22401D0
:100B60000A46C4F20B02C4F2030106230B601360B1
:100B70004AF21C63C1F6FF73102493F802058AF849
:100B800039404AF21C63C1F6FF7348B193F801453E
:100B9000002083F802050CB10860106002F096F99D
:100BA0004AF6FC27C1F6FF7723224FF4FA6387F851
:100BB0002420CAF844307426762540F648448BF841
:100BC00040608BF84150CBF8904058460BF19C0B9D
:100BD00000F042FA5F45F2D142F21073CAF84C308D
:100BE00002F0B8FF02F0CEFD05F002FB2B78002BDF
:100BF0007FF4E7AE019102F007FB0199DFE603EB1A
:100C0000C2035A68136843F0030313600FE603EB53
:100C1000C2035A68136843F0030313606B7AE5E577
:100C20004EF2881249F6E873CEF20002C1F6FF7365
:100C300010685B6949F6E871C1F6FF7103400B6209
:100C400013606EE64BF224021346C4F20B03C4F2A7
:100C500003021160196077E701F088FF7EE700BFAB
:100C60002DE9F04F49F6E87AC1F6FF7AF5B09AF827
:100C70000B30074673B372B69AF80B30DE071A468C
:100C80000BD54EF28010CEF20000DAF80C2001688D
:100C90001140CAF818101A4601609D070CD54EF293
:100CA0008412CEF20002DAF8103011680B40CAF854
:100CB0001C3013609AF80B2054070AD54EF28812A4
:100CC000CEF20002DAF8143011680B40CAF8203076
:100CD000136062B6DAF8003041F20102D968C3F657
:100CE000000291420ED044F2010441F201000021C1
:100CF000C0F23F04C7F60000C8F23F011C60DA6092
:100D00001861196046F2AC017A7AC0F200010091D4
:100D100051F8320001244FF00041032280F80041D5
:100D2000D9625A63DA6A002AFCDA4FF000410022E5
:100D3000986BD9625A63DA6A002AFCDA9A6BDA682D
:100D400012F0807F4FF48062C8F21F021A604CD10B
:100D50009AF82480DAF8042001970DF10C0B4FF477
:100D6000E27C48EA0828E14659465F46964627B1A4
:100D70007A7817F8028B42EA08289EF80840B9F101
:100D8000020F04F1FF344FEA04340CBF48F08052E4
:100D900048F01042A4B25A63A9F10209DA6A12F0CB
:100DA000F00F02F470400D4608D09A6B161219B17C
:100DB00005F8026B4A702946ACF1020CA042EDD84E
:100DC000B9F1000FD3D1019F6046002856D0DA6AEE
:100DD00012F0F00FFBD09C6B29B10A46251202F8E5
:100DE000025B4C7011460238EFE70DF10C0B3A46EE
:100DF0004FF4E2769AF824E0DAF80490B0465846C8
:100E00005F4694462FB197F801E03A78023742EAFC
:100E10000E2E99F80850B8F1020F05F1FF354FEA90
:100E200005350CBF4EF080524EF01042ADB25A6301
:100E3000A8F10208DA6A12F0F00F02F470410446D9
:100E400007D09A6B20B104F8022B12124270204690
:100E5000023EA942EED8B8F1000FD3D167466EB179
:100E6000DA6A12F0F00FFBD0996B28B102460C122F
:100E700002F8021B44701046023EF0E77A7A0099AD
:100E80009AF80B3051F83210012049F6E87281F8D7
:100E90008000C1F6FF721946A3B1D80706D54FF4FA
:100EA0006141CEF2000192690A6019469A0700F189
:100EB000AA804B0706D54EF20813CEF20003DAF8EB
:100EC00020201A609BE80F0007F16C0407AD84E84E
:100ED0000F0095E8070007F17C0303C323F8022BFA
:100EE000120C1A70DDF82700DDF82F209DF8333042
:100EF0009BF828509BF83D409BF83F107866C7F858
:100F00008720DDF82B009BF8412087F88B309BF879
:100F10004330B86687F88C5087F83C4087F83D101E
:100F200087F83E2087F83F30DDF88E00F860DDF866
:100F300092003861DDF896007861DDF89A00B861BA
:100F4000DDF8DE00F861DDF8E2003862DDF8E60089
:100F50007862DDF8EA00B862DDF82E01F862DDF8AB
:100F600032013863DDF83601BBF8C251786345F6CB
:100F70001461DDF83A01B8637D81C0F200010DF122
:100F80000B020DF2CD104FF6FF7412F8013F83EA09
:100F90001423904231F8133083EA0424A4B2F4D12C
:100FA00097F887306B2B47D01AD96D2B35D0702B23
:100FB0000FD147F20F61C4F2D751B86E04F09EFC16
:100FC00047F20F61B866C4F2D751786E04F096FC10
:100FD0007866281BB0FA80F0400975B0BDE8F08F44
:100FE000692BF6D141F2C361C4F27931B86E04F0D5
:100FF00085FC41F2C361B866C4F27931786E04F0C1
:101000007DFC7866E5E74EF20413CEF20003DAF8D1
:101010001C201A609AF80B104BE70021C4F2C8217B
:10102000B86E04F06BFC0021B866C4F2C821786E7B
:1010300004F064FC7866CCE70021C4F27A41B86E13
:1010400004F05CFC0021B866C4F27A41786E04F0CA
:1010500055FC7866BDE700BFF0B449F6E871C1F60B
:10106000FF71CB7A33B372B6CB7ADC071A4609D557
:101070004EF28015CEF20005CA682C6814408C61CF
:101080001A462C609F0709D54EF28412CEF2000258
:101090000B6914682340CB611360CA7A560708D5E0
:1010A0004EF28812CEF200024B69146823400B62A4
:1010B000136062B60B6840F20112DC68C3F60022CE
:1010C00094420ED044F2010640F201150024C0F211
:1010D0003F06C7F60025C8F23F041E60DA601D61B6
:1010E0001C6046F2AC04027AC0F20004012754F8F6
:1010F00032604FF00045442286F80071DD625A6389
:10110000DA6A002AFCDA9D6B90F841204FF0004526
:10111000DD625A63DA6A002AFCDA057ACA7A54F880
:1011200035409B6B012549F6E87384F88050C1F681
:10113000FF731446CAB1D50706D54FF46144CEF209
:1011400000049B6923601446920706D54EF20413EF
:10115000CEF20003CA691A60CC7A630705D54EF255
:101160000813CEF200030A6A1A60002380F8983050
:10117000F0BC70474AF69133C1F6FF7301221A7032
:1011800072B64BF20800C4F204004AF2101203686F
:1011900023F08773C1F6FF7223F4803343F6E151E5
:1011A00043F08073C0F200010360916062B6704743
:1011B000F8B590F8983049F6E8710446C1F6FF7129
:1011C000002B00F00281CB7A33B372B6CB7ADD0705
:1011D0001A4609D54EF28015CEF20005CA68286875
:1011E000104088611A462860980709D54EF284128B
:1011F000CEF200020B6910680340CB611360CA7A1B
:10120000530708D54EF28812CEF200024B691068DF
:1012100003400B62136062B60B6840F20112D8689B
:10122000C3F6002290420ED044F2010640F20115AE
:101230000020C0F23F06C7F60025C8F23F001E603E
:10124000DA601D61186046F2AC00227AC0F200003C
:10125000012550F8322082F8005122784FF00045E5
:10126000DD625A63DA6A002AFCDA9D6B4FF00047B0
:101270002D044422DF6205F47F065A63DA6A002AED
:10128000FCDA9D6B94F841202D0205F47F454FF068
:101290000047DF6235435A63DA6A002AFCDA9B6B47
:1012A000267ACA7A50F83660DBB22B4349F6E870EA
:1012B0000125A364C1F6FF70134686F88050CAB1B9
:1012C000D70706D54FF46143CEF20003806918605A
:1012D0001346960706D54EF20413CEF20003CA69F0
:1012E0001A60CB7A5D0705D54EF20813CEF20003E3
:1012F0000A6A1A60002384F89830A06C04F0A6FAF9
:101300004FF6FE71C4F6FF21064604F0B3FC28B187
:1013100030464FF0974104F0E7F90646A16D266686
:10132000304604F0E3F9E56DA1690646284604F06D
:10133000E5FA616904F0DAF9294604F0DFFA216977
:1013400004F0D4F9294604F0D9FAE16804F0CEF9A2
:101350000146304604F0C8F9A16A0646284604F062
:10136000CDFA616A04F0C2F9294604F0C7FA216A8D
:1013700004F0BCF9294604F0C1FAE1690546606849
:1013800004F0B4F90146284604F0B0F901463046AD
:1013900004F068FBA16B054604F0B0FA616B04F041
:1013A000A5F9294604F0AAFA216B04F09FF9294611
:1013B00004F0A4FAE16A04F099F9616E04F09EFA6F
:1013C000A16E04F093F96065F8BDCB7A33B372B6C1
:1013D000CB7AD8071A4609D54EF28015CEF2000511
:1013E000CA682868104088611A4628609F0709D596
:1013F0004EF28412CEF200020B6910680340CB61FA
:101400001360CA7A560708D54EF28812CEF200024F
:101410004B69106803400B62136062B60B6840F2C0
:101420000112D868C3F6002290420ED044F20106A1
:1014300040F201150020C0F23F06C7F60025C8F2B1
:101440003F001E60DA601D61186046F2AC00227A2F
:10145000C0F20000012750F832604FF000454422EE
:1014600086F80071DD625A63DA6A002AFCDA9D6B45
:1014700094F840202D024FF00046DE6205F47F45CF
:101480005A63DA6A002AFCDA9B6B267ACA7A50F829
:101490003660DBB22B4349F6E87001256364C1F680
:1014A000FF70134686F88050CAB1D50706D54FF4B1
:1014B0006143CEF20003806918601346920706D597
:1014C0004EF20413CEF20003CA691A60CB7A5B07AE
:1014D00005D54EF20813CEF200030A6A1A60606C5A
:1014E00001238008606484F8983004F0AFF94FF469
:1014F0007841C4F2FF51054604F0BCFB28B12846F0
:101500004FF08D4104F0F0F80546E56528464FF0B0
:10151000745104F0F3F92065F8BD00BFF0B546F250
:101520001403C0F2000385B0596818689A68DB6834
:101530006C460FC40123C4F202031B7899072AD515
:101540000022C4F202020720137813F0700318BFC0
:101550001370C4F2020004210B220A23C4F2020118
:10156000C4F20202C4F2020380270770002633246B
:1015700003200E706D461470187072B63446C4F2B3
:10158000020445F001052046A84762B6237813F00F
:10159000700340F0858040F641530121C0F20303FF
:1015A000C4F2020101E0013B02D00A78D207FAD569
:1015B0004AF21C63C1F6FF734CF677440022002008
:1015C000C3F22B244AF6FC21C1F6FF711A7083F88E
:1015D0004C2083F8982083F89C2083F8E82083F837
:1015E000342183F8382183F8842183F8D02183F8CB
:1015F000D42183F8202283F86C2283F8702283F8A8
:10160000BC2283F8082383F80C2383F8582383F83B
:10161000A42383F8A8235C60C3F8A040C3F83C412E
:10162000C3F8D841C3F87442C3F81043C3F8AC43BD
:101630009865C3F8F400C3F89001C3F82C02C3F80E
:10164000C802C3F864034BF6491783F8F4234CF639
:101650000F76C3F84844C3F8000483F8402483F8A5
:10166000442483F89024C3F89C0483F8DC2443F2D8
:10167000333549F233344FF4A043C4F2C373C3F695
:101680007617C3F65B36C4F25305CCF28834C861D2
:101690000F60CE600D618C614B608B6005B0F0BD5A
:1016A000237085E710B44FF44043C4F206031A795F
:1016B000920618D54BF23602C1F6FF72D87913782C
:1016C0004BF23701C1F6FF7101333F2B0978C8BFD8
:1016D00000238B42C0B206D04AF69431C1F6FF71A6
:1016E000DCB2C85414704FF44042C4F20602D378FE
:1016F000DBB21C0613D459060FD54FF44043C4F295
:1017000006031A79520608D54AF69432C1F6FF72DA
:1017100000202C2182F86C00D97010BC7047117920
:101720000806E8D54AF69430C1F6FF7090F84040BC
:1017300090F84110C9B28C4211D04A1C272A86BFAA
:1017400000242246D4B202444FF4404192F844208F
:10175000C4F20601D2B2CA7180F84140CBE76C21D5
:10176000D170C8E7F0B54FF43043C4F206031A79DC
:1017700012F0300F2BD072B6997D01F0FF020029D4
:1017800040D062B64BF234074BF23501C1F6FF7719
:10179000C1F6FF713C780E784AF6943E1846E4B2E2
:1017A000F6B2C1F6FF7E631C802BC17928BF0023EF
:1017B000B34202F1FF32C9B204D00EEB03051C465E
:1017C00085F8701012F0FF02EDD1E4B23C704FF4D6
:1017D0003042C4F20602D178C9B20D0617D44906C8
:1017E0000FD54FF43043C4F206031A79520608D5D8
:1017F0004AF69432C1F6FF7200203C2182F874014F
:10180000D970F0BD4022D9795A7462B6DFE71379F6
:101810001C06E4D54AF69434C1F6FF7494F8F050EF
:1018200094F8F130EDB2DBB29D4202D10EE0AB4252
:101830000CD00133802B28BF0023E018167990F8D4
:10184000F400C0B2D071107D0728F0D94FF43042B7
:10185000DBB2C4F2060284F8F1301379180644BFF3
:101860007C23D370BBE700BFF0B54FF42043C4F234
:1018700006031A7912F0300F2CD072B6997D01F060
:10188000FF02002941D062B64BF230074BF2320121
:10189000C1F6FF77C1F6FF713C880E884AF6943E88
:1018A0001846A4B2B6B2C1F6FF7E631CB3F5807FC2
:1018B000C17928BF0023B34202F1FF32C9B204D07C
:1018C0000EEB03051C4685F8781112F0FF02ECD1EF
:1018D000A4B23C804FF42042C4F20602D178C9B2CF
:1018E0000D0617D449060FD54FF42043C4F2060362
:1018F0001A79520608D54AF69432C1F6FF720020D2
:101900003C2182F87C03D970F0BD4022D9795A7409
:1019100062B6DFE713791C06E4D54AF69434C1F6C3
:10192000FF74B4F87852B4F87A32ADB29BB29D42EB
:1019300002D10FE0AB420DD00133B3F5807F28BF59
:101940000023E018167990F87C02C0B2D071107DA7
:101950000728EFD94FF420429BB2C4F20602A4F844
:101960007A321379180644BF7C23D370BAE700BFDC
:101970002DE9F04F42F2940389B042F298024FF4FD
:10198000035142F2C4004FF4025942F2900AC4F2E9
:101990000703C4F20702C4F20701C4F20700C4F24D
:1019A0000709C4F2070A009301920291039070E0C4
:1019B00048F200068F08C1F6FF7606EBC708013D26
:1019C000D8F8042001F00801EDB2A2F1080001F0FE
:1019D000FF04002940F0C98056F837301B0C1FFA6D
:1019E00083FE22F808EC002B00F0B2804BF22001BD
:1019F000C1F6FF7122F8064C51F8253042F8044C2C
:101A00004AF69434002B00F02584C1F6FF74AB0035
:101A1000E218D2F89C2350604BF2080BC1F6FF7B12
:101A20001C443BF81530C4F89C039E442BF815E089
:101A300072B64AF2E402C1F6FF721168B1FA81F39C
:101A40000B2B00F30E844FF00040D84021EA000138
:101A5000116062B648F2BC3103EBC303C1F6FF71FB
:101A6000C824C0F2400401EBC300882218F0080F1C
:101A7000C0F2400200F1080518BF2246C8F8045021
:101A8000002446F8372041F833404460082389F8A1
:101A9000003099F80030DBB2580725D54BF21C0214
:101AA000C1F6FF721278E2B14AF69432C1F6FF72C3
:101AB00092F8880300F0FF0128B10139C9B282F819
:101AC000881301B900BE4BF21D02C1F6FF721078F7
:101AD00000F0FF0128B10139C9B21170002900F0EE
:101AE0003C83042289F8002003F0080202F0FF0181
:101AF000002A00F0B9809AF80010C9B20D097FF4ED
:101B000057AF48F200088908C1F6FF7808EBC1001A
:101B100058F831304068C3F38303092B00F0C480C8
:101B200051D8013B012B0FD84AF69434C1F6FF740B
:101B300042F22103B4F88C539D4200F08182C82305
:101B4000C0F2400348F83130009A012313709DE73A
:101B5000C822882318F0080FC0F24002C0F24003E8
:101B600018BF134646F8373090E701F0CFFC4AF62D
:101B7000E872C1F6FF7252F82510002900F0868342
:101B80004AF6E470C1F6FF704B68445D42F82530B8
:101B9000012C01F10803C8F8043000F07483C0F090
:101BA0006F83022C00F06983032C01D10423435579
:101BB00018F0080F0A880CBF8823C82343EA0243A1
:101BC00046F8373062E70D2BBED14AF694340668EA
:101BD0004068C1F6FF74C823C0F2400348F83130B2
:101BE000C4F89003B3B240F2816001218342C8F887
:101BF0001050C8F81850C4F88C63C4F8945384F893
:101C0000981300F29680B3F5D06F80F03A84B3F564
:101C1000817F00F0C38300F25A83802B00F026847A
:101C2000822B40F0C283B4F8903303F07F034AF66E
:101C30009430042BC1F6FF7000F2B7834FF40351C8
:101C40009B00C4F207011944002380F8803380F818
:101C500081330B789D0740F1D084012380F88033D5
:101C6000022500F56070E5E3D80700F1AC821906A3
:101C700000F11D839A070CD542F28802C4F20702D4
:101C80004FF402501178C4F20700C9B20224117057
:101C90000470DB0605D54FF40253C4F2070310228B
:101CA0001A7009B0BDE8F08F4AF69434C1F6FF749B
:101CB000D4F894335BB3B4F8B61394F8985394F80B
:101CC000B50340290E4640F0020728BF4026002DEC
:101CD00085F00105A1EB06010CBF4FF0880E4FF017
:101CE000C80E84F8985308EBC70589B24EEA06423D
:101CF00080F001006B60A4F8B61348F83720334435
:101D000084F8B503002900F09781C4F89433B4F83F
:101D10008C234AF69433B2F5A06FC1F6FF737FF4BB
:101D200013AF002193F88E2383F88D13019B1A7053
:101D30000AE742F22100834200F00B8200F2B581F3
:101D4000B3F5086F00F06C83B3F5106F40F02D838E
:101D50004BF21C03C1F6FF73D8F8201094F88E03E1
:101D60001870090648F20003C1F6FF7300F1D7832B
:101D7000D8F8281048F200030A06C1F6FF7300F1F4
:101D80001F84D8F8301048F200030F06C1F6FF7325
:101D900000F11084D8F8381048F200030E06C1F69E
:101DA000FF7300F10184D8F8401048F200030D06DB
:101DB000C1F6FF7300F1F383D8F8481048F200032E
:101DC0000806C1F6FF7300F1E583D8F8501048F219
:101DD00000030906C1F6FF7300F1D783D8F8581045
:101DE00048F200030A06C1F6FF7300F1C983D8F870
:101DF000601048F200030F06C1F6FF7300F1BB83C9
:101E0000D8F8681048F200030E06C1F6FF7300F11F
:101E1000AD83D8F8701048F200030D06C1F6FF73C9
:101E200000F19F83D8F8781048F200030806C1F645
:101E3000FF7300F19183D8F8801048F2000309067F
:101E4000C1F6FF7300F18283D8F8881048F20003CE
:101E50000A06C1F6FF7300F17383D8F8901048F2B8
:101E600000030F06C1F6FF7300F16483D8F89810E1
:101E700048F200030E06C1F6FF7300F155834BF2E2
:101E800020034AF6E8724AF6F8714AF6E470002632
:101E90004BF2080BC1F6FF73C1F6FF72C1F6FF717A
:101EA000C1F6FF700494CDF81480CDF81890354633
:101EB000C1F6FF7B17461C4680468946CDF81CA01C
:101EC0002068A24630B1446801F020FB2046002C77
:101ED000F9D154464AF63073C1F6FF73386825606D
:101EE00043F82650A24630B1446801F00FFB20466B
:101EF000002CF9D1544698F800303D60032B49F886
:101F0000045B2BF8165000F0448240F27682042BDA
:101F100000F07682052B00F03C820136042E04F19D
:101F2000040407F1040708F10108C9D104AC94E8DE
:101F300010074BF2420142F2C80642F2CC00039A6B
:101F4000C1F6FF71C4F20706C4F2070000234FF088
:101F5000150E192748F200050B70C1F6FF751370B6
:101F6000C8F83030C8F8383086F800E0C8F850308B
:101F7000C8F85830077072B64AF2E400C1F6FF7034
:101F80000768B7FA87F60B2E00F363834FF0004E15
:101F90002EFA06FE27EA0E07076062B648F2BC3743
:101FA00006EBC606C1F6FF7707EBC60C882247F89A
:101FB0003630C0F240020CF10806CCF804306E66F0
:101FC0002A6672B60068B0FA80F34AF2E4050B2B79
:101FD000C1F6FF7500F343834FF00041D94020EA7A
:101FE0000100286062B648F2BC3103EBC303C1F6BE
:101FF000FF7101EBC30000F10805C826C0F24006DE
:10200000C8F86C50002541F83350C8F86860456046
:1020100042F2D001C4F2070100231520C8F8703045
:10202000C8F87830087094F89853C8F89030C8F819
:10203000983085F0010347E0402E18BF002364E686
:1020400003784678857884F8B833C37884F8B96320
:1020500084F8BA5384F8BB33D4F8B8330679457999
:10206000807984F8BD53862B94F8B55384F8BE0369
:1020700094F8980384F8BC6304BF0F2384F8883372
:1020800045F00203002885F0010584F8B5530CBF24
:102090008825C82548F8335008EBC30380F00100B9
:1020A000002584F898035D6049E542F221208342CF
:1020B00040F00B82D4F8AC3394F88E03C4F8B033FC
:1020C0002B4684F8B4030D4600210E468E460A4680
:1020D000084694F8B57347F0020C08EBCC0B002DC2
:1020E000CBF804000CBF8820C82040EA0E004AF656
:1020F000943B48F2000E48F83C0087F0010084F859
:102100009833C1F6FF7EC1F6FF7B84F8B503002942
:1021100040F05381402A1CD140F0020008EBC0027D
:1021200048F2000E5660C1F6FF7E002B40F05A8147
:102130000B0443F088034EF8303084F8985384F849
:10214000B5730E44402904D10021C4F89463A4F867
:10215000B613009A01231370F6E44BF21401C1F692
:10216000FF71097800297FF4BCAC4BF21800C1F66E
:10217000FF700168002900F0C9804A880A8072B6A1
:102180004AF6E472C1F6FF72D478012C00F029827D
:10219000C0F02182022C00F02A82032C00F0AC81D6
:1021A0004AF6E874C1F6FF74E268002A00F04B8238
:1021B0004AF6F872C1F6FF72D4686160D16062B607
:1021C000002202608DE442F294004AF69432C4F296
:1021D0000700C1F6FF7248F20003C1F6FF73022444
:1021E000047082F8B51302F5707402F58062DA604B
:1021F0004FF4035C8822C0F24002C4F2070C42F2A2
:10220000880E5C601A609A6019619961C4F2070EC9
:102210000D234FF4025742F2980642F28C0542F227
:1022200084048CF80030C4F20707FF23C4F20706C9
:10223000C4F20705C4F207048EF8003001224FF003
:102240009F0E3B7031702B7084F800E0027009B073
:10225000BDE8F08F41F82500C1F6FF74AB00FFF731
:10226000DBBB62B64BF24203C1F6FF7300211A7862
:1022700046F8371001321A7008E40523435597E4F5
:102280000323435594E40223435591E44AF6E47250
:10229000C1F6FF72535D022B00F0B780FFF4F6AB7E
:1022A000032B40F0B58001235355FFF7EFBB4FF4EC
:1022B00003514FF40252C4F20702C4F207010D2485
:1022C00080200C7010709A077FF5E3ACD4E440F2E4
:1022D00002318B4240F0F280B4F8901301F07F019C
:1022E0004AF694330429C1F6FF735ED8B3F88E33EF
:1022F000002B5AD14FF403508900C4F20700084460
:102300000125017841F002010170DDE672B64AF262
:10231000E404C1F6FF742568B5FA85F00B2800F3D4
:1023200055814FF00042C24025EA0205256062B6A1
:1023300048F2BC3400EBC000C1F6FF7404EBC005EA
:1023400044F83010696072B64AF6E472C1F6FF7262
:10235000D178012900F06181C0F05981022900F093
:102360005081032940F05F8148F298010426C1F6AC
:10237000FF7111F0080F34F83000D6700CBF8822BE
:10238000C822083542EA004281E8240062B6FFF71D
:10239000A8BB4FF0010388F80030BEE5B4F89033D5
:1023A00003F07F03042B40F29580029A0F231370F1
:1023B000009A01231370FFF7C7BB40297FF6ACAE2C
:1023C00040F002000EEBC0025660E3B1C823C0F239
:1023D000400340398BF898538BF8B57340364EF86C
:1023E0003030B2E60B0443F0C80384F8985384F805
:1023F000B5730E444EF83030A4E6022B7FF48DAD59
:1024000088F8005089E58823E1E75155FFF73EBB86
:1024100018F0080F0CBF022303235355FFF736BBF8
:102420004BF21C03C1F6FF730D461B7884F8803312
:1024300004F56070B4F892134AF69433A942C1F6D9
:10244000FF7380F01A8193F8B57347F0020C08EB24
:10245000CC0340290A4628BF402258608618891AB2
:102460004FEA024E00230125C8203EE600234AF62B
:10247000147084F8803384F881330225C1F6FF702C
:10248000D8E74AF2380046F22403B4F88E53B4F881
:102490009063C1F6FF70C0F2000303E00C3358688C
:1024A000002882D01A88AA42F8D15A88B242F5D1BF
:1024B0002D0A032D0CBF05781D89BBE7B3F5A06F6E
:1024C0007FF473AF00230125FEE542F221318B42F8
:1024D000F8D06AE7B4F88E1300297FF466AF4FF4A2
:1024E00003519B00C4F2070119440125087820F02C
:1024F000020000230870E7E548F298040425C1F6BD
:10250000FF74D5700D8814F0080F0CBF8822C82204
:10251000083142EA05426160226062B650E6586ABC
:10252000083800F0F3FF23E4D3F89C00083800F0EB
:10253000EDFFA4E4D3F89400083800F0E7FF95E439
:10254000D3F88C00083800F0E1FF86E4D3F884006B
:10255000083800F0DBFF77E4D86F083800F0D6FFCA
:1025600069E4586F083800F0D1FF5BE4D86E083892
:1025700000F0CCFF4DE4586E083800F0C7FF3FE490
:10258000D86D083800F0C2FF31E4586D083800F00B
:10259000BDFF23E4D86C083800F0B8FF15E4586C90
:1025A000083800F0B3FF07E4D86B083800F0AEFF3E
:1025B000FFF7F9BB586B083800F0A8FFFFF7EABB3C
:1025C000D86A083800F0A2FFFFF7DBBB62B6012132
:1025D0001170FFF786BA48F290040325C1F6FF7424
:1025E0008FE748F29804C1F6FF74022589E748F2A4
:1025F00090040525C1F6FF7483E700F5607002259D
:1026000018E748F290010526C1F6FF71B1E648F2DD
:1026100090010326C1F6FF71ABE648F29801C1F6BE
:10262000FF710226A5E64AF6E871C1F6FF71CA6895
:10263000EAB14AF6F872C1F6FF72D1684D60D56012
:1026400062B6FFF74EBA4AF6F872E160C1F6FF7261
:10265000B4E562B60E782B66731C0B70B1E462B6FB
:102660000B7800200133C8F868000B70D0E44AF6FC
:10267000F872CD60C1F6FF72E1E7402D2A4628BF0F
:102680004022A91A4FEA024E86180023012520E5B0
:102690002DE9F843054672B64EF218034AF6943611
:1026A0004EF60452C1F6FF76CEF20003CEF20002DF
:1026B0001B68D6F8AC13126862B6520102D5322BF1
:1026C00088BF0131002D42D0C3F58C334FF47A72AC
:1026D0004EF218094EF6045848F63967482403F2BA
:1026E0003F13CEF20009B3FBF4F3CEF2000802FB75
:1026F0000134C3F6E30772B6D9F80010D6F8AC235C
:10270000D8F800E062B6C1F58C3303F23F13A7FBA3
:1027100003031EF0806FC4EB13134FF47A7002D0E2
:10272000322988BF013200FB0233B3F57A7F04D32C
:10273000013D0CD004F57A74DDE74BF23803C1F6A5
:10274000FF731B78002BD6D100F05EFDD3E7BDE808
:10275000F88300BF10B54BF21004C1F6FF74206877
:1027600018B143881844007A10BD4BF21C03C1F61F
:10277000FF731B7823B100F01FFD20600028F0D10B
:102780004FF0FF3010BD00BF70B54BF21004C1F622
:10279000FF742368002B35D05A88198898180132A5
:1027A0008A42057A02D25A80284670BD48F2BC326D
:1027B000C1F6FF7248F639619A1AC3F6E301A1FB2C
:1027C000021212090B2A19D84BF24201C1F6FF710D
:1027D000087830B14BF21C00C1F6FF700078002879
:1027E0002ED172B64AF2E403C1F6FF734FF00040F7
:1027F000196820FA02F21143196062B600232846D4
:10280000236070BD4BF21C03C1F6FF731B78A3B1AC
:1028100072B64BF22002C1F6FF7293684BB14BF2D5
:102820000801C1F6FF711D8888885E689660421BAA
:102830008A8062B62360002BAED14FF0FF3070BDAE
:1028400072B648F20002C1F6FF72106E98B1906E37
:1028500030B162B6002218460A7000F057FECDE78C
:102860000878C82608330138C0F24006D3660870DD
:10287000966662B6C2E70878882608330138C0F247
:10288000400653660870166662B6B7E74AF64073AC
:102890002DE9F041C1F6FF734AF6D475C1F6FF7514
:1028A0001A682C6801321A60002C31D02368002B82
:1028B0002CD198462E46022703E0346844B323689F
:1028C00023BBA3680BB1C3F80C8020692B6003689D
:1028D00084F814801B682246002198476368002B07
:1028E000EBD030682360002800F0838001688B42C1
:1028F00045D2CB1AA060C4F80C8034600360C46079
:102900002046277504462368002BDAD0013B23605C
:10291000EFF3108372B6002268686A6003B962B68A
:1029200000286BD04FF000082E68C4464FF0020E0E
:102930000EE0CB1A8660C0F80CC001463360F06030
:102940004FF0010880F814E00E463846002F37D0CB
:102950008768002E39D0036831688B42E9D334464A
:1029600003E011688B4214461BD3A2685B1A036014
:10297000002AF6D18260C4603146A060E2E7864654
:1029800003E011688B42964625D3DEF808205B1AD7
:102990002360002AF5D1A260C4F80CE0CEF808400C
:1029A000AFE7D268C2608460E060C268CB1A31468B
:1029B00090600E46236080F814E03846002FC7D19F
:1029C000B8F1000F1CD1BDE8F0818660C6600146F9
:1029D0004FF00108B6E7D268E260C4F808E0CEF82C
:1029E0000C40E268CB1A9460CEF80030277504469C
:1029F00065E7A060E0603460204682E7BDE8F081D2
:102A00002960BDE8F08100BF38B5EFF3108272B6DF
:102A10004AF6D474C1F6FF74A06878B10025436902
:102A2000A36003B19D6102B962B645778368984798
:102A3000EFF3108272B6A0680028F0D102B962B636
:102A400038BD00BF70B449F6E873C1F6FF7348F2B1
:102A50001F02196BC4F2000208791070D86A48F29C
:102A60001C02C4F2000204791470097911709A6A88
:102A7000002A4FD05968C9688A4247D80168CC8B70
:102A8000240402F1FF3069D4C0F30E00C883C88B60
:102A900080B2C882196B0968C88B000456D4C2F38F
:102AA0000E00C883C88B002480B212F1FF32C882A6
:102AB00018BF01229C62D96A086849F6E871056866
:102AC000C1F6FF7101F12404A54237D00968CC6832
:102AD00014F0804F0468056815BF248824780235F7
:102AE000013544F0004405604C63196B48F21B0348
:102AF000C4F200030979197049F6E871C1F6FF7153
:102B000012B1CA6A12791A7070BC7047521A9A626E
:102B10000122D0E71968586B0A630024CFF60F74BE
:102B2000CC62CC68066824F08044CC60346803250D
:102B300083F825501146234670BC1847086891F861
:102B40002410C46841F000414163CEE7CC8BC2F34E
:102B5000080004F47E442043C883A3E7CC8BC0F371
:102B6000080004F47E442043C88390E74BF224021B
:102B70001146C4F20B01C4F2030213681B06FCD415
:102B80000B6813F08003F8D172B64AF61D32C1F615
:102B9000FF721178002900F0B580F0B44BF23C01CF
:102BA0004BF238044BF24000C4F20304C4F20300B9
:102BB000C4F203014BF24407256809680468C4F2B3
:102BC00003074BF24800C4F203004BF24C060D44DD
:102BD000C4F20306396800682C440C443168204470
:102BE00001444BF22C05C4F20305C1F34E014BF234
:102BF00058044BF25C064BF2600041F40041C4F211
:102C00000304C4F20306C4F2030029604BF2640714
:102C1000256831680468C4F203074BF26800C4F207
:102C200003004BF26C060D44C4F2030639680068D9
:102C30002C440C443168204401444BF23005C4F26A
:102C40000305C1F34E014BF238044BF23C064BF244
:102C5000400041F40041C4F20B04C4F20B06C4F27C
:102C60000B0029604BF24407256831680468C4F200
:102C70000B074BF24800C4F20B004BF24C060D441C
:102C8000C4F20B06396800682C440C4431682044B7
:102C900001444BF22C05C4F20B05C1F34E014BF27B
:102CA00058044BF25C064BF2600041F40041C4F260
:102CB0000B04C4F20B06C4F20B0029604BF264074C
:102CC000256831680468C4F20B074BF26800C4F24F
:102CD0000B004BF26C060D44C4F20B063968006819
:102CE0002C440C443168204401444BF23000C4F2BF
:102CF0000B00C1F34E0141F400410160137062B654
:102D0000F0BC704762B670472DE9F84F46F2800379
:102D1000C0F2000313F80090B9F1FF0F00F0D38068
:102D20004AF61D33C1F6FF731B78002B40F08580F7
:102D300019F0800F40F0878072B64BF23806C1F66A
:102D4000FF764AF6D4744FF43045B046C1F6FF74AE
:102D5000C4F203050123C5F80090237362B64BF259
:102D60003007C1F6FF774BF2320C4BF2340E4BF2C8
:102D700035004BF23601C1F6FF7CC1F6FF7EC1F68D
:102D8000FF70C1F6FF7172B62B681A0644D4237B1C
:102D9000002BDFD062B63378002BF4D14BF2370230
:102DA000C1F6FF72B7F800A088F80030BCF8003018
:102DB0009EF8003003780B781378EFF30583002B2F
:102DC000E1D1EFF3108172B64BF23C03C1F6FF7311
:102DD0001868E8B14BF2400AC1F6FF7A9AF8002071
:102DE000B2B9D0F814E0C3F800E001238AF800304B
:102DF000BEF1000F01D0CEF8182001B962B64FF035
:102E0000000B80F81DB0836898478AF800B0AAE7E5
:102E10000029A8D162B6A6E74BF21003C4F203035F
:102E200000221B68227362B64AF61C32C1F6FF729A
:102E3000107843FA00F0BDE8F88FFFF797FE19F01D
:102E4000800F3FF479AF72B64AF6D47409F04006A9
:102E50004BF20C054FF430484BF2380AF6B209F049
:102E60003F09C1F6FF74C4F20B05C4F20B08C1F6AA
:102E7000FF7A01272B6816B323F010032B60C8F8E4
:102E80000090677362B672B6D8F800301B060ED495
:102E9000637B002BEED062B69AF80030002BF2D1A3
:102EA00000F0B2F972B6D8F800301B06F0D54BF23C
:102EB0001003C4F20B0300221B686273B3E743F0F4
:102EC00010032B60DBE70020BDE8F88F30B44FF42F
:102ED000804144F20102C4F20701C4F207024AF23F
:102EE00020036024E120C1F6FF730C7010701B7882
:102EF0004BF20805082B4BF20C04294654D00A2B40
:102F000062D00C2B2346C4F20305C4F20304C4F2BE
:102F10000B01C4F20B030CBF15203D2012222860C8
:102F2000226008601A604AF61E33C1F6FF734BF246
:102F300020011B783BB30B46C4F20B03C4F2030120
:102F400001220A601A604AF22103C1F6FF734BF2B4
:102F500024011B78012B4BD9042B1CD9082B3ED9FB
:102F6000102B0B46C4F20B03C4F2030194BF86225C
:102F700087220A601A604AF61D33C1F6FF730122E8
:102F80001A7030BC70470A46C4F20B02C4F2030147
:102F90000B601360D7E70B46C4F20B03C4F20301C6
:102FA00084220A601A60E6E72346C4F20305C4F2ED
:102FB0000304C4F20B01C4F20B03012013222860A6
:102FC000226008601A60AEE72346C4F20305C4F22B
:102FD0000304C4F20B01C4F20B031920EEE70B4605
:102FE000C4F20B03C4F2030185220A601A60C2E72F
:102FF0000B46C4F20B03C4F2030180220A601A607C
:10300000B9E700BF41EA0020704700BF72B64AF638
:10301000E473C1F6FF73DA78012A23D01CD3022AA5
:1030200007D0032A24D148F298020421C1F6FF7286
:1030300004E048F29002C1F6FF720521D9700188C0
:1030400012F0080F14BFC8238823083043EA014355
:103050005060136062B6704748F290020321C1F6D7
:10306000FF72EBE748F298020221C1F6FF72E5E732
:103070001A6922B11A6A5060186262B67047186104
:10308000FAE700BF72B64AF6E473C1F6FF731B6934
:1030900033B100205B680130002BFBD162B6704772
:1030A0001846FBE74AF6E473C1F6FF73DA6A188D37
:1030B0001AB1138852889B1A184470474AF6E47272
:1030C000C1F6FF7238B5516B012382F8303031B14F
:1030D0004888002382F83030C0F1400038BD92F8B3
:1030E00038301BB9002082F8300038BDFFF7CAFF26
:1030F0000728F7D872B64AF2E400C1F6FF700468F8
:10310000B4FA84F30B2B13DC4FF00045DD4024EAC6
:103110000504046062B648F2BC3003EBC303DB0075
:10312000C1F6FF70C418C150546361602146CFE7F7
:1031300062B65163D6E700BF38B54AF6E474C1F60B
:10314000FF7494F8383083B1636B012284F8302027
:1031500063B100255A8884F8395018461A80FFF761
:1031600055FF6563002384F8303038BD72B64AF2EB
:10317000E400C1F6FF700568B5FA85F10B2916DC8D
:103180004FF00042CA4025EA0205056062B648F2E7
:10319000BC3201EBC101C900C1F6FF725518535092
:1031A00028466B6084F83930FFF730FFDAE762B603
:1031B00084F83920D6E700BF72B64AF6E473C1F648
:1031C000FF73586C48B101881A8D10B4521A4468C4
:1031D0005C641A8562B610BC704762B6704700BF67
:1031E00046F2AC03C0F2000303EBC00253F8301008
:1031F000536801204FF4A27281F880021A601A68A5
:1032000022F020021A60704738B54AF6E474C1F61D
:10321000FF740023B4F84C2084F85430B4F84E30D6
:1032200094F8503094F8513094F8523094F8533068
:10323000EFF3058303B138BDEFF3108272B6A06DD2
:1032400090B194F85C307BB94169A165012584F89F
:103250005C5001B18B6102B962B600254577836885
:10326000984784F85C5038BD002AE4D162B638BD76
:103270002DE9F04F4AF6E47585B0C1F6FF750123DC
:1032800085F830300391002900F0A3804AF2E4036E
:10329000C1F6FF7304468B4601932E4606E00523D4
:1032A00085F83930BBF1000F00F093806A6B002A7B
:1032B00000F0A380B2F802E0CEF140035B4528BFE6
:1032C0005B460EEB030080B202F1080A0027C3EB55
:1032D0000B0B508003F1FF3C0AEB0E0185F85D708B
:1032E000002B4AD00EF108000EF10C0E964410444B
:1032F00004F10408404538BF74452CBF4FF0010E5F
:103300004FF0000E092B94BF4FF0000E0EF0010E8F
:10331000BEF1000F68D044EA000E1EF0030F63D127
:10332000A3F1040E4FEA9E0E0EF1010EBCF1020F46
:103330004FEA8E0856D9A4F104090292013759F8D0
:10334000042F40F8042BBE45F8D84345029A414467
:10335000C8EB0C0C04EB080000F0AD8007780F7090
:10336000BCF1000F3CD047784F70BCF1010F37D053
:1033700080788870234450881C463F288FD940238A
:10338000138072B6EB78012B00F0B380C0F0AB80F5
:10339000022B00F0A280032B40F0918048F29803AA
:1033A0000421C1F6FF73E9701188C3F804A013F07B
:1033B000080F0CBF8822C82242EA01421A6062B696
:1033C00000236B63052385F83930BBF1000F7FF4D0
:1033D0006DAF0398002385F8303005B0BDE8F08F5D
:1033E0002344C8E72046B9E70139234414F8010B08
:1033F00001F8010F9C42F9D1BDE748F601480127C9
:1034000095F838204AF6E47302F0FF01C1F6FF7325
:10341000002A5BD072B63369002B4ED000225B6865
:103420000132002BFBD162B6072A0DD9B8F1010891
:1034300039D095F85D30002B35D196F85430002BFB
:10344000DED1FFF7E1FEDBE785F8307072B6019B55
:103450001A68B2FA82F34AF2E4010B2BC1F6FF714B
:1034600019DC4FF00040D84022EA00020A6062B640
:1034700048F2BC32C1F6FF7203EBC3034AF6E477AD
:1034800002EBC301C1F6FF77002042F833007963F5
:103490000A4648600EE762B60023B8F1010873637C
:1034A00086F83030C5D101234FF0FF3085F85D300C
:1034B00005B0BDE8F08F03465DE71A46B3E7336910
:1034C000EBB1336A5A602A6262B679E74FF0FF3097
:1034D00083F8301005B0BDE8F08F48F29003052165
:1034E000C1F6FF735FE748F290030321C1F6FF7353
:1034F00059E748F29803C1F6FF73022153E732619E
:10350000E1E700BF08461146B2E600BF48F2BC330F
:10351000C1F6FF7348F63962C31AC3F6E302A2FB91
:1035200003231B090B2B18D810B44AF6E472C1F61A
:10353000FF7292F85E1011B192F8381071B972B63C
:103540004AF2E402C1F6FF724FF00040116820FA1F
:1035500003F31943116062B610BC704772B648F2AB
:103560000001C1F6FF710C6E9CB18C6E24B162B685
:10357000002182F85E10E2E792F85E30C82408303D
:10358000013BC0F24004C86682F85E308C6662B6C9
:10359000E2E792F85E3088240830013BC0F2400434
:1035A000486682F85E300C6662B6D5E770B54AF6BA
:1035B000E474C1F6FF74E36A93B35A8819889818C3
:1035C00001328A42057A02D25A80284670BD48F2FA
:1035D000BC32C1F6FF7248F639619A1AC3F6E301AC
:1035E000A1FB021212090B2A16D894F85E004AF6C3
:1035F000E471C1F6FF7110B191F8380018BB72B6D2
:103600004AF2E403C1F6FF734FF00040196820FA54
:1036100002F21143196062B600232846E36270BDCE
:1036200094F8383063B172B6636C2BB11988228D6F
:1036300058686064521A228562B6E362002BBCD1DE
:103640004FF0FF3070BD72B648F20002C1F6FF7253
:10365000106EB0B1906E38B162B60022184681F893
:103660005E20FFF753FFD7E791F85E00C8260833C6
:103670000138C0F24006D36681F85E00966662B6F5
:10368000CAE791F85E00882608330138C0F2400688
:10369000536681F85E00166662B6BDE7F8B54AF675
:1036A000E474C1F6FF7494F838309BB3E06A18B143
:1036B000FFF72CFF0023E36248F2BC3548F6396679
:1036C000C1F6FF75C3F6E306FFF776FD014608B3C2
:1036D000431BA6FB03231B090B2BF5D894F85E7044
:1036E0004AF6E472C1F6FF7217B192F8387097B9D2
:1036F00072B64AF2E402C1F6FF724FF00040116860
:1037000020FA03F31943116062B6FFF755FD014635
:103710000028DDD1F8BD72B648F20003C1F6FF7390
:103720001F6EAFB19F6E37B162B6002382F85E3074
:10373000FFF7ECFEC8E792F85E00C82708310138B1
:10374000C0F24007D96682F85E009F6662B6BBE7AA
:1037500092F85E00882708310138C0F240075966A8
:1037600082F85E001F6662B6AEE700BF00B583B0A8
:1037700002A800F8011D0121FFF77AFD03B05DF8F2
:1037800004FB00BF46F2C0132DE9F04FC0F2000366
:103790004AF668394FF2C802C1F6FF791B68C9F8CA
:1037A0000030C4F20F024AF21C6A0123C1F6FF7A0C
:1037B0001360DAF8903003EB43031B0185B001D0AE
:1037C000013BFDD172B64EF218034AF640784EF630
:1037D0000451CEF20003C1F6FF78CEF200011A6860
:1037E000D8F800700B6862B6590102D5322A88BF3A
:1037F0000137C2F58C3248F6396102F23F12C3F646
:10380000E3014FF47A734AF21C64C1F6FF74A1FB22
:10381000021203FB07F303EB121704F59C66A246A2
:103820002546C5F8947028469C35FDF7C1FCB54285
:10383000F7D1DAF8903003EB43031B0101D0013BD1
:10384000FDD172B64EF218034EF60451CEF20003CB
:10385000CEF200011A68D8F800700B6862B65B01FE
:1038600002D5322A88BF0137C2F58C3248F6396159
:1038700002F23F12C3F6E3014FF47A73A1FB021286
:1038800003FB07F34AF21C6503EB1217C1F6FF7541
:10389000C5F8947028469C35FDF78AFCB542F7D1EF
:1038A00099F80130009399F8023099F80060CDF84A
:1038B0000C90002501950295AB464FF0010A984601
:1038C000A14699F84C200021CCF220212AB10AFA15
:1038D00005F21643F6B24FF0010BD9F85070384696
:1038E00002F0C8F90021C4F2AA2158B1384602F00A
:1038F000A3F938B1009C0AFA05F21443E3B200932D
:1039000001230293D9F85470D9F86840384621460B
:1039100002F0A6F988B1D9F86410204601F0E6FE5D
:103920000146384602F092F938B10AFA05F242EA45
:10393000080801235FFA88F801930135082D09F181
:103940009C09BED14246DDF80C90BBF1000F40F05F
:10395000E480029B1BB19DF8003089F80130019B87
:103960000BB189F802204AF6FC24C1F6FF74207DD1
:10397000282800F2D580FFF7C7F980B201F066FF72
:103980004FF05E5101F0BAFF80462068256901F0D2
:10399000D7F806460F462846414601F0AFFF0146DC
:1039A000284602F05FF84FF07E5101F09DFE6168FD
:1039B00001F0A4FFA16802F055F801F0C1F801F090
:1039C00013FC02460B463046394601F00DF9064617
:1039D000E0680F4601F0B4F802460B46304639461F
:1039E00000F050FF0B4600210246C3F6F0710020A4
:1039F00001F024FA41F266234FF0C042C4F2710391
:103A000000F03EFF01F0A0FBE16901F06FFE002134
:103A1000CCF22021A061054602F02CF960B1002112
:103A20002846C4F2FA2102F007F928B199F80330C8
:103A300043F0010389F803304AF66C31C1F6FF7197
:103A400091E8480003F07F32734006F07F368C68BF
:103A5000CD680869324403F080335A4002F07F3366
:103A6000624004F07F34234402F08032534003F07C
:103A70007F326B4005F07F35154403F0803385EAD3
:103A8000030202F07F33424000F07F304E698D69BF
:103A9000CC69034402F08032534003F07F3273401C
:103AA00006F07F3603F08033164486EA030202F004
:103AB0007F336A4005F07F3502F080321D4485EA8D
:103AC000020303F07F32634004F07F34086A91F808
:103AD000241003F08033144484EA030202F07F339D
:103AE000424000F07F30034402F080325340C3F381
:103AF00007229818C3F30742024402EB1363DBB2B8
:103B0000994220D099F800204AF66833FF2AC1F67E
:103B1000FF7308D005B0BDE8F08F89F8006018E7A2
:103B20004FF0000831E75A78FF2AF3D19A78FF2A3C
:103B3000F0D1DB78FF2BEDD14FF2C403C4F20F03B9
:103B400001221A60E6E799F8033043F0020389F88E
:103B50000330D7E72DE9F04F89B04AF66B344FF0C8
:103B60000A08C1F6FF7401254FF0070B4FF0040A55
:103B70004FF00B09C4F20208661904F12507C4F2DC
:103B80000205C4F2020BC4F2020AC4F20209CDF823
:103B9000008007E0C6F1A05301331B5D04F8013F2C
:103BA000BC4242D02B78D807F4D446F2C413C0F2FA
:103BB00000030DF1100C596818689A68DB68E64636
:103BC000AEE80F002B78990721D50022C4F202023B
:103BD0008020137813F0700318BF13700021332274
:103BE0008BF800008AF8001089F80020009A03235F
:103BF000137072B68846C4F202084CF001034046C6
:103C0000984762B698F8003013F070030AD140F676
:103C10004153C0F2030301E0013BBBD02A78D20735
:103C2000FAD5B7E788F80030B4E70427BA460B2383
:103C3000C4F2020AC4F202038DE808044AF21C68C6
:103C400001244FF0070BC1F6FF78C1F20047C4F220
:103C50000204C4F2020B4FF00A09C4F202093D1F2C
:103C600003AE2378D8073BD515F8013B06F8013B96
:103C7000BD42F6D124232F1DC1F20043039AC8F898
:103C800058209F4208F19C08E5D1202601254FF0DD
:103C9000070A4FF004094FF00B080A2703ACC1F2E2
:103CA0000046C4F20205C4F2020AC4F20209C4F2D8
:103CB0000208C4F202072B78D80752D516F8013B48
:103CC00004F8013B2423C1F200439E42F3D14AF69B
:103CD000FC23C1F6FF73039ADA6109B0BDE8F08FE7
:103CE00046F2C413C0F200030DF1100C59681868B5
:103CF0009A68DB68E646AEE80F002378990722D57C
:103D00000022C4F202020021137813F0700318BFDE
:103D1000137080238BF800300198017000993322D2
:103D200003230A7089F8003072B64FF0000AC4F21B
:103D3000020A4CF001035046984762B69AF80030E8
:103D400013F070030AD140F64153C0F2030301E0BF
:103D5000013B89D02278D207FAD585E78AF800306E
:103D600082E746F2C413C0F200030DF1100C59684B
:103D700018689A68DB68E646AEE80F002B7899076A
:103D80000AD440F64153C0F2030301E0013B95D051
:103D90002A78D207FAD591E70022C4F20202002164
:103DA000137813F0700318BF137080238AF8003063
:103DB0003322032389F8001088F800203B7072B684
:103DC0008B46C4F2020B4CF001035846984762B68A
:103DD0009BF8003013F07003D3D08BF800306DE700
:103DE000704700BF2DE980484AF6D83383B04BF2C4
:103DF00036054BF237064AF694384AF6D43A4AF674
:103E0000D5394AF6004748F2340B4FF44044C1F626
:103E1000FF73C1F6FF75C1F6FF76C1F6FF78C1F6F4
:103E2000FF7AC1F6FF790193C1F6FF77C4F2040B64
:103E3000C4F206040BE0DBF80020500511D4DBF8D7
:103E40000020110513D4DBF80020D20415D4DBF8D0
:103E500000205303EFD5FDF78BFDDBF80020500564
:103E6000EDD5FDF701FDDBF800201105EBD5FDF7E1
:103E700079FCDBF80020D204E9D5227993060DD530
:103E8000E1792A78307801323F2AC8BF0022904277
:103E9000C9B203D0D0B208F802102870E278D2B2CA
:103EA000100609D45206D2D522795306CFD5002167
:103EB0002C223970E270CAE721790906F2D59AF806
:103EC000000099F80010C9B288420DD001312729AD
:103ED00088BF0020019B8CBF0146C8B2595CC9B2A3
:103EE000E17189F80000DDE76C21E170DAE700BFDD
:103EF00008B5FFF777FF00BF4EF20813CEF20003BC
:103F00004FF400002DE9F04318604FF08070186006
:103F10004FF00070186048F204014FF080601860A4
:103F2000C4F203014FF0006048F2080C48F20C059F
:103F300048F214021860C4F2030C0020C4F2030516
:103F4000C4F2030248F21C040860282348F6FF71FB
:103F5000C4F20304CCF8001048F2240E2B6048F29F
:103F60002C07136048F2340648F23C0548F244023C
:103F70002360C4F2030EC4F20307C4F20306C4F2C2
:103F80000305C4F203024FF40044C4F20304CEF864
:103F900000303B6033602B6013600922226049F2DD
:103FA000040E49F2080749F20C0649F214054FF4D1
:103FB0001044C4F2030EC4F20307C4F20306C4F2B1
:103FC0000305C4F20304CEF80000396048F2040E81
:103FD000336048F208072B6048F20C06226048F272
:103FE00014054FF40044C4F20B0EC4F20B07C4F2E4
:103FF0000B06C4F20B05C4F20B04CEF8000085B02A
:10400000396033602B602260FEF760FF1920FEF7F5
:104010003FFB72B6002307200621C4F20203C4F25C
:104020000200C4F20201702241260F2580241A707A
:1040300006701A460D701C7013781B06FCD50823F9
:10404000C4F202031B6862B649F27F62C0F29802B2
:10405000934298BF0A224CF6CD4698BF5343CCF604
:10406000CC46A6FB0312D20802EB8201A3EB41036C
:1040700030338DF804301346002A00F0EE8001A89A
:1040800004460021A6FB0352D20802EB8205A3EBF3
:104090004503303304F8013F01311346002AF1D1C2
:1040A00004AC0C4401AA0A4404F80B3C14780578CB
:1040B00000F8014B0133CC1AA34202F80159F5DB99
:1040C0009DF804304AF24C01002B00F0C980C1F683
:1040D000FF719DF805204B80002A00F0C5809DF8F7
:1040E00006308A80002B00F0C1809DF80720CB802D
:1040F000002A00F0BD809DF808300A81002B00F0F6
:10410000B9809DF809204B81002A00F0B5809DF808
:104110000A308A81002B00F0B1809DF80B20CB8102
:10412000002A00F0AD809DF80C300A82002B00F0D0
:104130008F809DF80D204B820920002A00F0898095
:104140008A82162048F20003C1F6FF7348F2340455
:104150000022C4F2040408701A605A609A60DA609F
:104160001A615A619A61DA611A625A629A62DA6273
:104170001A635A639A63DA631A645A649A64DA6453
:104180001A655A659A65DA651A665A669A66DA6633
:104190001A675A679A67DA67C3F880202168C3F8FC
:1041A000842042F29C05C4F2070541F4802142F2CA
:1041B000B0002160C4F20700C3F3072142F2B40942
:1041C0002970C4F20709C3F307414FF4025C42F2BD
:1041D000880E42F210070170C4F2070CC4F2070EF9
:1041E000C4F207071B0E42F294084FF4045642F241
:1041F000840089F80030C4F20708FF23C4F20706E0
:10420000C4F207004EF249454EF2081442F208117A
:104210008CF80030CEF200058EF80030CEF20004AB
:104220003B70C4F20701012388F800304FF0700E94
:1042300032704FF400770370102240F2131085F8AB
:1042400000E027600A7005B0BDE8F043FEF720BA31
:10425000082001304000C0B274E78DF805202FE738
:104260001846C1F6FF71F4E70120F2E70220F0E7FB
:104270000320EEE70420ECE70520EAE70620E8E764
:104280000720E6E7FEE700BFFEE700BF08B54AF2F9
:10429000E803C1F6FF73D3F8E02048B16946104443
:1042A000A1F58051884205D2C3F8E000104608BD50
:1042B000104608BD00F054F90C2303604FF0FF30A6
:1042C00008BD00BF08B542F20E03C4F205034CF26C
:1042D00020521A804DF628121A8000BF00BF4FF4FA
:1042E0000053C4F2050310221A8048F23003C4F2CE
:1042F00004034FF010621A6048F23803C4F204035A
:1043000043F68272C0F204021A6048F23C03C4F21F
:1043100004030122C2F600321A604DF21002C4F208
:104320000302136813F4807307D14DF21401C4F231
:1043300003010B604FF4A85313604DF20203C4F263
:1043400007031A78100703D51A7842F008021A708A
:104350004FF46043C4F207032A221A7046F20C217C
:1043600048F220734AF20062C0F20001C1F6FF7306
:10437000C1F6FF72934204D251F8040F43F8040BC4
:10438000F8E74AF200634BF24802C1F6FF73C1F648
:10439000FF720021934202D243F8041BFAE748F26D
:1043A000002040F200010023C1F6FF70C0F20001BE
:1043B00051F8232040F82320013348F200226F2BCC
:1043C000C1F6FF72F4D14FF464434EF25F41CEF276
:1043D00000038020CEF2000103F8010B8B42FBD1D9
:1043E0004EF60853CEF200031A604FF4A043C4F215
:1043F00006038A221A704FF48043C4F20603242273
:104400005A70A0221A709A799107FCD59A79D2062F
:10441000FCD44FF48042C4F20602937903F00C03FB
:10442000082B4FF48043C4F20603F6D105221A711B
:1044300043225A719A799406FCD54FF48042C4F213
:10444000060291794FF480434806C4F20603F8D57A
:1044500048F24402C4F204024FF08171116048F244
:104460004802C4F204020521116020221A709A79D0
:1044700002F00C020C2AFAD148F20403C4F204033D
:104480004FF48652C0F205021A604EF21403CEF2C7
:10449000000341F63F12C0F201021A604EF2180307
:1044A000CEF2000300241C604EF21003CEF2000393
:1044B00007221A604EF62053CEF200032246C2F2C3
:1044C00020021A6062B6FFF717FD4DF21403C4F222
:1044D00003031A68D10719D54DF20401C4F2030190
:1044E0001C600C604FF45041C4F2030140F6CE62F0
:1044F000C6F2BC120A6010221A604EF21C02C4F20C
:1045000003024CF2A531C5F6942111604FF47042BC
:10451000C4F20702127852061DD54EF21C02C4F2F4
:1045200003024CF2A5311068C5F69421884212D1DD
:104530004DF20404C4F203040021196021604FF419
:10454000504440F6CE60C4F20304C6F2BC102060B2
:1045500010201860116000F009F8FBF787FF00BF1A
:10456000014B1868704700BFF8A5FF1F70B50F4ECC
:104570000F4D761BB61018BF002405D0013455F836
:10458000043B9847A642F9D10A4E0B4D761B01F029
:1045900027FEB61018BF002406D0013455F8043B9E
:1045A0009847A642F9D170BD70BD00BF00620000FF
:1045B000006200000C6200000062000070B484071A
:1045C00046D0541E002A41D0CDB2034602E0621EFE
:1045D000E4B3144603F8015B9A07F8D1032C2ED9F3
:1045E000CDB245EA05250F2C45EA054519D903F159
:1045F00010022646103E0F2E42F8105C42F80C5C6A
:1046000042F8085C42F8045C02F11002F2D8A4F10E
:10461000100222F00F0204F00F041032032C134496
:104620000DD91E462246043A032A46F8045BFAD8FE
:10463000221F22F003020432134404F003042CB1BD
:10464000C9B21C4403F8011BA342FBD170BC7047E4
:1046500014460346C2E700BF024B13B1024800F004
:1046600005B87047000000007946000000230146AD
:104670001A46184600F0AEB838B5074D074C2C1B4B
:10468000A41005D0013C55F8043D9847002CF9D101
:10469000BDE8384001F0BABD000000000000000095
:1046A000844641EA000313F003036DD1403A41D33D
:1046B00051F8043B40F8043B51F8043B40F8043BFC
:1046C00051F8043B40F8043B51F8043B40F8043BEC
:1046D00051F8043B40F8043B51F8043B40F8043BDC
:1046E00051F8043B40F8043B51F8043B40F8043BCC
:1046F00051F8043B40F8043B51F8043B40F8043BBC
:1047000051F8043B40F8043B51F8043B40F8043BAB
:1047100051F8043B40F8043B51F8043B40F8043B9B
:1047200051F8043B40F8043B51F8043B40F8043B8B
:10473000403ABDD2303211D351F8043B40F8043B2B
:1047400051F8043B40F8043B51F8043B40F8043B6B
:1047500051F8043B40F8043B103AEDD20C3205D33B
:1047600051F8043B40F8043B043AF9D2043208D033
:10477000D2071CBF11F8013B00F8013B01D30B88A5
:1047800003806046704700BF082A13D38B078DD083
:1047900010F003038AD0C3F10403D21ADB071CBF55
:1047A00011F8013B00F8013B80D331F8023B20F8BF
:1047B000023B7BE7043AD9D3013A11F8013B00F8F8
:1047C000013BF9D20B7803704B7843708B78837080
:1047D000604670472DE9F047254C2568D5F84841DB
:1047E0000646884692469946C4B360681F2817DC7F
:1047F000431C76B104EB80050122C5F888A0D4F8EB
:10480000881182401143022EC4F88811C5F808911E
:104810001ED00230636044F820800020BDE8F0879D
:10482000144B03B34FF4C870AFF300800446D0B10B
:10483000D5F84831002780E88800C5F84841384657
:104840000123C4F88871C4F88C71002EE1D0D1E73F
:10485000D4F88C110A43C4F88C21DAE705F5A67464
:10486000C5F84841C1E74FF0FF30BDE8F08700BF11
:10487000D46100000000000081F0004102E000BFB0
:1048800083F0004330B54FEA41044FEA430594EA10
:10489000050F08BF90EA020F1FBF54EA000C55EA4B
:1048A000020C7FEA645C7FEA655C00F0E2804FEA1C
:1048B0005454D4EB5555B8BF6D420CDD2C4480EAFE
:1048C000020281EA030382EA000083EA010180EA2E
:1048D000020281EA0303362D88BF30BD11F0004F7C
:1048E0004FEA01314FF4801C4CEA113102D04042B2
:1048F00061EB410113F0004F4FEA03334CEA1333ED
:1049000002D0524263EB430394EA050F00F0A78004
:10491000A4F10104D5F1200E0DDB02FA0EFC22FAFF
:1049200005F2801841F1000103FA0EF2801843FAF3
:1049300005F359410EE0A5F120050EF1200E012AE4
:1049400003FA0EFC28BF4CF0020C43FA05F3C01822
:1049500051EBE37101F0004507D54FF0000EDCF19B
:10496000000C7EEB00006EEB0101B1F5801F1BD344
:10497000B1F5001F0CD349085FEA30004FEA3C0C48
:1049800004F101044FEA445212F5800F80F09A803E
:10499000BCF1004F08BF5FEA500C50F1000041EB42
:1049A000045141EA050130BD5FEA4C0C404141EB46
:1049B000010111F4801FA4F10104E9D191F0000F6D
:1049C00004BF01460020B1FA81F308BF2033A3F1F0
:1049D0000B03B3F120020CDA0C3208DD02F1140CE7
:1049E000C2F10C0201FA0CF021FA02F10CE002F122
:1049F0001402D8BFC2F1200C01FA02F120FA0CFC1B
:104A0000DCBF41EA0C019040E41AA2BF01EB045163
:104A1000294330BD6FEA04041F3C1CDA0C340EDC61
:104A200004F11404C4F1200220FA04F001FA02F3A4
:104A300040EA030021FA04F345EA030130BDC4F162
:104A40000C04C4F1200220FA02F001FA04F340EA57
:104A50000300294630BD21FA04F0294630BD94F008
:104A6000000F83F4801306BF81F480110134013DEF
:104A70004EE77FEA645C18BF7FEA655C29D094EA60
:104A8000050F08BF90EA020F05D054EA000C04BFDE
:104A90001946104630BD91EA030F1EBF00210020C9
:104AA00030BD5FEA545C05D14000494128BF41F068
:104AB000004130BD14F580043CBF01F5801130BDCC
:104AC00001F0004545F0FE4141F470014FF0000057
:104AD00030BD7FEA645C1ABF194610467FEA655C08
:104AE0001CBF0B46024650EA013406BF52EA0335AA
:104AF00091EA030F41F4002130BD00BF90F0000F98
:104B000004BF0021704730B54FF4806404F13204D3
:104B10004FF000054FF0000150E700BF90F0000F8C
:104B200004BF0021704730B54FF4806404F13204B3
:104B300010F0004548BF40424FF000013EE700BF83
:104B400042004FEAE2014FEA31014FEA02701FBF13
:104B500012F07F4393F07F4F81F06051704792F0E5
:104B6000000F14BF93F07F4F704730B54FF460745F
:104B700001F0004521F0004120E700BF50EA0102AA
:104B800008BF704730B54FF000050AE050EA010257
:104B900008BF704730B511F0004502D5404261EBC7
:104BA00041014FF4806404F132045FEA915C3FF408
:104BB000DCAE4FF003025FEADC0C18BF03325FEAA1
:104BC000DC0C18BF033202EBDC02C2F1200300FA56
:104BD00003FC20FA02F001FA03FE40EA0E0021FA7B
:104BE00002F11444C1E600BF70B54FF0FF0C4CF465
:104BF000E06C1CEA11541DBF1CEA135594EA0C0F1B
:104C000095EA0C0F00F0DEF82C4481EA030621EA55
:104C10004C5123EA4C5350EA013518BF52EA033590
:104C200041F4801143F4801338D0A0FB02CE4FF042
:104C30000005E1FB02E506F00042E0FB03E54FF072
:104C40000006E1FB03569CF0000F18BF4EF0010E6A
:104C5000A4F1FF04B6F5007F64F5407404D25FEA66
:104C60004E0E6D4146EB060642EAC62141EA555119
:104C70004FEAC52040EA5E504FEACE2EB4F1FD0C5B
:104C800088BFBCF5E06F1ED8BEF1004F08BF5FEAD9
:104C9000500E50F1000041EB045170BD06F000468B
:104CA00046EA010140EA020081EA0301B4EB5C0438
:104CB000C2BFD4EB0C0541EA045170BD41F4801130
:104CC0004FF0000E013C00F3AB8014F1360FDEBF55
:104CD000002001F0004170BDC4F10004203C35DA31
:104CE0000C341BDC04F11404C4F1200500FA05F3B4
:104CF00020FA04F001FA05F240EA020001F0004255
:104D000021F0004110EBD37021FA04F642EB0601CA
:104D10005EEA430E08BF20EAD37070BDC4F10C04F4
:104D2000C4F1200500FA04F320FA05F001FA04F2B8
:104D300040EA020001F0004110EBD37041F10001A4
:104D40005EEA430E08BF20EAD37070BDC4F12005AF
:104D500000FA05F24EEA020E20FA04F301FA05F217
:104D600043EA020321FA04F001F0004121FA04F2BF
:104D700020EA020000EBD3705EEA430E08BF20EA8F
:104D8000D37070BD94F0000F0FD101F000464000C9
:104D900041EB010111F4801F08BF013CF7D041EA4B
:104DA000060195F0000F18BF704703F0004652004F
:104DB00043EB030313F4801F08BF013DF7D043EA20
:104DC0000603704794EA0C0F0CEA135518BF95EAD6
:104DD0000C0F0CD050EA410618BF52EA4306D1D15D
:104DE00081EA030101F000414FF0000070BD50EA7C
:104DF000410606BF1046194652EA430619D094EA06
:104E00000C0F02D150EA013613D195EA0C0F05D1EF
:104E100052EA03361CBF104619460AD181EA030143
:104E200001F0004141F0FE4141F470014FF00000FB
:104E300070BD41F0FE4141F4780170BD70B54FF096
:104E4000FF0C4CF4E06C1CEA11541DBF1CEA135516
:104E500094EA0C0F95EA0C0F00F0A7F8A4EB0504F8
:104E600081EA030E52EA03354FEA013100F08880EF
:104E70004FEA03334FF0805545EA131343EA1263B8
:104E80004FEA022245EA111545EA10654FEA00266D
:104E90000EF000419D4208BF964244F1FD0404F526
:104EA000407402D25B084FEA3202B61A65EB030582
:104EB0005B084FEA32024FF480104FF4002CB6EB3F
:104EC000020E75EB030E22BFB61A754640EA0C00BF
:104ED0005B084FEA3202B6EB020E75EB030E22BFFF
:104EE000B61A754640EA5C005B084FEA3202B6EB40
:104EF000020E75EB030E22BFB61A754640EA9C00FF
:104F00005B084FEA3202B6EB020E75EB030E22BFCE
:104F1000B61A754640EADC0055EA060E18D04FEA8C
:104F2000051545EA16754FEA06164FEAC30343EA2C
:104F300052734FEAC2025FEA1C1CC0D111F4801FF9
:104F40000BD141EA00014FF000004FF0004CB6E7F2
:104F500011F4801F04BF01430020B4F1FD0C88BF91
:104F6000BCF5E06F3FF6AFAEB5EB030C04BFB6EB9C
:104F7000020C5FEA500C50F1000041EB045170BD8F
:104F80000EF0004E4EEA113114EB5C04C2BFD4EBBC
:104F90000C0541EA045170BD41F480114FF0000E40
:104FA000013C90E645EA060E8DE60CEA135594EABC
:104FB0000C0F08BF95EA0C0F3FF43BAF94EA0C0FBF
:104FC0000AD150EA01347FF434AF95EA0C0F7FF434
:104FD00025AF104619462CE795EA0C0F06D152EA88
:104FE00003353FF4FDAE1046194622E750EA41066C
:104FF00018BF52EA43067FF4C5AE50EA41047FF47D
:105000000DAF52EA43057FF4EBAE12E74FF0FF3CE1
:1050100006E000BF4FF0010C02E000BF4FF0010CB2
:105020004DF804CD4FEA410C7FEA6C5C4FEA430C2B
:1050300018BF7FEA6C5C1BD001B050EA410C0CBF7A
:1050400052EA430C91EA030F02BF90EA020F0020DC
:10505000704710F1000F91EA030F58BF994208BF43
:1050600090422CBFD8176FEAE37040F00100704700
:105070004FEA410C7FEA6C5C02D150EA013C07D157
:105080004FEA430C7FEA6C5CD6D152EA033CD3D0A2
:105090005DF8040B704700BF8446104662468C469C
:1050A0001946634600E000BF01B5FFF7B7FF0028CF
:1050B00048BF10F1000F01BD4DF808EDFFF7F4FFF8
:1050C0000CBF012000205DF808FB00BF4DF808ED83
:1050D000FFF7EAFF34BF012000205DF808FB00BFA6
:1050E0004DF808EDFFF7E0FF94BF012000205DF8C8
:1050F00008FB00BF4DF808EDFFF7CEFF94BF01207D
:1051000000205DF808FB00BF4DF808EDFFF7C4FF75
:1051100034BF012000205DF808FB00BF4FEA410CBE
:105120007FEA6C5C02D150EA013C0AD14FEA430CA1
:105130007FEA6C5C02D152EA033C02D14FF00000DE
:1051400070474FF0010070474FEA4102B2F1E0436F
:1051500024BFB3F5001CDCF1FE5C0DD901F0004C5E
:105160004FEAC0024CEA5070B2F1004F40EB8300AE
:1051700008BF20F00100704711F0804F21D113F1DA
:105180003872BCBF01F00040704741F480114FEA13
:105190005252C2F11802C2F1200C10FA0CF320FA9C
:1051A00002F018BF40F001004FEAC1234FEAD323B9
:1051B00003FA0CFC40EA0C0023FA02F34FEA430323
:1051C000CCE77FEA625307D150EA01331EBF4FF0AC
:1051D000FE4040F44000704701F0004040F0FE40C7
:1051E00040F40000704700BF2DE9F0418AB004464A
:1051F0000D4600F079F8364B93F90080B8F1FF3F87
:1052000006460F460DD022462B4620462946FFF77C
:1052100085FF30B90022002320462946FFF774FF9E
:1052200020B1304639460AB0BDE8F081294B0890DC
:10523000CDE90245CDE90445019320462946B8F160
:10524000000F17D1244D4FF0604400220023CDE918
:105250000645FFF731FF002832D00223009368464D
:1052600000F036FA98B1089BB3B9DDE906010AB03F
:10527000BDE8F081194D002400220023CDE9064548
:10528000FFF71AFF68B1022398450093E7D1FFF7B3
:1052900067F922230360E6E7FFF762F9089B0360E2
:1052A000E3E70123B8F1020F00930BD1FFF758F9A0
:1052B000212303600A4800F00DFACDE90601D2E788
:1052C00001230093684600F003FA0028F2D1EDE7CD
:1052D000FCA5FF1FD8610000FFFFEFC70000F0FF33
:1052E000DC610000FFFFFFFF2DE9F04FB1F5801FEB
:1052F00085B006460F460B465ADA024621F00044B6
:10530000224300F0F8800029C0F27A810022D64BB7
:10531000FFF76AFC0B460F46D4498B4206466FF0F6
:1053200035024ADCC3F3130505F5152404F664744D
:1053300004F4801E8EF07F5181F440111B15A3F2FE
:10534000FF3341EA05079C1830460022C84B394616
:1053500004EB1E54FFF794FAAB1CC3F31303022BA8
:1053600082468B464FF0000230DC0023FFF7A4FE9C
:10537000002800F0C980002C00F04B812046FFF788
:10538000CDFBA5A3D3E9002306460F46FFF72CFC6F
:10539000A3A3D3E9002304460D4630463946FFF760
:1053A00023FC02460B4620462946FFF76BFA0AE02B
:1053B000AE498B424FF00002B4DD32463B463046E8
:1053C0003946FFF75FFA05B0BDE8F08F4FF0804334
:1053D000FFF758FA02460B4650465946FFF72EFD96
:1053E000064620460F46FFF799FB3246CDE90001FD
:1053F0003B4630463946CDE90267FFF7F5FB0246EA
:105400000B4680468946FFF7EFFB87A3D3E90023CD
:1054100006460F46FFF7E8FB85A3D3E90023FFF715
:1054200031FA32463B46FFF7DFFB83A3D3E9002383
:10543000FFF728FA32463B46FFF7D6FB80A3D3E9B5
:105440000023FFF71FFA42464B46FFF7CDFB7EA332
:10545000D3E900238046894630463946FFF7C4FB2E
:105460007BA3D3E90023FFF70DFA32463B46FFF753
:10547000BBFB79A3D3E90023FFF704FA32463B468E
:10548000FFF7B2FB0B46024649464046FFF7FAF9E2
:10549000A5F5C223C5F5D725A3F27A4351351D439F
:1054A000002D8046894656DD0022724B50465946F3
:1054B000FFF79AFB52465B46FFF796FB06460F4600
:1054C000002C68D132463B4640464946FFF7DAF9A0
:1054D000DDE90223FFF788FB02460B4630463946DA
:1054E000FFF7CEF902460B4650465946FFF7C8F97A
:1054F00005B0BDE8F08F0022002300205E49FFF7D1
:105500009DFC05B0BDE8F08F55A3D3E900235046BC
:105510005946FFF769FB02460B4600205549FFF745
:10552000AFF9524606460F465B4650465946FFF7CE
:105530005BFB02460B4630463946FFF755FB0646F5
:105540000F46002C40F09A8002460B4650465946C2
:10555000FFF796F937E7002C00F0A4802EA3D3E9DB
:105560000023DDE90001FFF73FFB42464B460446BE
:105570000D4650465946FFF783F9DDE90223FFF750
:1055800033FB27A3D3E9002306460F46DDE90001DC
:10559000FFF72AFB21E020A3D3E90023DDE9000186
:1055A000FFF722FB32463B4604460D46404649463D
:1055B000FFF768F9DDE90223FFF716FB18A3D3E92B
:1055C000002380468946DDE90001FFF70DFB024616
:1055D0000B4640464946FFF755F902460B46304612
:1055E0003946FFF74DF952465B46FFF749F9024647
:1055F0000B4620462946FFF743F905B0BDE8F08F7A
:1056000002460B46FFF73CF900220023FFF716FC89
:10561000D9E600200021D6E60000E0FE422EE63F5B
:10562000763C7935EF39EA3D44523EDF12F1C23F14
:10563000DE03CB966446C73F599322942449D23F58
:10564000935555555555E53F9FC678D0099AC33FA8
:10565000AF788E1DC571CC3F04FA97999999D93FBF
:10566000555555555555D53F00005043FFFFEF7F29
:105670000000F03F0000E03F000050C32046FFF76D
:105680004DFA0FA3D3E9002380468946FFF7ACFA11
:105690000DA3D3E9002304460D4640464946FFF7D3
:1056A000A3FA9AE702460B4650465946FFF7E8F838
:1056B000DDE90223FFF798FA14E700BFAFF300809B
:1056C0000000E0FE422EE63F763C7935EF39EA3DB8
:1056D0000020704700200149704700BF0000F87F9C
:1056E00080F0004002E000BF81F0004142001FBF97
:1056F0005FEA410392EA030F7FEA226C7FEA236CA0
:105700006AD04FEA1262D2EB1363C1BFD218414094
:1057100048404140B8BF5B42192B88BF704710F02A
:10572000004F40F4000020F07F4018BF404211F0CD
:10573000004F41F4000121F07F4118BF494292EA35
:10574000030F3FD0A2F1010241FA03FC10EB0C0061
:10575000C3F1200301FA03F100F0004302D54942EE
:1057600060EB4000B0F5000F13D3B0F1807F06D39B
:1057700040084FEA310102F10102FE2A51D2B1F193
:10578000004F40EBC25008BF20F0010040EA030088
:105790007047490040EB000010F4000FA2F1010235
:1057A000EDD1B0FA80FCACF1080CB2EB0C0200FABF
:1057B0000CF0AABF00EBC25052421843BCBFD0400D
:1057C0001843704792F0000F81F4000106BF80F487
:1057D00000000132013BB5E74FEA41037FEA226C4A
:1057E00018BF7FEA236C21D092EA030F04D092F015
:1057F000000F08BF0846704790EA010F1CBF002049
:10580000704712F07F4F04D1400028BF40F00040A5
:10581000704712F100723CBF00F50000704700F0C5
:10582000004343F0FE4040F4000070477FEA2262EC
:1058300016BF08467FEA23630146420206BF5FEABD
:10584000412390EA010F40F4800070474FF00003BD
:1058500004E000BF10F0004348BF40425FEA000C84
:1058600008BF704743F0964301464FF000001CE02C
:1058700050EA010208BF70474FF000030AE000BF82
:1058800050EA010208BF704711F0004302D54042C0
:1058900061EB41015FEA010C02BF84460146002032
:1058A00043F0B64308BFA3F18053A3F50003BCFA4D
:1058B0008CF2083AA3EBC25310DB01FA02FC6344FA
:1058C00000FA02FCC2F12002BCF1004F20FA02F201
:1058D00043EB020008BF20F00100704702F12002F4
:1058E00001FA02FCC2F1200250EA4C0021FA02F255
:1058F00043EB020008BF20EADC7070474FF0FF0C5A
:105900001CEAD0521EBF1CEAD15392EA0C0F93EA54
:105910000C0F6FD01A4480EA010C400218BF5FEAF6
:1059200041211ED04FF0006343EA501043EA511169
:10593000A0FB01310CF00040B1F5000F3EBF490063
:1059400041EAD3715B0040EA010062F17F02FD2A67
:105950001DD8B3F1004F40EBC25008BF20F001004A
:10596000704790F0000F0CF0004C08BF49024CEA61
:10597000502040EA51207F3AC2BFD2F1FF0340EAF3
:10598000C250704740F400004FF00003013A5DDC64
:1059900012F1190FDCBF00F000407047C2F10002A5
:1059A000410021FA02F1C2F1200200FA02FC5FEA92
:1059B000310040F1000053EA4C0308BF20EADC70DC
:1059C000704792F0000F00F0004C02BF400010F44E
:1059D000000F013AF9D040EA0C0093F0000F01F0FB
:1059E000004C02BF490011F4000F013BF9D041EA1D
:1059F0000C018FE70CEAD15392EA0C0F18BF93EA1F
:105A00000C0F0AD030F0004C18BF31F0004CD8D148
:105A100080EA010000F00040704790F0000F17BFCF
:105A200090F0004F084691F0000F91F0004F14D015
:105A300092EA0C0F01D142020FD193EA0C0F03D16D
:105A40004B0218BF084608D180EA010000F0004070
:105A500040F0FE4040F40000704740F0FE4040F44B
:105A6000400070474FF0FF0C1CEAD0521EBF1CEAEA
:105A7000D15392EA0C0F93EA0C0F69D0A2EB030208
:105A800080EA010C49024FEA402037D04FF08053A2
:105A900043EA111143EA10130CF000408B4238BF67
:105AA0005B0042F17D024FF4000C8B4224BF5B1A75
:105AB00040EA0C00B3EB510F24BFA3EB510340EAC3
:105AC0005C00B3EB910F24BFA3EB910340EA9C0071
:105AD000B3EBD10F24BFA3EBD10340EADC001B01E1
:105AE00018BF5FEA1C1CE0D1FD2A3FF650AF8B4285
:105AF00040EBC25008BF20F0010070470CF0004C92
:105B00004CEA50207F32C2BFD2F1FF0340EAC250BC
:105B1000704740F400004FF00003013A37E792F07D
:105B2000000F00F0004C02BF400010F4000F013ADB
:105B3000F9D040EA0C0093F0000F01F0004C02BFD6
:105B4000490011F4000F013BF9D041EA0C0195E73F
:105B50000CEAD15392EA0C0F08D142027FF47DAFD8
:105B600093EA0C0F7FF470AF084676E793EA0C0FC8
:105B700004D14B023FF44CAF08466EE730F0004CC6
:105B800018BF31F0004CCAD130F000427FF45CAF56
:105B900031F000437FF43CAF5FE700BF4FF0FF3CC4
:105BA00006E000BF4FF0010C02E000BF4FF0010C17
:105BB0004DF804CD4FEA40024FEA41037FEA226CE0
:105BC00018BF7FEA236C11D001B052EA530C18BF02
:105BD00090EA010F58BFB2EB030088BFC81738BF67
:105BE0006FEAE17018BF40F0010070477FEA226C55
:105BF00002D15FEA402C05D17FEA236CE4D15FEA51
:105C0000412CE1D05DF8040B704700BF8446084684
:105C10006146FFE70FB5FFF7C9FF002848BF10F145
:105C2000000F0FBD4DF808EDFFF7F4FF0CBF01208A
:105C300000205DF808FB00BF4DF808EDFFF7EAFF14
:105C400034BF012000205DF808FB00BF4DF808EDCF
:105C5000FFF7E0FF94BF012000205DF808FB00BFC4
:105C60004DF808EDFFF7D2FF94BF012000205DF84A
:105C700008FB00BF4DF808EDFFF7C8FF34BF012057
:105C800000205DF808FB00BF42000ED2B2F1FE4FCB
:105C90000BD34FF09E03B3EB126209D44FEA0023FB
:105CA00043F0004323FA02F070474FF000007047C2
:105CB00012F1610F01D1420202D14FF0FF30704763
:105CC0004FF00000704700BF0406080A0F121416B8
:105CD000030507090E1113153C8004400010000055
