:1000000000800020353A00002D3600002135000028
:100010002135000021350000213500002135000088
:100020002135000021350000213500002D3600006B
:100030002D36000021350000ED260000DD260000F1
:100040002D3600002D3600002D3600002D36000024
:100050002D3600002D3600002D3600002D36000014
:100060002D3600002D3600002D3600002D36000004
:100070002D3600002D3600002D3600002D360000F4
:100080002D3600002D3600002D3600002D360000E4
:100090002D3600002D3600002D3600002D360000D4
:1000A0002D3600002D3600002D3600002D360000C4
:1000B0002D3600002D3600002D3600002D360000B4
:1000C0002D3600002D3600002D3600002D360000A4
:1000D0002D3600002D3600002D3600002D36000094
:1000E0002D3600002D3600002D3600002D36000084
:1000F0002D360000C91700002D360000D116000073
:100100002D360000191600002D3600002D36000097
:100110002D3600002D3600002D3600002D36000053
:100120002D3600002D3600002D3600002D36000043
:100130002D3600002D3600002D3600002D36000033
:100140002D3600002D3600002D3600002D36000023
:10015000C5260000AD260000952600007D26000083
:100160002D360000C51800002D3600002D36000089
:100170002D3600002D3600002D3600002D360000F3
:100180002D3600002D3600002D3600002D360000E3
:100190002D3600002D3600002D3600002D360000D3
:1001A0002D3600002D3600002D3600002D360000C3
:1001B0002D3600002D3600002D360000FFFFFFFF1A
:1001C000FFFFFFFFFFFFFFFFFFFFFFFFFFFFFFFF3F
:1001D000FFFFFFFFFFFFFFFFFFFFFFFFFFFFFFFF2F
:1001E000FFFFFFFFFFFFFFFFFFFFFFFFFFFFFFFF1F
:1001F000FFFFFFFFFFFFFFFFFFFFFFFFFFFFFFFF0F
:10040000FFFFFFFFFFFFFFFFFFFFFFFFDEF9FFFF23
:1004100010B5054C237833B9044B13B10448AFF33E
:1004200000800123237010BD3C8EFF1F00000000E0
:10043000A0470000084B10B51BB108490848AFF3AE
:1004400000800848036803B910BD074B002BFBD0A0
:10045000BDE81040184700BF00000000408EFF1F9D
:10046000A04700003C8EFF1F000000002DE98048DF
:1004700048F65863C1F6FF73A1B01A6802930121D0
:10048000197152B14FF40F43CBF6FC7313444EF283
:1004900044421B11CEF2000299540A2002F0E0FD02
:1004A000002002F0DDFD012002F0DAFD022002F062
:1004B000D7FD032002F0D4FD042002F0D1FD052079
:1004C00002F0CEFD062002F0CBFD072002F0C8FDB1
:1004D000082002F0C5FD41F2080641F20C014BF282
:1004E0000C03C4F20403C4F2FE31C4F2FE364BF234
:1004F00008054FF0000C4FF48074C4F204054FF26D
:10050000840E81F880C2C4F20F0E1C604FF24802C4
:1005100086F880C240F203162E60C4F20F02102546
:10052000CEF800504FF2C8004FF4803EC2F800E011
:10053000C4F20F004FF4003E4FF20407C2F800E08F
:10054000C4F20F074FF0010E4FF20806C0F800E0AA
:10055000C4F20F064FF4805E4FF2C402C7F800E009
:10056000C4F20F024FF4005737608026166004274C
:1005700008261560176006601A6812F4E06208BF6A
:1005800081F8802248F2E172114648F2B1721046B9
:1005900048F2817208BF1C60144648F25172154639
:1005A00048F2217216460A46C1F6FF7211461892A9
:1005B0000246C1F6FF7210461A922246C1F6FF7239
:1005C000144617922A46C1F6FF7248F20023C1F67C
:1005D000FF73154619923246C1F6FF721B931692AD
:1005E000C3F89C11C3F8A001C3F8A441C3F8A851F3
:1005F000C3F8AC2172B64BF20C03C4F2040348F604
:1006000054111A68C1F6FF710F910C4622F4702242
:1006100042F6852142F08570C0F200011A60E16067
:10062000186062B648F61803C1F6FF731E46D87A02
:100630005A69049340F004005B68F072186842F055
:100640000072726104685A682243026041F2010537
:1006500032682C4644F201010020C0F21F01C3F6AB
:100660000005C7F60004C8F21F001160D5601461D0
:100670001060717A581844F26C6290F82400C0F24D
:10068000000202EBC0000A31406853F821100160FB
:10069000317A581803EB8101007ECC6902EBC0016E
:1006A000354649680C60A97A49F2BC70064658186C
:1006B00003EB810390F83000596B02EBC002334624
:1006C000C1F6FF731D4606935368196049F65C0333
:1006D000C1F6FF7349F2C47149F2C0722C680193EC
:1006E000C1F6FF71C1F6FF7240F2EE201E4633786C
:1006F0003BB10B78DF0704D52B681768DB1B0E2B8B
:1007000008D82B6837781B1B002F00F00D81B3F53C
:10071000FA6FECD9029B1A6848F65861C1F6FF716E
:10072000002A00F0D3864FF40F43CBF6FC7313443A
:100730001E11049806F144034EF2801403F01F05C5
:1007400000EB86065B110120CEF20004A84042F2C5
:10075000796544F82300C0F200050023B5630895CD
:100760000B609360029B1A7A033A48F65863012A99
:10077000C1F6FF734FF0040108D85B7A002B00F03C
:10078000AC864FF28803C4F20F0319604FF248029F
:100790004FF2C404029FC4F20F02C4F20F044FF4DC
:1007A000003000264FF48035082130231060FE60B1
:1007B0001846156021600138FDD14FF2C802C4F21D
:1007C0000F021160013BFDD148F6241ECDF854E024
:1007D00048F2BC3ECDF848E042F6510E49F67803A7
:1007E000CDF850E043F21D5E1C46CDF838E049F6E6
:1007F0007C0342F67D0E49F6940249F6800149F6E3
:1008000098001D46CDF84CE049F690034EF6045E84
:10081000C1F6FF740D93099211911090CDF82CE060
:1008200002F030F90D9B0A942C46C1F6FF74099A28
:10083000119910980C941C46159B029FC1F6FF72EB
:10084000C1F6FF71C1F6FF70C1F6FF733E740992E5
:10085000139F129A1191109014990E9815930B9B57
:1008600049F6700949F6580A49F6600BC1F6FF745B
:10087000C1F6FF72C0F20001C0F20000C0F2000732
:10088000CEF200030D941292C1F6FF79C1F6FF7A01
:10089000C1F6FF7B14910E9013970B9301E002F0C9
:1008A000F3FB029B1B7C002B42D1DAF80000B9F865
:1008B000041049F67003C1F6FF73002854D0028873
:1008C0004388D41ACC42EAD0C118013393420C7A3F
:1008D0006AD2402C43806ED0232C00F0F7813F2C4D
:1008E00000F03B82242C00F04082252C00F05C823A
:1008F0007E2C00F0D380262C00F0B082212CCED1AB
:1009000044F2F4500521C0F2000002F0FDFB44F275
:1009100050510222C0F200011DA803F089FA022101
:100920001DA802F0F1FBBAE783427FF6E0AEF1E6E4
:10093000049D48F66C6095F84810C1F6FF7002F00F
:10094000E3FB002148F61804C4F27A41E86CC1F6D2
:10095000FF7403F0D1FD18B194F84830062B64D928
:10096000029A00231374A0E7002998D0019A127804
:10097000002A94D072B6DBF8080049F66002C1F68E
:10098000FF7228B105889C8841689160621B9A803B
:1009900062B6CAF80000002881D043880288C118D6
:1009A000013393420C7A94D302F0F6FC0020402CE1
:1009B000CAF8000090D1049BDC6C0021204603F0B3
:1009C00087FD50B94AF6AB21C4F6AA41204603F090
:1009D00093FD0546002800F0D882029B1B7A48F65A
:1009E0005862C1F6FF7273B1022B40F2B382042B3E
:1009F00009D8537A002B40F008844FF28803C4F2E0
:100A00000F0304221A6002984FF24402C4F20F024C
:100A100000214FF24803C160C4F20F034FF40031CC
:100A200011604FF480321A6039E7019B1B78002B6C
:100A300096D00C9B0A991B6801220A70002B00F0CB
:100A400019840D985A88002101701A8072B6099A8B
:100A5000D278012A00F0ED83C0F0E583022A00F08D
:100A6000DC83032A40F0488448F298020421C1F64E
:100A7000FF720998C170188812F0080F0CBF882106
:100A8000C821083341EA00415360116062B60C9AF4
:100A9000002313600A9A0023137061E7069B1B680A
:100AA0001F931F9B079349F66003C1F6FF730593DD
:100AB00000230393039B48F68062C1F6FF72D3F1D3
:100AC0000A0502EB030600F05882019B1B7803F035
:100AD000FF0723B3DAF800400027002C00F0D9808C
:100AE000238862889B1AAB4228BF2B4604F1080179
:100AF000114430461A46984603F09AF962882188D4
:100B0000424492B291424744C8EB05054644628094
:100B100040F2B8801DB1019B1B78002BDDD1039BF7
:100B20003B44092B039310D8069B049A1B681E9321
:100B3000D16D1E9B079A9B1A8B4248F61802C1F68C
:100B4000FF72B7D3012382F86030029C94F828200A
:100B500094F8293094F82A1084F8342084F8353039
:100B600084F83610002A00F0C1814FF2C402C4F2AA
:100B70000F0201201060002B00F0B0814FF204033F
:100B8000C4F20F034FF480521A60002900F09E81D6
:100B90004FF20403C4F20F034FF400521A60029B99
:100BA000049A93F82B3082F85030002B00F08781A4
:100BB0004FF2C403C4F20F0310221A60029D049E78
:100BC00095F8301095F82F2095F82E3095F83100D3
:100BD00085F8391085F83B3085F8380095F82C30C9
:100BE00085F83A20AA6B95F82D10F264022B48F68E
:100BF00058622B72C1F6FF7286F8481000F0A68288
:100C000000F27B81002B00F07E82012B7FF447AE47
:100C100041F208014BF20803C4F20403C4F2FE31AE
:100C200040F20312002081F880021A601A6812F460
:100C3000E06204D14FF4807081F8802218601B9A22
:100C40001899C2F89C111A99C2F8A0111799C2F804
:100C5000A41113461999C2F8A811169AC3F8AC2129
:100C600072B64BF20803C4F204031A6822F470222D
:100C700042F085711A600F9A1046139A82601960CB
:100C800062B60CE62046002402F086FBCAF800405B
:100C900040E7DDF8148005E02388002B7FF421AFC6
:100CA00002F07AFB72B6DBF8084044B12288B9F84A
:100CB00004306168C8F808109B1AA9F8043062B6BD
:100CC0002046CAF80040002CE6D128E7029B1C68A9
:100CD00048F65860C1F6FF70ECB14FF40F43CBF605
:100CE000FC7323441B1103F144014D114EF2801299
:100CF000AD00CEF20002049E2A4401F01F0101253E
:100D000006EB830305FA01F11160089A9A63002546
:100D1000029B0560A5601B7A033B48F65862012BD5
:100D2000C1F6FF724FF0040108D8537A002B00F08F
:100D300026814FF28803C4F20F0319604FF2480373
:100D4000C4F20F034FF4003244F24C501A600321F6
:100D5000C0F2000002F0D8F9A1E5029B0421DB6893
:100D60001D931DA802F0D0F999E5002800F06782D4
:100D700043880288C118013393420D7A80F0E081E4
:100D80004380012D00F0AC81C0F04181022D07D1DC
:100D90004FF2C803C4F20F031021802219601A60B9
:100DA000029B83F826507AE5029B1C6848F658603F
:100DB000C1F6FF70ECB14FF40F43CBF6FC73234444
:100DC0001B1103F144014D114EF28012AD00CEF221
:100DD0000002049E2A4401F01F01012506EB830353
:100DE00005FA01F11160089A9A630025029B0560DB
:100DF000A5601B7A033B48F65862012BC1F6FF72CF
:100E00004FF0040108D8537A002B00F076814FF29E
:100E10008803C4F20F0319604FF24803029EC4F224
:100E20000F034FF2C402C4F20F024FF4003100244A
:100E30004FF480301960F46008211860302311608D
:100E40001A46013AFDD14FF2C802C4F20F021160F6
:100E5000013BFDD101F016FE347420E548F68C61AB
:100E6000029DC1F6FF717E2301F10900032285F87E
:100E70003C3002F0DDFF04992A7A91F8500085F8A1
:100E8000400095F83A0091F8483085F8440095F80C
:100E90003B1085F8412048F6946095F8392085F894
:100EA000423085F8431095F8383085F845200B21FD
:100EB000C1F6FF7085F8463002F026F9EFE44FF2F4
:100EC000C803C4F20F0310221A6077E64FF208033A
:100ED000C4F20F034FF400521A6060E64FF20803A9
:100EE000C4F20F034FF480521A604EE64FF2C8026C
:100EF000C4F20F02012010603DE6032B00F05B817D
:100F0000042B7FF4CCAC72B64BF20800C4F20400A0
:100F1000016821F0877121F4803141F08071016016
:100F20000F990C460E99A16062B641F20801C4F215
:100F3000FE3101254FF4A27481F8805204600168EB
:100F40004FF28804C4F20F0421F0200101605572B1
:100F50002360A4E472B64BF20802C4F204021368E0
:100F600023F0877323F4803343F0807313600F9B67
:100F70001A460E9B936062B645E52F46CFE54FF2C9
:100F80008403C4F20F031960D8E60021C4F24021A3
:100F9000204603F0F5F84FF07C5102F0E7FF03F034
:100FA000B5FA232807467FF618AD029B1B6848F662
:100FB0005861C1F6FF71002B00F0528201229D6042
:100FC000DA604FF40F42CBF6FC721A441211049906
:100FD000149C02F1440001EB820546114EF244419B
:100FE000B600CEF20001114406F16046029AAC63ED
:100FF00006F561461F6000F01F004FF0010E1279E8
:101000000EFA00F003249C600A703060E5E4029B55
:1010100093F82630012B00F07C81022B7FF4C0AEC8
:10102000049B93F85030002B00F0EA814FF2C40388
:10103000C4F20F0310221A604FF2C403C4F20F036C
:1010400080221A6072B64EF21803069A0B99CEF2FD
:1010500000031B681268096862B6490102D5322B89
:1010600088BF0132C3F50C3348F63968C3F6E3088C
:1010700003F27F234FF47A74A8FB031304FB02F4FA
:101080004EF21806CDF80C8004EB5314CEF2000695
:101090004FF00D0872B6069B31681A680B9B1F68EB
:1010A00062B60398C1F50C3303F27F23A0FB030360
:1010B0007F01C4EB53134FF47A7002D5322988BFF5
:1010C000013200FB0233B3F57A7F06D3B8F1010891
:1010D00000F0368104F57A74DCE701F0D5FFD9E73A
:1010E0004FF2C402C4F20F024FF2C803C4F20F035E
:1010F0001021116080221A6052E64FF28403C4F27C
:101100000F03196088E672B64BF20801C4F20401BD
:101110000A6822F0877222F4803242F080720A60FC
:101120000F9A10460E9A826062B641F20802C4F22B
:10113000FE3240F2031082F880320860FFF7AFBB46
:1011400002F02AF90023CAF800301AE641F2080139
:101150004BF20803C4F20403C4F2FE314FF481726F
:10116000002081F880021A601A6812F4E06204D14B
:101170004FF4807081F8802218601B9A1899C2F889
:101180009C111A99C2F8A0111799C2F8A41113461C
:101190001999C2F8A811169AC3F8AC2172B64BF28D
:1011A0000803C4F204031A6822F4702242F0847126
:1011B00041F480315EE572B64BF20801C4F20401DD
:1011C0000B6823F0877323F4803343F080730B6044
:1011D0000F9B18460E9B836062B641F20803C4F26F
:1011E000FE3301244FF4A27083F8804208600B683C
:1011F0004FF2840023F02003C4F20F000B600024A0
:10120000042354720360FFF74ABB4FF28403C4F215
:101210000F0304221A60FFF7F6BB48F29002052183
:10122000C1F6FF7225E448F290020321C1F6FF7275
:101230001FE448F29802C1F6FF72022119E4019BF3
:101240001B78ABB172B6DBF8080049F66002C1F654
:10125000FF7238B10488B9F80430416891601B1BF3
:10126000A9F8043062B6CAF8000000287FF480AD07
:10127000FF2595E572B615990868B0FA80F148F631
:1012800024140B29C1F6FF7400F3B5804FF000421F
:10129000CA4020EA0200206062B6129801EBC10148
:1012A00000EBC10240F831300D985360037072B604
:1012B000099BDB78012B00F0AA80C0F0B480022BE0
:1012C00000F0AB80032B40F0BB8048F29803042071
:1012D000C1F6FF73129C34F83140099913F0080FDE
:1012E000C8700CBF8821C821083241EA04415A6005
:1012F000196062B6FFF7CEBB119AD268002A00F0DF
:10130000DA80109AD2685360109AD36062B6FFF701
:10131000BEBB049B93F85030002B00F08A804FF244
:10132000C403C4F20F0310221A604FF2C402C4F2C5
:101330000F0280214FF496531160013BFDD12FE540
:10134000029B1E6848F65864C1F6FF74F6B14FF46C
:101350000F43CBF6FC7333441B1103F144014811D6
:101360004EF280128000CEF20002049F024401F08F
:101370001F01012007EB830300FA01F11160089AB5
:101380009A63029BC4F80080C6F808801A7A033A70
:1013900048F65863012AC1F6FF734FF0040108D8DC
:1013A0005B7A002B00F08A804FF28803C4F20F03AF
:1013B00019604FF24803029FC4F20F034FF2C401B9
:1013C000C4F20F014FF4003200244FF480301A6051
:1013D000FC600822186030230A6019460139FDD1EB
:1013E0004FF2C801C4F20F010A60013BFDD101F0C8
:1013F00049FB3C74D4E462B60D9B1A70FFF74ABBFC
:101400004FF2C803C4F20F0310221A6014E648F228
:101410009803C1F6FF7302205CE748F290030520B1
:10142000C1F6FF7356E748F290030320C1F6FF733D
:1014300050E74FF2C803C4F20F0310221A6074E79A
:10144000119BD96849F68003C1F6FF7300293BD090
:10145000109BDB685A60109BDA6062B6FFF71ABB1C
:1014600048F23C02C4F20402106840F4000010602C
:1014700000BF4FF4E040C4F203004FF4E242C4F274
:1014800003020124046090680A6088B347F21012D6
:10149000C4F20302906838B347F22012C4F2030288
:1014A000906808B347F23012C4F203029068D8B1D2
:1014B0000B60FFF792BA119AD36025E74FF28403CD
:1014C000C4F20F03196074E7DA60C4E742F279638B
:1014D000C0F200030893FFF745B94FF28403C4F24A
:1014E0000F031960FFF752B91346029A136068E5BB
:1014F000134666E570B549F65804C1F6FF742368D3
:10150000002B35D05A881988981801328A42057AFA
:1015100002D25A80284670BD48F2BC32C1F6FF7232
:1015200048F639619A1AC3F6E301A1FB02121209C7
:101530000B2A19D849F6B201C1F6FF71087830B10B
:1015400049F65C00C1F6FF70007800282ED172B613
:1015500048F62413C1F6FF734FF00040196820FAD3
:1015600002F21143196062B600232846236070BD61
:1015700049F65C03C1F6FF731B78A3B172B649F656
:101580006002C1F6FF7293684BB149F67001C1F673
:10159000FF711D8888885E689660421B8A8062B6EB
:1015A0002360002BAED14FF0FF3070BD72B648F211
:1015B0000002C1F6FF72106E98B1906E30B162B643
:1015C000002218460A7001F0E7FECDE70878C82629
:1015D00008330138C0F24006D3660870966662B6DA
:1015E000C2E70878882608330138C0F240065366FF
:1015F0000870166662B6B7E749F65802C1F6FF7280
:1016000049F67003C1F6FF73126898881AB11388FF
:1016100052889B1A1844704710B44FF44043C4F2E8
:1016200006031A7992060ED548F6A062C1F6FF723B
:10163000D979137892F8710001333F2BC8BF00238A
:101640008342C9B21BD14FF44041C4F20601CB78AA
:10165000DBB21C0618D459060FD54FF44043C4F230
:1016600006031A79520608D548F6A062C1F6FF7241
:1016700000202C2182F87000D97010BC7047D0185F
:10168000DBB201711370DEE70A791006E3D548F684
:10169000A062C1F6FF7292F8444092F84500C0B2D1
:1016A000844211D0411C272986BF00242146CCB298
:1016B00011444FF4404091F84810C4F20600C9B2FA
:1016C000C17182F84540C6E76C22CA70C3E700BF0B
:1016D000F0B44FF43043C4F206031A7912F0300F1D
:1016E00025D072B6997D01F0FF0200293BD062B689
:1016F00048F6A065C1F6FF75184695F8724095F852
:101700007360E4B2F6B2631C402BC17928BF00239A
:101710009E4202F1FF32C9B203D0EF181C4687F88F
:10172000741012F0FF02EED1E4B285F872404FF46B
:101730003042C4F20602D178C9B20D0618D4490667
:101740000FD54FF43043C4F206031A79520608D578
:1017500048F6A062C1F6FF7200203C2182F8E0004A
:10176000D970F0BC70474022D9795A7462B6DEE76E
:1017700013791C06E3D548F6A065C1F6FF7595F808
:10178000B44095F8B530E4B2DBB29C4202D10EE031
:10179000A3420CD00133282B28BF0023E818167968
:1017A00090F8B800C0B2D071107D0728F0D94FF47E
:1017B0003042DBB2C4F2060285F8B5301379180660
:1017C00044BF7C23D370BAE7F0B44FF42043C4F293
:1017D00006031A7912F0300F26D072B6997D01F007
:1017E000FF0200293CD062B648F6A065C1F6FF753D
:1017F0001846B5F8E240B5F8E460A4B2B6B2631C8E
:10180000B3F5806FC17928BF00239E4202F1FF32F9
:10181000C9B203D0EF181C4687F8E81012F0FF0297
:10182000EDD1A4B2A5F8E2404FF42042C4F2060282
:10183000D178C9B20D0618D449060FD54FF420430C
:10184000C4F206031A79520608D548F6A062C1F61A
:10185000FF7200203C2182F8EC08D970F0BC704780
:101860004022D9795A7462B6DEE713791C06E3D5B3
:1018700048F6A065C1F6FF75B5F8E844B5F8EA3456
:10188000A4B29BB29C4202D10FE0A3420DD001331F
:10189000B3F5806F28BF0023E818167990F8EC04A0
:1018A000C0B2D071107D0728EFD94FF420429BB20F
:1018B000C4F20602A5F8EA341379180644BF7C2363
:1018C000D370B9E72DE9F04F42F2940389B042F2A8
:1018D00098024FF4035142F2C4004FF4025942F20D
:1018E000900BC4F20703C4F20702C4F20701C4F26A
:1018F0000700C4F20709C4F2070B0093019202919A
:1019000003906FE048F200069F08C1F6FF7606EBF1
:10191000C708551ED8F8042003F00803EDB2A2F161
:10192000080003F0FF04002B40F0C98056F8373060
:101930001B0C99B222F8081C002B00F0B38049F66A
:10194000600EC1F6FF7E22F8064C5EF8253042F8A4
:10195000044C48F6A064002B00F0C881C1F6FF7467
:10196000AA00A318D3F80C39586049F6700AC1F6DA
:10197000FF7A14443AF81520C4F80C0911442AF8E7
:10198000151072B648F62412C1F6FF721168B1FA4A
:1019900081F30B2B00F39E814FF00040D84021EAE9
:1019A0000001116062B648F2BC3103EBC303C1F61B
:1019B000FF71C824C0F2400401EBC300882218F074
:1019C000080FC0F2400200F1080518BF2246C8F80F
:1019D0000450002446F8372041F83340446008237F
:1019E00089F8003099F80030DBB25A0726D549F65D
:1019F0005C02C1F6FF721278EAB148F6A062C1F645
:101A0000FF7292F8F80800F0FF0130B10139C9B255
:101A100082F8F818002900F0BE8549F69002C1F658
:101A2000FF72107800F0FF0128B10139C9B21170BE
:101A3000002900F02681042289F8002003F0080222
:101A400002F0FF01002A00F0FC809BF80030DBB2BE
:101A50001A097FF457AF48F200059B08C1F6FF75DD
:101A600005EBC30055F833104068C1F38301092921
:101A700000F0A28051D8013901290FD848F6A0649E
:101A8000C1F6FF7442F22102B4F8FC18914200F052
:101A90002183C822C0F2400245F83320009A012376
:101AA00013709CE7C822882318F0080FC0F2400288
:101AB000C0F2400318BF134646F837308FE701F0F5
:101AC0006BFC49F68002C1F6FF7252F8251000291E
:101AD00000F0F08249F69400C1F6FF704B68445D57
:101AE00042F82530012C01F10803C8F8043000F059
:101AF0000981C0F00481022C00F0FE80032C01D18A
:101B00000423435518F0080F0A880CBF8823C82304
:101B100043EA024346F8373061E70D29BED148F663
:101B2000A06406684068C1F6FF74C821C0F2400195
:101B300045F83310C4F80009B1B240F281600123C6
:101B400081422A61C4F8FC68AA61C4F8042984F8B7
:101B5000083900F2DA80B1F5D06F80F01084B1F569
:101B6000817F00F0F48300F2EC82802900F0418252
:101B7000822940F0A883B4F8003903F07F0348F6C7
:101B8000A062042BC1F6FF7200F29D834FF4035153
:101B90009B00C4F207011944002382F8F03882F850
:101BA000F1380B789E0740F15484012382F8F03815
:101BB00002F50F62022326E248F6A064C1F6FF7424
:101BC000D4F804395BB3B4F8262994F8250994F8BD
:101BD0000819402A164640F0020728BF402680F028
:101BE0000100002981F0010184F80819A2EB060226
:101BF00084F8250908BF882105EBC70018BFC82154
:101C000092B241EA06414360A4F82629334445F8DC
:101C1000371012B9402E18BF0023C4F80439B4F8A5
:101C2000FC2848F6A063B2F5A06FC1F6FF737FF4FD
:101C300035AF002193F8FE2883F8FD18019B1A7038
:101C40002CE7D80700F1C682190600F113839A0722
:101C50000CD542F28802C4F207024FF40250117808
:101C6000C4F20700C9B2022411700470DB0605D566
:101C70004FF40253C4F2070310221A7009B0BDE8F2
:101C8000F08F49F67801C1F6FF71097800297FF4D9
:101C9000D2AE49F67C00C1F6FF700168002900F061
:101CA0008B834A880A8072B649F69402C1F6FF72A5
:101CB000D478012C00F0C183C0F0C583022C00F061
:101CC0000A83032C40F0CF8348F298040425C1F620
:101CD000FF7405E362B649F6B203C1F6FF73002153
:101CE0001A7846F8371001321A7078E64EF8250057
:101CF000C1F6FF74AA0038E60523435502E7032323
:101D00004355FFE602234355FCE642F2210291428D
:101D100000F0CC8100F24982B1F5086F00F0BA8280
:101D2000B1F5106F40F0CF8249F65C03C1F6FF7346
:101D300094F8FE281A702A6A48F200031706C1F6C2
:101D4000FF7300F1F483AA6A48F200031606C1F695
:101D5000FF7300F1E7832A6B48F200031006C1F617
:101D6000FF7300F1DA83AA6B48F200031106C1F693
:101D7000FF7300F1CD832A6C48F200031206C1F60E
:101D8000FF7300F1C083AA6C48F200031706C1F686
:101D9000FF7300F1B3832A6D48F200031606C1F603
:101DA000FF7300F1A683AA6D48F200031006C1F686
:101DB000FF7300F199832A6E48F200031106C1F601
:101DC000FF7300F18C83AA6E48F200031206C1F67D
:101DD000FF7300F17F832A6F48F200031706C1F6F4
:101DE000FF7300F17283AA6F48F200031606C1F672
:101DF000FF7300F16583D5F8802048F200031006D8
:101E0000C1F6FF7300F15683D5F8882048F200032D
:101E10001106C1F6FF7300F14783D5F8902048F210
:101E200000031206C1F6FF7300F13883D5F898203D
:101E300048F200031706C1F6FF7300F1298349F643
:101E4000800349F6980249F69401002049F660089B
:101E500049F6700AC1F6FF73C1F6FF72C1F6FF7151
:101E600004940595CDF81890C1F6FF780646C1F6A2
:101E7000FF7A0F4604461D469146CDF81CB0D8F8AF
:101E80000000A34630B1446801F086FA2046002CD9
:101E9000F9D15C4649F2AC73C1F6FF732868C8F803
:101EA000006043F82460A34630B1446801F074FA3E
:101EB0002046002CF9D15C463B782E60032B49F874
:101EC000046B2AF8146006D040F23A82042B00F02A
:101ED0003A82052B02D14FF001033B700134042CF0
:101EE00008F1040805F1040507F10107C7D104ACA6
:101EF00094E8300A49F6B20242F2C80642F2CC0136
:101F0000039FC1F6FF72C4F20706C4F20701002363
:101F10004FF0150E4FF0190C48F200001370C1F687
:101F2000FF703B702B63AB6386F800E02B65AB65FD
:101F300081F800C072B648F62411C1F6FF710F682F
:101F4000B7FA87F60B2E00F310834FF0004E2EFAEF
:101F500006FE27EA0E070F6062B648F2BC3706EBB2
:101F6000C606C1F6FF7707EBC60C4FF0880E47F8A0
:101F70003630C0F2400E0CF108064666CCF804304C
:101F8000C0F860E072B60968B1FA81F348F624102F
:101F90000B2BC1F6FF7000F3DB824FF00042DA40FA
:101FA00021EA0201016062B648F2BC3203EBC303CE
:101FB000C1F6FF7202EBC30101F10800C826E86612
:101FC000C0F24006002042F83300AE66486042F29C
:101FD000D002C4F20702002315212B67AB671170F2
:101FE00094F80889C5F8903088F00107C5F8983052
:101FF000C8E0002349F2907284F8F03884F8F13890
:10200000C1F6FF720223B4F8020948F6A0619842B3
:10201000C1F6FF7180F0C68291F8256946F0020E84
:1020200005EBCE034028844628BF4FF0400C5A6091
:1020300002EB0C01CCEB000300274FEA0C404FF001
:102040000108C822024348F6A06A48F2000045F899
:102050003E2086F0010284F80879C1F6FF70C1F6CF
:10206000FF7A84F82529002B40F04B81BCF1400F0A
:102070001CD142F0020205EBC20548F20000696083
:10208000C1F6FF701D04002F40F0508145F0880517
:1020900084F8088984F8256940F832501944402BA7
:1020A00004D10023C4F80419A4F82639009A0123A6
:1020B0001370F3E449F69402C1F6FF72535D022BEC
:1020C00000F0D580FFF48BAC032B40F0C8800123D7
:1020D000535584E4B4F80029CAB902784678817867
:1020E00084F8A829C27884F8A96984F8AA1984F820
:1020F000AB29D4F8A82907794679817984F8AC7995
:10210000862A84F8AD6984F8AE1900F0CD8094F881
:10211000251994F8082941F0020005EBC00681F06A
:102120000101002A84F825194FF00001716082F046
:1021300001020CBF8821C82145F8301084F8082915
:10214000A7E440F20233994240F0B280B4F800397B
:1021500003F07F0348F6A062042BC1F6FF7200F281
:10216000B280B2F8FE78002F40F0AD804FF40352F9
:102170009B00C4F207021A444FF00108137843F0A1
:10218000020313700023194618469C461A4694F819
:10219000256946F0020E05EBCE0AB8F1000FCAF829
:1021A00004200CBF8822C8224CE742F22123994226
:1021B00040F08580B4F80039002B7CD1D4F81C297C
:1021C00094F8FE38C4F82029002784F824394FF009
:1021D0000108D7E742F2940048F6A062C4F2070073
:1021E000C1F6FF7248F20003C1F6FF7302254FF4F7
:1021F000035E88240570C0F2400482F8251902F6B7
:10220000281CC4F2070E02F6681242F288074FF447
:1022100002561C60C4F20707C3F804C0C4F20706E4
:102220009C6042F29805DA6042F28C04196142F235
:10223000840299610D238EF80030C4F20705FF2354
:10224000C4F20704C4F207023B7033709F270126D3
:10225000297023701770067009B0BDE8F08F18F070
:10226000080F0CBF022303235355FFF7B8BB51558A
:10227000FFF7B5BB4FF403514FF40252C4F207020B
:10228000C4F207010D2480200C7010709A077FF5AE
:10229000EDACDEE449F65C02C1F6FF72127884F818
:1022A000F02804F50F62AEE60F2284F8F8282EE736
:1022B000B1F5A06F07D100274FF0010862E742F2A5
:1022C00021339942F7D0029A0F231370009A012309
:1022D0001370FFF7E3BB48F290040525C1F6FF74C5
:1022E000D5700D8814F0080F0CBF8822C822083161
:1022F00042EA05426160226062B600220260FFF796
:102300009ABB402B7FF6B5AE42F0020200EBC2054D
:102310006960D7B1C825C0F240058AF808898AF8F3
:102320002569403B403140F83250BBE645F0C805D6
:1023300084F8088984F82569194440F83250AEE6DB
:10234000022B7FF4CBAD3E70C8E58825E3E7B4F8F7
:10235000003903F07F03042BB5D8B4F8FE28002A17
:10236000B1D14FF403529B00C4F207021A44002774
:10237000137823F0020313704FF0010802E748F6C8
:102380007C0244F2FC53B4F8FE08B4F80069C1F6CC
:10239000FF72C0F2000303E00C335A68002A92D0A7
:1023A00019888142F8D15988B142F5D1000A032831
:1023B0000CBF13781B8926E672B648F62414C1F6C2
:1023C000FF742568B5FA85F00B285CDC4FF00042FD
:1023D000C24025EA0205256062B648F2BC3400EB33
:1023E000C000C1F6FF7404EBC00544F8301069600A
:1023F00072B649F69402C1F6FF72D178012900F055
:10240000A180C0F09980022927D0032940F0B38031
:1024100048F298010426C1F6FF7111F0080F34F854
:102420003000D6700CBF8822C822083542EA00422C
:102430004D600A6062B6FFF7FEBA48F29804C1F632
:10244000FF7402254CE748F290040325C1F6FF749F
:1024500046E702F50F620223D5E548F29001052612
:10246000C1F6FF71D9E749F68004C1F6FF74E2684E
:10247000002A74D049F69802C1F6FF72D4686160F0
:10248000D16062B639E762B601211170FFF7D3BAA5
:10249000D3F89C00083800F07FFFD0E4D3F8940014
:1024A000083800F079FFC1E4D3F88C00083800F058
:1024B00073FFB2E4D3F88400083800F06DFFA3E4A2
:1024C000D86F083800F068FF95E4586F083800F0BE
:1024D00063FF88E4D86E083800F05EFF7BE4586E36
:1024E000083800F059FF6EE4D86D083800F054FF4A
:1024F00061E4586D083800F04FFF54E4D86C083898
:1025000000F04AFF47E4586C083800F045FF3AE411
:10251000D86B083800F040FF2DE4586B083800F005
:102520003BFF20E4D86A083800F036FF13E4586A0D
:10253000083800F031FF06E448F290010326C1F6A6
:10254000FF716AE748F29801C1F6FF71022664E75D
:1025500062B6137800210133A966137037E549F696
:102560009802E160C1F6FF728AE762B616780366E8
:10257000731C137006E549F68001C1F6FF71CA6845
:1025800052B149F69802C1F6FF72D1684D60D5602C
:1025900062B6FFF750BA00BE49F69802CD60C1F6A8
:1025A000FF72F4E7402B9C4628BF4FF0400CCCEB69
:1025B00003034FEA0C4002EB0C0100274FF0010827
:1025C000E5E500BF2DE9F843054672B64EF2180363
:1025D00048F6A0664EF60452C1F6FF76CEF200032E
:1025E000CEF200021B68D6F81C19126862B65201BE
:1025F00002D5322B88BF0131DDB3C3F50C334FF464
:102600007A724EF218094EF6045848F6396790244B
:1026100003F27F23CEF20009B3FBF4F3CEF20008FD
:1026200002FB0134C3F6E30772B6D9F80010D6F8FE
:102630001C29D8F800E062B6C1F50C3303F27F2301
:10264000A7FB03031EF0806FC4EB53134FF47A70A3
:1026500002D0322988BF013200FB0233B3F57A7F02
:1026600004D3013D05D004F57A74DDE700F00CFDDC
:10267000DAE7BDE8F88300BF704700BF47F23C12BD
:1026800048F65003C4F20302C1F6FF730121116042
:10269000DB68184747F22C1248F65003C4F20302D5
:1026A000C1F6FF73012111609B68184747F21C12A5
:1026B00048F65003C4F20302C1F6FF730121116012
:1026C0005B68184747F20C1248F65003C4F2030245
:1026D000C1F6FF73012111601B68184749F2BC73F2
:1026E000C1F6FF731A6801321A60704738B5EFF30C
:1026F000108272B649F65004C1F6FF74206878B1B2
:1027000000254369236003B19D6102B962B6457734
:1027100083689847EFF3108272B620680028F0D1E2
:1027200002B962B638BD00BF70B448F61803C1F6EE
:10273000FF7348F21F02196BC4F20002087910708F
:10274000D86A48F21C02C4F20002047914700979B4
:1027500011709A6A002A4FD05968C9688A4247D8CE
:102760000168CC8B240402F1FF3069D4C0F30E0061
:10277000C883C88B80B2C882196B0968C88B0004F3
:1027800056D4C2F30E00C883C88B002480B212F165
:10279000FF32C88218BF01229C62D96A086848F6D5
:1027A00018010568C1F6FF7101F12404A54237D074
:1027B0000968CC6814F0804F0468056815BF248848
:1027C00024780235013544F0004405604C63196BF0
:1027D00048F21B03C4F200030979197048F6180186
:1027E000C1F6FF7112B1CA6A12791A7070BC7047D3
:1027F000521A9A620122D0E71968586B0A630024C2
:10280000CFF60F74CC62CC68066824F08044CC60AC
:102810003468032583F825501146234670BC1847B9
:10282000086891F82410C46841F000414163CEE784
:10283000CC8BC2F3080004F47E442043C883A3E792
:10284000CC8BC0F3080004F47E442043C88390E797
:102850004FF2C803C4F20F030421196000BF00BF88
:1028600000BF00BF4FF2C40249F65003C4F20F028A
:10287000C1F6FF730120116018717047F8B548F672
:102880006403C1F6FF7300211C68204601F020FE9E
:1028900048B94AF6AB21C4F6AA41204601F02CFE05
:1028A0000546002843D048F66063C1F6FF731B78E5
:1028B00083B1022B23D9042B0CD848F66163C1F6EF
:1028C000FF731B78002B71D14FF28803C4F20F0302
:1028D00004221A6048F664634FF244014FF2480242
:1028E000C1F6FF73C4F20F01C4F20F0200254FF4CA
:1028F00000344FF480301D600C601060F8BD72B67B
:102900004BF20800C4F2040048F65412036823F0A6
:102910008773C1F6FF7223F4803343F21D5143F0F5
:102920008073C0F200010360916062B6D2E70021BB
:10293000C4F24021204601F023FC4FF07C5101F00D
:1029400015FB01F0E3FD2328ADD948F65866C1F622
:10295000FF7634688CB30123A560E3604FF40F4326
:10296000CBF6FC732344191101F1440248F65005DB
:102970005311C1F6FF7542F65107C0F200079B00E4
:1029800045F8217003F160434EF244452060CEF2D9
:10299000000503F5614302F01F0201203679032789
:1029A00000FA02F2A7604E551A607CE74FF28403EA
:1029B000C4F20F0304221A608CE748F23C03C4F20D
:1029C00004031A6842F400021A6000BF4FF4E042A8
:1029D000C4F203024FF4E243C4F203030121116085
:1029E0009A683360B2B147F21013C4F203039A68D5
:1029F0006AB147F22013C4F203039A683AB147F26E
:102A00003013C4F203039A680AB134604BE71C46E2
:102A10003360A3E71C46A1E702680AB34FF40F43F3
:102A2000CBF6FC73F0B413441B1103F144024EF2D5
:102A3000801648F6500102F01F07CEF20006521130
:102A40000125C1F6FF7142F27964BD40C0F2000475
:102A500046F8225041F82340F0BC036800229A60F7
:102A6000704700BF0846114600F04EBB00B583B06A
:102A700002A800F8011D012100F046FB03B05DF83B
:102A800004FB00BF2DE9F04F48F61806C1F6FF76AB
:102A900049F65007C1F6FF77F37A00223A7133B353
:102AA00072B6F37AD8071A4609D54EF28010CEF2E4
:102AB0000000F26801681140B1611A46016099078F
:102AC00009D54EF28412CEF20002336911680B4030
:102AD000F3611360F27A530708D54EF28812CEF2F2
:102AE0000002736911680B403362136062B6336889
:102AF000DA68B2F13C4F0ED044F201010022C0F27C
:102B00003F014FF03C44C8F23F024FF07C40196057
:102B1000DC6018611A604FF28802C4F20F0248F6B6
:102B200060031021C1F6FF731160197819B3326880
:102B3000D06810F0807F4FF4806048F61803C8F228
:102B40001F00C1F6FF7310604ED1CD0740F1BA806F
:102B5000012900F0348148F66C6CC1F6FF7C93F8D3
:102B600024901CF8013B43F0004349EA09295363D0
:102B700001F1FF38AFE04FF28403C4F20F031022DB
:102B80001A60F37A48F618021946C1F6FF729BB133
:102B9000D80706D54FF46141CEF2000192690A6070
:102BA00019469A0700F186804B0705D54EF20813A7
:102BB000CEF20003326A1A603B796BB148F6646367
:102BC000C1F6FF734FF244011A68C4F20F010132DB
:102BD0004FF480301A60086048F66863C1F6FF73EE
:102BE00001221A70BDE8F08FC80740F1C6800129A4
:102BF00000F0DD8048F66C6EC1F6FF7E93F824800D
:102C00001EF8013B43F00043536301F1FF3C48F6DB
:102C10006C60D6F80490C1F6FF70BEF1000F07D0CB
:102C20009EF801809EF800300EF1020E43EA08285B
:102C300099F80840BCF1020F04F1FF344FEA043464
:102C40000CBF48F0805348F01043A4B25363ACF17A
:102C5000020C07E008B105700130013903F470433C
:102C6000A34214D9D36A13F0F00FF7D011F0010F7B
:102C70008246956BEED120B10AF8025B2D124570A9
:102C8000504603F47043A342A1F10201EAD8BCF11B
:102C9000000FC2D1326800293FF46DAFD36A13F040
:102CA000F00FFBD0CC07936B78D508B103700130DF
:102CB0000139F0E74EF20413CEF20003F2691A6014
:102CC000F17A71E793F8249048F66C6C49EA092987
:102CD000C1F6FF7C884648F66C60D6F804A0C1F6C1
:102CE000FF70BCF1000F05D09CF801301CF8029B6E
:102CF00043EA09299AF80840B8F1020F04F1FF34B9
:102D00004FEA04340CBF49F0805349F01043A4B299
:102D10005363A8F1020807E008B1057001300139DA
:102D200003F47043A34215D9D36A13F0F00FF7D020
:102D3000956B11F0010F86464FEA252BECD118B1A7
:102D40000EF802BB4570704603F47043A342A1F134
:102D50000201E9D8B8F1000FC3D1326800293FF46D
:102D60000AAFD36A13F0F00FFBD0CC07936B0CD5EE
:102D700008B1037001300139F0E748F66C6E93F842
:102D80002480C1F6FF7E8C4641E728B104461D121F
:102D900004F8025B437020460239DFE728B104469D
:102DA0001D1204F8023B45702046023973E748F6CD
:102DB0006C63C1F6FF7318461B7853636AE748F6E5
:102DC0006C63C1F6FF7318461B785363C5E700BFF9
:102DD00070B5046842F665236568C0F200039D4241
:102DE000144605D10846114600F08EF9204670BD04
:102DF000A847204670BD00BF30B448F65863C1F6FE
:102E0000FF738024002548F6140242F619211C7134
:102E10001D601846C1F6FF72C0F2000130BC00F020
:102E200057BF00BF49F65802C1F6FF7213681BB1C5
:102E30005A881344187A704713798BB110B472B65C
:102E400013692BB11888918B5C681461091A9183FE
:102E500062B613603BB15A881344187A10BC7047AD
:102E60004FF0FF3070474FF0FF30F7E749F6580357
:102E7000C1F6FF7301215A6A83F8201032B15088DD
:102E80000022C0F1400083F820207047197919B959
:102E9000002083F82000704772B6596B61B349680F
:102EA00001320029FBD162B6072AF1D872B648F682
:102EB0002411C1F6FF710868B0FA80F20B2A1DDCFC
:102EC00010B44FF00044D44020EA0400086062B619
:102ED00048F2BC3102EBC202D200C1F6FF71881881
:102EE00000248C50586244600022408883F82020DF
:102EF000C0F1400010BC70470A46D4E762B6002219
:102F00005A62C5E730B449F65803C1F6FF731A791F
:102F1000002A35D05A6A012183F82010002A43D0B4
:102F20000020518883F83800118072B693F83F1062
:102F300001290DD032D302292AD0032922D0596B7E
:102F4000002900F08280D96C4A60DA6462B612E02F
:102F500048F298010220C1F6FF7183F83F001488FF
:102F600011F0080F14BFC8208820083240EA04403E
:102F70004A60086062B600225A62002283F820206C
:102F800030BC704748F298010420C1F6FF71E4E7B5
:102F900048F29001C1F6FF710520DEE748F290018A
:102FA0000320C1F6FF71D8E772B648F62414C1F6C3
:102FB000FF742568B5FA85F00B2836DC4FF0004128
:102FC000C14025EA0105256062B648F2BC3100EB3C
:102FD000C000C000C1F6FF710C180A5083F83820F9
:102FE000626072B693F83F20012A22D017D3022ADA
:102FF00025D0032A2BD148F298020425C1F6FF728E
:10300000085A83F83F5012F0080F14BFC8218821D6
:10301000083441EA00415460116062B6ADE748F2FD
:1030200090020325C1F6FF72EAE762B683F8381012
:10303000A3E748F298020225C1F6FF72E0E748F2E2
:103040009002C1F6FF720525DAE75A637DE75A6BF5
:1030500022B1DA6C5460DC6462B68EE75C63FAE736
:1030600044F26C63C0F2000303EBC00253F830106B
:10307000536801204FF4A27281F880021A601A6826
:1030800022F020021A60704748F62413C1F6FF733D
:103090001A79DAB170B549F65804C1F6FF7494F89C
:1030A000501091B9D10744BF02F0FE021A710021FD
:1030B00049F658035207C1F6FF7384F8501004D53F
:1030C0005A6D12B1EFF305820AB170BD7047EFF38C
:1030D000108172B6586D10B193F858201AB10029BA
:1030E000F3D162B670BD45695D65012683F858600D
:1030F00005B1AA6101B962B6002545778368984792
:1031000084F85850E1E700BF2DE9F04F49F6580523
:1031100085B0C1F6FF75012385F8203003910029A1
:1031200000F0A88048F62413C1F6FF73044601930B
:103130002F460E4605E0052385F83830002E00F0B6
:1031400099806A6A002A00F0A980B2F802C0CCF126
:103150004003B34228BF33460CEB030080B202F1B8
:10316000080B4FF0000EF61A508003F1FF380BEBFE
:103170000C0185F859E0002B4FD00CF108000CF140
:103180000C0C9444104404F10409484538BF6445CC
:103190002CBF4FF0010C4FF0000C092B94BF4FF0E7
:1031A000000C0CF0010CBCF1000F6ED044EA000CD6
:1031B0001CF0030F69D1A3F1040C4FEA9C0C0CF135
:1031C000010CB8F1020F4FEA8C095CD9A4F1040A92
:1031D00002960EF1010E5AF8046F40F8046BF445A4
:1031E000F7D84B45029E4944C9EB080804EB090097
:1031F00000F0B38090F800E081F800E0B8F1000F33
:103200003FD090F801E081F801E0B8F1010F38D02B
:1032100080788870234450881C463F288BD94023EF
:10322000138072B695F83F30012B00F0AD80C0F0EE
:10323000A580022B00F09C80032B40F0928048F286
:1032400098030421C1F6FF7385F83F101188C3F875
:1032500004B013F0080F0CBF8822C82242EA0142D2
:103260001A6062B600236B62052385F83830002EA1
:103270007FF467AF0398002385F8203005B0BDE8E0
:10328000F08F2344C7E72046B4E70139234414F8FC
:10329000010B01F8010F9C42F9D1BCE73B79DBB18E
:1032A0004FF6D9694FF0010872B66B6B002B56D000
:1032B00000225B680132002BFBD162B6072A13D9CA
:1032C000B9F1010941D095F85930002B3DD1FFF7F4
:1032D000DBFE3B79002BE7D100234FF0FF3085F870
:1032E000203005B0BDE8F08F85F8208072B6019BD4
:1032F0001A68B2FA82F348F624110B2BC1F6FF715B
:103300001BDC4FF00040D84022EA00020A6062B69F
:1033100048F2BC32C1F6FF7203EBC30349F6580012
:1033200002EBC301C1F6FF704FF0000E42F833E02C
:1033300041620A46C1F804E007E762B60023B9F12A
:1033400001097B6287F82030BDD101234FF0FF30A7
:1033500085F8593005B0BDE8F08F03465BE71A46A3
:10336000ABE77B6BB3B1FB6C5A60EA6462B679E79A
:1033700048F290030521C1F6FF7365E748F2900318
:103380000321C1F6FF735FE748F29803C1F6FF73AC
:10339000022159E77A63E8E748F2BC33C1F6FF73CC
:1033A00048F63962C31AC3F6E302A2FB03231B09E2
:1033B0000B2B17D810B449F65802C1F6FF7292F8D9
:1033C0005A1009B1117971B972B648F62412C1F6D2
:1033D000FF724FF00040116820FA03F319431160A7
:1033E00062B610BC704772B648F20001C1F6FF71B8
:1033F0000C6E9CB18C6E24B162B6002182F85A101A
:10340000E2E792F85A30C8240830013BC0F2400489
:10341000C86682F85A308C6662B6E2E792F85A3093
:1034200088240830013BC0F24004486682F85A30D4
:103430000C6662B6D5E700BF2DE9F04149F65805A4
:10344000C1F6FF752B79002B3BD0286818B1FFF728
:10345000A3FF00232B6049F6580448F2BC3748F616
:10346000396848F62416C1F6FF74C1F6FF77C3F633
:10347000E308C1F6FF7672B6286928B10188A38BEC
:10348000426822615B1AA38362B6D0B1C31BA8FB5A
:1034900003231B090B2BEED895F85A200AB1227989
:1034A0008AB972B64FF00041326821FA03F31A4329
:1034B000326062B672B628690028DFD162B6002891
:1034C000E4D1BDE8F08172B648F20003C1F6FF73A3
:1034D0001A6EAAB19A6E32B162B6002384F85A30DD
:1034E000FFF75AFFC7E794F85A20C8210830013A7D
:1034F000C0F24001D86684F85A20996662B6BAE7ED
:1035000094F85A2088210830013AC0F240015866E8
:1035100084F85A20196662B6ADE700BF704700BF55
:103520002DE9804848F6E86383B048F6A06548F680
:10353000A46848F6E46A48F6E56948F6107748F664
:10354000117648F2340B4FF44044C1F6FF73C1F6D4
:10355000FF75C1F6FF78C1F6FF7AC1F6FF790193D6
:10356000C1F6FF77C1F6FF76C4F2040BC4F206047D
:103570000BE0DBF80020500511D4DBF8002011052A
:1035800013D4DBF80020D20415D4DBF80020530359
:10359000EFD5FEF797F9DBF800205005EDD5FEF7E3
:1035A00013F9DBF800201105EBD5FEF791F8DBF8F5
:1035B0000020D204E9D5227993060DD5E1792A7845
:1035C000307801323F2AC8BF00228242C9B203D0FC
:1035D000D0B208F802102870E278D2B2100609D4EE
:1035E0005206D2D522795306CFD500212C2239702C
:1035F000E270CAE721790906F2D59AF8000099F835
:103600000010C9B288420DD00131272988BF00209F
:10361000019B8CBF0146C8B2595CC9B2E17189F8FF
:103620000000DDE76C21E170DAE700BF08B5FFF7C5
:1036300077FF00BF4EF20813CEF200034FF40002F2
:103640002DE9F0411A604FF080721A604FF000725D
:103650001A6048F204004FF080621A60C4F203005E
:103660004FF0006248F2080C48F20C0748F21401CF
:103670001A60C4F2030C0022C4F20307C4F203016F
:1036800048F21C0648F22405026028234BF6FF701E
:10369000C4F20306C4F2030548F22C04CCF800007F
:1036A000C4F203043B6048F2340E0B6048F23C075E
:1036B00048F244013360C4F2030E2B60C4F20307E6
:1036C000C4F203014FF4004649F204052360C4F23A
:1036D0000306C4F2030549F20804CEF80030C4F230
:1036E00003043B6049F20C0E0B6009213160C4F207
:1036F000030E2A6049F214074FF4104648F20405FD
:103700002060C4F20307C4F20306C4F20B0548F2BA
:103710000804CEF80030C4F20B0448F20C0C48F256
:10372000140E3B60C4F20B0C3160C4F20B0E2A6025
:103730004FF400464FF480452060C4F20B06C4F2FB
:10374000070544F20104CCF80030C4F20704CEF8B7
:1037500000304BF2080760233160C4F203072B707E
:103760004BF20C0CE1234BF2080E2370C4F2030C55
:10377000C4F20B0E39214BF20C004BF220064BF237
:1037800020054BF224044BF224033960C4F20B03EE
:103790001327C4F20B00C4F20306C4F20B05C4F2F3
:1037A0000304CCF80070CEF800108421076084B0C8
:1037B000326014202A6021601960FEF703FF72B6A0
:1037C000002307200621C4F20203C4F20200C4F25F
:1037D0000201702241260F2580241A7006701A46B5
:1037E0000D701C7013781B06FCD50823C4F202036D
:1037F0001B6862B649F27F62C0F29802934298BF9A
:103800000A224CF6CD4698BF5343CCF6CC46A6FBD5
:103810000312D20802EB8201A3EB410330338DF88F
:1038200004301346002A00F0D48001A80446002189
:10383000A6FB0352D20802EB8205A3EB450330330B
:1038400004F8013F01311346002AF1D104AC0C44C5
:1038500001AA0A4404F80B3C1478057800F8014BDF
:103860000133CC1AA34202F80159F5DB9DF804306C
:1038700048F69002C1F6FF72002B00F0A6809DF87A
:1038800005105380002900F0A7809DF80630918034
:10389000002B00F0A3809DF80710D380002900F0D2
:1038A0009F809DF808301181002B00F09B809DF8CF
:1038B00009105381002900F097809DF80A3091810A
:1038C000002B00F095809DF80B10D381002900F0AB
:1038D0008D809DF80C301182002B75D09DF80D1055
:1038E00053820923002970D091821620002348F2C8
:1038F00000011070C1F6FF71184601EBC30441F8D6
:103900003300013348F20002142B6060C1F6FF72ED
:103910004FF00004F1D148F23403C4F2040342F240
:103920009C061968C4F2070641F4802142F2B000F7
:103930001960C4F20700C2F3072342F2B4053370E2
:10394000C4F20705C2F307434FF4025842F2880C51
:1039500042F2100E0370C4F20708C4F2070CC4F25E
:10396000070E120E42F294074FF4045642F28400FE
:103970002A70FF23C4F20707C4F20706C4F2070047
:103980004EF249454EF2081142F2081288F8003012
:10399000CEF200058CF80030CEF200018EF8003037
:1039A000C4F2070201233B703470702703704FF498
:1039B000007610244FF48C702F700E60147004B0D9
:1039C000BDE8F041FEF7FEBD0823581C4000C0B220
:1039D0008CE78DF8052049E70123F6E70223F4E799
:1039E0000323F2E70423F0E70523EEE70723ECE7E0
:1039F0000623EAE7FEE700BFFEE700BF08B548F68A
:103A00002C13C1F6FF73D3F8E02048B16946104487
:103A1000A1F58051884205D2C3F8E000104608BDE8
:103A2000104608BD00F060F90C2303604FF0FF3032
:103A300008BD00BF08B542F20E03C4F205034CF204
:103A400020521A804DF628121A8000BF00BF4FF492
:103A50000053C4F2050310221A8048F23003C4F266
:103A600004034FF010621A6048F23803C4F20403F2
:103A700043F68272C0F204021A6048F23C03C4F2B8
:103A800004030122C2F600321A604DF21002C4F2A1
:103A90000302136813F4807307D14DF21401C4F2CA
:103AA00003010B604FF4A85313604DF20203C4F2FC
:103AB00007031A78100703D51A7842F008021A7023
:103AC0004FF46043C4F207032A221A7044F2A4712F
:103AD00048F2207348F63C62C0F20001C1F6FF7361
:103AE000C1F6FF72934204D251F8040F43F8040B5D
:103AF000F8E748F63C6349F6B402C1F6FF73C1F635
:103B0000FF720021934202D243F8041BFAE748F205
:103B1000002040F200010023C1F6FF70C0F2000156
:103B200051F8232040F82320013348F200226F2B64
:103B3000C1F6FF72F4D14FF464434EF25F41CEF20E
:103B400000038020CEF2000103F8010B8B42FBD171
:103B50004EF60853CEF200031A604FF4A043C4F2AD
:103B600006038A221A704FF48043C4F2060324220B
:103B70005A70A0221A709A799107FCD59A79D206C8
:103B8000FCD44FF48042C4F20602937903F00C0394
:103B9000082B4FF48043C4F20603F6D103221A71B6
:103BA0004C225A719A799406FCD54FF48042C4F2A3
:103BB000060291794FF480434806C4F20603F8D513
:103BC00048F24402C4F204024FF00171116048F25D
:103BD0004802C4F204020421116020221A709A796A
:103BE00002F00C020C2AFAD148F20403C4F20403D6
:103BF0004FF48652C0F205021A604EF21403CEF260
:103C0000000343F27F22C0F202021A604EF2180350
:103C1000CEF2000300241C604EF21003CEF200032B
:103C200007221A604EF62053CEF200032246C2F25B
:103C300020021A6062B6FFF7FDFC4DF21403C4F2D5
:103C400003031A68D10719D54DF20401C4F2030128
:103C50001C600C604FF45041C4F2030140F20002BA
:103C6000C6F285220A6010221A604EF21C02C4F2CB
:103C700003024CF2A531C5F6942111604FF4704255
:103C8000C4F20702127852061DD54EF21C02C4F28D
:103C900003024CF2A5311068C5F69421884212D176
:103CA0004DF20404C4F203040021196021604FF4B2
:103CB000504440F20000C4F20304C6F285202060A4
:103CC00010201860116000F015F8FCF7CFFB00BF62
:103CD0000B460146184600F001B800BF13460A46DD
:103CE0000146022000F02EB8014B1868704700BF53
:103CF000388EFF1F70B50F4E0F4D761BB61018BFD4
:103D0000002405D0013455F8043B9847A642F9D168
:103D10000A4E0B4D761B00F035FDB61018BF00247F
:103D200006D0013455F8043B9847A642F9D170BD3E
:103D300070BD00BF90470000904700009C47000006
:103D4000904700002DE9F047254C2568D5F84841FB
:103D50000646884692469946C4B360681F2817DC19
:103D6000431C76B104EB80050122C5F888A0D4F885
:103D7000881182401143022EC4F88811C5F80891B9
:103D80001ED00230636044F820800020BDE8F08738
:103D9000144B03B34FF4C870AFF300800446D0B1A6
:103DA000D5F84831002780E88800C5F848413846F2
:103DB0000123C4F88871C4F88C71002EE1D0D1E7DA
:103DC000D4F88C110A43C4F88C21DAE705F5A674FF
:103DD000C5F84841C1E74FF0FF30BDE8F08700BFAC
:103DE0008047000000000000024B13B1024800F0C1
:103DF00005B8704700000000093E0000002301469E
:103E00001A461846FFF79EBF38B5074D074C2C1BC6
:103E1000A41005D0013C55F8043D9847002CF9D179
:103E2000BDE8384000F0BABC00000000000000000F
:103E3000844641EA000313F003036DD1403A41D3B5
:103E400051F8043B40F8043B51F8043B40F8043B74
:103E500051F8043B40F8043B51F8043B40F8043B64
:103E600051F8043B40F8043B51F8043B40F8043B54
:103E700051F8043B40F8043B51F8043B40F8043B44
:103E800051F8043B40F8043B51F8043B40F8043B34
:103E900051F8043B40F8043B51F8043B40F8043B24
:103EA00051F8043B40F8043B51F8043B40F8043B14
:103EB00051F8043B40F8043B51F8043B40F8043B04
:103EC000403ABDD2303211D351F8043B40F8043BA4
:103ED00051F8043B40F8043B51F8043B40F8043BE4
:103EE00051F8043B40F8043B103AEDD20C3205D3B4
:103EF00051F8043B40F8043B043AF9D2043208D0AC
:103F0000D2071CBF11F8013B00F8013B01D30B881D
:103F100003806046704700BF082A13D38B078DD0FB
:103F200010F003038AD0C3F10403D21ADB071CBFCD
:103F300011F8013B00F8013B80D331F8023B20F837
:103F4000023B7BE7043AD9D3013A11F8013B00F870
:103F5000013BF9D20B7803704B7843708B788370F8
:103F60006046704780F0004002E000BF81F00041F1
:103F700042001FBF5FEA410392EA030F7FEA226C0F
:103F80007FEA236C6AD04FEA1262D2EB1363C1BF9F
:103F9000D218414048404140B8BF5B42192B88BF0E
:103FA000704710F0004F40F4000020F07F4018BF31
:103FB000404211F0004F41F4000121F07F4118BF51
:103FC000494292EA030F3FD0A2F1010241FA03FCF9
:103FD00010EB0C00C3F1200301FA03F100F00043E1
:103FE00002D5494260EB4000B0F5000F13D3B0F1A9
:103FF000807F06D340084FEA310102F10102FE2A18
:1040000051D2B1F1004F40EBC25008BF20F0010087
:1040100040EA03007047490040EB000010F4000F35
:10402000A2F10102EDD1B0FA80FCACF1080CB2EBC8
:104030000C0200FA0CF0AABF00EBC2505242184327
:10404000BCBFD0401843704792F0000F81F40001CC
:1040500006BF80F400000132013BB5E74FEA41039F
:104060007FEA226C18BF7FEA236C21D092EA030F0B
:1040700004D092F0000F08BF0846704790EA010F85
:104080001CBF0020704712F07F4F04D1400028BFB2
:1040900040F00040704712F100723CBF00F5000094
:1040A000704700F0004343F0FE4040F400007047CA
:1040B0007FEA226216BF08467FEA23630146420276
:1040C00006BF5FEA412390EA010F40F48000704789
:1040D0004FF0000304E000BF10F0004348BF40422F
:1040E0005FEA000C08BF704743F0964301464FF06B
:1040F00000001CE050EA010208BF70474FF00003C7
:104100000AE000BF50EA010208BF704711F0004307
:1041100002D5404261EB41015FEA010C02BF8446D7
:104120000146002043F0B64308BFA3F18053A3F536
:104130000003BCFA8CF2083AA3EBC25310DB01FA7D
:1041400002FC634400FA02FCC2F12002BCF1004F01
:1041500020FA02F243EB020008BF20F00100704792
:1041600002F1200201FA02FCC2F1200250EA4C00E6
:1041700021FA02F243EB020008BF20EADC7070472C
:104180004FF0FF0C1CEAD0521EBF1CEAD15392EA3A
:104190000C0F93EA0C0F6FD01A4480EA010C400216
:1041A00018BF5FEA41211ED04FF0006343EA501070
:1041B00043EA5111A0FB01310CF00040B1F5000FB2
:1041C0003EBF490041EAD3715B0040EA010062F161
:1041D0007F02FD2A1DD8B3F1004F40EBC25008BF4B
:1041E00020F00100704790F0000F0CF0004C08BF69
:1041F00049024CEA502040EA51207F3AC2BFD2F136
:10420000FF0340EAC250704740F400004FF0000343
:10421000013A5DDC12F1190FDCBF00F0004070477D
:10422000C2F10002410021FA02F1C2F1200200FABB
:1042300002FC5FEA310040F1000053EA4C0308BF82
:1042400020EADC70704792F0000F00F0004C02BFD3
:10425000400010F4000F013AF9D040EA0C0093F04E
:10426000000F01F0004C02BF490011F4000F013BA8
:10427000F9D041EA0C018FE70CEAD15392EA0C0F16
:1042800018BF93EA0C0F0AD030F0004C18BF31F081
:10429000004CD8D180EA010000F00040704790F057
:1042A000000F17BF90F0004F084691F0000F91F0FB
:1042B000004F14D092EA0C0F01D142020FD193EAC1
:1042C0000C0F03D14B0218BF084608D180EA010049
:1042D00000F0004040F0FE4040F40000704740F025
:1042E000FE4040F4400070474FF0FF0C1CEAD052F3
:1042F0001EBF1CEAD15392EA0C0F93EA0C0F69D04F
:10430000A2EB030280EA010C49024FEA402037D0B9
:104310004FF0805343EA111143EA10130CF00040B0
:104320008B4238BF5B0042F17D024FF4000C8B42A0
:1043300024BF5B1A40EA0C00B3EB510F24BFA3EB80
:10434000510340EA5C00B3EB910F24BFA3EB910350
:1043500040EA9C00B3EBD10F24BFA3EBD10340EAAA
:10436000DC001B0118BF5FEA1C1CE0D1FD2A3FF6F0
:1043700050AF8B4240EBC25008BF20F001007047A5
:104380000CF0004C4CEA50207F32C2BFD2F1FF0348
:1043900040EAC250704740F400004FF00003013A79
:1043A00037E792F0000F00F0004C02BF400010F41D
:1043B000000F013AF9D040EA0C0093F0000F01F031
:1043C000004C02BF490011F4000F013BF9D041EA53
:1043D0000C0195E70CEAD15392EA0C0F08D1420286
:1043E0007FF47DAF93EA0C0F7FF470AF084676E759
:1043F00093EA0C0F04D14B023FF44CAF08466EE732
:1044000030F0004C18BF31F0004CCAD130F00042FF
:104410007FF45CAF31F000437FF43CAF5FE700BF57
:104420004FF0FF3C06E000BF4FF0010C02E000BF80
:104430004FF0010C4DF804CD4FEA40024FEA410322
:104440007FEA226C18BF7FEA236C11D001B052EAD8
:10445000530C18BF90EA010F58BFB2EB030088BF9E
:10446000C81738BF6FEAE17018BF40F0010070470D
:104470007FEA226C02D15FEA402C05D17FEA236CEF
:10448000E4D15FEA412CE1D05DF8040B704700BF36
:10449000844608466146FFE70FB5FFF7C9FF0028CD
:1044A00048BF10F1000F0FBD4DF808EDFFF7F4FF06
:1044B0000CBF012000205DF808FB00BF4DF808ED9F
:1044C000FFF7EAFF34BF012000205DF808FB00BFC2
:1044D0004DF808EDFFF7E0FF94BF012000205DF8E4
:1044E00008FB00BF4DF808EDFFF7D2FF94BF012095
:1044F00000205DF808FB00BF4DF808EDFFF7C8FF8E
:1045000034BF012000205DF808FB00BF42000ED23E
:10451000B2F1FE4F0BD34FF09E03B3EB126209D4FE
:104520004FEA002343F0004323FA02F070474FF0B4
:104530000000704712F1610F01D1420202D14FF029
:10454000FF3070474FF00000704700BF2323230067
:104550000D0A00003C80044000100000041A000016
:10456000FF7F000011100000292700000C08000048
:1045700000020000000200000B07000040020000E3
:10458000000200000D0E00004002000000020000CA
:104590000A020906141715160F0000000002000099
:1045A0000002000000020000000200000002000003
:1045B00000020000000200000002000000020000F3
:1045C00001010202040408081000000000000000BD
:1045D000000000006D2A0000652A00006D2E00001A
:1045E000052F0000F9150000F5140000252E00002D
:1045F0003934000048656C6C6F0000000001000059
:104600007C88FF1F1200000000020000E088FF1FEE
:104610004300000000030000DC88FF1F00000000D2
:1046200001030904C088FF1F000000000203090401
:10463000A888FF1F00000000030309049088FF1FE3
:10464000000000000000000000000000000000006A
:10465000000000000000000028000000280000000A
:104660000000000000000000400000004008FE4381
:1046700040A004404408FE4344A004400018FE4308
:1046800000C004403000FE43309004403400FE433C
:10469000349004401C18FE431CC004401018FE4314
:1046A00010C004400818FE4308C004400C18FE4324
:1046B0000CC004400C10FE430CB004401010FE432C
:1046C00010B004401810FE4318B004401C10FE4304
:1046D0001CB004401410FE4314B004400418FE4300
:1046E00004C004400010FE4300B004400008FE4334
:1046F00000A004400408FE4304A004400C08FE434C
:104700000CA004400808FE4308A004401418FE430F
:1047100014C004401818FE4318C004400410FE439F
:1047200004B004400810FE4308B004401400FE43E7
:10473000149004404C08FE434CA004400420FE4367
:1047400004D004402410FE4324B004402010FE4353
:1047500020B004402810FE4328B004402C10FE4333
:104760002CB004400020FE4300D004404808FE4323
:1047700048A004401000FE43109004400015191595
:10478000108AFF1FF8B500BFF8BC08BC9E467047F2
:0C479000E93D000035040000F92D000098
:04479C00F8B500BFAD
:0847A00030F5FF7F010000006D
:1047A80038B54DF2A003C4F204031C681C606CB158
:1047B80048F62C15C1F6FF7594FAA4F3B3FA83F3FF
:1047C80055F823309847631E1C40F5D138BD00BF0B
:1047D80038B54CF2A003C4F204031C681C6074B121
:1047E80048F62C15C1F6FF7594FAA4F3B3FA83F3CF
:1047F80005EB83039B689847631E1C40F4D138BDC2
:1048080038B54BF2A003C4F204031C681C6074B1F1
:1048180048F62C15C1F6FF7594FAA4F3B3FA83F39E
:1048280005EB83039B6A9847631E1C40F4D138BD8F
:1048380038B54AF2A003C4F204031C681C6074B1C2
:1048480048F62C15C1F6FF7594FAA4F3B3FA83F36E
:1048580005EB83039B6D9847631E1C40F4D138BD5C
:1048680038B549F2A003C4F204031C681C607CB18B
:1048780048F62C15C1F6FF7594FAA4F3B3FA83F33E
:1048880005EB8303D3F8A8309847631E1C40F3D187
:1048980038BD00BF0000000000C0024054450000C1
:1048A8000000000000000000000000000000000000
:1048B80000000000000000000000000000000000F0
:1048C80000000000000000000000000000000000E0
:1048D8007926000079260000792600007926000054
:1048E8001200000000007A4401000000D4450000D6
:1048F80000000000E80300000000000012011001A1
:1049080002000040C91FDB8275020102030100009A
:104918000C03000000000000000000000000000080
:10492800000000000000000016035500530042007C
:104938002000530065007200690061006C000000EF
:104948001C0345006C006500630074007200690078
:10495800350020004C00740064002E000403090494
:1049680009024300020100C03209040000010202EA
:104978000100052400100105240101010424020698
:104988000524060001070582031000400904010000
:10499800020A000000070503024000000705840220
:1049A80040000000FFFFFFFF010000001D35000070
:1049B8001D3500001D3500001D3500001D350000A7
:1049C8001D3500001D3500001D3500001D35000097
:1049D8001D3500001D3500001D3500001D35000087
:1049E8001D3500001D3500001D3500001D35000077
:1049F8001D3500001D3500001D3500001D35000067
:104A08001D3500001D3500001D3500001D35000056
:104A18001D3500001D3500001D3500001D35000046
:104A28001D3500001D3500001D3500001D35000036
:104A38001D3500001D3500001D3500001D35000026
:104A48001D3500001D3500001D3500001D35000016
:104A58001D3500001D3500001D3500001D35000006
:104A68001D3500001D3500001D3500001D350000F6
:104A78001D3500001D3500001D3500001D350000E6
:104A88001D3500001D3500001D350000B498FF1FBE
:104A980000000000FC8CFF1F648DFF1FCC8DFF1FE2
:104AA80000000000000000000000000000000000FE
:104AB80000000000000000000000000000000000EE
:104AC80000000000000000000000000000000000DE
:104AD80000000000000000000000000000000000CE
:104AE80000000000000000000000000000000000BE
:104AF80000000000000000000000000000000000AE
:104B0800000000000000000000000000000000009D
:104B1800000000000000000000000000000000008D
:104B2800000000000000000000000000000000007D
:104B3800000000000000000001000000000000006C
:104B48000E33CDAB34126DE6ECDE05000B00000031
:104B5800000000000000000000000000000000004D
:104B6800000000000000000000000000000000003D
:104B7800000000000000000000000000000000002D
:104B8800000000000000000000000000000000001D
:0C4EB8000000000000000000108AFF1F36
:00000001FF
