:100000000C94E3000C940B010C940B010C940B0169
:100010000C940B010C940B010C940B010C940B0130
:100020000C940B010C940B010C9457070C94AE0725
:100030000C940B010C940B010C940B010C940B0110
:100040000C940B010C940B010C940B010C940B0100
:100050000C941D0A0C940B010C940B010C940D07CD
:100060000C940B010C940B010C940B010C940B01E0
:100070000C940B010C940B010C940B010C940B01D0
:100080000C940B010C940B010C940B010C94F609CD
:100090000C940B010C940B010C940B010C940B01B0
:1000A0000C940B010C940B010C940B0137013A01D9
:1000B00029012D0131015B015B015B013E01420120
:1000C00046014C0150015B015601080B000202027F
:1000D00001000904000001020200000524001001D3
:1000E0000524010101042402060524060001070578
:1000F000810310004009040100020A000000070506
:1001000002024000000705830240000004030904C6
:1001100012010002EF020140D80480EB000101024D
:1001200003015375727265792053656E736F727334
:10013000204C74642E00456C656374726935204CE4
:1001400074642E204D43552D38000000000024001B
:1001500027002A002D0030000000000025002800A4
:100160002B002E00310004040404040304050202E1
:100170000202040302020202060606060606040440
:1001800002020204040408020110408040102040D2
:10019000804080080204018040201002011080107D
:1001A000204040200000000200090F00000304016D
:1001B000000C000000000000000000000000000033
:1001C00000000000D80A11241FBECFEFDAE0DEBF26
:1001D000CDBF21E0ACE2B1E001C01D92AF39B20762
:1001E000E1F711E0A0E0B1E0ECE7F9E102C0059031
:1001F0000D92AC32B107D9F710E0C3EED0E004C0E5
:100200002197FE010E94B10CC23ED107C9F70E949E
:10021000440A0C94BC0C0C94000090E0FC01EC55DA
:10022000FE4F4491FC01EB57FE4F2491FC01EA592B
:10023000FE4F8491882309F44DC04423E1F150E03E
:10024000FA013197EF30F105B0F5EA5AFF4F0C94FF
:10025000B10C909180009F7707C0909180009F7DA6
:1002600003C090918000977F9093800024C094B544
:100270009F7702C094B59F7D94BD1DC09091900062
:100280009F7707C0909190009F7D03C09091900050
:10029000977F909390000FC09091C0009F7703C00C
:1002A0009091C0009F7D9093C00005C09091C200C6
:1002B000977F9093C200E82FF0E0EE0FFF1FE85AFF
:1002C000FE4FA591B4919FB7F8948C912095282367
:1002D0002C939FBF089590E0FC01EB57FE4F2491B3
:1002E000FC01EA59FE4F8491882399F090E0880F31
:1002F000991FFC01E65BFE4FA591B491FC01E85A01
:10030000FE4F859194918FB7F894EC91E22BEC938A
:100310008FBF089520919E01211103C08FEF9FEFA1
:1003200008955FB7F89422E02093E9002091F2004D
:1003300030E01216130614F421E030E0422FFC01E5
:10034000415020F08091F1008193FACF21153105C1
:1003500021F08091F200882319F05FBFC901089550
:100360008BE68093E800F9CF2FB7F89483E0809371
:10037000E9009091E800892F807295FF04C0909168
:10038000F20080E4891B2FBF0895809196018111AE
:100390000DC082E08093920184E0809393011092DB
:1003A00095011092940181E08093960182E991E099
:1003B00008953FB7F89480918E0190918F01A0919C
:1003C0009001B091910126B5A89B05C02F3F19F06F
:1003D0000196A11DB11D3FBFBA2FA92F982F8827C5
:1003E000820F911DA11DB11DBC01CD0142E0660F20
:1003F000771F881F991F4A95D1F70895CF92DF92F2
:10040000EF92FF920E94D9016B017C010E94D901F9
:10041000DC01CB018C199D09AE09BF09883E9340D0
:10042000A105B10598F3FF90EF90DF90CF9008956C
:100430004091840150918501209182013091830186
:1004400042175307B4F49091E8009570E1F390914E
:10045000E80092FD19C08093F10080918401909191
:10046000850101968F739927892B19F48EEF80935C
:10047000E800809184019091850101969093850117
:100480008093840181E0089580E00895DF92EF92E7
:10049000FF920F931F93CF93DF93D82EF92EE42E64
:1004A000062F10E0C8010196880F0E94180283E011
:1004B0000E941802CD2DDF2D0C0F1D1FC017D10774
:1004C00089F0E7FE03C0FE01849101C088810E948B
:1004D0001802F82E80E00E9418028F2121968111C7
:1004E000EDCF01C081E0DF91CF911F910F91FF907F
:1004F000EF90DF900895DF92EF92FF920F931F939A
:10050000CF93DF93D82E8A017B01E40EF51EEB0119
:10051000CE15DF0571F0D7FE03C0FE01849101C046
:1005200088810E94180221968111F2CF8FEF9FEFF0
:1005300001C0C801DF91CF911F910F91FF90EF9003
:10054000DF9008950F931F93CF93DF931F92CDB742
:10055000DEB782E0898342E450E06AEC70E080E834
:100560000E947B020E94C501DC0112960D911C9134
:1005700013970115110589F0D801ED91FC910280C6
:10058000F381E02DBE016F5F7F4FC801099597FD94
:1005900004C0F80100851185ECCF89810F90DF91AF
:1005A000CF911F910F910895CF92DF92EF92FF921A
:1005B0000F931F93CF93DF936C017A018B01C0E0FF
:1005C000D0E0CE15DF0581F0D8016D918D01D60107
:1005D000ED91FC910190F081E02DC6010995892BE8
:1005E00011F02196EECF7E01C701DF91CF911F91CF
:1005F0000F91FF90EF90DF90CF900895CF93DF930E
:100600001F92CDB7DEB7CE0101960E948A010197F5
:1006100019F4898190E002C08FEF9FEF0F90DF9176
:10062000CF9108958F929F92AF92BF92CF92DF9217
:10063000EF92FF920F931F93CF93DF936C017B0197
:100640008A0180911101882309F454C080919E0190
:10065000882309F44FC08091870180FF05C08091F5
:10066000E00082608093E000E801B12C8AEFA82EC0
:1006700093E0892E2AE3922E209711F4BB20B9F142
:100680000E94B401811106C0AA94AA2099F10E9487
:10069000FE01F2CF282F30E0C217D3070CF48C2FC5
:1006A0009FB7F8948092E9002091E80025FF1DC0D3
:1006B000282F30E0C21BD30BF701815020F041916D
:1006C0004093F100FACFE20EF31EBB2019F0909296
:1006D000E8000AC08091E80085FD07C09092E8001C
:1006E000BB24B394209709F0B12C9FBFC5CF10163F
:1006F000110644F081E090E0F6019383828380E06C
:1007000090E001C0C801DF91CF911F910F91FF9040
:10071000EF90DF90CF90BF90AF909F908F90089513
:10072000CF93DF931F92CDB7DEB76983DC01ED91E4
:10073000FC910280F381E02D41E050E0BE016F5F4B
:100740007F4F09950F90DF91CF91089583E08093BB
:10075000E9008091F200882319F08AE38093E80091
:1007600008950E94B40190E00895FC018485958568
:1007700097FD05C02FEF3FEF3587248708950C9430
:10078000FE020F931F93CF93DF931F92CDB7DEB777
:100790008C01FC018485958597FF0EC0CE010196E2
:1007A0000E948A01019719F4898190E002C08FEFBD
:1007B0009FEFF80195878487F801848595850F90D0
:1007C000DF91CF911F910F910895FC01848595854C
:1007D00097FD0BC09FB7F89482E08093E900809169
:1007E000F2009FBF90E0019608959FB7F89482E0D1
:1007F0008093E9008091F2009FBF90E008950895F2
:1008000080E090E008950895CF92DF92EF92FF92FA
:10081000CF93C1E0C0932F01109281001092850008
:100820001092840080912E0180618093810020913C
:100830000001309101014091020150910301211505
:1008400031054105510501F1A0EAB0E00E94D40B49
:100850006B017C0124E130E040E050E00E948F0C0D
:100860002115310581E048075105E8F4C0932E01B8
:10087000B90130932D0120932C0181E17093870001
:1008800060938600809381008CEB94E09093050147
:100890008093040181E080936F00CF91FF90EF90EF
:1008A000DF90CF9008952115310588E04807510564
:1008B000C0F02115310580E44807510520F583E09B
:1008C00080932E01C701B60120E035E040E050E002
:1008D0000E948F0CB90130932D0120932C0183E1EC
:1008E000CDCF82E080932E01C701B60120EA30E02F
:1008F00040E050E00E948F0CB90130932D0120930D
:100900002C0182E1BBCF21153105410581E058075B
:10091000B8F085E080932E01211531054105544042
:1009200008F5C701B60120E030E540E050E00E9444
:100930008F0CB90130932D0120932C0185E19ECFBE
:1009400084E080932E01C701B60120E034E140E04D
:1009500050E00E948F0CB90130932D0120932C019F
:1009600084E18CCF8FEF9FEF90932D0180932C012A
:1009700085E16FEF7FEF82CF80912F01813021F0F1
:100980005F9810926F0008955F9A10922F0108955A
:10099000CF93DF9386E00E946B0186E00E940D01F9
:1009A00087E00E946B0187E00E940D01E1E9F0E021
:1009B00030E1308310929000A6E9B0E082E19AE73E
:1009C00011969C938E9324E12083C1E8D0E0388374
:1009D0001092800034E030932E0190932D0180938B
:1009E0002C019093870080938600288380E29EE408
:1009F00011969C938E9381E1808384E094E09093A0
:100A000031018093300181E080937100E2E3F1E0F5
:100A10008FEF9FEF9587848788EE93E0A0E0B0E0AA
:100A200084839583A683B783769ADF91CF910895C7
:100A30000E94B70CCF93DF9300D000D0CDB7DEB7C4
:100A400040E050E0BA01CE0105962C0132E0732E51
:100A500022242A94322C9FB7F89480908E01909093
:100A60008F01A0909001B090910186B5A89B07C01E
:100A70008F3F29F0EFEF8E1A9E0AAE0ABE0A9FBF83
:100A8000BA2CA92C982C8824880E911CA11CB11C6E
:100A9000880C991CAA1CBB1C880C991CAA1CBB1C8A
:100AA000D501C401841B950BA60BB70B803A964861
:100AB000A140B10580F280913E0190913F0197FDE8
:100AC0007FC08FB7F8947092E9009091F2008FBFC9
:100AD00080913E0190913F0197FD81C030923F018E
:100AE00020923E01859709F481C1CDB6DEB68FB75D
:100AF000F8947092E900E090F2008FBFF12CFF248F
:100B0000EDB7FEB7EE19FF090FB6F894FEBF0FBEA2
:100B1000EDBF0DB71EB70F5F1F4FE114F10409F4CD
:100B200047C0E00EF11E2FB7F89480918A01909192
:100B30008B01A0918C01B0918D012FBF80933A0160
:100B400090933B01A0933C01B0933D0124C02FB78B
:100B5000F89480918A0190918B01A0918C01B091C1
:100B60008D012FBF40913A0150913B0160913C01B2
:100B700070913D01841B950BA60BB70B409136017C
:100B800050913701609138017091390184179507B0
:100B9000A607B70768F482E391E00E94B50397FDCA
:100BA000D6CFF80181938F01EE16FF0609F0BBCF77
:100BB0000FB6F894DEBE0FBECDBEB501A4014BCF7B
:100BC0009FB7F8947092E9008091F2009FBF88234C
:100BD000A1F380913E0190913F0197FF7FCF0E944A
:100BE000FE02859709F005C180913E0190913F0179
:100BF00097FDFCC030923F0120923E01859709F499
:100C00006EC0CDB6DEB680913E0190913F0197FD5A
:100C1000E4C08FB7F8947092E900E090F2008FBFC3
:100C2000F12C2FEFE21AF20AFF248DB79EB78E192E
:100C30009F090FB6F8949EBF0FBE8DBF0DB71EB7AC
:100C40000F5F1F4FE114F10409F4B2CFE00EF11E63
:100C50002FB7F89480918A0190918B01A0918C011B
:100C6000B0918D012FBF80933A0190933B01A093E7
:100C70003C01B0933D0125C02FB7F89480918A01C3
:100C800090918B01A0918C01B0918D012FBF40916B
:100C90003A0150913B0160913C0170913D01841BF0
:100CA000950BA60BB70B409136015091370160911F
:100CB00038017091390184179507A607B70708F026
:100CC00077CF82E391E00E94B50397FDD5CFF8017D
:100CD00081938F01EE16FF0609F0BACF69CF8E011E
:100CE0000F5F1F4F2FB7F89480918A0190918B016D
:100CF000A0918C01B0918D012FBF80933A01909308
:100D00003B01A0933C01B0933D0124C02FB7F89460
:100D100080918A0190918B01A0918C01B0918D01FD
:100D20002FBF40913A0150913B0160913C0170917D
:100D30003D01841B950BA60BB70B409136015091DA
:100D40003701609138017091390184179507A60722
:100D5000B70768F482E391E00E94B50397FDD6CF10
:100D6000F80181938F01E415F50509F0BBCFC98027
:100D7000DA80EB80FC8020E030E0A901C701B601F9
:100D80000E948A0C87FD19CF20E030E040E85FE345
:100D9000C701B6010E94ED0A18160CF40ECF20E030
:100DA00030E04AE754E4C701B6010E94160B20E088
:100DB00030E0A9010E94EF0B0E945B0CDC01CB012B
:100DC00088519C4FAF4FBF4F80930001909301011A
:100DD000A0930201B0930301F0CE8FB7F894709204
:100DE000E900E090F2008FBFF12C1ECF0E94FE02BE
:100DF00005CF80913E0190913F01CDB6DEB697FDC3
:100E000076CE8FB7F8947092E900E090F2008FBF31
:100E1000F12C9FEFE91AF90A72CE1F920F920FB6CA
:100E20000F9211242F933F938F939F93AF93BF9370
:100E300080918A0190918B01A0918C01B0918D01DC
:100E40003091890123E0230F2D3720F40196A11D55
:100E5000B11D05C026E8230F0296A11DB11D2093E8
:100E6000890180938A0190938B01A0938C01B093A8
:100E70008D0180918E0190918F01A0919001B09190
:100E800091010196A11DB11D80938E0190938F0158
:100E9000A0939001B0939101BF91AF919F918F91D9
:100EA0003F912F910F900FBE0F901F9018951F929A
:100EB0000F920FB60F9211248F939F938091E100B0
:100EC0009091E100937F9093E10083FF0FC0109217
:100ED000E90091E09093EB001092EC0092E3909384
:100EE000ED0010929E0198E09093F00082FF0AC0FE
:100EF00093E09093E9009091F200992319F09AE31E
:100F00009093E80084FF10C08091E2008E7E8160A3
:100F10008093E2008091E1008F7E8093E1008091D8
:100F200087018E7E806111C080FF11C08091E20038
:100F30008E7E80618093E2008091E1008E7E8093BE
:100F4000E100809187018E7E8160809387019F916F
:100F50008F910F900FBE0F901F9018951F920F92B8
:100F60000FB60F921124CF92DF92EF92FF920F9360
:100F70001F932F933F934F935F936F937F938F9321
:100F80009F93AF93BF93EF93FF93CF93DF93CDB72F
:100F9000DEB76C97DEBFCDBF1092E9008091E8000C
:100FA00083FF05C289E0FE017596EE2EDF2E81508B
:100FB00029F09091F10090833196F9CF82EF8093E0
:100FC000E8008D8987FF05C09091E80090FFFCCF75
:100FD00003C09EEF9093E800982F907609F0C5C06B
:100FE0009E894F89588D2F89F88C91110CC08038BB
:100FF00029F4809188018093F10002C01092F100E1
:101000001092F10048C1913051F4811144C1413036
:10101000510509F040C1809188018D7F0BC093304C
:1010200061F4811138C14130510509F034C180911A
:1010300088018260809388012EC1953049F48091A7
:10104000E80080FFFCCF822F80688093E30023C1FB
:10105000963009F05DC00B8D1C8D22E01092E900E6
:101060001092850110928401F21232C01092830115
:10107000109282010E94A20299E0BE016F5F7F4F31
:10108000DB01E92F1D92EA95E9F79983FA8291E055
:101090009E8390EA98879AEF9987209184013091F6
:1010A0008501275F3F4F3C832B838D831092E9009E
:1010B00010928501109284011093830100938201A4
:1010C00049E050E080E00E947B020E94A202E3C05F
:1010D00010938301009382010E94C501DC011296E6
:1010E0000D911C9113970115110509F4BEC0D8018B
:1010F000ED91FC910480F581E02D6E2D7D2DC801D0
:101100000995009709F0CBC0F80100851185EBCF58
:10111000973009F449C1983021F481E08093F100BF
:10112000BAC0993009F0B7C0837009F03DC1E5E25B
:10113000F1E081E031E096E32081211109C08EE7E2
:101140008093EA001092EA008F8980939E01A3C0E9
:101150008093E9003093EB0021912093EC00909371
:10116000ED008F5F873041F7EACF8B8D9C8D109219
:10117000E90010928501109284019093830180937D
:101180008201898D811158C08E899D89913A49F4D7
:10119000813209F009C147E050E06AE071E080E087
:1011A000BFC0913209F000C1833269F48F89988DF4
:1011B000A0E0B0E08093060190930701A09308019E
:1011C000B093090168C0803291F48091E80082FFF9
:1011D000FCCF88E0EAE0F1E0815029F09091F10045
:1011E00090833196F9CF8BEF8093E80054C0823220
:1011F00009F051C08F8980931101EEEFFFE78591CF
:1012000094918B3F9C4D19F0E0E0F8E002C0EEEFC6
:10121000FAE080910A0190910B01A0910C01B0912C
:101220000D01803B9440A105B10509F09DC080915E
:10123000110180FF78C098C00E94C501FC010281A5
:1012400013810115110509F4AFC0D801ED91FC918E
:101250000190F081E02D6E2D7D2DC8010995811141
:101260001AC0F80100851185ECCFF1E0FF1609F4F2
:101270004EC0F3E0FF1298C08F89882309F44AC05A
:10128000823089F440E863E186E391E00E944602FF
:10129000882309F489C08EEF8093E80088C018166F
:1012A0001906CCF381C0813029F440E863E182E281
:1012B00091E0ECCF833009F077C00E94C501DC01DA
:1012C0001296ED90FC9013978E010F5F1F4F6801EF
:1012D000E114F10479F0D701ED91FC910680F781DA
:1012E000E02DB801C7010995080F111DF701E08431
:1012F000F184EECFD8011C92F60101900020E9F7AD
:101300003197BF016C197D0940E0C601BFCF60E194
:1013100071E002C06CE071E0FB01449150E080E8B4
:101320000E947B02B8CFEE3F2AE0F20751F08081A5
:1013300091818737A7E79A0721F09093FF0A80935E
:10134000FE0A87E797E7918380838091600080930E
:1013500086019BE088E10FB6F894A8958093600021
:101360000FBE9093600097CF808191818737974718
:1013700009F091CFA895809160008861809360000A
:101380008091860180936000EE3FBAE0FB0739F060
:101390008091FE0A9091FF0A918380837CCF109206
:1013A000FF0A1092FE0A77CF81E28093EB006C96E1
:1013B0000FB6F894DEBF0FBECDBFDF91CF91FF9186
:1013C000EF91BF91AF919F918F917F916F915F91BD
:1013D0004F913F912F911F910F91FF90EF90DF90D0
:1013E000CF900F900FBE0F901F9018951F920F92E5
:1013F0000FB60F9211242F933F934F935F936F93E8
:101400007F938F939F93AF93BF93EF93FF93E0915D
:101410003001F09131010995FF91EF91BF91AF91AA
:101420009F918F917F916F915F914F913F912F91FC
:101430000F900FBE0F901F9018951F920F920FB62E
:101440000F9211242F933F934F935F936F937F934A
:101450008F939F93AF93BF93EF93FF93E09104011A
:10146000F09105010995FF91EF91BF91AF919F9187
:101470008F917F916F915F914F913F912F910F903D
:101480000FBE0F901F901895789484B5826084BD2C
:1014900084B5816084BD85B5826085BD85B5816078
:1014A00085BD80916E00816080936E0010928100F6
:1014B00080918100826080938100809181008160B1
:1014C0008093810080918000816080938000809172
:1014D000910082608093910080919100816080935F
:1014E0009100809190008160809390008091C10074
:1014F00084608093C1008091C10082608093C100AC
:101500008091C10081608093C1008091C30081609F
:101510008093C3008091C00082608093C00080915E
:10152000C20081608093C20080917A0084608093C1
:101530007A0080917A00826080937A0080917A00AC
:10154000816080937A0080917A00806880937A002D
:1015500010929E0110928801109287018091D7000D
:1015600081608093D70080EA8093D80089B580613C
:1015700089BD89B5826089BD09B400FEFDCF0E9496
:10158000FE018091D8008F7C80618093D80080918B
:10159000E000807F8093E0008091E1008E7E809368
:1015A000E1008DE08093E2000E94C8040E941A05C9
:1015B000E2E3F1E01382128288EE93E0A0E0B0E073
:1015C00084839583A683B78386E191E091838083AA
:1015D0008FEF9FEF9587848708950E94F20A08F4A1
:1015E00081E00895990F0008550FAA0BE0E8FEEF7F
:1015F00016161706E807F907C0F012161306E407D7
:10160000F50798F0621B730B840B950B39F40A26CF
:1016100061F0232B242B252B21F408950A2609F4AD
:10162000A140A6958FEF811D811D08950E94290B71
:101630000C949A0B0E948C0B38F00E94930B20F0B4
:10164000952311F00C94830B0C94890B11240C94AA
:10165000CE0B0E94AB0B70F3959FC1F3950F50E03A
:10166000551F629FF001729FBB27F00DB11D639F54
:10167000AA27F00DB11DAA1F649F6627B00DA11DFA
:10168000661F829F2227B00DA11D621F739FB00DA0
:10169000A11D621F839FA00D611D221F749F332710
:1016A000A00D611D231F849F600D211D822F762FA9
:1016B0006A2F11249F5750409AF0F1F088234AF086
:1016C000EE0FFF1FBB1F661F771F881F91505040F2
:1016D000A9F79E3F510580F00C94830B0C94CE0B20
:1016E0005F3FE4F3983ED4F3869577956795B79579
:1016F000F795E7959F5FC1F7FE2B880F911D969593
:10170000879597F9089597F99F6780E870E060E002
:1017100008959FEF80EC089500240A94161617068A
:1017200018060906089500240A94121613061406D2
:1017300005060895092E0394000C11F4882352F035
:10174000BB0F40F4BF2B11F460FF04C06F5F7F4FED
:101750008F4F9F4F089557FD9058440F551F59F0D4
:101760005F3F71F04795880F97FB991F61F09F3F8E
:1017700079F087950895121613061406551FF2CFB7
:101780004695F1DF08C0161617061806991FF1CF07
:1017900086957105610508940895E894BB2766272E
:1017A0007727CB0197F908950E94DF0BA59F900D35
:1017B000B49F900DA49F800D911D11240895A29FA8
:1017C000B001B39FC001A39F700D811D1124911D15
:1017D000B29F700D811D1124911D08955058BB2793
:1017E000AA270E94060C0C949A0B0E948C0B38F0CE
:1017F0000E94930B20F039F49F3F19F426F40C94C7
:10180000890B0EF4E095E7FB0C94830BE92F0E9403
:10181000AB0B58F3BA17620773078407950720F0DC
:1018200079F4A6F50C94CD0B0EF4E0950B2EBA2F9F
:10183000A02D0B01B90190010C01CA01A0011124D6
:10184000FF27591B99F0593F50F4503E68F11A1682
:10185000F040A22F232F342F4427585FF3CF469513
:1018600037952795A795F0405395C9F77EF41F1635
:10187000BA0B620B730B840BBAF09150A1F0FF0FFF
:10188000BB1F661F771F881FC2F70EC0BA0F621FEB
:10189000731F841F48F4879577956795B795F795DB
:1018A0009E3F08F0B0CF9395880F08F09927EE0F70
:1018B0009795879508950E94B30B88F09F5798F0ED
:1018C000B92F9927B751B0F0E1F0660F771F881F45
:1018D000991F1AF0BA95C9F714C0B13091F00E945F
:1018E000CD0BB1E008950C94CD0B672F782F88278E
:1018F000B85F39F0B93FCCF3869577956795B39586
:10190000D9F73EF490958095709561957F4F8F4FF4
:101910009F4F08950E94F20A08F48FEF0895A1E204
:101920001A2EAA1BBB1BFD010DC0AA1FBB1FEE1F59
:10193000FF1FA217B307E407F50720F0A21BB30BA4
:10194000E40BF50B661F771F881F991F1A9469F720
:1019500060957095809590959B01AC01BD01CF017C
:101960000895EE0FFF1F0590F491E02D099481E09A
:0C19700090E0F8940C94BC0CF894FFCFAD
:10197C00E80300000304FFFFFFFF00E1000000008C
:10198C0000000000000090031203B103A603E5035E
:0C199C00B503C10300C180810000000001
:00000001FF
