:100000000C944D010C9475010C9475010C947501C0
:100010000C9475010C9475010C9475010C94750188
:100020000C9475010C9475010C946D0F0C94D10F08
:100030000C94A1070C9475010C9475010C94750136
:100040000C9475010C9475010C9475010C94750158
:100050000C9475010C9475010C9475010C941B158E
:100060000C9475010C943F120C9419120C947501A8
:100070000C9475010C9475010C9475010C94750128
:100080000C9475010C9475010C9475010C94750118
:100090000C9458170C9475010C9475010C9475010F
:1000A0000C9475010C9475010C9475015E04370372
:1000B0009B019B019B019B01EA029B019B019B0110
:1000C0009B019B019B01B1019B019B019B01D10302
:1000D00076029B01EF039B0186029B019B017F023D
:1000E0009B019B019B019B019B019B019B019B0130
:1000F0009B019B019B019B019B019B019B019B0120
:100100009B019B019B019B019B019B019B019B010F
:100110009B019B017802FF0337039B019B019B011D
:100120009B01EA029B019B019B019B019B019B019F
:10013000B1019B019B019B01D10376029B01EF035F
:100140009B0186029B019B017F029B019B019B01FE
:100150009B019B019B019B019B019B019B019B01BF
:100160009B019B019B019B019B019B019B019B01AF
:100170009B019B019B019B019B019B019B017802C1
:1001800047144A1439143D1441146B146B146B1446
:100190004E14521456145C1460146B146614080B3D
:1001A0000002020201000904000001020200000531
:1001B000240010010524010101042402060524067F
:1001C00000010705810310004009040100020A0034
:1001D00000000705020240000007058302400000FE
:1001E0000403090412010002EF020140D80480EB6D
:1001F0000001010203015375727265792053656E27
:10020000736F7273204C74642E00456C6563747256
:100210006935204C74642E204D43552D3800000064
:100220000000240027002A002D00300000000000FC
:10023000250028002B002E003100040404040403D0
:100240000405020202020403020202020606060676
:10025000060604040202020404040802011040809D
:10026000401020408040800802040180402010029D
:1002700001108010204040200000000200090F0003
:1002800000030401000C000000000000000000005A
:1002900000000000000000001E1911241FBECFEF57
:1002A000DAE0DEBFCDBF25E0AEE4B3E001C01D92D1
:1002B000A736B207E1F713E0A0E0B1E0E6ECF8E31F
:1002C00002C005900D92AE34B107D9F711E0CDE42C
:1002D000D1E004C02197FE010E94561CCC34D10706
:1002E000C9F70E9486180C94611C0C9400008F9230
:1002F0009F92BF92CF92DF92EF92FF920F931F9344
:10030000CF93DF93CDB7DEB7E3970FB6F894DEBF98
:100310000FBECDBFE0918B04F0918C04F7FD62C25B
:100320008FEF9FEF90938C0480938B04E154F1093D
:10033000E533F10590F0E3960FB6F894DEBF0FBEFB
:10034000CDBFDF91CF911F910F91FF90EF90DF9084
:10035000CF90BF909F908F900895EA5AFF4F0C94D2
:10036000561C8E01025D1F4F7E01B2E3EB0EF11CA5
:100370002FB7F8948091710390917203A091730349
:10038000B09174032FBF8093870490938804A09347
:100390008904B0938A0424C02FB7F8948091710324
:1003A00090917203A0917303B09174032FBF409199
:1003B0008704509188046091890470918A04841B99
:1003C000950BA60BB70B4091830450918404609168
:1003D00085047091860484179507A607B70768F40B
:1003E0008FE794E00E944C1797FDD6CFF8018193D8
:1003F0008F01EE16FF0609F0BBCF6EA57FA588A979
:1004000099A9609360037093610380936203909352
:1004100063030E9472199B01AC0160E070E080E808
:100420009FE30E94141B60935C0370935D038093B1
:100430005E0390935F0350E6E52E53E0F52E00E255
:1004400010E0F701D1907F01C8010E94911AD816DF
:1004500021F06D2DC8010E94991A0F5F1F4F0432C1
:10046000110579F7CE0101967C016E019DE2C90E5E
:10047000D11C8701C8018E199F090E94911AD801C9
:100480008D938D01CA16DB06A9F79E01255D3F4FAE
:100490006FEF7FEFD701ED917D01E727F0E0EE0FE1
:1004A000FF1FE05FFE4F80819181762F66276827CE
:1004B00079272A173B0771F77BAB6AAB162F8AE2C5
:1004C00090E00E94911A181729F0612F8AE290E0BB
:1004D0000E94991A1BA98BE290E00E94911A1817AA
:1004E00029F0612F8BE290E00E94991A0E94AB07DD
:1004F00088EE93E090935B0380935A031CCF68EEE1
:1005000073E080E090E00E94270815CF8E01035D24
:100510001F4FFE0131967F012FB7F8948091710330
:1005200090917203A0917303B09174032FBF8093D5
:10053000870490938804A0938904B0938A0424C00C
:100540002FB7F8948091710390917203A091730377
:10055000B09174032FBF409187045091880460913B
:10056000890470918A04841B950BA60BB70B4091EC
:1005700083045091840460918504709186048417EB
:100580009507A607B70768F48FE794E00E944C1719
:1005900097FDD6CFF70181937F01E017F10709F0AE
:1005A000BBCFCE0101967C014C0180949094D70181
:1005B000BD907D016401CA0EDB1EC6010E94911A26
:1005C000B81621F06B2DC6010E94991A0E151F0551
:1005D00071F78CCF83E28983809156039091570302
:1005E000A0915803B09159038A839B83AC83BD8348
:1005F0008091520390915303A0915403B0915503FD
:100600008E839F83A887B987809105059091060501
:10061000A0910705B09108058A879B87AC87BD87A5
:1006200080914E0390914F03A0915003B0915103DC
:100630008E879F87A88BB98B8091090590910A05B9
:10064000A0910B05B0910C058A8B9B8BAC8BBD8B5D
:1006500080910D058E8B46E150E0BE016F5F7F4FAC
:100660008FE794E00E948F160E94C21364CE8E0121
:10067000025D1F4F7E01B2E3EB0EF11C2FB7F89421
:100680008091710390917203A0917303B0917403F0
:100690002FBF8093870490938804A0938904B0931C
:1006A0008A0424C02FB7F89480917103909172034B
:1006B000A0917303B09174032FBF409187045091B0
:1006C00088046091890470918A04841B950BA60BA1
:1006D000B70B40918304509184046091850470911C
:1006E000860484179507A607B70768F48FE794E098
:1006F0000E944C1797FDD6CFD8018D938D01EA1635
:10070000FB0609F0BBCF8EA59FA5A8A9B9A9809328
:10071000640390936503A0936603B093670314E6A4
:10072000E12E13E0F12E04E210E0F701D1907F01F9
:10073000C8010E94911AD81621F06D2DC8010E949F
:10074000991A0F5F1F4F0832110579F7CE010196F4
:100750007C016E019DE2C90ED11C8701C8018E1972
:100760009F090E94911AD8018D938D01CA16DB064C
:10077000A9F79E01255D3F4F6FEF7FEFD701ED9108
:100780007D01E727F0E0EE0FFF1FE05FFE4F808165
:100790009181762F6627682779272E153F0571F7F7
:1007A0008BCE83E289838E010E5F1F4F7E01FEE2B6
:1007B000EF0EF11CCE0101964C016C01C094D09457
:1007C000C601800F911F0E94911AD8018D938D014F
:1007D000EA16FB06A9F74DE250E0B40141CF88E0EC
:1007E00090E088CE0E943817815491098533910595
:1007F00008F0A1CD85579F4FFC010C94561C009129
:100800008B0410918C0417FD59C08FEF9FEF9093CC
:100810008C0480938B040093680388E290E00E942C
:10082000911A081729F0602F88E290E00E94991A27
:10083000FE0131967F016E01FDE2CF0ED11C8701D2
:10084000C8018E199F090E94911AD8018D938D01BC
:10085000CA16DB06A9F79E01255D3F4F6FEF7FEFBC
:10086000D701ED917D01E727F0E0EE0FFF1FE05F7C
:10087000FE4F80819181762F662768277927A217FE
:10088000B30771F77FA76EA7162F8AE290E00E9448
:10089000911A181729F0612F8AE290E00E94991AA4
:1008A0001FA58BE290E00E94911A181709F443CD1E
:1008B000612F8BE290E00E94991A3DCD0E9438177B
:1008C0008C01A9CF4F925F926F927F929F92AF92CD
:1008D000BF92CF92DF92EF92FF920F931F93CF932D
:1008E000DF93CDB7DEB7AC970FB6F894DEBF0FBE7F
:1008F000CDBFCE0101966C017E019DE0E90EF11C99
:1009000086012FB7F8948091710390917203A091A2
:100910007303B09174032FBF8093EA039093EB03AA
:10092000A093EC03B093ED0324C02FB7F89480910B
:10093000710390917203A0917303B09174032FBF60
:100940004091EA035091EB036091EC037091ED0349
:10095000841B950BA60BB70B4091E6035091E70360
:100960006091E8037091E90384179507A607B7071C
:1009700068F482EE93E00E949F0E97FDD6CFF801B7
:1009800081938F01EE15FF0509F0BBCF1B8180918C
:1009900068031817B1F0AC960FB6F894DEBF0FBE1F
:1009A000CDBFDF91CF911F910F91FF90EF90DF901E
:1009B000CF90BF90AF909F907F906F905F904F903F
:1009C0000895B9802A818B2D820F810F0C81800FB1
:1009D000AD808A0D9E80890D5F81850F3885830FDC
:1009E0009985890F4A85840F6B85681709F457C06C
:1009F0001A832B8381E08C871B0D120F010F0A0DC8
:100A0000900E950E892D830F980F940F9B87479A10
:100A100003C0CE14DF0449F0F60161916F0182EE4C
:100A200093E00E94FF0E892BA1F78091FA0388239F
:100A3000E1F0E091F403F091F503A091F203B0919D
:100A4000F303808185FF0EC00FB607FCFACF8081CB
:100A500085FFF7CF8C9185FFF4CF82EE93E00E9463
:100A60001717E7CF8C9186FFEFCF479861E087E0BB
:100A7000AC960FB6F894DEBF0FBECDBFDF91CF911D
:100A80001F910F91FF90EF90DF90CF90BF90AF90AC
:100A90009F907F906F905F904F900C941C14003546
:100AA00009F4F9C008F464C0043509F413C10A3527
:100AB00009F448C0023509F4A9C086EC8F838CE1A3
:100AC00088878CE389871A868A811A838B831C86A0
:100AD0001B0D810F080FA00E9A0C9F81990E88851F
:100AE000992D980F8985890F9A85890F8B87479A49
:100AF00003C0CE14DF0449F0F60161916F0182EE6C
:100B000093E00E94FF0E892BA1F78091FA038823BE
:100B100061F1E091F403F091F503A091F203B0913B
:100B2000F303808185FF1EC00FB607FCFACF8081DA
:100B300085FFF7CF8C9185FFF4CF82EE93E00E9482
:100B40001717E7CF992009F4B4C180910C01909157
:100B50000D01A0910E01B0910F018F839887A98795
:100B6000BA87B2CF8C9186FFDFCF479860E07FCF06
:100B7000033419F0093449F3A0CFE2E5AE1609F4C5
:100B800050C1F7E5AF1299CFE1E09E1609F4F8C025
:100B90009E1608F4B9C0F2E09F128FCF632F242F66
:100BA000392F462F60E070E080E89FE30E94B51B7C
:100BB0000E94861B609360037093610380936203BD
:100BC0009093630380E6682E83E0782E90E2A92E4E
:100BD000B12CF30101913F01C5010E94911A081740
:100BE00021F0602FC5010E94991AFFEFAF1ABF0ACA
:100BF00084E2A816B10469F70E94B607B9800C8197
:100C0000AD809E805F81388599854A858A811A8367
:100C10008B831C862B2D210F280F200F2A0D290DC9
:100C2000250F822F830F890F840F8B87479A03C06C
:100C3000CE14DF0449F0F60161916F0182EE93E07A
:100C40000E94FF0E892BA1F78091FA038823E1F01F
:100C5000A091F403B091F503E091F203F091F30356
:100C60008C9185FF0EC00FB607FCFACF8C9185FFE3
:100C7000F7CF808185FFF4CF82EE93E00E941717B3
:100C8000E7CF808186FFEFCF479860E087E00E9442
:100C90001C140E94AB07E1E09E1609F4F6C09E16F4
:100CA00008F4DFC0F2E09F1208CF80910505909113
:100CB0000605A0910705B09108058D8B9E8BAF8B23
:100CC000B88F888D8F838F8988878E8989878D8952
:100CD0008A87FACE992009F4F7C081E09812EDCE08
:100CE0008091090590910A05A0910B05B0910C0522
:100CF0008D8F9E8FAF8FB8A388A18F838F8D8887AC
:100D00008E8D89878D8DE4CF942EA92EB32E052F3D
:100D1000442E592E632E752E20E030E0A901692D56
:100D2000792F8B2D902F0E946D1987FD27C020E011
:100D300030E04FE753E4692D7A2D8B2D902F0E94E0
:100D4000D41B1816CCF0C301B2010E94861B062FDB
:100D50000093680388E290E00E94911A081729F036
:100D6000602F88E290E00E94991A0E94B607B9802D
:100D70000C81AD809E80A8CE0FEFEACF00E0E8CFD7
:100D8000942EA92EB32E052F442E592E632E752E88
:100D900020E030E048E452E4692D792F8B2D902F2C
:100DA0000E946D1987FD38C020E23CEB4EE35CE405
:100DB000692D7A2D8B2D902F0E94D41B18163CF193
:100DC000C301B2010E94861B6093640370936503A4
:100DD000809366039093670324E6622E23E0722ECD
:100DE00034E2A32EB12CF30101913F01C5010E9411
:100DF000911A081721F0602FC5010E94991AFFEF80
:100E0000AF1ABF0A88E2A816B10469F7F5CE60E808
:100E100070EF8AEF92E0D8CF62E370E080E090E07C
:100E2000D3CF81E0981609F475C0981608F460C015
:100E300092E0991242CE60916003709161038091BB
:100E40006203909163030E94721969A77AA78BA726
:100E50009CA78CA58F838BA588878AA5898789A560
:100E600037CF8091560390915703A0915803B091CA
:100E700059038D879E87AF87B88B88898F838F852D
:100E800088878E8589878D8523CF809152039091A5
:100E90005303A0915403B0915503898B9A8BAB8B6C
:100EA000BC8B8C898F838B8988878A89898789897C
:100EB0000FCF68EE73E080E090E00E942708B980D1
:100EC0000C81AD809E8041CE80914E0390914F0366
:100ED000A0915003B0915103898F9A8FAB8FBC8F33
:100EE0008C8D8F838B8D88878A8D8987898DF0CEB5
:100EF000612F70E080E090E00E94721969A37AA3EC
:100F00008BA39CA38CA18F838BA188878AA18987BF
:100F100089A1DECE609164037091650380916603C0
:100F2000909167030E9472196DA37EA38FA398A767
:100F300088A58F838FA188878EA189878DA1C8CE30
:100F400008951F920F920FB60F9211240F900FBEAB
:100F50000F901F90189598E088E10FB6F894A89527
:100F6000809360000FBE90936000FFCFCF92DF921E
:100F7000EF92FF920F931F93CF93DF93CDB7DEB71E
:100F8000AE970FB6F894DEBF0FBECDBFCE0101966F
:100F90007C016E019DE2C90ED11C8701C8018E192A
:100FA0009F090E94911AD8018D938D01CA16DB0604
:100FB000A9F79E01255D3F4F6FEF7FEFD701ED91C0
:100FC0007D01E727F0E0EE0FFF1FE05FFE4F80811D
:100FD0009181762F6627682779272A173B0771F7B3
:100FE0007EA76DA7162F8AE290E00E94911A18172B
:100FF00029F0612F8AE290E00E94991A1EA58BE2E7
:1010000090E00E94911A181799F0612F8BE290E0FE
:10101000AE960FB6F894DEBF0FBECDBFDF91CF9175
:101020001F910F91FF90EF90DF90CF900C94991A41
:10103000AE960FB6F894DEBF0FBECDBFDF91CF9155
:101040001F910F91FF90EF90DF90CF9008954F92F6
:101050005F926F927F928F929F92AF92BF92CF9248
:10106000DF92EF92FF920F931F93CF93DF93CDB751
:10107000DEB7AE970FB6F894DEBF0FBECDBF4B0103
:101080005C0160E081E10E941C141092FD0410924A
:10109000FE041092FF04109200050E947112412C70
:1010A000512C3201C12CD12C76012EC08091FB0332
:1010B0002091FC0390E0805C9F4F821B91098F730D
:1010C00099278C30E0F09091FB038091FC039817F6
:1010D00041F0E091FC03F0E0EE51FC4F858D80344F
:1010E000C9F19091FB038091FC03981741F0809126
:1010F000FC038091FC038F5F8F738093FC03C81403
:10110000D904EA04FB0468F5F89483B7817F83BFB0
:1011100083B7816083BF7894889583B78E7F83BFC0
:101120004D9BC4CF0E94DF120E94711220910505D1
:10113000309106054091070550910805C301B201A1
:101140000E94A81A2B013C018FEFC81AD80AE80A9E
:10115000F80AACCF0E946204C814D904EA04FB0464
:1011600098F277FA709477F87094C501B4010E94F0
:1011700072199B01AC01C301B2010E94141B609360
:10118000FD047093FE048093FF04909300055DEFCF
:10119000C52E54E0D52E08E110E0D601FD906D017A
:1011A000C8010E94911AF81621F06F2DC8010E9403
:1011B000991A0F5F1F4F0C31110579F7FE01319617
:1011C0007F016E01FDE2CF0ED11C8701C8018E198F
:1011D0009F090E94911AD8018D938D01CA16DB06D2
:1011E000A9F79E01255D3F4F6FEF7FEFD701ED918E
:1011F0007D01E727F0E0EE0FFF1FE05FFE4F8081EB
:101200009181762F662768277927A217B30771F790
:101210007EA76DA7162F8AE290E00E94911A1817F8
:1012200029F0612F8AE290E00E94991A1EA58BE2B4
:1012300090E00E94911A181729F0612F8BE290E03C
:101240000E94991A61E081E10E941C14AE960FB6CB
:10125000F894DEBF0FBECDBFDF91CF911F910F91EC
:10126000FF90EF90DF90CF90BF90AF909F908F90C6
:101270007F906F905F904F900C947112CF93DF939B
:10128000CDB7DEB760970FB6F894DEBF0FBECDBF07
:1012900019861A861B861C861D821E821F8218864E
:1012A00019821A821B821C82412C512C3201812C02
:1012B000912C540112E0F89483B7817F83BF83B7E8
:1012C000816083BF7894889583B78E7F83BF4D9963
:1012D00067C08091FB032091FC0390E0805C9F4FEE
:1012E000821B91098F7399278C30E8F09091FB0352
:1012F0008091FC03981749F0E091FC03F0E0EE5177
:10130000FC4F858D803409F416C19091FB038091C8
:10131000FC03981741F08091FC038091FC038F5FE0
:101320008F738093FC038FB7F894C0907103D090B3
:101330007203E0907303F09074038FBFB701A601AE
:10134000481959096A097B0980915A0390915B03F6
:10135000A0E0B0E084179507A607B70708F0ABCF69
:1013600080918B0490918C0497FDCCC08FB7F8943A
:101370001093E9009091F2008FBF80918B049091BF
:101380008C0497FDCFC0AFEFBFEFB0938C04A09358
:101390008B048034910509F4CBC0460157018BCFF3
:1013A0000E94DF120E947112C0900505D0900605C0
:1013B000E0900705F0900805A701960169817A8100
:1013C0008B819C810E94A81A69837A838B839C837A
:1013D00020E030E0A901C701B6010E94D41B181615
:1013E0000CF0ACC080E090E0A0E8BFE38D879E8762
:1013F000AF87B88BC701B6019F770E94DF1B2D8591
:101400003E854F8558890E94D3199B01AC016D819F
:101410007E818F8198850E94A81A6D837E838F8339
:1014200098872091090530910A0540910B0550914C
:101430000C0569857A858B859C850E94A81A698729
:101440007A878B879C879FEF491A590A690A790A1C
:101450008091600390916103A0916203B091630356
:10146000481659066A067B0609F033CFC0905C0324
:10147000D0905D03E0905E03F0905F03A7019601BA
:1014800069817A818B819C810E94D3196093560374
:10149000709357038093580390935903A7019601C3
:1014A0006D817E818F8198850E94D3199B01AC014B
:1014B0000E94D31960935203709353038093540393
:1014C00090935503A701960169857A858B859C8544
:1014D0000E94D31960934E0370934F03809350037F
:1014E0009093510319861A861B861C861D821E82C4
:1014F0001F82188619821A821B821C82412C512C51
:101500003201E7CE9FB7F8941093E9008091F20082
:101510009FBF882309F441CF80918B0490918C0464
:1015200097FF31CF0E9438178034910509F035CFED
:101530000E94770132CF0E946204F5CE20E030E0B5
:10154000A901C701B6010E946D19880F880B682F89
:10155000880F770B880B990B0E9474196D877E8713
:101560008F87988B47CF7F928F929F92AF92BF9237
:10157000CF92DF92EF92FF920F931F93CF93DF935F
:10158000CDB7DEB7AC970FB6F894DEBF0FBECDBFB8
:1015900014BE0FB6F894A89580916000886180937E
:1015A0006000109260000FBE60E08EE10E94801427
:1015B00061E08DE00E94801460E08DE00E941C14C8
:1015C00061E081E10E94801460E081E10E941C14CE
:1015D00061E087E00E94801460E087E00E941C14B4
:1015E00062E08BE00E94801462E084E00E9480143C
:1015F00062E08CE00E94801462E086E00E94801429
:1016000062E088E00E94801462E089E00E94801419
:1016100062E08AE00E94801462E085E00E9480140B
:101620006A98729A62E082E10E94801462E083E12B
:101630000E94801462E084E10E94801462E085E1EF
:101640000E94801462E086E10E94801462E087E1DB
:101650000E94801410927A008091640081608093CF
:1016600064008FEF80937E0091E090937F008093E1
:101670007D0080E980BF8091640084608093640075
:10168000809164008860809364008091640080642D
:1016900080936400809165008860809365008091EC
:1016A0006500806180936500CE0101967C016E012A
:1016B0009DE2C90ED11C8701C8018E199F090E94A5
:1016C000911AD8018D938D01CA16DB06A9F74BA597
:1016D0005CA59E01255D3F4F8FEF9FEFD701ED91F8
:1016E0007D01E927F0E0EE0FFF1FE05FFE4F608114
:1016F0007181982F8827862797272A173B0771F72C
:101700004817590709F0BDC181E0809369038981B9
:101710009A81AB81BC818093E5049093E604A09309
:10172000E704B093E8048D819E81AF81B8858093F2
:10173000E9049093EA04A093EB04B093EC04898548
:101740009A85AB85BC858093ED049093EE04A093BD
:10175000EF04B093F0048D859E85AF85B8898093A2
:10176000F1049093F204A093F304B093F4048989F4
:101770009A89AB89BC898093F5049093F604A09371
:10178000F704B093F8048D899E89AF89B88D809352
:10179000F9049093FA04A093FB04B093FC04898DA0
:1017A0009A8DAB8DBC8D8093FD049093FE04A09325
:1017B000FF04B09300058D8D9E8DAF8DB8A18093F1
:1017C000010590930205A0930305B093040569A158
:1017D0007AA18BA19CA160936003709361038093B5
:1017E0006203909363030DA11EA12FA138A500935E
:1017F000640310936503209366033093670329A560
:10180000209368031AA50E9472199B01AC0160E045
:1018100070E080E89FE30E94141B60935C03709368
:101820005D0380935E0390935F03112309F4BBC1B2
:1018300088E090E090935B0380935A03C090640328
:10184000D0906503E0906603F0906703E091F203A7
:10185000F091F30382E08083C114F1EEDF06E1042E
:10186000F104B1F060E079E08DE390E0A70196012A
:101870000E94341CDA01C9010197A109B109B6958A
:10188000A795979587959C01211580E13807B8F0B9
:10189000E091F203F091F303108260E874E88EE1C6
:1018A00090E0A70196010E94341CDA01C90101975A
:1018B000A109B109B695A795979587959C01E091E7
:1018C000EE03F091EF033083E091F003F091F10328
:1018D00020831092FA03E091F603F091F70386E07B
:1018E0008083E091F403F091F5038081806180832F
:1018F000E091F403F091F503808188608083E091AA
:10190000F403F091F503808180688083E091F40313
:10191000F091F50380818F7D80838FEF9FEF90930F
:101920008C0480938B0463E070E080E090E00E9480
:10193000E11410927703109276031092E003109254
:10194000DF031092BE0381E08093BD0310929803E1
:1019500061E082E00E941C1461E083E00E941C149C
:101960008091B9008E7F8093B9008091B9008D7FFE
:101970008093B90088E48093B80095E49093BC000C
:101980002DED35E130932105209320052EED35E135
:1019900030932305209322058093B8002091E90419
:1019A0003091EA044091EB045091EC046091E5041D
:1019B0007091E6048091E7049091E8040E94A71AD0
:1019C0006B017C018091ED049091EE04A091EF04F5
:1019D000B091F0040091F1041091F2042091F3040D
:1019E0003091F404BC01CD01601B710B820B930B91
:1019F0000E9472199B01AC01C701B6010E94141B21
:101A00006093DD047093DE048093DF049093E00420
:101A10002091F9043091FA044091FB045091FC04A8
:101A20006091F5047091F6048091F7049091F804A8
:101A30000E94A71A2FEF3FEF4FE75BE40E94141BB1
:101A40006093E1047093E2048093E3049093E404D0
:101A50000E94711261E081E1AC960FB6F894DEBF8E
:101A60000FBECDBFDF91CF911F910F91FF90EF90EF
:101A7000DF90CF90BF90AF909F908F907F900C940D
:101A80001C14109269030FEF1FEF62E0762E809115
:101A90008B0490918C0497FD7BC08FB7F894709263
:101AA000E9009091F2008FBF80918B0490918C049B
:101AB00097FD7FC010938C0400938B0480349105B4
:101AC00009F474C061E081E10E941C1461E087E0C8
:101AD0000E941C140E94BC146B017C0154E6852EEC
:101AE000912CA12CB12C0E94BC14DC01CB018C19CF
:101AF0009D09AE09BF09883E9340A105B10598F341
:101B0000B1E08B1A9108A108B108E8EECE0EE3E02F
:101B1000DE1EE11CF11C81149104A104B10419F72B
:101B200060E081E10E941C1460E087E00E941C14C8
:101B30000E94BC146B017C0144E6842E912CA12CE4
:101B4000B12C0E94BC14DC01CB018C199D09AE099B
:101B5000BF09883E9340A105B10598F321E0821AA0
:101B60009108A108B10888EEC80E83E0D81EE11CD8
:101B7000F11C81149104A104B10419F78091690347
:101B800081115CCE80918B0490918C0497FF85CF5E
:101B90009FB7F8947092E9008091F2009FBF88236C
:101BA00009F490CF81CF88EE93E044CE0E94770174
:101BB00089CF0E94381782CF40916D0350916E03F8
:101BC00020916B0330916C0342175307B4F490914A
:101BD000E8009570E1F39091E80092FD19C08093C0
:101BE000F10080916D0390916E0301968F73992798
:101BF000892B19F48EEF8093E80080916D0390910A
:101C00006E03019690936E0380936D0381E00895B7
:101C100080E00895DF92EF92FF920F931F93CF938E
:101C2000DF93D82EF92EE42E062F10E0C80101967E
:101C3000880F0E94DC0D83E00E94DC0DCD2DDF2D8E
:101C40000C0F1D1FC017D10789F0E7FE03C0FE016E
:101C5000849101C088810E94DC0DF82E80E00E94F2
:101C6000DC0D8F2121968111EDCF01C081E0DF9144
:101C7000CF911F910F91FF90EF90DF900895DF9229
:101C8000EF92FF920F931F93CF93DF93D82E8A0189
:101C90007B01E40EF51EEB01CE15DF0571F0D7FEDA
:101CA00003C0FE01849101C088810E94DC0D219651
:101CB0008111F2CF8FEF9FEF01C0C801DF91CF916B
:101CC0001F910F91FF90EF90DF900895CF92DF92D8
:101CD000EF92FF920F931F93CF93DF936C017A01E2
:101CE0008B01C0E0D0E0CE15DF0581F0D8016D9109
:101CF0008D01D601ED91FC910190F081E02DC6019E
:101D00000995892B11F02196EECF7E01C701DF9155
:101D1000CF911F910F91FF90EF90DF90CF9008959A
:101D2000FC01538D448D252F30E0842F90E0821BE1
:101D3000930B541710F0CF96089501970895FC0166
:101D4000918D828D981761F0828DDF01A80FB11DF2
:101D50005D968C91928D9F5F9F73928F90E0089516
:101D60008FEF9FEF0895FC01918D828D981731F0D0
:101D7000828DE80FF11D858D90E008958FEF9FEF24
:101D800008950E945C1C0F931F93CF93DF931F92C3
:101D9000CDB7DEB782E0898342E450E06EE971E0BE
:101DA00080E80E943F0E0E940814DC0112960D91FB
:101DB0001C9113970115110589F0D801ED91FC9143
:101DC0000280F381E02DBE016F5F7F4FC80109954E
:101DD00097FD04C0F80100851185ECCF89810F9033
:101DE000DF91CF911F910F91089582EE93E00E94B1
:101DF000651521E0892B09F420E0822F0895EF92E8
:101E0000FF920F931F93CF93DF93EC0181E0888FB4
:101E10009B8D8C8D981305C0E889F989808185FD9B
:101E200026C0F62E0B8D10E00F5F1F4F0F7311278A
:101E3000E02E8C8DE8120CC00FB607FCFACFE889B3
:101E4000F989808185FFF5CFCE010E941717F1CF68
:101E50008B8DFE01E80FF11DE35AFF4FF0829FB713
:101E6000F8940B8FEA89FB898081806209C09FB753
:101E7000F894EE89FF896083E889F989808182740A
:101E800080839FBF81E090E0DF91CF911F910F9100
:101E9000FF90EF900895CF93DF93EC01888D882316
:101EA000C9F0EA89FB89808185FD05C0A889B989C7
:101EB0008C9186FD0FC00FB607FCF5CF808185FFA2
:101EC000F2CFA889B9898C9185FFEDCFCE010E9410
:101ED0001717E7CFDF91CF9108951F920F920FB69A
:101EE0000F9211242F933F934F935F936F937F93A0
:101EF0008F939F93AF93BF93CF93EF93FF93C09133
:101F0000E1008091E100837F8093E100C3FF0FC077
:101F10001092E90081E08093EB001092EC0082E3E4
:101F20008093ED001092750388E08093F000C2FD6D
:101F30000E94C213C4FF10C08091E2008E7E8160B7
:101F40008093E2008091E1008F7E8093E100809198
:101F50006A038E7E806111C0C0FF11C08091E200D3
:101F60008E7E80618093E2008091E1008E7E80937E
:101F7000E10080916A038E7E816080936A03FF9105
:101F8000EF91CF91BF91AF919F918F917F916F9181
:101F90005F914F913F912F910F900FBE0F901F9027
:101FA00018951F920F920FB60F921124CF92DF92C5
:101FB000EF92FF920F931F932F933F934F935F9353
:101FC0006F937F938F939F93AF93BF93EF93FF9301
:101FD000CF93DF93CDB7DEB76C97DEBFCDBF109246
:101FE000E9008091E80083FF05C289E0FE01759653
:101FF000EE2EDF2E815029F09091F10090833196E2
:10200000F9CF82EF8093E8008D8987FF05C090911A
:10201000E80090FFFCCF03C09EEF9093E800982F5C
:10202000907609F0C5C09E894F89588D2F89F88C0C
:1020300091110CC0803829F4809170038093F100D5
:1020400002C01092F1001092F10048C1913051F499
:10205000811144C14130510509F040C180917003A4
:102060008D7F0BC0933061F4811138C1413051052F
:1020700009F034C1809170038260809370032EC197
:10208000953049F48091E80080FFFCCF822F806872
:102090008093E30023C1963009F05DC00B8D1C8D49
:1020A00022E01092E90010926E0310926D03F2127A
:1020B00032C010926C0310926B030E94C30E99E021
:1020C000BE016F5F7F4FDB01E92F1D92EA95E9F7B3
:1020D0009983FA8291E09E8390EA98879AEF998794
:1020E00020916D0330916E03275F3F4F3C832B831C
:1020F0008D831092E90010926E0310926D0310937D
:102100006C0300936B0349E050E080E00E943F0EB7
:102110000E94C30EE3C010936C0300936B030E94F4
:102120000814DC0112960D911C91139701151105ED
:1021300009F4BEC0D801ED91FC910480F581E02D39
:102140006E2D7D2DC8010995009709F0CBC0F801CF
:1021500000851185EBCF973009F449C1983021F4FF
:1021600081E08093F100BAC0993009F0B7C0837064
:1021700009F03DC1E1E1F3E081E031E096E3208147
:10218000211109C08EE78093EA001092EA008F893E
:1021900080937503A3C08093E9003093EB002191F5
:1021A0002093EC009093ED008F5F873041F7EACFEA
:1021B0008B8D9C8D1092E90010926E0310926D032E
:1021C00090936C0380936B03898D811158C08E8925
:1021D0009D89913A49F4813209F009C147E050E004
:1021E00064E071E080E0BFC0913209F000C1833249
:1021F00069F48F89988DA0E0B0E0809300019093FE
:102200000101A0930201B093030168C0803291F4F0
:102210008091E80082FFFCCF88E0E4E0F1E08150AB
:1022200029F09091F10090833196F9CF8BEF809354
:10223000E80054C0823209F051C08F8980930B01AD
:10224000EEEFFFE7859194918B3F9C4D19F0E0E014
:10225000F8E002C0EEEFFAE08091040190910501F0
:10226000A0910601B0910701803B9440A105B10502
:1022700009F09DC080910B0180FF78C098C00E943A
:102280000814FC01028113810115110509F4AFC086
:10229000D801ED91FC910190F081E02D6E2D7D2D06
:1022A000C801099581111AC0F80100851185ECCF8C
:1022B000F1E0FF1609F44EC0F3E0FF1298C08F89D9
:1022C000882309F44AC0823089F440E863E18AE057
:1022D00092E00E940A0E882309F489C08EEF809351
:1022E000E80088C018161906CCF381C0813029F4A3
:1022F00040E863E186EF91E0ECCF833009F077C0EE
:102300000E940814DC011296ED90FC9013978E0148
:102310000F5F1F4F6801E114F10479F0D701ED91CF
:10232000FC910680F781E02DB801C7010995080FDF
:10233000111DF701E084F184EECFD8011C92F60163
:1023400001900020E9F73197BF016C197D0940E049
:10235000C601BFCF64EE71E002C060EE71E0FB0128
:10236000449150E080E80E943F0EB8CFEE3F2AE053
:10237000F20751F0808191818737A7E79A0721F012
:102380009093FF0A8093FE0A87E797E79183808303
:102390008091600080936F039BE088E10FB6F89412
:1023A000A895809360000FBE9093600097CF8081C6
:1023B00091818737974709F091CFA8958091600068
:1023C00088618093600080916F0380936000EE3F8E
:1023D000BAE0FB0739F08091FE0A9091FF0A9183E1
:1023E00080837CCF1092FF0A1092FE0A77CF81E2A1
:1023F0008093EB006C960FB6F894DEBF0FBECDBF96
:10240000DF91CF91FF91EF91BF91AF919F918F910C
:102410007F916F915F914F913F912F911F910F91FC
:10242000FF90EF90DF90CF900F900FBE0F901F9016
:1024300018951F920F920FB60F9211242F933F936E
:102440004F935F936F937F938F939F93AF93BF93BC
:10245000EF93FF9382EE93E00E941717FF91EF91A5
:10246000BF91AF919F918F917F916F915F914F91AC
:102470003F912F910F900FBE0F901F9018951F92B4
:102480000F920FB60F9211242F938F939F93EF9378
:10249000FF93E091F203F091F3038081E091F80360
:1024A000F091F90382FD12C090818091FB038F5F50
:1024B0008F732091FC03821751F0E091FB03F0E051
:1024C000EE51FC4F958F8093FB0301C08081FF91FB
:1024D000EF919F918F912F910F900FBE0F901F90B2
:1024E0001895CF93C091DB0481E08093E103C09302
:1024F0001F051092E0031092DF036AEA8FEC94E06C
:102500000E94381660E08FEC94E00E94381660E07C
:102510008FEC94E00E9438169091DF03913208F01E
:1025200046C08091BE038111FCCF8091DC0422E083
:102530002093BE038093BD038FEF8093BC03109262
:10254000BB039093BA03EFEBF3E0AAE9B3E080E0BA
:10255000981721F021912D938F5FFACF1092990354
:1025600080919903CC0FC82BC09399038091980355
:10257000813061F410929803809199038093BB009D
:102580008091BC0083FDF8CF85EC01C085EE80937F
:10259000BC008091BE038230E1F38091BC038F3F89
:1025A00031F08091BC03803211F08091BC03109215
:1025B000E0031092DF031092E103CF910895CF92D0
:1025C000DF92EF92FF921F93CF93DF932091DC0471
:1025D0008091DB049091BE039111FCCF91E0909328
:1025E000BE032093BD032FEF2093BC031092BB03C7
:1025F00026E02093BA039093990390919903880F52
:10260000892B8093990380919803813061F4109213
:102610009803809199038093BB008091BC0083FD57
:10262000F8CF85EC01C085EE8093BC008091BE039D
:102630008130E1F38091BB03873018F49091BB03A4
:1026400001C097E0EAE9F3E0A8E7B3E080E089178A
:1026500021F021912D938F5FFACF10927703809311
:1026600076038FEC94E00E94EF1580930D058FECBC
:1026700094E00E94EF15E82E8FEC94E00E94EF1595
:10268000D82E8FEC94E00E94EF15C82E8FEC94E0CA
:102690000E94EF15C82F8FEC94E00E94EF15D82F01
:1026A0008FEC94E00E94EF15182FF12C8091F1042B
:1026B0009091F204A091F304B091F404A701960163
:1026C000281B390B4A0B5B0BCA01B9010E94721916
:1026D0002091DD043091DE044091DF045091E0044C
:1026E0000E94D3192091E9043091EA044091EB044F
:1026F0005091EC040E94A81A2091FD043091FE0430
:102700004091FF04509100050E94A81A60930505AE
:10271000709306058093070590930805612F7D2F20
:102720008C2F90E00E9472192091E1043091E20414
:102730004091E3045091E4040E94D3192091F904DC
:102740003091FA044091FB045091FC040E94A81AB5
:102750002091010530910205409103055091040537
:102760000E94A81A6093090570930A0580930B05CF
:1027700090930C05DF91CF911F91FF90EF90DF9028
:10278000CF90089583E08093E9008091F200882340
:1027900019F08AE38093E80008952FB7F89483E056
:1027A0008093E9009091E800892F807295FF04C022
:1027B0009091F20080E4891B2FBF0895209175034A
:1027C000211103C08FEF9FEF08955FB7F89422E0C7
:1027D0002093E9002091F20030E01216130614F461
:1027E00021E030E0422FFC01415020F08091F100C7
:1027F0008193FACF2115310521F08091F2008823D1
:1028000019F05FBFC90108958BE68093E800F9CF06
:102810008091170581110DC082E08093130584E03B
:1028200080931405109216051092150581E080938F
:10283000170583E195E00895362F90E0FC01E858F4
:10284000FD4F4491FC01E75AFD4F2491FC01E65CE9
:10285000FD4F8491882309F452C04423E1F150E0F4
:10286000FA013197EF30F105B0F5E054FF4F0C94C9
:10287000561C909180009F7707C0909180009F7DAB
:1028800003C090918000977F9093800024C094B5FE
:102890009F7702C094B59F7D94BD1DC0909190001C
:1028A0009F7707C0909190009F7D03C0909190000A
:1028B000977F909390000FC09091C0009F7703C0C6
:1028C0009091C0009F7D9093C00005C09091C20080
:1028D000977F9093C200E82FF0E0EE0FFF1FE45DBA
:1028E000FD4FA591B4919FB7F894311104C08C911C
:1028F0002095282302C0EC912E2B2C939FBF089586
:10290000CF93DF9390E0FC01E75AFD4F2491FC0147
:10291000E65CFD4F8491882361F190E0880F991F58
:10292000FC01E25EFD4FC591D491FC01E45DFD4FD9
:10293000A591B491611109C09FB7F8948881209541
:1029400082238883EC912E230BC0623061F49FB701
:10295000F8948881322F309583238883EC912E2B35
:102960002C939FBF06C08FB7F894E8812E2B288345
:102970008FBFDF91CF9108953FB7F89480910F05F5
:1029800090911005A0911105B091120526B5A89B54
:1029900005C02F3F19F00196A11DB11D3FBFBA2FF1
:1029A000A92F982F8827820F911DA11DB11DBC0151
:1029B000CD0142E0660F771F881F991F4A95D1F716
:1029C00008958F929F92AF92BF92CF92DF92EF9233
:1029D000FF926B017C010E94BC144B015C01C1148D
:1029E000D104E104F104F1F00E94BC14DC01CB013C
:1029F00088199909AA09BB09883E9340A105B10528
:102A000070F321E0C21AD108E108F10888EE880EBF
:102A100083E0981EA11CB11CC114D104E104F1048F
:102A200019F7DDCFFF90EF90DF90CF90BF90AF9080
:102A30009F908F9008951F920F920FB60F921124BE
:102A40002F933F938F939F93AF93BF938091710385
:102A500090917203A0917303B091740330910E05AD
:102A600023E0230F2D3720F40196A11DB11D05C0D1
:102A700026E8230F0296A11DB11D20930E05809319
:102A8000710390937203A0937303B09374038091C6
:102A90000F0590911005A0911105B09112050196B6
:102AA000A11DB11D80930F0590931005A0931105F2
:102AB000B0931205BF91AF919F918F913F912F914C
:102AC0000F900FBE0F901F901895FC01918D228DD5
:102AD000892F90E0805C9F4F821B91098F7399270B
:102AE000089580E090E0892B29F00E94F50E811175
:102AF0000C9400000895CF93DF931F92CDB7DEB7FB
:102B00006983DC01ED91FC910280F381E02D41E0CD
:102B100050E0BE016F5F7F4F09950F90DF91CF911D
:102B20000895FC018485958597FD0BC09FB7F894A7
:102B300082E08093E9008091F2009FBF90E00196CF
:102B400008959FB7F89482E08093E9008091F200A5
:102B50009FBF90E0089585ED8093BC008091BC00FC
:102B600084FDFCCF1092BE03089540914405262FAA
:102B700030E0240F311D21323105DCF42091BE03F9
:102B80002430C9F4FC0180E090E0861758F43091BD
:102B900044052191DC01AC5DBA4FA30FB11D2C930C
:102BA0000196F3CF80914405680F6093440580E05F
:102BB000089581E0089582E00895089508950895A4
:102BC000E091770380917603E81730F4F0E0E8585D
:102BD000FC4F808190E008958FEF9FEF08959091D2
:102BE000770380917603981750F4E92FF0E0E858C6
:102BF000FC4F208130E09F5F9093770302C02FEF5E
:102C00003FEFC90108958091760390E0209177030A
:102C1000821B91090895CF92DF92EF92FF920F935A
:102C20001F93CF93DF937C01CB018A012091E103B5
:102C3000222389F0EB016B01C40ED51ECC15DD05F6
:102C400069F06991D701ED91FC910190F081E02D3F
:102C5000C7010995F3CF642F0E94B515C801DF9114
:102C6000CF911F910F91FF90EF90DF90CF9008953B
:102C7000CF93DF931F92CDB7DEB769832091E10335
:102C80002223D1F02091DF03203240F021E030E018
:102C9000FC013383228380E090E015C08091E00343
:102CA000E82FF0E0E154FC4F998190838F5F80938F
:102CB000E0038093DF0305C061E0CE0101960E942E
:102CC000B51581E090E00F90DF91CF9108950895C0
:102CD00080E090E008950F931F93CF93DF931F92AE
:102CE000CDB7DEB78C01FC018485958597FF0EC0BA
:102CF000CE0101960E94DE13019719F4898190E0BC
:102D000002C08FEF9FEFF80195878487F8018485D3
:102D100095850F90DF91CF911F910F9108958F921C
:102D20009F92AF92BF92CF92DF92EF92FF920F935A
:102D30001F93CF93DF936C017B018A0180910B017C
:102D4000882309F458C080917503882309F453C07F
:102D500080916A0380FF05C08091E00082608093CB
:102D6000E000E801B12C8AEFA82E93E0892E2AE337
:102D7000922E209711F4BB20D9F10E94CD1381111E
:102D80000AC0AA94AA20B9F161E070E080E090E066
:102D90000E94E114EECF282F30E0C217D3070CF4C5
:102DA0008C2F9FB7F8948092E9002091E80025FFCE
:102DB0001DC0282F30E0C21BD30BF701815020F03B
:102DC00041914093F100FACFE20EF31EBB2019F0BF
:102DD0009092E8000AC08091E80085FD07C09092BB
:102DE000E800BB24B394209709F0B12C9FBFC1CF5A
:102DF0001016110644F081E090E0F601938382837F
:102E000080E090E001C0C801DF91CF911F910F9148
:102E1000FF90EF90DF90CF90BF90AF909F908F90FA
:102E200008950E94CD1390E008950C94C213FC0104
:102E3000848DDF01A80FB11DA35ABF4F2C91848D43
:102E400090E001968F739927848FA689B7892C9378
:102E5000A089B1898C9182748C93938D848D981301
:102E600006C00288F389E02D80818F7D80830895DC
:102E7000CF93DF931F92CDB7DEB7CE0101960E94AC
:102E8000DE13019719F4898190E002C08FEF9FEF64
:102E90000F90DF91CF910895FC018485958597FD72
:102EA00005C02FEF3FEF3587248708950C9438171E
:102EB0001F920F920FB60F9211242F933F934F93AF
:102EC0005F936F937F938F939F93AF93BF93EF9392
:102ED000FF938091B900887F803609F49CC068F523
:102EE000883209F45BC090F4803109F454C038F49E
:102EF000882309F4F6C0883009F44DC0F6C0883143
:102F000009F44CC0803209F45DC0EFC0803409F48C
:102F100068C048F4803309F455C0883309F0E5C02F
:102F20008093BC03D8C0803509F44FC0883509F4BC
:102F30005DC0883409F0D9C0D6C0883909F4C7C04B
:102F4000A8F4883709F467C038F4883609F463C0F8
:102F5000803709F460C0C9C0883809F4B8C0803926
:102F600009F45FC0803809F0C0C05BC0803B09F441
:102F700086C038F4803A09F466C0883A09F47FC004
:102F8000B4C0803C09F4A7C0883C09F4A4C0883BC5
:102F900009F48AC0AAC08091990310C09091BB0324
:102FA0008091BA03981770F5E091BB0381E08E0F12
:102FB0008093BB03F0E0E656FC4F80818093BB001A
:102FC00085EC86C08093BC038EC0E091BB0381E09A
:102FD0008E0F8093BB038091BB00F0E0E656FC4F60
:102FE00080839091BB038091BA036EC0E091BB03D4
:102FF00081E08E0F8093BB038091BB00F0E0E6562A
:10300000FC4F80838091BD0381116DC081E080936E
:10301000980384EA61C083E08093BE031092660542
:10302000CFCF80916605803208F051C0E0916605EF
:1030300081E08E0F809366058091BB00F0E0EA5B33
:10304000FA4F8083BDCF85EC8093BC001092BE0305
:1030500080916605803230F4E0916605F0E0EA5B2D
:10306000FA4F10826091660570E0E0912205F091C0
:10307000230586E495E009951092660536C084E044
:103080008093BE031092450510924405E0912005FF
:10309000F0912105099580914405811105C081E0D9
:1030A0008093440510922405E091450581E08E0F40
:1030B00080934505F0E0EC5DFA4F80818093BB0082
:1030C0009091450580914405981708F479CF85E8DB
:1030D0008093BC000AC085EC8093BC001092BE03B4
:1030E00004C01092BC030E94AB15FF91EF91BF91F9
:1030F000AF919F918F917F916F915F914F913F9190
:103100002F910F900FBE0F901F901895789484B553
:10311000826084BD84B5816084BD85B5826085BDD3
:1031200085B5816085BD80916E00816080936E0061
:103130001092810080918100826080938100809153
:103140008100816080938100809180008160809304
:103150008000809191008260809391008091910025
:1031600081608093910080919000816080939000B5
:103170008091C10084608093C1008091C100826011
:103180008093C1008091C10081608093C1008091D3
:10319000C30081608093C3008091C00082608093EF
:1031A000C0008091C20081608093C20080917A004B
:1031B000846080937A0080917A00826080937A00A4
:1031C00080917A00816080937A0080917A00806893
:1031D00080937A00109275031092700310926A0324
:1031E0008091D70081608093D70080EA8093D800D7
:1031F00089B5806189BD89B5826089BD09B400FE49
:10320000FDCF61E070E080E090E00E94E1148091E9
:10321000D8008F7C80618093D8008091E000807F0F
:103220008093E0008091E1008E7E8093E1008DE04C
:103230008093E2000E94B30A0E943E09E2EEF3E0AE
:103240001382128288EE93E0A0E0B0E0848395833D
:10325000A683B7832BE133E0318320832DEC30E06C
:10326000358724872CEC30E03787268728EC30E040
:10327000318B208B29EC30E0338B228B2AEC30E031
:10328000358B248B2EEC30E0378B268B118E128EF3
:10329000138E148EEFE7F4E01382128284839583F9
:1032A000A683B7832DE233E0318320832FEF3FEFF6
:1032B00035872487EFECF4E01382128284839583B0
:1032C000A683B7838FE393E091838083EBEDF4E0F3
:1032D00088E2808381E0818308950E94AF1908F419
:1032E00081E00895E89409C097FB3EF4909580959D
:1032F000709561957F4F8F4F9F4F9923A9F0F92FBC
:1033000096E9BB279395F695879577956795B79539
:10331000F111F8CFFAF4BB0F11F460FF1BC06F5F1F
:103320007F4F8F4F9F4F16C0882311F096E911C031
:10333000772321F09EE8872F762F05C0662371F052
:1033400096E8862F70E060E02AF09A95660F771F66
:10335000881FDAF7880F9695879597F90895990F42
:103360000008550FAA0BE0E8FEEF16161706E8074F
:10337000F907C0F012161306E407F50798F0621B70
:10338000730B840B950B39F40A2661F0232B242B45
:10339000252B21F408950A2609F4A140A6958FEF64
:1033A000811D811D08950E94E6190C94571A0E94F0
:1033B000491A38F00E94501A20F0952311F00C940D
:1033C000401A0C94461A11240C948B1A0E94681A05
:1033D00070F3959FC1F3950F50E0551F629FF00168
:1033E000729FBB27F00DB11D639FAA27F00DB11D81
:1033F000AA1F649F6627B00DA11D661F829F22270A
:10340000B00DA11D621F739FB00DA11D621F839F90
:10341000A00D611D221F749F3327A00D611D231F66
:10342000849F600D211D822F762F6A2F11249F57B4
:1034300050409AF0F1F088234AF0EE0FFF1FBB1FB7
:10344000661F771F881F91505040A9F79E3F510576
:1034500080F00C94401A0C948B1A5F3FE4F3983E72
:10346000D4F3869577956795B795F795E7959F5F20
:10347000C1F7FE2B880F911D9695879597F90895B2
:1034800097F99F6780E870E060E008959FEF80EC17
:10349000089500240A9416161706180609060895BA
:1034A00000240A9412161306140605060895092E20
:1034B0000394000C11F4882352F0BB0F40F4BF2B8F
:1034C00011F460FF04C06F5F7F4F8F4F9F4F0895CF
:1034D00057FD9058440F551F59F05F3F71F04795C5
:1034E000880F97FB991F61F09F3F79F087950895AA
:1034F000121613061406551FF2CF4695F1DF08C0C9
:10350000161617061806991FF1CF869571056105E5
:1035100008940895E894BB2766277727CB0197F98D
:103520000895F999FECF92BD81BDF89A992780B58B
:103530000895262FF999FECF1FBA92BD81BD20BDF7
:103540000FB6F894FA9AF99A0FBE0196089550585A
:10355000BB27AA270E94BF1A0C94571A0E94491A27
:1035600038F00E94501A20F039F49F3F19F426F4E5
:103570000C94461A0EF4E095E7FB0C94401AE92FE0
:103580000E94681A58F3BA176207730784079507F1
:1035900020F079F4A6F50C948A1A0EF4E0950B2E1F
:1035A000BA2FA02D0B01B90190010C01CA01A00195
:1035B0001124FF27591B99F0593F50F4503E68F1F0
:1035C0001A16F040A22F232F342F4427585FF3CF31
:1035D000469537952795A795F0405395C9F77EF402
:1035E0001F16BA0B620B730B840BBAF09150A1F04B
:1035F000FF0FBB1F661F771F881FC2F70EC0BA0FD1
:10360000621F731F841F48F4879577956795B79558
:10361000F7959E3F08F0B0CF9395880F08F0992753
:10362000EE0F9795879508950E94281B0C94571AC2
:103630000E94501A58F00E94491A40F029F45F3F46
:1036400029F00C94401A51110C948B1A0C94461AC0
:103650000E94681A68F39923B1F3552391F3951BDF
:10366000550BBB27AA2762177307840738F09F5FA3
:103670005F4F220F331F441FAA1FA9F335D00E2E10
:103680003AF0E0E832D091505040E695001CCAF77D
:103690002BD0FE2F29D0660F771F881FBB1F261740
:1036A00037074807AB07B0E809F0BB0B802DBF0117
:1036B000FF2793585F4F3AF09E3F510578F00C94E6
:1036C000401A0C948B1A5F3FE4F3983ED4F386952E
:1036D00077956795B795F7959F5FC9F7880F911D07
:1036E0009695879597F90895E1E0660F771F881FF3
:1036F000BB1F621773078407BA0720F0621B730BA6
:10370000840BBA0BEE1F88F7E09508950E94701A9B
:1037100088F09F5798F0B92F9927B751B0F0E1F092
:10372000660F771F881F991F1AF0BA95C9F714C042
:10373000B13091F00E948A1AB1E008950C948A1A6F
:10374000672F782F8827B85F39F0B93FCCF386957B
:1037500077956795B395D9F73EF4909580957095D8
:1037600061957F4F8F4F9F4F0895990FBB0B550F5A
:10377000AA0BE0E8FEEF16161706E807F90770F047
:1037800012161306E407F50760F0BA173CF049F487
:103790006217730784079507A7951BF4B901CA013F
:1037A000BA2FB695979508950E94AF1908F48FEF38
:1037B000089519F416F40C94461A0C941F1C0E94D8
:1037C000701AB8F39923C9F3B6F39F57550B87FFC7
:1037D0000E942D1C0024A0E640EA900180585695D6
:1037E000979528F4805C660F771F881F20F02617B6
:1037F0003707480730F4621B730B840B20293129EB
:103800004A2BA69517940794202531254A2758F767
:10381000660F771F881F20F026173707480730F4F8
:10382000620B730B840B200D311D411DA09581F798
:10383000B901842F9158880F9695879508959F3FD9
:1038400031F0915020F4879577956795B795880F5B
:10385000911D9695879597F9089591505040660F60
:10386000771F881FD2F70895A1E21A2EAA1BBB1B4F
:10387000FD010DC0AA1FBB1FEE1FFF1FA217B3073C
:10388000E407F50720F0A21BB30BE40BF50B661F52
:10389000771F881F991F1A9469F760957095809516
:1038A00090959B01AC01BD01CF010895EE0FFF1F64
:1038B0000590F491E02D099481E090E0F8940C9447
:0638C000611CF894FFCF2B
:1038C600FFFFFFFF00E100000000000050524546E8
:1038D60000002110422063308440A550C660E77086
:1038E600088129914AA16BB18CC1ADD1CEE1EFF12E
:1038F6003112100273325222B5529442F772D662D6
:10390600399318837BB35AA3BDD39CC3FFF3DEE37D
:103916006224433420040114E664C774A444855425
:103926006AA54BB528850995EEE5CFF5ACC58DD5CD
:103936005336722611163006D776F6669556B44675
:103946005BB77AA719973887DFF7FEE79DD7BCC71D
:10395600C448E5588668A7784008611802282338C5
:10396600CCC9EDD98EE9AFF9488969990AA92BB96D
:10397600F55AD44AB77A966A711A500A333A122A15
:10398600FDDBDCCBBFFB9EEB799B588B3BBB1AABBD
:10399600A66C877CE44CC55C222C033C600C411C65
:1039A600AEED8FFDECCDCDDD2AAD0BBD688D499D0D
:1039B600977EB66ED55EF44E133E322E511E700EB5
:1039C6009FFFBEEFDDDFFCCF1BBF3AAF599F788F5D
:1039D6008891A981CAB1EBA10CD12DC14EF16FE13D
:1039E6008010A100C230E320045025404670676075
:1039F600B9839893FBA3DAB33DC31CD37FE35EF38D
:103A0600B1029012F322D2323542145277625672C4
:103A1600EAB5CBA5A89589856EF54FE52CD50DC5DC
:103A2600E234C324A0148104667447642454054414
:103A3600DBA7FAB79987B8975FE77EF71DC73CD72C
:103A4600D326F2369106B016576676761546345664
:103A56004CD96DC90EF92FE9C899E9898AB9ABA97C
:103A66004458654806782768C018E1088238A328B4
:103A76007DCB5CDB3FEB1EFBF98BD89BBBAB9ABBCC
:103A8600754A545A376A167AF10AD01AB32A923A04
:103A96002EFD0FED6CDD4DCDAABD8BADE89DC98D1C
:103AA600267C076C645C454CA23C832CE01CC10C54
:103AB6001FEF3EFF5DCF7CDF9BAFBABFD98FF89F6C
:103AC600176E367E554E745E932EB23ED10EF01EA4
:103AD60000C1808100000000000000FF0E660E900D
:103AE6000E4B0F65159F0EB30E000000007B158F61
:103AF600161117151791154C176B16000000003894
:0E3B0600160B166816DF150316EF15E01500F6
:00000001FF
