:100000000C94D1000C94F9000C94F9000C94F900B4
:100010000C94F9000C94F9000C94F9000C94F9007C
:100020000C94F9000C94F9000C941C080C948008B2
:100030000C944C0C0C94F9000C94F9000C94F900FD
:100040000C94F9000C94F9000C94F9000C94F9004C
:100050000C94250C0C94F9000C94F9000C94BC0A37
:100060000C94F9000C94F9000C94F9000C94F9002C
:100070000C94F9000C94F9000C94F9000C94F9001C
:100080000C94F9000C94F9000C94F9000C94F9000C
:100090000C94060B0C94F9000C94F9000C94F900E4
:1000A0000C94F9000C94F9000C94F9000000000085
:1000B000250028002B002E0031000000000200095E
:1000C0000F0000030401000C00000000000000000D
:1000D000000000000000000000080B000202020007
:1000E00000090400000102020000052400100105BF
:1000F00024010101042402060524060001070581EC
:100100000310004009040100020A00000007050274
:1001100002400000070583024000000403090412A6
:10012000010002EF020140D80449EC000101020382
:1001300001556E6B6E6F776E005375727265792024
:1001400053656E736F7273204C74642E204D43554B
:100150002D380000000000240027002A002D003068
:1001600000040802011040804010204080408008B8
:100170000204018040201002011080102040402025
:10018000040404040403040502020202040302023C
:100190000202060606060606040402020204040021
:1001A000610C11241FBECFEFDAE0DEBFCDBF13E03C
:1001B000A0E0B1E0EEE4F9E202C005900D92A435B2
:1001C000B107D9F725E0A4E5B3E001C01D92AB3239
:1001D000B207E1F710E0C1EDD0E004C02197FE01C5
:1001E0000E947A13C03DD107C9F70E94FF0C0C94FE
:1001F000A5140C9400008CBD9DBD0895909137040A
:10020000809136042FEF3FEF981748F4E92FF0E084
:10021000EA5EFB4F208130E09F5F90933704C90175
:10022000089590913704809136042FEF3FEF98178F
:1002300048F4E92FF0E0EA5EFB4F208130E09F5F59
:1002400090933704C90108952FB7F89483E0809301
:10025000E9009091E800892F807295FF04C0909189
:10026000F20080E4891B2FBF089583E08093E900AA
:100270008091F200882319F08AE38093E8000895C2
:10028000FC018091C5038823F1F03FB7F89482E028
:100290008093E9002091F200822F90E01816190651
:1002A00014F481E090E0882319F04091F10040833C
:1002B000222339F02091F200211103C02BE6209374
:1002C000E8003FBF08958FEF9FEF08958091BD0331
:1002D00081110DC082E08093B90384E08093BA035A
:1002E0001092BC031092BB0381E08093BD0389EBA5
:1002F00093E00895089508954091A0035091A103BB
:1003000020919E0330919F0342175307B4F49091BC
:10031000E8009570E1F39091E80092FD19C0809398
:10032000F1008091A0039091A10301968F7399270A
:10033000892B19F48EEF8093E8008091A0039091AF
:10034000A10301969093A1038093A00381E00895F7
:1003500080E00895EF92FF920F931F93CF93DF9366
:10036000F82E192FE62E042F81E0860F880F0E94A9
:100370007C0183E00E947C01CF2DD12FEC0EFD2E5D
:10038000F11CCE15DF05B9F007FF13C0FE01849103
:100390000E947C01182F80E00E947C01812321961D
:1003A0008111EFCFDF91CF911F910F91FF90EF90CF
:1003B00008958881EDCF81E0F5CFDF92EF92FF9233
:1003C0000F931F93CF93DF93D82E8A01EB017B010C
:1003D000E40EF51ECE15DF0559F0D7FE12C0FE0162
:1003E00084910E947C0121968111F4CF0FEF1FEFC1
:1003F000C801DF91CF911F910F91FF90EF90DF9097
:1004000008958881EECF0F931F93CF93DF931F92B0
:10041000CDB7DEB782E0898342E450E069ED70E059
:1004200080E80E94DD010E946601DC0112960D91B8
:100430001C910115110589F0D801ED91FC91028004
:10044000F381E02DBE016F5F7F4FC801099597FDD5
:1004500004C0F80100851185ECCF89810F90DF91F0
:10046000CF911F910F910895CF93DF931F92CDB736
:10047000DEB76983DC01ED91FC910280F381E02D10
:1004800041E050E0BE016F5F7F4F09950F90DF9113
:10049000CF9108950C9435010E94240190E00895B5
:1004A000CF93DF931F92CDB7DEB7FC01848595858E
:1004B00097FD08C02FEF3FEF358724870F90DF911E
:1004C000CF9108951982CE0101960E9440010197B3
:1004D00019F4898190E0F2CF8FEF9FEFEFCF0F9368
:1004E0001F93CF93DF931F92CDB7DEB78C01FC0132
:1004F0008485958597FF0CC01982CE0101960E94D4
:100500004001019771F4898190E0F8019587848713
:10051000F801848595850F90DF91CF911F910F9100
:1005200008958FEF9FEFF1CFFC018485958597FDAE
:100530000BC09FB7F89482E08093E9008091F200AD
:100540009FBF90E0019608959FB7F89482E0809352
:10055000E9008091F2009FBF90E00895282F30E0DD
:10056000F901E654FF4F9491F901EF59FE4F849140
:1005700020583E4FF9012491222309F430C09923D9
:10058000E9F091509F30D0F4E92FF0E0E653FD4FB1
:100590000C947A13F802FC02D902F002F402DE0293
:1005A000DE02DE02FF02050309030D031303DE0270
:1005B0001703909180009F7790938000E22FF0E0E6
:1005C000EE0FFF1FE455FF4FA591B4919FB7F8942C
:1005D000EC91611132C080958E238C939FBF08955A
:1005E000909180009F7DE8CF90918000977FE4CF2D
:1005F00094B59F7794BDE2CF94B59F7DFBCF90914A
:1006000090009F7790939000D9CF909190009F7D1C
:10061000F9CF90919000977FF5CF9091C0009F7790
:100620009093C000CBCF9091C0009F7DF9CF909167
:10063000C200977F9093C200C1CF8E2BCECFCF93B5
:10064000DF9390E0FC01EF59FE4F249180589E4FBC
:10065000FC0184918823D1F090E0880F991FFC0160
:10066000ED5AFE4FA591B491FC01E455FF4FC591A1
:10067000D491623071F49FB7F8943C91822F8095A9
:1006800083238C93E8812E2B28839FBFDF91CF910A
:1006900008958FB7F894EC912E2B2C938FBFF6CF43
:1006A00008953FB7F89480919A0390919B03A0918D
:1006B0009C03B0919D0326B5A89B05C02F3F19F060
:1006C0000196A11DB11D3FBFBA2FA92F982F8827D2
:1006D000BC01CD01620F711D811D911D42E0660FAD
:1006E000771F881F991F4A95D1F708958F929F927F
:1006F000AF92BF92CF92DF92EF92FF924B015C01DB
:100700000E9451036B017C010E9451036C197D0909
:100710008E099F09683E734081059105A8F321E089
:10072000821A9108A108B10888EEC80E83E0D81E8D
:10073000E11CF11C81149104A104B10429F7FF907C
:10074000EF90DF90CF90BF90AF909F908F900895E3
:100750008F929F92AF92BF92CF92DF92EF92FF92D1
:100760000F931F93CF93DF936C017B018A018091DC
:100770000D01882309F458C08091C503882309F42A
:1007800053C08091A30380FF05C08091E000826088
:100790008093E000E801B12C8AEFA82E93E0892E27
:1007A0002AE3922E209711F4BB20D9F10E94240154
:1007B00081110AC0AA94AA20B9F161E070E080E03A
:1007C00090E00E947603EECF8C171D0611F00CF01E
:1007D0008C2F9FB7F8948092E9002091E80025FDC6
:1007E00002C09FBFDFCF282F30E0C21BD30BF70121
:1007F000815020F041914093F100FACFE20EF31EB8
:10080000BB2021F09092E800B12CEBCF8091E80062
:1008100085FDE7CF9092E800BB24B394209709F3BD
:10082000F3CF101611063CF081E090E0F6019383BF
:10083000828310E000E0C801DF91CF911F910F91FA
:10084000FF90EF90DF90CF90BF90AF909F908F90F0
:10085000089520917603260F3327331F2132310567
:10086000ECF42091EC03FC0190E080E0243069F08E
:1008700082E00895A09176032191AC014A5A5C4F21
:10088000A40FB52FB11D2C930196861798F3809174
:100890007603680F6093760380E0089581E0089501
:1008A0001092EC0381E08093EB031092C60361E0A9
:1008B00082E00E94AE0261E083E00E94AE02E9EBBA
:1008C000F0E080818E7F808380818D7F808388E4CB
:1008D0008093B80085E48093BC000895CF93DF93A4
:1008E00091E0909355038823B9F0C091B800D0915E
:1008F000BA008091BC008A7B8093BC0060E082E0FB
:100900000E94AE0260E083E00E94AE020E945004AA
:10091000D093BA00C093B800DF91CF9108958F9221
:100920009F92AF92BF92CF92DF92EF92FF920F937E
:100930001F93CF93DF93D0911504D13208F0D7C025
:10094000182FC09114040E9451036B017C01809107
:10095000EC0381116BC082E08093EC031093EB03F6
:100960008FEF8093EA031092E903D093E803A4EF9A
:10097000B3E0E8ECF3E080E0D81391C01092C70335
:100980008091C703CC0FC82BC093C7038091C603C7
:10099000813009F088C01092C6030E9451036B0198
:1009A0007C018091C7038093BB008091EE039091FE
:1009B000EF03A091F003B091F103892B8A2B8B2BCD
:1009C000A1F00E9451030091EE031091EF032091DA
:1009D000F0033091F1036C197D098E099F09061708
:1009E00017072807390708F442C08091BC0083FD2F
:1009F000D8CF85EC8093BC000E9451036B017C0131
:100A00008091EC03823009F450C08091EA038F3F5B
:100A100009F46FC08091EA03803209F46CC08091C0
:100A2000EA03803309F469C084E026C08091EE03B4
:100A30009091EF03A091F003B091F103892B8A2BE1
:100A40008B2B09F484CF0E9451038090EE03909089
:100A5000EF03A090F003B090F1036C197D098E09AB
:100A60009F0986169706A806B90608F070CF8091F0
:100A7000ED030E946E0485E01092F30310921504BA
:100A80001092F203DF91CF911F910F91FF90EF90A1
:100A9000DF90CF90BF90AF909F908F9008959D91E1
:100AA00091938F5F69CF85EEA5CF8091EE039091F2
:100AB000EF03A091F003B091F103892B8A2B8B2BCC
:100AC00009F49ECF0E9451030091EE031091EF03B1
:100AD0002091F0033091F1036C197D098E099F0973
:100AE000061717072807390708F08ACFC0CF81E01B
:100AF000C3CF80E0C1CF82E0BFCF83E0BDCF0895F8
:100B0000E091370480913604E81730F4F0E0EA5EB3
:100B1000FB4F808190E008958FEF9FEF08958091C3
:100B2000360490913704891B990B0895CF92DF9278
:100B3000EF92FF920F931F93CF93DF937C01CB0132
:100B40008A012091F203222389F0EB016B01C40E8C
:100B5000D51ECC15DD0569F06991D701ED91FC91A9
:100B60000190F081E02DC7010995F3CF642F0E9419
:100B70002904C801DF91CF911F910F91FF90EF9051
:100B8000DF90CF900895CF93DF931F92CDB7DEB75C
:100B900069832091F2032223F9F020911504203279
:100BA00058F021E030E0FC013383228390E080E0C4
:100BB0000F90DF91CF9108958091F303E82FF0E03B
:100BC000EC50FC4F998190838F5F8093F303809367
:100BD000150481E090E0ECCF61E0CE0101960E9427
:100BE0002904F7CF682F88E894E00C94C30590E0BF
:100BF00080E0089581E08093B203089508958EBD4A
:100C000000000DB407FEFDCF8EB508958F929F9220
:100C1000AF92BF92CF92DF92EF92FF921F93CF934A
:100C2000DF93D82F162F0E9451036B017C01809116
:100C3000EC03811166C0C12F81E08093EC038093A7
:100C4000EB039FEF9093EA031092E903910F9093C7
:100C5000E8038093C7038091C703DD0FD82BD0939F
:100C6000C7038091C603813009F082C01092C60389
:100C70000E9451036B017C018091C7038093BB00EC
:100C80008091EE039091EF03A091F003B091F103F6
:100C9000892B8A2B8B2BA1F00E9451038090EE03AD
:100CA0009090EF03A090F003B090F1036C197D09D0
:100CB0008E099F0986169706A806B90608F442C051
:100CC0008091BC0083FDD8CF85EC8093BC000E944E
:100CD00051036B017C018091EC03813009F44AC01F
:100CE0008091E903811710F4C091E903A8ECB3E007
:100CF000E6E1F4E080E08C1751F19D9191938F5FD4
:100D0000FACF8091EE039091EF03A091F003B091A0
:100D1000F103892B8A2B8B2B09F489CF0E94510375
:100D20008090EE039090EF03A090F003B090F10359
:100D30006C197D098E099F0986169706A806B906C3
:100D400008F075CF8091ED030E946E04C0E0109210
:100D50003704C09336048C2FDF91CF911F91FF9001
:100D6000EF90DF90CF90BF90AF909F908F900895BD
:100D700085EEABCF8091EE039091EF03A091F0034D
:100D8000B091F103892B8A2B8B2B09F4A4CF0E94FD
:100D900051038090EE039090EF03A090F003B09089
:100DA000F1036C197D098E099F0986169706A8061E
:100DB000B90608F090CFC6CF0F931F93CF93DF9360
:100DC0008C01D0E0C0E0CE010E94C812F8018193EE
:100DD0008F012196C530D105B1F7DF91CF911F91D9
:100DE0000F91089585ED8093BC008091EE03909162
:100DF000EF03A091F003B091F1030796A11DB11D7F
:100E000023E0B695A795979587952A95D1F72091D8
:100E1000BC0024FD03C01092EC0308954091EE0342
:100E20005091EF036091F0037091F103452B462B35
:100E3000472B69F30097A105B10541F02AE22A95F5
:100E4000F1F700C00197A109B109E1CF8091ED034D
:100E50000C946E04CF92DF92EF92FF920F931F9348
:100E6000CF93DF9300D000D000D0CDB7DEB788E3BA
:100E700094E00E949402892B09F444C088E394E032
:100E80000E94500280349105E9F588E394E00E94C5
:100E900050028235910509F44EC024F58E34910537
:100EA00009F4B2C08035910509F4B7C084349105C6
:100EB00049F5109254038AEF95E0909301018093D5
:100EC000000191E090936F001092810010928500D4
:100ED000109284008091A803806180938100909398
:100EE000B80310C087359105B1F12CF48335910515
:100EF00049F40E94560C8436910599F0803791058B
:100F000009F48FC026960FB6F894DEBF0FBECDBF92
:100F1000DF91CF911F910F91FF90EF90DF90CF90D5
:100F2000089510926F0080E1809381001092B803C1
:100F30000E943501E7CF83E28983CE0102960E94A9
:100F4000DC0646E050E0BE016F5F7F4F88E394E02F
:100F50000E94A803EDCFCE0101967C016E0196E0C0
:100F6000C90ED11C87012FB7F8948091AE039091E0
:100F7000AF03A091B003B091B1032FBF80934004A1
:100F800090934104A0934204B093430488E394E017
:100F90000E94500297FF48C02FB7F8948091AE038B
:100FA0009091AF03A091B003B091B1032FBF4091D6
:100FB0004004509141046091420470914304841BA9
:100FC000950BA60BB70B40913C0450913D046091EA
:100FD0003E0470913F0484179507A607B707B0F247
:100FE00010E000E0F701D1907F01C8010E94C81213
:100FF000D81621F06D2DC8010E94D0120F5F1F4F2F
:101000000530110579F775CF8091A5039091A6035E
:101010009A83898342E050E096CF81E08093B703C2
:1010200071CF1092B7036ECFF80181938F01EC1549
:10103000FD0509F098CFD4CF1F920F920FB60F92F3
:1010400011242F933F934F935F936F937F938F93CD
:101050009F93AF93BF93CF93EF93FF93C091E10022
:101060008091E100837F8093E100C3FF0FC0109265
:10107000E90081E08093EB001092EC0082E3809322
:10108000ED001092C50388E08093F000C2FD0E943D
:101090003501C4FF23C08091E2008E7E8160809381
:1010A000E2008091E1008F7E8093E1008091A303B4
:1010B0008E7E80618093A303FF91EF91CF91BF91CA
:1010C000AF919F918F917F916F915F914F913F91E0
:1010D0002F910F900FBE0F901F901895C0FFECCF6F
:1010E0008091E2008E7E80618093E2008091E10039
:1010F0008E7E8093E1008091A3038E7E8160DACFA3
:101100001F920F920FB60F921124CF92DF92EF929F
:10111000FF920F931F932F933F934F935F936F9380
:101120007F938F939F93AF93BF93EF93FF93CF934F
:10113000DF93CDB7DEB76C97DEBFCDBF1092E9006D
:101140008091E80083FF2CC089E0FE017596EE2EA9
:10115000DF2E815029F09091F10090833196F9CFE4
:1011600082EF8093E8008D8987FF39C09091E80075
:1011700090FFFCCF982F907609F033C19E894F895C
:10118000588D2F89F88C911131C0803861F580918C
:10119000A4038093F1001092F1008EEF8093E80099
:1011A0006C960FB6F894DEBF0FBECDBFDF91CF9126
:1011B000FF91EF91BF91AF919F918F917F916F912F
:1011C0005F914F913F912F911F910F91FF90EF9061
:1011D000DF90CF900F900FBE0F901F9018959EEF4D
:1011E0009093E800C7CF1092F100D5CF913059F419
:1011F0008111D3CF4130510581F68091A4038D7FB9
:101200008093A403CACF933049F48111C6CF4130F3
:10121000510519F68091A4038260F2CF953041F414
:101220008091E80080FFFCCF20682093E300B5CFD9
:10123000963009F0A8C00B8D1C8D22E01092E900B9
:101240001092A1031092A003F2122EC010929F03DD
:1012500010929E030E9403021F8299E09983FA82F2
:1012600091E09E8390EA98879AEF99872091A00356
:101270003091A103275F3F4F3C832B838D831092D6
:10128000E9001092A1031092A00310939F03009312
:101290009E0349E050E0BE016F5F7F4F80E00E94F7
:1012A000DD010E94030279CF10939F0300939E03F8
:1012B0000E946601DC0112960D911C910115110529
:1012C00009F454C1D801ED91FC910480F581E02D21
:1012D0006E2D7D2DC8010995009709F042C1F801D6
:1012E00000851185EBCFF3E0FF120EC08F898823B4
:1012F00009F440C0823061F440E869E189E391E09B
:101300000E94AA01811149CF81E28093EB0048CF6E
:10131000813029F440E867E081E391E0F1CF833048
:1013200099F70E946601DC011296ED90FC908E0107
:101330000F5F1F4F6801E114F10479F0D701ED91BF
:10134000FC910680F781E02DB801C7010995080FCF
:10135000111DF701E084F184EECFD8011C92F60153
:1013600001900020E9F73197BF016C197D0940E039
:10137000C601C6CF6BE171E0FB01449150E080E80B
:101380000E94DD010ACF973009F4BECF983021F4D6
:1013900081E08093F10001CF993009F0FECE837097
:1013A00009F0B2CFE9E2F1E081E031E096E321918A
:1013B000222371F08093E9003093EB00DF01119755
:1013C0002C912093EC009093ED008F5F873079F79C
:1013D0008EE78093EA001092EA008F898093C5031C
:1013E000DCCE8B8D9C8D1092E9001092A10310929F
:1013F000A00390939F0380939E03898D811197C0D2
:101400008E899D89913A49F4813209F07DCF47E078
:1014100050E066E071E080E0B3CF913209F074CF24
:10142000833269F48F89988DB0E0A0E08093020147
:1014300090930301A0930401B0930501AECE8032D6
:1014400091F48091E80082FFFCCF88E0E6E0F1E0D3
:10145000815029F09091F10090833196F9CF8BEF74
:101460008093E8009ACE823209F097CE8F898093DC
:101470000D01EEEFFFE7859194918B3F9C4D51F16B
:10148000E0E0F8E08091060190910701A091080149
:10149000B0910901803B9440A105B105F1F4809120
:1014A0000D0180FD1AC0EE3F8AE0F80789F587E755
:1014B00097E791838083809160008093A20388E105
:1014C0009BE00FB6F894A895809360000FBE9093B0
:1014D000600063CEEEEFFAE0D5CF8081918187374F
:1014E000974709F05ACEA895809160008861809353
:1014F00060008091A20380936000EE3F2AE0F20733
:1015000089F08091FE0A9091FF0A9183808345CEF5
:10151000808191818737980751F29093FF0A8093D9
:10152000FE0AC5CF1092FF0A1092FE0A36CE0E9424
:101530006601DC0112960D911C910115110509F44B
:10154000E3CED801ED91FC910190F081E02D6E2D5C
:101550007D2DC8010995811120CEF80100851185E6
:10156000ECCF181619060CF418CECECEF1E0FF120F
:10157000BACE6FE171E000CF1F920F920FB60F92BB
:1015800011242F933F938F939F93AF93BF93809199
:10159000AE039091AF03A091B003B091B10330912D
:1015A000990323E0230F2D3758F50196A11DB11D96
:1015B000209399038093AE039093AF03A093B0035D
:1015C000B093B10380919A0390919B03A0919C03E7
:1015D000B0919D030196A11DB11D80939A03909334
:1015E0009B03A0939C03B0939D03BF91AF919F91E8
:1015F0008F913F912F910F900FBE0F901F901895D4
:1016000026E8230F0296A11DB11DD2CF1F920F9283
:101610000FB60F9211242F933F934F935F936F93C5
:101620007F938F939F93AF93BF93EF93FF9380919B
:10163000B900887F803609F44AC0F0F5883209F491
:10164000A7C018F5803109F49BC0B8F4882309F4C9
:10165000F9C0883009F494C0FF91EF91BF91AF9128
:101660009F918F917F916F915F914F913F912F91BA
:101670000F900FBE0F901F901895883109F488C005
:10168000803251F78093EA0314C0803409F49DC07E
:1016900040F48033B9F38833F9F68093EA0385EC9C
:1016A000B0C0803509F485C0883509F496C0883407
:1016B00099F60E94F206D0CF883909F48CC038F52B
:1016C000883729F050F4883611F0803729F683E006
:1016D0008093EC031092980357C0883809F47BC0BC
:1016E000803919F0803809F0B7CF809198038032A3
:1016F00008F071C0E091980381E08E0F8093980309
:101700008091BB00F0E0E858FC4F80833DC0803BF7
:1017100039F0E0F4803A09F479C0883A09F09CCFB6
:1017200084E08093EC031092770310927603E091AB
:10173000AC03F091AD0309958091760381110FC040
:1017400081E0809376031092560309C0803C09F42F
:10175000A6CF883C09F4A3CF883B09F07DCFE09168
:10176000770381E08E0F80937703F0E0EA5AFC4F15
:1017700080818093BB00909177038091760329C08C
:101780008091C7038093BB0085EC8093BC0064CF3D
:101790009091E9038091E803981758F5E091E903E7
:1017A00081E08E0F8093E903F0E0E853FC4F8081E5
:1017B000E9CFE091E90381E08E0F8093E903809106
:1017C000BB00F0E0E853FC4F80839091E9038091E7
:1017D000E8039817C8F285E8D8CFE091E90381E0E3
:1017E0008E0F8093E9038091BB00F0E0E853FC4F3B
:1017F00080838091EB0381115CCF81E08093C603ED
:1018000084EA8093BC001092EC0326CF85EC809391
:10181000BC001092EC0380919803803230F4E09188
:101820009803F0E0E858FC4F10826091980370E054
:10183000E091AA03F091AB0388E793E00995109239
:1018400098030ACF1092EA0334CF1F920F920FB67B
:101850000F9211242F933F934F935F936F937F9336
:101860008F939F93AF93BF93EF93FF93E09100010A
:10187000F09101010995FF91EF91BF91AF919F9177
:101880008F917F916F915F914F913F912F910F9029
:101890000FBE0F901F9018951F920F920FB60F92C8
:1018A00011240F900FBE0F901F90189588E198E0BB
:1018B0000FB6F894A895809360000FBE90936000D7
:1018C000FFCFCF93DF93E8E3F4E01382128288EE38
:1018D00093E0A0E0B0E084839583A683B78323E3FD
:1018E00033E0318320832FEF3FEF35872487E8E80B
:1018F000F4E01382128284839583A683B78385E400
:1019000093E091838083C7EDD4E088E0888390E101
:1019100099839EE09A838B831C821D8280E1E4E19F
:10192000F1E0ADEDB4E001900D928A95E1F786EA21
:101930009BE9A4E4B9E38E8B9F8BA88FB98F8A8F24
:101940009B8FAC8FBD8F8E8F9F8FA8A3B9A38AA3C7
:101950009BA3ACA3BDA38BE891E09FA38EA399A703
:1019600088A79BA78AA79DA78CA781E88EA78FA78A
:1019700088AB89AB8BE88AAB8BAB8CAB8DAB1EAAEB
:101980008091240190912501A0912601B091270119
:101990008FAB98AFA9AFBAAF1092220580E094E266
:1019A000A4EFB5E48093230590932405A093250527
:1019B000B0932605E4E9F4E087E790E09183808323
:1019C00085E0828387EB838384EB84838CE085834B
:1019D00013AA14AA15AA16AA17AA10AE11AE12AE0F
:1019E00013AE14AE15AE16AE1092D3041092D404FA
:1019F0001092D5041092D604DF91CF910895CF9321
:101A0000DF9300D000D01F92CDB7DEB7789484B5B5
:101A1000826084BD84B5816084BD85B5826085BDEA
:101A200085B5816085BD80916E00816080936E0078
:101A3000109281008091810082608093810080916A
:101A4000810081608093810080918000816080931B
:101A5000800080919100826080939100809191003C
:101A600081608093910080919000816080939000CC
:101A70008091C10084608093C1008091C100826028
:101A80008093C1008091C10081608093C1008091EA
:101A9000C30081608093C3008091C0008260809306
:101AA000C0008091C20081608093C20080917A0062
:101AB000846080937A0080917A00826080937A00BB
:101AC00080917A00816080937A0080917A008068AA
:101AD00080937A001092C5031092A4031092A3037E
:101AE0008091D70081608093D70080EA8093D800EE
:101AF00089B5806189BD89B5826089BD09B400FE60
:101B0000FDCF61E070E080E090E00E94760380917C
:101B1000D8008F7C80618093D8008091E000807F26
:101B20008093E0008091E1008E7E8093E1008DE063
:101B30008093E20014BE0FB6F894A89580916000DF
:101B4000886180936000109260000FBE61E087E0C2
:101B50000E941F0360E087E00E94AE0262E080E026
:101B60000E941F0362E081E00E941F0362E081E1A6
:101B70000E941F0362E08BE00E941F0362E08EE17F
:101B80000E941F0362E084E00E941F0362E08CE079
:101B90000E941F0362E086E00E941F0362E088E06B
:101BA0000E941F0362E089E00E941F0362E08AE056
:101BB0000E941F0362E085E00E941F0362E08DE047
:101BC0000E941F036A98729A62E082E10E941F03DA
:101BD00062E083E10E941F0362E084E10E941F0330
:101BE00062E085E10E941F0362E086E10E941F031C
:101BF00062E087E10E941F0310927A0080916400E6
:101C00008160809364008FEF80937E0091E09093D9
:101C10007F0080937D0080E980BF809164008064B4
:101C20008093640080916500886080936500809156
:101C3000650080618093650080916500816080937C
:101C400065008FEF9FEF9093450480934404CE018D
:101C500001960E94DC062C813D81DE011196AE01C9
:101C60004C5F5F4F8FEF9FEFED91E927F0E0EE0FB4
:101C7000FF1FE15DFE4F60817181982F88278627C5
:101C800097274A175B0781F72817390709F055C3CB
:101C900081E08093A70390E080E00E94C8128093C7
:101CA000A50381E090E00E94C8128093A60382E021
:101CB00090E00E94C81291E0811101C090E09093E1
:101CC000B70380E1809381001092800092E09093AE
:101CD000A80320E137E2309387002093860092E149
:101CE000909381008093810084E090E00E948013B3
:101CF000FC01108211821282138284E0AEE0B5E012
:101D000001900D928A95E1F761E08091D7040E94DD
:101D10001F0361E08091D7040E94AE021FB7F894C0
:101D20008091A903811127C0E1E9F1E08491E2E704
:101D3000F1E09491E82FF0E0EE0FFF1FED5AFE4F17
:101D4000A591B491EC91E92321F461E081E10E9435
:101D5000AE0261E081E10E941F038CB580618CBD01
:101D60008CB580648CBD61E08FE00E941F0361E050
:101D700080E10E941F038091A9038F5F8093A903D4
:101D80001FBF10923704109236040E9450048AE755
:101D900091E09093AD038093AC038BE791E0909337
:101DA000AB038093AA038CE08093B80080E593ECAA
:101DB000A0E0B0E080938C0490938D04A0938E04F7
:101DC000B0938F048091940411E01093F2038093F8
:101DD00014041092F3031092150480EE90E00E9418
:101DE000F20586EB90E00E94F20581E00E948F04EC
:101DF00064E670E080E090E00E94760380919404B5
:101E00001093F203809314041092F30310921504BC
:101E100082EF90E00E94F2056091960488E894E0D9
:101E20000E94C30584EF90E00E94F205609198043F
:101E300088E894E00E94C30585EF90E00E94F205D7
:101E40006091990488E894E00E94C30581E00E94B3
:101E50008F0464E670E080E090E00E947603809159
:101E600094041093F203809314041092F3031092DD
:101E7000150488E890E00E94F20580E00E948F043B
:101E800069E170E080919404909195040E940606A7
:101E90000E94110190939F0480939E040E9411015F
:101EA00010929E0480939F040E9411019093A304BA
:101EB0008093A2040E94110120E0382F8091A20497
:101EC0009091A304282B392B3093A3042093A204D0
:101ED0000E9411019093A5048093A4040E94110113
:101EE00020E0382F8091A4049091A504282B392B51
:101EF0003093A5042093A4040E9411019093A1049F
:101F00008093A0040E94110120E0382F8091A0044A
:101F10009091A104282B392B3093A1042093A00485
:101F20000E9411019093A7048093A6040E941101BE
:101F300020E0382F8091A6049091A704282B392BFC
:101F40003093A7042093A6040E9411019093A90442
:101F50008093A8040E94110120E0382F8091A804EA
:101F60009091A904282B392B3093A9042093A8041D
:101F70000E9411019093AB048093AA040E94110166
:101F800020E0382F8091AA049091AB04282B392BA4
:101F90003093AB042093AA040E9411019093AD04E6
:101FA0008093AC040E94110120E0382F8091AC0492
:101FB0009091AD04282B392B3093AD042093AC04C1
:101FC0000E9411019093AF048093AE040E9411010E
:101FD00020E0382F8091AE049091AF04282B392B4C
:101FE0003093AF042093AE040E9411019093B1048A
:101FF0008093B0040E94110120E0382F8091B0043A
:102000009091B104282B392B3093B1042093B00464
:102010000E9411019093B3048093B2040E941101B5
:1020200020E0382F8091B2049091B304282B392BF3
:102030003093B3042093B2040E9411019093B5042D
:102040008093B4040E94110120E0382F8091B404E1
:102050009091B504282B392B3093B5042093B40408
:102060000E9411018093BC04809194041093F203A8
:10207000809314041092F3031092150481EE90E003
:102080000E94F20580E00E948F0467E070E080917A
:102090009404909195040E9406060E941101909369
:1020A000B7048093B6040E94110120E0382F80917C
:1020B000B6049091B704282B392B3093B7042093A2
:1020C000B6040E9411018093BD040E94110124E016
:1020D000880F991F2A95E1F79093B9048093B8046B
:1020E0000E941101AC014F7055272091B804309126
:1020F000B904242B352B3093B9042093B80482956E
:102100008F7090E09093BB048093BA040E941101F9
:1021100034E0880F991F3A95E1F72091BA04309185
:10212000BB04822B932B9093BB048093BA040E9430
:1021300011018093BE04809194041093F203809364
:1021400014041092F3031092150484EF90E00E949F
:10215000F2056091970488E894E00E94C30581E04D
:102160000E948F0464E670E080E090E00E947603B5
:10217000769A00E010E043E2D42E7698F89483B784
:10218000817F83BF83B7816083BF7894889583B74D
:102190008E7F83BF769A8091B803811104C08091AD
:1021A000B7038111A5C01092DB0480910E058093C6
:1021B000220584E590E00E94FB0095B18091D8044F
:1021C0008095892385B900000000E0912205F0E0A8
:1021D000E952FB4F86A50E94FF05E0912205F0E041
:1021E000E952FB4F82A90E94FF0585B19091D80466
:1021F000892B85B96091230570912405809125056F
:10220000909126050E944B136230710548F0660FCD
:10221000771F660F771F65507109CB010197F1F7A2
:102220008FB7F8948090AE039090AF03A090B00366
:10223000B090B1038FBF84E590E00E94FB0085B1B0
:102240002091D804922F9095982395B90000000012
:1022500093B18091DA04982309F086C0E0912205B9
:10226000F0E0E952FB4F86A50E94FF05C82EE091E1
:102270002205F0E0E952FB4F82A90E94FF0595B1CB
:102280002091D804922B95B9E090220524E0E29E9B
:1022900070011124F701E952FB4F7F017C2D682F5B
:1022A000072E000C880B990B0E94CF11F70126898D
:1022B0003789408D518D0E940A12F70163AF74AFC8
:1022C00085AF96AF2091120530911305409114050A
:1022D0005091150560E070E080EA90E40E94DE1203
:1022E0006093B3037093B4038093B5039093B603E4
:1022F0008091B2038823C1F01092B203D9828091F9
:10230000B3039091B403A091B503B091B6038A834F
:102310009B83AC83BD8345E050E0BE016F5F7F4F80
:1023200088E394E00E94A8030E942A070115110582
:1023300009F423CF0E94000020CF1092A7038091C0
:10234000A7038111BECC0E942A07769A64E670E04A
:1023500080E090E00E947603769864E670E080E08A
:1023600090E00E947603EBCF85B1822B85B92FB721
:10237000F8948091AE039091AF03A091B003B09117
:10238000B1032FBF88199909AA09BB09893E934057
:10239000A105B10508F44FCF95CFE89409C097FB8C
:1023A0003EF490958095709561957F4F8F4F9F4F2C
:1023B0009923A9F0F92F96E9BB279395F695879570
:1023C00077956795B795F111F8CFFAF4BB0F11F433
:1023D00060FF1BC06F5F7F4F8F4F9F4F16C08823DA
:1023E00011F096E911C0772321F09EE8872F762F10
:1023F00005C0662371F096E8862F70E060E02AF051
:102400009A95660F771F881FDAF7880F969587953C
:1024100097F908950E941D120C948E120E9480124A
:1024200038F00E94871220F0952311F00C94771257
:102430000C947D1211240C94C2120E949F1270F30E
:10244000959FC1F3950F50E0551F629FF001729F59
:10245000BB27F00DB11D639FAA27F00DB11DAA1F68
:10246000649F6627B00DA11D661F829F2227B00DB5
:10247000A11D621F739FB00DA11D621F839FA00D40
:10248000611D221F749F3327A00D611D231F849F90
:10249000600D211D822F762F6A2F11249F575040E7
:1024A0009AF0F1F088234AF0EE0FFF1FBB1F661F62
:1024B000771F881F91505040A9F79E3F510580F02B
:1024C0000C9477120C94C2125F3FE4F3983ED4F35D
:1024D000869577956795B795F795E7959F5FC1F7CF
:1024E000FE2B880F911D9695879597F9089597F97A
:1024F0009F6780E870E060E008959FEF80EC0895AA
:1025000000240A94161617061806090608950024D2
:102510000A9412161306140605060895092E03944C
:10252000000C11F4882352F0BB0F40F4BF2B11F4C0
:1025300060FF04C06F5F7F4F8F4F9F4F089557FD1F
:102540009058440F551F59F05F3F71F04795880F21
:1025500097FB991F61F09F3F79F0879508951216B8
:1025600013061406551FF2CF4695F1DF08C0161664
:1025700017061806991FF1CF869571056105089415
:102580000895E894BB2766277727CB0197F908952C
:10259000F999FECF92BD81BDF89A992780B508952B
:1025A000262FF999FECF1FBA92BD81BD20BD0FB66F
:1025B000F894FA9AF99A0FBE019608955058BB27DD
:1025C000AA270E94F6120C948E120E94801238F0F4
:1025D0000E94871220F039F49F3F19F426F40C94DE
:1025E0007D120EF4E095E7FB0C947712E92F0E9420
:1025F0009F1258F3BA17620773078407950720F0F4
:1026000079F4A6F50C94C1120EF4E0950B2EBA2FB6
:10261000A02D0B01B90190010C01CA01A0011124E8
:10262000FF27591B99F0593F50F4503E68F11A1694
:10263000F040A22F232F342F4427585FF3CF469525
:1026400037952795A795F0405395C9F77EF41F1647
:10265000BA0B620B730B840BBAF09150A1F0FF0F11
:10266000BB1F661F771F881FC2F70EC0BA0F621FFD
:10267000731F841F48F4879577956795B795F795ED
:102680009E3F08F0B0CF9395880F08F09927EE0F82
:102690009795879508950E94A71288F09F5798F004
:1026A000B92F9927B751B0F0E1F0660F771F881F57
:1026B000991F1AF0BA95C9F714C0B13091F00E9471
:1026C000C112B1E008950C94C112672F782F8827AA
:1026D000B85F39F0B93FCCF3869577956795B39598
:1026E000D9F73EF490958095709561957F4F8F4F07
:1026F0009F4F0895EE0FFF1F0590F491E02D099470
:102700000F931F93CF93DF938230910510F482E0F3
:1027100090E0E0912905F0912A0530E020E0B0E05A
:10272000A0E0309799F42115310509F44AC0281B1F
:10273000390B24303105D8F58A819B8161157105EB
:1027400089F1FB0193838283FE0111C04081518195
:102750000281138148175907E0F04817590799F487
:10276000109761F012960C93129713961C93329661
:10277000CF01DF91CF911F910F910895009329050B
:1027800010932A05F4CF2115310551F04217530754
:1027900038F0A901DB019A01BD01DF01F801C1CFC9
:1027A000EF01F9CF90932A0580932905CDCFFE0143
:1027B000E20FF31F819391932250310939832883CB
:1027C000D7CF2091270530912805232B41F4209164
:1027D0001001309111013093280520932705209195
:1027E0000E0130910F012115310541F42DB73EB78F
:1027F0004091120150911301241B350BE0912705E4
:10280000F0912805E217F307A0F42E1B3F0B2817C1
:10281000390778F0AC014E5F5F4F2417350748F059
:102820004E0F5F1F50932805409327058193919386
:102830009FCFF0E0E0E09CCFCF93DF930097E9F0EB
:10284000FC01329713821282A0912905B0912A05CA
:10285000ED0130E020E01097A1F420813181820F5A
:10286000931F20912705309128052817390709F073
:1028700061C0F0932805E0932705DF91CF9108957B
:10288000EA01CE17DF07E8F54A815B819E01411519
:102890005105B1F7E901FB83EA8349915991C40FCE
:1028A000D51FEC17FD0761F4808191810296840F9A
:1028B000951FE90199838883828193819B838A8311
:1028C000F0E0E0E012968D919C9113970097B9F596
:1028D0002D913C911197CD010296820F931F20916B
:1028E0002705309128052817390739F6309751F513
:1028F00010922A0510922905B0932805A093270568
:10290000BCCFD383C28340815181840F951FC817E8
:10291000D90761F44E5F5F4F88819981480F591F35
:10292000518340838A819B81938382832115310562
:1029300009F0B0CFF0932A05E09329059ECFFD0161
:0E294000DC01C0CF13821282D7CFF894FFCFF4
:10294E005003FFFFFFFF00E1000000000000000049
:10295E002B058000A69BC440A69BC440A69BC440EA
:10296E00A69BC4400001020300C18081000000004C
:10297E00002110422063308440A550C660E77008E5
:10298E008129914AA16BB18CC1ADD1CEE1EFF1316C
:10299E0012100273325222B5529442F772D6623935
:1029AE009318837BB35AA3BDD39CC3FFF3DEE362BC
:1029BE0024433420040114E664C774A44485546A85
:1029CE00A54BB528850995EEE5CFF5ACC58DD5534C
:1029DE0036722611163006D776F6669556B4465BD5
:1029EE00B77AA719973887DFF7FEE79DD7BCC7C41C
:1029FE0048E5588668A7784008611802282338CC25
:102A0E00C9EDD98EE9AFF9488969990AA92BB9F5AB
:102A1E005AD44AB77A966A711A500A333A122AFD74
:102A2E00DBDCCBBFFB9EEB799B588B3BBB1AABA67B
:102A3E006C877CE44CC55C222C033C600C411CAEC4
:102A4E00ED8FFDECCDCDDD2AAD0BBD688D499D978B
:102A5E007EB66ED55EF44E133E322E511E700E9F14
:102A6E00FFBEEFDDDFFCCF1BBF3AAF599F788F88DB
:102A7E0091A981CAB1EBA10CD12DC14EF16FE180AC
:102A8E0010A100C230E3200450254046706760B9A3
:102A9E00839893FBA3DAB33DC31CD37FE35EF3B1FC
:102AAE00029012F322D2323542145277625672EAF3
:102ABE00B5CBA5A89589856EF54FE52CD50DC5E24C
:102ACE0034C324A01481046674476424540544DB83
:102ADE00A7FAB79987B8975FE77EF71DC73CD7D39C
:102AEE0026F2369106B01657667676154634564C53
:102AFE00D96DC90EF92FE9C899E9898AB9ABA944EC
:102B0E0058654806782768C018E1088238A3287DE2
:102B1E00CB5CDB3FEB1EFBF98BD89BBBAB9ABB753B
:102B2E004A545A376A167AF10AD01AB32A923A2EB2
:102B3E00FD0FED6CDD4DCDAABD8BADE89DC98D268B
:102B4E007C076C645C454CA23C832CE01CC10C1FC2
:102B5E00EF3EFF5DCF7CDF9BAFBABFD98FF89F17DB
:102B6E006E367E554E745E932EB23ED10EF01E0022
:102B7E000000003402A8034C024A02940250026F75
:102B8E000200000000C3059605F7057F058F05FEC0
:042B9E0000800500AE
:00000001FF
