:100000000C94D1000C94F9000C94F9000C94F900B4
:100010000C94F9000C94F9000C94F9000C94F9007C
:100020000C94F9000C94F9000C942E080C94AB0875
:100030000C946D0C0C94F9000C94F9000C94F900DC
:100040000C94F9000C94F9000C94F9000C94F9004C
:100050000C94460C0C94F9000C94F9000C94DD0AF5
:100060000C94F9000C94F9000C94F9000C94F9002C
:100070000C94F9000C94F9000C94F9000C94F9001C
:100080000C94F9000C94F9000C94F9000C94F9000C
:100090000C94270B0C94F9000C94F9000C94F900C3
:1000A0000C94F9000C94F9000C94F9000000000085
:1000B000250028002B002E0031000000000200095E
:1000C0000F0000030401000C00000000000000000D
:1000D000000000000000000000080B000202020007
:1000E00000090400000102020000052400100105BF
:1000F00024010101042402060524060001070581EC
:100100000310004009040100020A00000007050274
:1001100002400000070583024000000403090412A6
:10012000010002EF020140D80449EC000101020382
:1001300001556E6B6E6F776E005375727265792024
:1001400053656E736F7273204C74642E204D43554B
:100150002D380000000000240027002A002D003068
:1001600000040802011040804010204080408008B8
:100170000204018040201002011080102040402025
:10018000040404040403040502020202040302023C
:100190000202060606060606040402020204040021
:1001A000820C11241FBECFEFDAE0DEBFCDBF13E01B
:1001B000A0E0B1E0E6EDF4E302C005900D92A435B5
:1001C000B107D9F725E0A4E5B3E001C01D92A13342
:1001D000B207E1F710E0C1EDD0E004C02197FE01C5
:1001E0000E94F217C03DD107C9F70E94200D0C9460
:1001F000691A0C9400008CBD9DBD089590913D043A
:1002000080913C042FEF3FEF981748F4E92FF0E07E
:10021000E45EFB4F208130E09F5F90933D04C90175
:10022000089590913D0480913C042FEF3FEF981783
:1002300048F4E92FF0E0E45EFB4F208130E09F5F5F
:1002400090933D04C90108952FB7F89483E08093FB
:10025000E9009091E800892F807295FF04C0909189
:10026000F20080E4891B2FBF089583E08093E900AA
:100270008091F200882319F08AE38093E8000895C2
:10028000FC018091CB03882311F13FB7F89482E001
:100290008093E9002091F200822F90E01816190651
:1002A00014F481E090E0882339F0289A44E64093E2
:1002B000CA034091F1004083222339F02091F200DB
:1002C000211103C02BE62093E8003FBF08958FEF74
:1002D0009FEF08958091C20381110DC082E0809349
:1002E000BE0384E08093BF031092C1031092C00349
:1002F00081E08093C2038EEB93E008950895089502
:100300004091A4035091A5032091A2033091A3032F
:1003100042175307B4F49091E8009570E1F390917F
:10032000E80092FD19C08093F1008091A4039091A0
:10033000A50301968F739927892B19F48EEF80936B
:10034000E8008091A4039091A50301969093A503E2
:100350008093A40381E0089580E00895EF92FF92D6
:100360000F931F93CF93DF93F82E192FE62E042FB0
:1003700081E0860F880F0E94800183E00E94800147
:10038000CF2DD12FEC0EFD2EF11CCE15DF05B9F0CF
:1003900007FF13C0FE0184910E948001182F80E0A6
:1003A0000E948001812321968111EFCFDF91CF91AF
:1003B0001F910F91FF90EF9008958881EDCF81E01C
:1003C000F5CFDF92EF92FF920F931F93CF93DF93BE
:1003D000D82E8A01EB017B01E40EF51ECE15DF0558
:1003E00059F0D7FE12C0FE0184910E94800121962F
:1003F0008111F4CF0FEF1FEFC801DF91CF911F9153
:100400000F91FF90EF90DF9008958881EECF0F93CA
:100410001F93CF93DF931F92CDB7DEB782E089831E
:1004200042E450E069ED70E080E80E94E1010E9442
:100430006A01DC0112960D911C910115110589F0DC
:10044000D801ED91FC910280F381E02DBE016F5F38
:100450007F4FC801099597FD04C0F80100851185FB
:10046000ECCF89810F90DF91CF911F910F9108956B
:10047000615030F02091F100FC0120830196F8CF0B
:10048000289A84E68093CA030895CF93DF931F923E
:10049000CDB7DEB76983DC01ED91FC910280F38179
:1004A000E02D41E050E0BE016F5F7F4F09950F9056
:1004B000DF91CF9108950C9435010E94240190E0C2
:1004C0000895CF93DF931F92CDB7DEB7FC018485EB
:1004D000958597FD08C02FEF3FEF358724870F9054
:1004E000DF91CF910895CE0101960E9440010197BE
:1004F00019F4898190E0F3CF8FEF9FEFF0CF0F9346
:100500001F93CF93DF931F92CDB7DEB78C01FC0111
:100510008485958597FF0BC0CE0101960E9440010E
:10052000019771F4898190E0F80195878487F8013B
:10053000848595850F90DF91CF911F910F9108953C
:100540008FEF9FEFF1CFFC018485958597FD0BC060
:100550009FB7F89482E08093E9008091F2009FBFFA
:1005600090E0019608959FB7F89482E08093E900A7
:100570008091F2009FBF90E00895282F30E0F901AC
:10058000E654FF4F9491F901EF59FE4F84912058A2
:100590003E4FF9012491222309F430C09923E9F058
:1005A00091509F30D0F4E92FF0E0E752FD4F0C94CA
:1005B000F21707030B03E802FF020303ED02ED024B
:1005C000ED020E03140318031C032203ED0226039D
:1005D000909180009F7790938000E22FF0E0EE0FE3
:1005E000FF1FE455FF4FA591B4919FB7F894EC918C
:1005F000611132C080958E238C939FBF0895909196
:1006000080009F7DE8CF90918000977FE4CF94B5E4
:100610009F7794BDE2CF94B59F7DFBCF90919000E2
:100620009F7790939000D9CF909190009F7DF9CFC4
:1006300090919000977FF5CF9091C0009F77909315
:10064000C000CBCF9091C0009F7DF9CF9091C200A8
:10065000977F9093C200C1CF8E2BCECFCF93DF93E5
:1006600090E0FC01EF59FE4F249180589E4FFC0111
:1006700084918823D1F090E0880F991FFC01ED5AF6
:10068000FE4FA591B491FC01E455FF4FC591D49163
:10069000623071F49FB7F8943C91822F8095832348
:1006A0008C93E8812E2B28839FBFDF91CF910895F3
:1006B0008FB7F894EC912E2B2C938FBFF6CF089523
:1006C0003FB7F89480919E0390919F03A091A0035F
:1006D000B091A10326B5A89B05C02F3F19F0019644
:1006E000A11DB11D3FBFBA2FA92F982F8827BC018C
:1006F000CD01620F711D811D911D42E0660F771FB4
:10070000881F991F4A95D1F708958F929F92AF92B3
:10071000BF92CF92DF92EF92FF924B015C010E9459
:1007200060036B017C010E9460036C197D098E09D6
:100730009F09683E734081059105A8F321E0821A64
:100740009108A108B10888EEC80E83E0D81EE11C0C
:10075000F11C81149104A104B10429F7FF90EF90DA
:10076000DF90CF90BF90AF909F908F9008958F9221
:100770009F92AF92BF92CF92DF92EF92FF920F9330
:100780001F93CF93DF936C017B018A0180910D0150
:10079000882309F45CC08091CB03882309F457C0F7
:1007A0008091A80380FF05C08091E0008260809363
:1007B000E000E801B12C8AEFA82E93E0892E2AE30D
:1007C000922E209711F4BB20D9F10E9424018111AF
:1007D0000AC0AA94AA20D9F161E070E080E090E01C
:1007E0000E948503EECF8C171D0611F00CF08C2FA4
:1007F0009FB7F8948092E9002091E80025FD02C09F
:100800009FBFDFCF282F30E0C21BD30BF7018150F1
:1008100020F041914093F100FACFE20EF31EBB208D
:1008200021F09092E800B12CEBCF8091E80085FD9B
:10083000E7CF9092E800BB24B394209709F3F3CF5D
:100840005D9A84E68093A703101611063CF081E0C0
:1008500090E0F6019383828310E000E0C801DF910D
:10086000CF911F910F91FF90EF90DF90CF90BF90AD
:10087000AF909F908F9008952FB7F89460919A034E
:1008800070919B0380919C0390919D032FBF0895CD
:1008900020917603260F3327331F21323105ECF4E4
:1008A0002091F203FC0190E080E0243069F082E0C6
:1008B0000895A09176032191AC014A5A5C4FA40F90
:1008C000B52FB11D2C930196861798F3809176036E
:1008D000680F6093760380E0089581E00895109298
:1008E000F20381E08093F1031092CC0361E082E097
:1008F0000E94BD0261E083E00E94BD02E9EBF0E0EE
:1009000080818E7F808380818D7F808388E4809347
:10091000B80085E48093BC000895CF93DF9391E005
:10092000909355038823B9F0C091B800D091BA00D4
:100930008091BC008A7B8093BC0060E082E00E94D2
:10094000BD0260E083E00E94BD020E946F04D0936C
:10095000BA00C093B800DF91CF9108958F929F9213
:10096000AF92BF92CF92DF92EF92FF920F931F93BD
:10097000CF93DF93D0911B04D13208F0D7C0182F4A
:10098000C0911A040E9460036B017C018091F20304
:1009900081116BC082E08093F2031093F1038FEF1B
:1009A0008093F0031092EF03D093EE03AAEFB3E02D
:1009B000EEECF3E080E0D81391C01092CD0380916B
:1009C000CD03CC0FC82BC093CD038091CC038130D5
:1009D00009F088C01092CC030E9460036B017C0177
:1009E0008091CD038093BB008091F4039091F50337
:1009F000A091F603B091F703892B8A2B8B2BA1F0E2
:100A00000E9460030091F4031091F5032091F60316
:100A10003091F7036C197D098E099F090617170796
:100A20002807390708F442C08091BC0083FDD8CF65
:100A300085EC8093BC000E9460036B017C01809177
:100A4000F203823009F450C08091F0038F3F09F423
:100A50006FC08091F003803209F46CC08091F00384
:100A6000803309F469C084E026C08091F40390913A
:100A7000F503A091F603B091F703892B8A2B8B2BFA
:100A800009F484CF0E9460038090F4039090F503F2
:100A9000A090F603B090F7036C197D098E099F09A9
:100AA00086169706A806B90608F070CF8091F30362
:100AB0000E948D0485E01092F90310921B0410929D
:100AC000F803DF91CF911F910F91FF90EF90DF908E
:100AD000CF90BF90AF909F908F9008959D919193EC
:100AE0008F5F69CF85EEA5CF8091F4039091F503D8
:100AF000A091F603B091F703892B8A2B8B2B09F475
:100B00009ECF0E9460030091F4031091F5032091A1
:100B1000F6033091F7036C197D098E099F090617BA
:100B200017072807390708F08ACFC0CF81E0C3CF65
:100B300080E0C1CF82E0BFCF83E0BDCF0895E091D8
:100B40003D0480913C04E81730F4F0E0E45EFB4F94
:100B5000808190E008958FEF9FEF089580913C048D
:100B600090913D04891B990B0895CF92DF92EF92EB
:100B7000FF920F931F93CF93DF937C01CB018A01E8
:100B80002091F803222389F0EB016B01C40ED51EDE
:100B9000CC15DD0569F06991D701ED91FC910190CB
:100BA000F081E02DC7010995F3CF642F0E9448041E
:100BB000C801DF91CF911F910F91FF90EF90DF90CF
:100BC000CF900895CF93DF931F92CDB7DEB769839F
:100BD0002091F8032223F9F020911B04203258F0D1
:100BE00021E030E0FC013383228390E080E00F902D
:100BF000DF91CF9108958091F903E82FF0E0E6505E
:100C0000FC4F998190838F5F8093F90380931B043D
:100C100081E090E0ECCF61E0CE0101960E944804B3
:100C2000F7CF682F8EE894E00C94E20590E080E026
:100C3000089581E08093B303089508958EBD000068
:100C40000DB407FEFDCF8EB508958F929F92AF929F
:100C5000BF92CF92DF92EF92FF921F93CF93DF93D9
:100C6000D82F162F0E9460036B017C018091F20344
:100C7000811166C0C12F81E08093F2038093F1035C
:100C80009FEF9093F0031092EF03910F9093EE0378
:100C90008093CD038091CD03DD0FD82BD093CD036E
:100CA0008091CC03813009F082C01092CC030E9465
:100CB00060036B017C018091CD038093BB00809128
:100CC000F4039091F503A091F603B091F703892BFB
:100CD0008A2B8B2BA1F00E9460038090F4039090EC
:100CE000F503A090F603B090F7036C197D098E0907
:100CF0009F0986169706A806B90608F442C0809197
:100D0000BC0083FDD8CF85EC8093BC000E946003BB
:100D10006B017C018091F203813009F44AC080911B
:100D2000EF03811710F4C091EF03AEECB3E0ECE1F8
:100D3000F4E080E08C1751F19D9191938F5FFACF91
:100D40008091F4039091F503A091F603B091F7031D
:100D5000892B8A2B8B2B09F489CF0E94600380900A
:100D6000F4039090F503A090F603B090F7036C198C
:100D70007D098E099F0986169706A806B90608F010
:100D800075CF8091F3030E948D04C0E010923D0462
:100D9000C0933C048C2FDF91CF911F91FF90EF9077
:100DA000DF90CF90BF90AF909F908F90089585EE89
:100DB000ABCF8091F4039091F503A091F603B0912D
:100DC000F703892B8A2B8B2B09F4A4CF0E94600395
:100DD0008090F4039090F503A090F603B090F70391
:100DE0006C197D098E099F0986169706A806B90613
:100DF00008F090CFC6CF0F931F93CF93DF938C0152
:100E0000D0E0C0E0CE010E94D716F80181938F0197
:100E10002196C530D105B1F7DF91CF911F910F9188
:100E2000089585ED8093BC008091F4039091F503C3
:100E3000A091F603B091F7030796A11DB11D23E021
:100E4000B695A795979587952A95D1F72091BC00DF
:100E500024FD03C01092F20308954091F4035091D1
:100E6000F5036091F6037091F703452B462B472B52
:100E700069F30097A105B10541F02AE22A95F1F73F
:100E800000C00197A109B109E1CF8091F3030C944F
:100E90008D048F929F92AF92BF92CF92DF92EF928A
:100EA000FF920F931F93CF93DF9300D000D01F9238
:100EB000CDB7DEB78EE394E00E94A302892B09F43C
:100EC00044C08EE394E00E94610280349105E9F50C
:100ED0008EE394E00E9461028235910509F451C0CD
:100EE00024F58E34910509F4A1C08035910509F4EB
:100EF000A6C08434910549F51092540389E196E027
:100F0000909301018093000191E090936F00109203
:100F1000810010928500109284008091AD03806161
:100F2000809381009093BD0310C087359105B9F17E
:100F30002CF48335910549F40E94770C8436910591
:100F4000B1F08037910509F47EC00F900F900F909B
:100F50000F900F90DF91CF911F910F91FF90EF9025
:100F6000DF90CF90BF90AF909F908F900895109298
:100F70006F0080E1809381001092BD030E943501D3
:100F8000E4CFCE0101960E94FB0645E050E0BE0191
:100F90006F5F7F4F8EE394E00E94B703EFCFCE01E7
:100FA00001967C016E0196E0C90ED11C87010E945A
:100FB0003C046093460470934704809348049093E4
:100FC00049048EE394E00E94610297FF3FC00E94B3
:100FD0003C048090460490904704A0904804B09050
:100FE0004904681979098A099B0980904204909004
:100FF0004304A0904404B0904504681579058A051F
:101000009B05F8F210E000E0F701D1907F01C801E4
:101010000E94D716D81621F06D2DC8010E94DF1648
:101020000F5F1F4F0530110579F786CF8091AA0316
:101030009091AB039A83898342E050E0A8CF81E08E
:101040008093BC0382CF1092BC037FCFF8018193C1
:101050008F01EC15FD0509F0AACFD4CF1F920F9296
:101060000FB60F9211242F933F934F935F936F937B
:101070007F938F939F93AF93BF93CF93EF93FF9300
:10108000C091E1008091E100837F8093E100C3FF84
:101090000FC01092E90081E08093EB001092EC0009
:1010A00082E38093ED001092CB0388E08093F00000
:1010B000C2FF1AC00E9435018091A703882341F026
:1010C0008091A70381508093A703811101C05D988F
:1010D0008091CA03882341F08091CA038150809394
:1010E000CA03811101C02898C4FF23C08091E20087
:1010F0008E7E81608093E2008091E1008F7E8093FC
:10110000E1008091A8038E7E80618093A803FF9107
:10111000EF91CF91BF91AF919F918F917F916F91FF
:101120005F914F913F912F910F900FBE0F901F90A5
:101130001895C0FFECCF8091E2008E7E8061809395
:10114000E2008091E1008E7E8093E1008091A8030F
:101150008E7E8160DACF1F920F920FB60F9211240C
:10116000CF92DF92EF92FF920F931F932F933F93B3
:101170004F935F936F937F938F939F93AF93BF939F
:10118000EF93FF93CF93DF93CDB7DEB76C97DEBFBE
:10119000CDBF1092E9008091E80083FF25C068E090
:1011A000CE0145960E94380282EF8093E8008D8937
:1011B00087FF39C09091E80090FFFCCF982F907680
:1011C00009F034C19E894F89588D2F89F88C91116F
:1011D00031C0803861F58091A9038093F1001092AD
:1011E000F1008EEF8093E8006C960FB6F894DEBFA6
:1011F0000FBECDBFDF91CF91FF91EF91BF91AF9126
:101200009F918F917F916F915F914F913F912F911E
:101210001F910F91FF90EF90DF90CF900F900FBE36
:101220000F901F9018959EEF9093E800C7CF1092F3
:10123000F100D5CF913059F48111D3CF4130510510
:1012400081F68091A9038D7F8093A903CACF933043
:1012500049F48111C6CF4130510519F68091A90397
:101260008260F2CF953041F48091E80080FFFCCF9E
:1012700020682093E300B5CF963009F0A9C00B8D0C
:101280001C8D22E01092E9001092A5031092A40395
:10129000F2122EC01092A3031092A2030E94070222
:1012A0001F8299E09983FA8291E09E8390EA988761
:1012B0009AEF99872091A4033091A503275F3F4FB0
:1012C0003C832B838D831092E9001092A50310922A
:1012D000A4031093A3030093A20349E050E0BE01CE
:1012E0006F5F7F4F80E00E94E1010E94070279CF8B
:1012F0001093A3030093A2030E946A01DC011296DB
:101300000D911C910115110509F451C1D801ED9100
:10131000FC910480F581E02DBE016B5E7F4FC8011A
:101320000995009709F03EC1F80100851185EACFC3
:10133000F3E0FF120EC08F89882309F440C0823089
:1013400061F440E869E189E391E00E94AE01811116
:1013500048CF81E28093EB0047CF813029F440E809
:1013600067E081E391E0F1CF833099F70E946A0151
:10137000DC011296ED90FC908E010F5F1F4F68010B
:10138000E114F10479F0D701ED91FC910680F78129
:10139000E02DB801C7010995080F111DF701E08480
:1013A000F184EECFD8011C92F60101900020E9F7FC
:1013B0003197BF016C197D0940E0C601C6CF6BE1D2
:1013C00071E0FB01449150E080E80E94E10109CF07
:1013D000973009F4BECF983021F481E08093F1007A
:1013E00000CF993009F0FDCE837009F0B2CFE9E269
:1013F000F1E081E031E096E32191222371F08093C6
:10140000E9003093EB00DF0111972C912093EC0061
:101410009093ED008F5F873079F78EE78093EA0035
:101420001092EA008F898093CB03DBCE8B8D9C8D4D
:101430001092E9001092A5031092A4039093A303C5
:101440008093A203898D811192C08E899D89913AE2
:1014500049F4813209F07DCF47E050E066E071E069
:1014600080E0B3CF913209F074CF833269F48F8971
:10147000988DB0E0A0E08093020190930301A093C7
:101480000401B0930501ADCE803269F48091E8008B
:1014900082FFFCCF67E086E091E00E9438028BEF8C
:1014A0008093E8009ECE823209F09BCE8F89809394
:1014B0000D01EEEFFFE7859194918B3F9C4D51F12B
:1014C000E0E0F8E08091060190910701A091080109
:1014D000B0910901803B9440A105B105F1F48091E0
:1014E0000D0180FD1AC0EE3F8AE0F80789F587E715
:1014F00097E791838083809160008093A60388E1C1
:101500009BE00FB6F894A895809360000FBE90936F
:10151000600067CEEEEFFAE0D5CF8081918187370A
:10152000974709F05ECEA89580916000886180930E
:1015300060008091A60380936000EE3F2AE0F207EE
:1015400089F08091FE0A9091FF0A9183808349CEB1
:10155000808191818737980751F29093FF0A809399
:10156000FE0AC5CF1092FF0A1092FE0A3ACE0E94E0
:101570006A01DC0112960D911C910115110509F407
:10158000E8CED801ED91FC910190F081E02DBE01F3
:101590006B5E7F4FC8010995811123CEF80100854C
:1015A0001185EBCF181619060CF41BCED2CEF1E044
:1015B000FF12BECE6FE171E004CF1F920F920FB603
:1015C0000F9211242F933F938F939F93AF93BF93C9
:1015D00080919A0390919B03A0919C03B0919D03ED
:1015E0003091990323E0230F2D3758F50196A11D63
:1015F000B11D2093990380939A0390939B03A0932A
:101600009C03B0939D0380919E0390919F03A091B2
:10161000A003B091A1030196A11DB11D80939E036B
:1016200090939F03A093A003B093A103BF91AF91A8
:101630009F918F913F912F910F900FBE0F901F9010
:10164000189526E8230F0296A11DB11DD2CF1F9237
:101650000F920FB60F9211242F933F934F935F93E6
:101660006F937F938F939F93AF93BF93EF93FF936A
:101670008091B900887F803609F44AC0F0F588323D
:1016800009F4A7C018F5803109F49BC0B8F4882389
:1016900009F4F9C0883009F494C0FF91EF91BF912B
:1016A000AF919F918F917F916F915F914F913F91FA
:1016B0002F910F900FBE0F901F901895883109F44D
:1016C00088C0803251F78093F00314C0803409F44D
:1016D0009DC040F48033B9F38833F9F68093F0036A
:1016E00085ECB0C0803509F485C0883509F496C012
:1016F000883499F60E941107D0CF883909F48CC03C
:1017000038F5883729F050F4883611F0803729F6FB
:1017100083E08093F2031092980357C0883809F44D
:101720007BC0803919F0803809F0B7CF80919803D9
:10173000803208F071C0E091980381E08E0F8093B1
:1017400098038091BB00F0E0E858FC4F80833DC0D7
:10175000803B39F0E0F4803A09F479C0883A09F026
:101760009CCF84E08093F20310927703109276036B
:10177000E091B103F091B203099580917603811154
:101780000FC081E0809376031092560309C0803C1D
:1017900009F4A6CF883C09F4A3CF883B09F07DCF9C
:1017A000E091770381E08E0F80937703F0E0EA5AAF
:1017B000FC4F80818093BB009091770380917603EA
:1017C00029C08091CD038093BB0085EC8093BC0041
:1017D00064CF9091EF038091EE03981758F5E09154
:1017E000EF0381E08E0F8093EF03F0E0E253FC4FB4
:1017F0008081E9CFE091EF0381E08E0F8093EF03CA
:101800008091BB00F0E0E253FC4F80839091EF03A6
:101810008091EE039817C8F285E8D8CFE091EF03E6
:1018200081E08E0F8093EF038091BB00F0E0E253E4
:10183000FC4F80838091F10381115CCF81E0809324
:10184000CC0384EA8093BC001092F20326CF85EC8F
:101850008093BC001092F20380919803803230F4A0
:10186000E0919803F0E0E858FC4F108260919803F3
:1018700070E0E091AF03F091B00388E793E0099541
:10188000109298030ACF1092F00334CF1F920F9258
:101890000FB60F9211242F933F934F935F936F9343
:1018A0007F938F939F93AF93BF93EF93FF93E091B9
:1018B0000001F09101010995FF91EF91BF91AF9166
:1018C0009F918F917F916F915F914F913F912F9158
:1018D0000F900FBE0F901F9018951F920F920FB68A
:1018E0000F9211240F900FBE0F901F90189588E152
:1018F00098E00FB6F894A895809360000FBE90937F
:101900006000FFCFCF93DF93EEE3F4E01382128207
:1019100088EE93E0A0E0B0E084839583A683B7834C
:1019200023E333E0318320832FEF3FEF3587248794
:10193000EEE8F4E01382128284839583A683B78352
:1019400085E493E091838083CDEDD4E088E08883C3
:1019500090E199839EE09A838B831C821D8280E1B3
:10196000E4E1F1E0A3EEB4E001900D928A95E1F795
:1019700086EA9BE9A4E4B9E38E8B9F8BA88FB98F8D
:101980008A8F9B8FAC8FBD8F8E8F9F8FA8A3B9A39B
:101990008AA39BA3ACA3BDA38BE891E09FA38EA3D6
:1019A00099A788A79BA78AA79DA78CA781E88EA740
:1019B0008FA788AB89AB8BE88AAB8BAB8CAB8DAB3D
:1019C0001EAA8091240190912501A0912601B09139
:1019D00027018FAB98AFA9AFBAAF1092280580E06E
:1019E00094E2A4EFB5E48093290590932A05A0938F
:1019F0002B05B0932C05EAE9F4E087E790E09183AA
:101A0000808385E0828387EB838384EB84838CE00F
:101A1000858313AA14AA15AA16AA17AA10AE11AE86
:101A200012AE13AE14AE15AE16AE1092D9041092CB
:101A3000DA041092DB041092DC04DF91CF91089558
:101A4000CF93DF93CDB7DEB7E4970FB6F894DEBF40
:101A50000FBECDBF789484B5826084BD84B58160AB
:101A600084BD85B5826085BD85B5816085BD809169
:101A70006E00816080936E001092810080918100E1
:101A800082608093810080918100816080938100D9
:101A900080918000816080938000809191008260BD
:101AA000809391008091910081608093910080915A
:101AB00090008160809390008091C1008460809349
:101AC000C1008091C10082608093C1008091C100FB
:101AD00081608093C1008091C30081608093C300C6
:101AE0008091C00082608093C0008091C2008160BC
:101AF0008093C20080917A00846080937A00809104
:101B00007A00826080937A0080917A00816080936D
:101B10007A0080917A00806880937A001092CB03DB
:101B20001092A9031092A8038091D700816080933E
:101B3000D70080EA8093D80089B5806189BD89B5D6
:101B4000826089BD09B400FEFDCF61E070E080E0F5
:101B500090E00E9485038091D8008F7C8061809303
:101B6000D8008091E000807F8093E0008091E100C8
:101B70008E7E8093E1008DE08093E200559A209A5A
:101B80005D98289814BE0FB6F894A89580916000CF
:101B9000886180936000109260000FBE61E087E072
:101BA0000E942E0360E087E00E94BD0262E080E0B8
:101BB0000E942E0362E081E00E942E0362E081E138
:101BC0000E942E0362E08BE00E942E0362E08EE111
:101BD0000E942E0362E084E00E942E0362E08CE00B
:101BE0000E942E0362E086E00E942E0362E088E0FD
:101BF0000E942E0362E089E00E942E0362E08AE0E8
:101C00000E942E0362E085E00E942E0362E08DE0D8
:101C10000E942E036A98729A62E082E10E942E036B
:101C200062E083E10E942E0362E084E10E942E03C1
:101C300062E085E10E942E0362E086E10E942E03AD
:101C400062E087E10E942E0310927A008091640086
:101C50008160809364008FEF80937E0091E0909389
:101C60007F0080937D0080E980BF80916400806464
:101C70008093640080916500886080936500809106
:101C8000650080618093650080916500816080932C
:101C900065008FEF9FEF90934B0480934A04CE0131
:101CA00001960E94FB062C813D81DE011196AE015A
:101CB0004C5F5F4F8FEF9FEFED91E927F0E0EE0F64
:101CC000FF1FE15DFE4F60817181982F8827862775
:101CD00097274A175B0781F72817390709F040C78C
:101CE00081E08093AC0390E080E00E94D71680935F
:101CF000AA0381E090E00E94D7168093AB0382E0B4
:101D000090E00E94D71691E0811101C090E090937D
:101D1000BC0380E1809381001092800092E0909358
:101D2000AD0320E137E2309387002093860092E1F3
:101D3000909381008093810084E090E00E94441998
:101D4000FC01108211821282138284E0A4E1B5E0CA
:101D500001900D928A95E1F761E08091DD040E9487
:101D60002E0361E08091DD040E94BD021FB7F8944C
:101D70008091AE03811127C0E1E9F1E08491E2E7AF
:101D8000F1E09491E82FF0E0EE0FFF1FED5AFE4FC7
:101D9000A591B491EC91E92321F461E081E10E94E5
:101DA000BD0261E081E10E942E038CB580618CBD93
:101DB0008CB580648CBD61E08FE00E942E0361E0F1
:101DC00080E10E942E038091AE038F5F8093AE036B
:101DD0001FBF10923D0410923C040E946F048EE7D6
:101DE00091E09093B2038093B1038FE791E09093D9
:101DF000B0038093AF038CE08093B80080E593EC50
:101E0000A0E0B0E08093920490939304A093940494
:101E1000B093950480919A0411E01093F803809395
:101E20001A041092F90310921B0480EE90E00E94B5
:101E3000110686EB90E00E94110681E00E94AE043C
:101E400064E670E080E090E00E94850380919A044F
:101E50001093F80380931A041092F90310921B0454
:101E600082EF90E00E94110660919C048EE894E05D
:101E70000E94E20584EF90E00E94110660919E04AA
:101E80008EE894E00E94E20585EF90E00E94110642
:101E900060919F048EE894E00E94E20581E00E9438
:101EA000AE0464E670E080E090E00E9485038091DB
:101EB0009A041093F80380931A041092F903109275
:101EC0001B0488E890E00E94110680E00E94AE04A6
:101ED00069E170E080919A0490919B040E9425062C
:101EE0000E9411019093A5048093A4040E94110103
:101EF0001092A4048093A5040E9411019093A90458
:101F00008093A8040E94110120E0382F8091A8043A
:101F10009091A904282B392B3093A9042093A8046D
:101F20000E9411019093AB048093AA040E941101B6
:101F300020E0382F8091AA049091AB04282B392BF4
:101F40003093AB042093AA040E9411019093A7043C
:101F50008093A6040E94110120E0382F8091A604EE
:101F60009091A704282B392B3093A7042093A60423
:101F70000E9411019093AD048093AC040E94110162
:101F800020E0382F8091AC049091AD04282B392BA0
:101F90003093AD042093AC040E9411019093AF04E0
:101FA0008093AE040E94110120E0382F8091AE048E
:101FB0009091AF04282B392B3093AF042093AE04BB
:101FC0000E9411019093B1048093B0040E9411010A
:101FD00020E0382F8091B0049091B104282B392B48
:101FE0003093B1042093B0040E9411019093B30484
:101FF0008093B2040E94110120E0382F8091B20436
:102000009091B304282B392B3093B3042093B2045E
:102010000E9411019093B5048093B4040E941101B1
:1020200020E0382F8091B4049091B504282B392BEF
:102030003093B5042093B4040E9411019093B70427
:102040008093B6040E94110120E0382F8091B604DD
:102050009091B704282B392B3093B7042093B60402
:102060000E9411019093B9048093B8040E94110159
:1020700020E0382F8091B8049091B904282B392B97
:102080003093B9042093B8040E9411019093BB04CB
:102090008093BA040E94110120E0382F8091BA0485
:1020A0009091BB04282B392B3093BB042093BA04A6
:1020B0000E9411018093C20480919A041093F80346
:1020C00080931A041092F90310921B0481EE90E0A1
:1020D0000E94110680E00E94AE0467E070E08091EB
:1020E0009A0490919B040E9425060E9411019093EE
:1020F000BD048093BC040E94110120E0382F809120
:10210000BC049091BD04282B392B3093BD0420933F
:10211000BC040E9411018093C3040E94110124E0B9
:10212000880F991F2A95E1F79093BF048093BE040E
:102130000E941101AC014F7055272091BE043091CF
:10214000BF04242B352B3093BF042093BE0482950B
:102150008F7090E09093C1048093C0040E9411019D
:1021600034E0880F991F3A95E1F72091C00430912F
:10217000C104822B932B9093C1048093C0040E94CE
:1021800011018093C40480919A041093F803809302
:102190001A041092F90310921B0484EF90E00E943D
:1021A000110660919D048EE894E00E94E20581E0B2
:1021B0000E94AE0464E670E080E090E00E94850337
:1021C000769A7698F89483B7817F83BF83B78160CE
:1021D00083BF7894889583B78E7F83BF769A0E9459
:1021E0003C046B017C018091BD03811104C080918E
:1021F000BC0381116AC41092E1048091140580939C
:10220000280584E590E00E94FB0095B18091DE04F2
:102210008095892385B900000000E0912805F0E051
:10222000E352FB4F86A50E941E06E0912805F0E0D0
:10223000E352FB4F82A90E941E0685B19091DE04F5
:10224000892B85B96091290570912A0580912B050C
:1022500090912C050E94B3176230710548F0660F0B
:10226000771F660F771F65507109CB010197F1F752
:102270000E943C044B015C0184E590E00E94FB005D
:1022800085B12091DE04922F9095982395B9000096
:10229000000093B18091E004982309F078C4E091A4
:1022A0002805F0E0E352FB4F86A50E941E06B82EDB
:1022B000E0912805F0E0E352FB4F82A90E941E0640
:1022C00095B12091DE04922B95B90091280524E068
:1022D000029F8001112403521B4F7B2D682F072E74
:1022E000000C880B990B0E94DE15D80156962D9193
:1022F0003D914D915C9159970E941916F80163AF79
:1023000074AF85AF96AF8091B8039091B903A09157
:10231000BA03B091BB0397018601081B190B2A0B66
:102320003B0BD901C8010A97A105B10508F4B7C351
:10233000C092B803D092B903E092BA03F092BB0303
:1023400080919A0411E01093F80380931A0410927C
:10235000F90310921B0487EF90E00E94110680E0C1
:102360000E94AE0468E070E080919A0490919B0412
:102370000E9425060E9411018093C5040E9411014C
:102380008093C6040E9411018093C7040E9411012A
:102390008093C8040E9411018093C9040E94110116
:1023A0008093CA040E9411018093CB040E94110102
:1023B0008093CC040091C80410E030E020E0ACE051
:1023C000000F111F221F331FAA95D1F79091C90446
:1023D000492F50E070E060E0B4E0440F551F661FE5
:1023E000771FBA95D1F7042B152B262B372B40914D
:1023F000CA0450E070E060E094E0759567955795E9
:1024000047959A95D1F7402B512B622B732B209136
:10241000C50429A33091C6043FA79091C70498AB87
:102420002091CB0490E0B0E0A0E07C018D01F22A85
:10243000E9AAFAAA0BAB1CAB8091A4049091A50465
:10244000B0E0A0E06A017B0124E0F594E794D79422
:10245000C7942A95D1F7C81AD90AEA0AFB0A33E0C9
:1024600075956795579547953A95D1F7880F991FB8
:10247000AA1FBB1F9A01AB01281B390B4A0B5B0B30
:10248000A091A804B091A9040E94F8164B015C0128
:10249000FBE0B594A79497948794FA95D1F7A70198
:1024A0009601C701B6010E94E2179B01AC01ACE0A6
:1024B0005595479537952795AA95D1F7A091AA04E8
:1024C000B091AB040E94F816BEE09595879577957C
:1024D0006795BA95D1F795018401060F171F281F3C
:1024E000391F0A8B1B8B2C8B3D8B0093A004109300
:1024F000A1042093A2043093A304A5E0B0E0A901B5
:1025000098010E94ED1660587F4F8F4F9F4F672FA5
:10251000782F892F992787FD9A950E94DE152AE04A
:1025200037ED43E25CE30E9419166093CD0470938B
:10253000CE048093CF049093D004CA88DB88EC88C3
:10254000FD88FF0CCC08DC2C76012A893B894C895C
:102550005D896C2D7C2D8C2D9C2D345F4140510963
:1025600061097109810991092E8B3F8B488F598F21
:102570006A8F7B8F8C8F9D8F59016A017B018C0143
:102580000E94F8172E8F3F8F48A35AA76BA77CA7EE
:102590008DA79EA73091AD042091AC04932F990F85
:1025A000990B492F592F692F792F892F0E94F817DE
:1025B0000CE00E94F01819012A013B014C013091F6
:1025C000AF042091AE04932F990F990BAE8CBF8C62
:1025D000C8A0DAA4EBA4FCA40DA51EA5492F592F71
:1025E000692F792F892F0E94F81708E00E94091996
:1025F00051016201730184010E94261970588F4FA6
:102600009F4F2090A6043090A7045101C12CD12CDB
:10261000E12CF12C00E010E00E94F81701E20E948A
:1026200009192DA33EA34FA358A769A7272E382E1B
:10263000492EA0E00E94381909F4B9C219A1812FCE
:1026400090E0B0E0A0E09C01AD01FCE0220F331F60
:10265000441F551FFA95D1F729A33AA34BA35CA3B6
:102660003091B5042091B404932F990F990BAE8C3F
:10267000BF8CC8A0DAA4EBA4FCA40DA51EA5492F0D
:10268000592F692F792F892F0E94F8172E8F3F8F8E
:1026900048A3552E3B014C013091B3042091B20464
:1026A000932F990F990BAE88BF88C88CD98CEA8C70
:1026B000FB8C0C8D1D8D492F592F692F792F892F58
:1026C0000E94F81701E10E94F018AE8CBF8CC8A0E0
:1026D000D52C730184010E94261959016A017B01DE
:1026E000582E192F3FA5832F90E0B0E0A0E004E022
:1026F000880F991FAA1FBB1F0A95D1F7E8A94E2F73
:1027000050E070E060E024E0759567955795479537
:102710002A95D1F7842B952BA62BB72B29A13AA16B
:102720004BA15CA1822B932BA42BB52B20E030E096
:1027300040E150E0281B390B4A0B5B0BDA01C90161
:1027400039014A01990C6608762C43019C01AD01C0
:10275000662D762D862D962D0FE10E94F0183901F9
:102760004A01B62FA72FF82FE92F3091B1042091FD
:10277000B004932F990F990B492F592F692F792F57
:10278000892F03E20E94F018052D0E942619590195
:102790006A017B018C019301A4016B2F7A2F8F2F8B
:1027A0009E2F0E942F19E5E3AE2EFCE0BF2EC12C18
:1027B000D12CE12CF12C00E010E00E94F817ADA024
:1027C000BEA0CFA0D8A4E9A4F22C032D142D0E9402
:1027D00052182E8B3F8B488F598F6A8F7B8F8C8F2F
:1027E0009D8F0DE00E940919322E432E542E652E26
:1027F000762E872E982E292E3091BB042091BA0474
:10280000932F990F990BA32CB42CC52CD62CE72C05
:10281000F82C092D122D492F592F692F792F892F27
:102820000E94F8170E94F81709E10E940919AE8862
:10283000BF88C88CD98CEA8CFB8C0C8D1D8D0E94B6
:10284000261919012A013B014C013091B90420914C
:10285000B804932F990F990B492F592F692F792F6E
:10286000892F0E94F81703E10E94091959016A0192
:102870007B018C019101A201B301C4010E942619C0
:1028800008E00E94091959016A017B01E82F192FFC
:102890003091B7042091B604932F990F990B492FCB
:1028A000592F692F792F892F04E00E94F0180E2FDD
:1028B0000E94261959018A014A885B886C887D88A4
:1028C0003CE2531A31E0630A7108C9A8DAA8EBA800
:1028D000FCA83EE0CC0CDD1CEE1CFF1C3A95D1F7A9
:1028E0004091BE045091BF04052E000C660B770B7F
:1028F000E4E1440F551F661F771FEA95D1F7C41A0C
:10290000D50AE60AF70AA091C004B091C104A30158
:1029100092010E94F816C61AD70AE80AF90A40E49A
:10292000D40EE11CF11CFFE0F594E794D794C79412
:10293000FA95D1F7A091C304B0E0A3010E94ED166F
:10294000ABE09595879577956795AA95D1F79B010B
:10295000AC0130584F4F5F4F2A8B3B8B4C8B5D8BBC
:10296000A091C4040A2E000CBB0BA30192010E948B
:10297000F816BAE09595879577956795BA95D1F74A
:102980002A893B894C895D890E94E2179B01AC0131
:102990008AE055954795379527958A95D1F7405EFA
:1029A0005F4FA091BC04B091BD040E94F816705E08
:1029B0008F4F9F4F2EE095958795779567952A9530
:1029C000D1F7A70196010E94E2176B017C013FE05D
:1029D00095958795779567953A95D1F79B01AC01C9
:1029E0000E94E2179B01AC0167E05595479537952A
:1029F00027956A95D1F7A091C204B0E00E94ED1628
:102A0000E4E09595879577956795EA95D1F7C61A8D
:102A1000D70AE80AF90AF7FE03C0C12CD12C7601C7
:102A2000C701B60161307105810539E1930724F0D2
:102A300060E070E080E099E12CE0959587957795CE
:102A400067952A95D1F70E94DC1520E030E040E838
:102A50005AE30E9419166093D5047093D6048093AC
:102A6000D7049093D804B501C8010E94DC1520E07A
:102A700030E040E85BE30E9419162091D9043091C0
:102A8000DA044091DB045091DC040E944717609304
:102A9000D1047093D2048093D3049093D4042091F2
:102AA00018053091190540911A0550911B0560E0F9
:102AB00070E080EA90E40E9446176093B40370933C
:102AC000B5038093B6039093B7038091B303882333
:102AD000E9F11092B30383E289838091B40390916A
:102AE000B503A091B603B091B7038A839B83AC83EF
:102AF000BD838091D1049091D204A091D304B09170
:102B0000D4048E839F83A887B9878091CD04909148
:102B1000CE04A091CF04B091D0048A879B87AC8764
:102B2000BD878091D5049091D604A091D704B0912F
:102B3000D8048E879F87A88BB98B41E150E0BE01F6
:102B40006F5F7F4F8EE394E00E94B7030E944907B6
:102B500040E050E0452B09F434CB0E94000031CB1B
:102B60001092AC038091AC038111D3C80E94490735
:102B7000769A64E670E080E090E00E9485037698A3
:102B800064E670E080E090E00E948503EBCF85B1C1
:102B9000822B85B90E943C04681979098A099B092E
:102BA000693E73408105910508F466CBACCBA12C3E
:102BB000B12C00E010E080CEE89409C097FB3EF411
:102BC00090958095709561957F4F8F4F9F4F99237A
:102BD000A9F0F92F96E9BB279395F69587957795F8
:102BE0006795B795F111F8CFFAF4BB0F11F460FFB8
:102BF0001BC06F5F7F4F8F4F9F4F16C0882311F010
:102C000096E911C0772321F09EE8872F762F05C023
:102C1000662371F096E8862F70E060E02AF09A95BE
:102C2000660F771F881FDAF7880F9695879597F9B3
:102C300008950E942C160C949D160E948F1638F051
:102C40000E94961620F0952311F00C9486160C9491
:102C50008C1611240C94D1160E94AE1670F3959F19
:102C6000C1F3950F50E0551F629FF001729FBB2783
:102C7000F00DB11D639FAA27F00DB11DAA1F649F1F
:102C80006627B00DA11D661F829F2227B00DA11DD2
:102C9000621F739FB00DA11D621F839FA00D611D58
:102CA000221F749F3327A00D611D231F849F600D79
:102CB000211D822F762F6A2F11249F5750409AF0A2
:102CC000F1F088234AF0EE0FFF1FBB1F661F771F2E
:102CD000881F91505040A9F79E3F510580F00C94F9
:102CE00086160C94D1165F3FE4F3983ED4F3869594
:102CF00077956795B795F795E7959F5FC1F7FE2B99
:102D0000880F911D9695879597F9089597F99F6774
:102D100080E870E060E008959FEF80EC0895002463
:102D20000A941616170618060906089500240A9430
:102D300012161306140605060895092E0394000CB6
:102D400011F4882352F0BB0F40F4BF2B11F460FF45
:102D500004C06F5F7F4F8F4F9F4F089557FD90586E
:102D6000440F551F59F05F3F71F04795880F97FB4F
:102D7000991F61F09F3F79F0879508951216130609
:102D80001406551FF2CF4695F1DF08C01616170638
:102D90001806991FF1CF869571056105089408956D
:102DA000E894BB2766277727CB0197F90895F9990F
:102DB000FECF92BD81BDF89A992780B50895262F40
:102DC000F999FECF1FBA92BD81BD20BD0FB6F89410
:102DD000FA9AF99A0FBE019608950E943717A59F97
:102DE000900DB49F900DA49F800D911D1124089506
:102DF000B7FF0C94ED160E94ED16821B930B0895FD
:102E00002F923F924F925F926F927F928F929F92FA
:102E1000AF92BF92CF92DF92EF92FF920F931F93E8
:102E2000CF93DF93CDB7DEB7CA1BDB0B0FB6F89499
:102E3000DEBF0FBECDBF09942A88398848885F84D9
:102E40006E847D848C849B84AA84B984C884DF804A
:102E5000EE80FD800C811B81AA81B981CE0FD11D2E
:102E60000FB6F894DEBF0FBECDBFED010895A29F4F
:102E7000B001B39FC001A39F700D811D1124911D4E
:102E8000B29F700D811D1124911D08955058BB27CC
:102E9000AA270E945E170C949D160E948F1638F088
:102EA0000E94961620F039F49F3F19F426F40C94F2
:102EB0008C160EF4E095E7FB0C948616E92F0E9421
:102EC000AE1658F3BA17620773078407950720F008
:102ED00079F4A6F50C94D0160EF4E0950B2EBA2FCB
:102EE000A02D0B01B90190010C01CA01A001112410
:102EF000FF27591B99F0593F50F4503E68F11A16BC
:102F0000F040A22F232F342F4427585FF3CF46954C
:102F100037952795A795F0405395C9F77EF41F166E
:102F2000BA0B620B730B840BBAF09150A1F0FF0F38
:102F3000BB1F661F771F881FC2F70EC0BA0F621F24
:102F4000731F841F48F4879577956795B795F79514
:102F50009E3F08F0B0CF9395880F08F09927EE0FA9
:102F60009795879508950E94B61688F09F5798F018
:102F7000B92F9927B751B0F0E1F0660F771F881F7E
:102F8000991F1AF0BA95C9F714C0B13091F00E9498
:102F9000D016B1E008950C94D016672F782F8827AB
:102FA000B85F39F0B93FCCF3869577956795B395BF
:102FB000D9F73EF490958095709561957F4F8F4F2E
:102FC0009F4F0895DB018F939F930E94ED16BF9151
:102FD000AF91A29F800D911DA39F900DB29F900D68
:102FE00011240895EE0FFF1F0590F491E02D099430
:102FF000DF93CF931F930F939A9DF02D219FF00D98
:103000008B9DF00D8A9DE02DF10D039FF00D029F29
:10301000E00DF11D4E9DE00DF11D5E9DF00D4F9DEB
:10302000F00D7F936F93BF92AF925F934F93D50153
:103030000E9437178B01AC01D7010E943717EB01B3
:10304000E80FF91FD6010E9447182F913F91D60132
:103050000E943717C60FD71FE81FF91FAF91BF9106
:103060000E9447182F913F910E943717C60FD71F14
:10307000E81FF91FD6010E943717E60FF71F9801C6
:10308000BE01CF010F911F91CF91DF9108950E9452
:103090003717460F571FC81FD91F08F431960895D8
:1030A000689401C0E894F92FF12B12F00C94841865
:1030B000A0E0B0E0EEE5F8E10C940617092E0594C7
:1030C00022F40E94E018112392F4F0E80F26FFEF9B
:1030D000E094F09400951095B094C094D094A1948D
:1030E000BF0ACF0ADF0AEF0AFF0A0F0B1F0B0E946D
:1030F0008F1807FC0E94E018CDB7DEB7ECE00C9407
:103100002217689401C0E8948F929F92CF93DF9327
:103110000E948F18DF91CF919F908F9008958824FF
:103120009924F401E401B0E49F93AA279A158B0433
:103130009C04ED05FE05CF05D007A10798F4AD2F3F
:10314000DC2FCF2FFE2FE92D982C892E982F872F3B
:10315000762F652F542F432F322F2227B85031F767
:10316000BF9127C01B2EBF91BB27220F331F441FC7
:10317000551F661F771F881F991F881C991CEE1FFB
:10318000FF1FCC1FDD1FAA1FBB1F8A149B04EC0569
:10319000FD05CE05DF05A007B10748F08A189B089A
:1031A000EC09FD09CE09DF09A00BB10B21601A94CF
:1031B000E1F62EF49401AF01BE01CD01000C08959B
:1031C0006095709580959095309540955095219596
:1031D0003F4F4F4F5F4F6F4F7F4F8F4F9F4F089520
:1031E000002E083090F0982F872F762F652F542FC0
:1031F000432F322F22270850F4CF220F331F441FB2
:10320000551F661F771F881F991F0A95B2F7002D5B
:10321000089597FD1094002E083098F00850232F41
:10322000342F452F562F672F782F892F912DF4CFCC
:103230001594979587957795679557954795379501
:1032400027950A95AAF71124002D08952A0D3B1DF4
:103250004C1D5D1D6E1D7F1D801F911F08952A1935
:103260003B094C095D096E097F09800B910B08959C
:103270000024A7FD00942A1730054005500560057D
:1032800070058005900508950F931F93CF93DF93EA
:103290008230910510F482E090E0E0912F05F091EA
:1032A000300530E020E0B0E0A0E0309799F421153F
:1032B000310509F44AC0281B390B24303105D8F5F3
:1032C0008A819B816115710589F1FB01938382835A
:1032D000FE0111C0408151810281138148175907B5
:1032E000E0F04817590799F4109761F012960C9383
:1032F000129713961C933296CF01DF91CF911F91B5
:103300000F91089500932F0510933005F4CF2115E8
:10331000310551F04217530738F0A901DB019A013A
:10332000BD01DF01F801C1CFEF01F9CF9093300566
:1033300080932F05CDCFFE01E20FF31F8193919370
:103340002250310939832883D7CF20912D05309120
:103350002E05232B41F4209110013091110130935F
:103360002E0520932D0520910E0130910F0121157E
:10337000310541F42DB73EB7409112015091130130
:10338000241B350BE0912D05F0912E05E217F30774
:10339000A0F42E1B3F0B2817390778F0AC014E5FC5
:1033A0005F4F2417350748F04E0F5F1F50932E05CF
:1033B00040932D05819391939FCFF0E0E0E09CCF67
:1033C000CF93DF930097E9F0FC01329713821282CA
:1033D000A0912F05B0913005ED0130E020E010976D
:1033E000A1F420813181820F931F20912D0530910E
:1033F0002E052817390709F061C0F0932E05E093D8
:103400002D05DF91CF910895EA01CE17DF07E8F58A
:103410004A815B819E0141155105B1F7E901FB83AA
:10342000EA8349915991C40FD51FEC17FD0761F448
:10343000808191810296840F951FE9019983888389
:10344000828193819B838A83F0E0E0E012968D91E4
:103450009C9113970097B9F52D913C911197CD014F
:103460000296820F931F20912D0530912E0528176B
:10347000390739F6309751F51092300510922F0523
:10348000B0932E05A0932D05BCCFD383C28340817A
:103490005181840F951FC817D90761F44E5F5F4FA4
:1034A00088819981480F591F518340838A819B816C
:1034B000938382832115310509F0B0CFF093300555
:1034C000E0932F059ECFFD01DC01C0CF1382128255
:0634D000D7CFF894FFCFF6
:1034D6005F03FFFFFFFF00E10000000000000000A7
:1034E60031058000A69BC440A69BC440A69BC44051
:1034F600A69BC4400001020300C1808100000000B9
:10350600002110422063308440A550C660E7700851
:103516008129914AA16BB18CC1ADD1CEE1EFF131D8
:1035260012100273325222B5529442F772D66239A1
:103536009318837BB35AA3BDD39CC3FFF3DEE36228
:1035460024433420040114E664C774A44485546AF1
:10355600A54BB528850995EEE5CFF5ACC58DD553B8
:1035660036722611163006D776F6669556B4465B41
:10357600B77AA719973887DFF7FEE79DD7BCC7C488
:1035860048E5588668A7784008611802282338CC91
:10359600C9EDD98EE9AFF9488969990AA92BB9F518
:1035A6005AD44AB77A966A711A500A333A122AFDE1
:1035B600DBDCCBBFFB9EEB799B588B3BBB1AABA6E8
:1035C6006C877CE44CC55C222C033C600C411CAE31
:1035D600ED8FFDECCDCDDD2AAD0BBD688D499D97F8
:1035E6007EB66ED55EF44E133E322E511E700E9F81
:1035F600FFBEEFDDDFFCCF1BBF3AAF599F788F8848
:1036060091A981CAB1EBA10CD12DC14EF16FE18018
:1036160010A100C230E3200450254046706760B90F
:10362600839893FBA3DAB33DC31CD37FE35EF3B168
:10363600029012F322D2323542145277625672EA5F
:10364600B5CBA5A89589856EF54FE52CD50DC5E2B8
:1036560034C324A01481046674476424540544DBEF
:10366600A7FAB79987B8975FE77EF71DC73CD7D308
:1036760026F2369106B01657667676154634564CBF
:10368600D96DC90EF92FE9C899E9898AB9ABA94458
:1036960058654806782768C018E1088238A3287D4F
:1036A600CB5CDB3FEB1EFBF98BD89BBBAB9ABB75A8
:1036B6004A545A376A167AF10AD01AB32A923A2E1F
:1036C600FD0FED6CDD4DCDAABD8BADE89DC98D26F8
:1036D6007C076C645C454CA23C832CE01CC10C1F2F
:1036E600EF3EFF5DCF7CDF9BAFBABFD98FF89F1748
:1036F6006E367E554E745E932EB23ED10EF01E008F
:103706000000004502B7035D025B02A30261027F6F
:103716000200000000E205B50516069E05AE05FE90
:04372600009F0500FB
:00000001FF
