:100000000C94E3000C940B010C940B010C940B0169
:100010000C940B010C940B010C940B010C940B0130
:100020000C940B010C940B010C94B9030C941D045B
:100030000C940B010C940B010C940B010C940B0110
:100040000C940B010C940B010C940B010C940B0100
:100050000C940B010C940B010C940B010C94BD0837
:100060000C940B010C948B060C9465060C940B01FC
:100070000C940B010C940B010C940B010C940B01D0
:100080000C940B010C940B010C940B010C940B01C0
:100090000C940B010C940B010C940B010C940B01B0
:1000A0000C940B010C940B010C940B01CD07D007A1
:1000B000BF07C307C707F107F107F107D407D80740
:1000C000DC07E207E607F107EC07080B0002020273
:1000D00001000904000001020200000524001001D3
:1000E0000524010101042402060524060001070578
:1000F000810310004009040100020A000000070506
:1001000002024000000705830240000004030904C6
:1001100012010002EF020140D80480EB000101024D
:1001200003015375727265792053656E736F727334
:10013000204C74642E00456C656374726935204CE4
:1001400074642E204D43552D38000000000024001B
:1001500027002A002D0030000000000025002800A4
:100160002B002E00310004040404040304050202E1
:100170000202040302020202060606060606040440
:1001800002020204040408020110408040102040D2
:10019000804080080204018040201002011080107D
:1001A000204040200000000200090F00000304016D
:1001B000000C000000000000000000000000000033
:1001C00000000000780B11241FBECFEFDAE0DEBF85
:1001D000CDBF22E0A8E3B1E001C01D92A734B20771
:1001E000E1F711E0A0E0B1E0E4EFF7E102C0059033
:1001F0000D92A833B107D9F710E0C3EED0E004C0E8
:100200002197FE010E94ED0BC23ED107C9F70E9463
:1002100007090C94F80B0C94000040913A0150919E
:100220003B01209138013091390142175307B4F452
:100230009091E8009570E1F39091E80092FD19C06B
:100240008093F10080913A0190913B0101968F7368
:100250009927892B19F48EEF8093E80080913A0159
:1002600090913B01019690933B0180933A0181E08C
:10027000089580E00895DF92EF92FF920F931F930D
:10028000CF93DF93D82EF92EE42E062F10E0C8016D
:100290000196880F0E940D0183E00E940D01CD2D73
:1002A000DF2D0C0F1D1FC017D10789F0E7FE03C01B
:1002B000FE01849101C088810E940D01F82E80E02A
:1002C0000E940D018F2121968111EDCF01C081E0A7
:1002D000DF91CF911F910F91FF90EF90DF900895E4
:1002E000DF92EF92FF920F931F93CF93DF93D82E5D
:1002F0008A017B01E40EF51EEB01CE15DF0571F0DE
:10030000D7FE03C0FE01849101C088810E940D01C7
:1003100021968111F2CF8FEF9FEF01C0C801DF91CD
:10032000CF911F910F91FF90EF90DF900895CF92A2
:10033000DF92EF92FF920F931F93CF93DF936C01A5
:100340007A018B01C0E0D0E0CE15DF0581F0D80145
:100350006D918D01D601ED91FC910190F081E02D20
:10036000C6010995892B11F02196EECF7E01C701B8
:10037000DF91CF911F910F91FF90EF90DF90CF9081
:100380000895FC01538D448D252F30E0842F90E09B
:10039000821B930B541710F0CF9608950197089580
:1003A000FC01918D828D981761F0828DDF01A80F7D
:1003B000B11D5D968C91928D9F5F9F73928F90E09F
:1003C00008958FEF9FEF0895FC01918D828D98170E
:1003D00031F0828DE80FF11D858D90E008958FEF4B
:1003E0009FEF0895FC01918D228D892F90E0805C14
:1003F0009F4F821B91098F739927089585E491E09F
:100400000E94F20121E0892B09F420E0822F089557
:10041000FC01848DDF01A80FB11DA35ABF4F2C91A1
:10042000848D90E001968F739927848FA689B78970
:100430002C93A089B1898C9182748C93938D848D37
:10044000981306C00288F389E02D80818F7D808318
:100450000895EF92FF920F931F93CF93DF93EC01D8
:1004600081E0888F9B8D8C8D981305C0E889F98970
:10047000808185FD26C0F62E0B8D10E00F5F1F4F8B
:100480000F731127E02E8C8DE8120CC00FB607FCFD
:10049000FACFE889F989808185FFF5CFCE010E94E6
:1004A0000802F1CF8B8DFE01E80FF11DE35AFF4FDB
:1004B000F0829FB7F8940B8FEA89FB898081806274
:1004C00009C09FB7F894EE89FF896083E889F989AC
:1004D0008081827480839FBF81E090E0DF91CF9123
:1004E0001F910F91FF90EF900895CF93DF93EC0150
:1004F000888D8823C9F0EA89FB89808185FD05C044
:10050000A889B9898C9186FD0FC00FB607FCF5CF7D
:10051000808185FFF2CFA889B9898C9185FFEDCFC5
:10052000CE010E940802E7CFDF91CF91089580E0CD
:1005300090E0892B29F00E94FE0181110C940000AB
:100540000895CF93DF931F92CDB7DEB76983DC01A7
:10055000ED91FC910280F381E02D41E050E0BE017D
:100560006F5F7F4F09950F90DF91CF910895FC0148
:100570008485958597FD0BC09FB7F89482E08093A2
:10058000E9008091F2009FBF90E0019608959FB727
:10059000F89482E08093E9008091F2009FBF90E0A0
:1005A0000895089580E090E0089580913F018823A8
:1005B00019F0469810923F01089590913F019817C5
:1005C00019F0469A80933F0108950C942C080E94DC
:1005D000F30B0F931F93CF93DF931F92CDB7DEB72B
:1005E00082E0898342E450E06AEC70E080E80E9497
:1005F00070010E946D08DC0112960D911C911397F9
:100600000115110589F0D801ED91FC910280F3816B
:10061000E02DBE016F5F7F4FC801099597FD04C0B3
:10062000F80100851185ECCF89810F90DF91CF9182
:100630001F910F9108958F929F92AF92BF92CF9288
:10064000DF92EF92FF920F931F93CF93DF936C0192
:100650007B018A0180910B01882309F454C08091A9
:100660004401882309F44FC080913D0180FF05C0FB
:100670008091E00082608093E000E801B12C8AEF75
:10068000A82E93E0892E2AE3922E209711F4BB2006
:10069000B9F10E940108811106C0AA94AA2099F11B
:1006A0000E941208F2CF282F30E0C217D3070CF4B3
:1006B0008C2F9FB7F8948092E9002091E80025FFE5
:1006C0001DC0282F30E0C21BD30BF701815020F052
:1006D00041914093F100FACFE20EF31EBB2019F0D6
:1006E0009092E8000AC08091E80085FD07C09092D2
:1006F000E800BB24B394209709F0B12C9FBFC5CF6D
:100700001016110644F081E090E0F6019383828395
:1007100080E090E001C0C801DF91CF911F910F915F
:10072000FF90EF90DF90CF90BF90AF909F908F9011
:1007300008950E94010890E00895FC018485958544
:1007400097FD05C02FEF3FEF3587248708950C9460
:100750003708CF93DF93EC018C859D8597FF04C00C
:100760000E9437089D878C878C859D85DF91CF916E
:1007700008951F920F920FB60F9211242F933F935B
:100780004F935F936F937F938F939F93AF93BF9399
:10079000CF93EF93FF93C091E1008091E100837FBD
:1007A0008093E100C3FF0FC01092E90081E08093C5
:1007B000EB001092EC0082E38093ED001092440174
:1007C00088E08093F000C2FD0E942C08C4FF10C096
:1007D0008091E2008E7E81608093E2008091E10052
:1007E0008F7E8093E10080913D018E7E806111C0FB
:1007F000C0FF11C08091E2008E7E80618093E20094
:100800008091E1008E7E8093E10080913D018E7E9B
:10081000816080933D01FF91EF91CF91BF91AF91A6
:100820009F918F917F916F915F914F913F912F9108
:100830000F900FBE0F901F9018951F920F920FB63A
:100840000F921124CF92DF92EF92FF920F931F939A
:100850002F933F934F935F936F937F938F939F93C8
:10086000AF93BF93EF93FF93CF93DF93CDB7DEB7F3
:100870006C97DEBFCDBF1092E9008091E80083FF46
:1008800005C289E0FE017596EE2EDF2E815029F01B
:100890009091F10090833196F9CF82EF8093E80038
:1008A0008D8987FF05C09091E80090FFFCCF03C0C1
:1008B0009EEF9093E800982F907609F0C5C09E892E
:1008C0004F89588D2F89F88C91110CC0803829F4EC
:1008D00080913E018093F10002C01092F1001092CD
:1008E000F10048C1913051F4811144C141305105AA
:1008F00009F040C180913E018D7F0BC0933061F4BF
:10090000811138C14130510509F034C180913E0157
:10091000826080933E012EC1953049F48091E800B9
:1009200080FFFCCF822F80688093E30023C1963044
:1009300009F05DC00B8D1C8D22E01092E900109231
:100940003B0110923A01F21232C01092390110921A
:1009500038010E94E90299E0BE016F5F7F4FDB0121
:10096000E92F1D92EA95E9F79983FA8291E09E8337
:1009700090EA98879AEF998720913A0130913B014C
:10098000275F3F4F3C832B838D831092E9001092A9
:100990003B0110923A01109339010093380149E06C
:1009A00050E080E00E9470010E94E902E3C01093D1
:1009B0003901009338010E946D08DC0112960D91F7
:1009C0001C9113970115110509F4BEC0D801ED91D2
:1009D000FC910480F581E02D6E2D7D2DC8010995D7
:1009E000009709F0CBC0F80100851185EBCF973057
:1009F00009F449C1983021F481E08093F100BAC034
:100A0000993009F0B7C0837009F03DC1EDE0F1E025
:100A100081E031E096E32081211109C08EE78093C7
:100A2000EA001092EA008F8980934401A3C080936A
:100A3000E9003093EB0021912093EC009093ED00BE
:100A40008F5F873041F7EACF8B8D9C8D1092E90044
:100A500010923B0110923A01909339018093380132
:100A6000898D811158C08E899D89913A49F48132CE
:100A700009F009C147E050E064E071E080E0BFC0E8
:100A8000913209F000C1833269F48F89988DA0E01A
:100A9000B0E08093000190930101A0930201B09314
:100AA000030168C0803291F48091E80082FFFCCF9E
:100AB00088E0E4E0F1E0815029F09091F10090832A
:100AC0003196F9CF8BEF8093E80054C0823209F061
:100AD00051C08F8980930B01EEEFFFE785919491D0
:100AE0008B3F9C4D19F0E0E0F8E002C0EEEFFAE039
:100AF0008091040190910501A0910601B091070138
:100B0000803B9440A105B10509F09DC080910B0187
:100B100080FF78C098C00E946D08FC01028113819B
:100B20000115110509F4AFC0D801ED91FC910190B8
:100B3000F081E02D6E2D7D2DC801099581111AC01F
:100B4000F80100851185ECCFF1E0FF1609F44EC0E5
:100B5000F3E0FF1298C08F89882309F44AC08230DD
:100B600089F440E863E186E391E00E943B01882339
:100B700009F489C08EEF8093E80088C01816190622
:100B8000CCF381C0813029F440E863E182E291E056
:100B9000ECCF833009F077C00E946D08DC0112961B
:100BA000ED90FC9013978E010F5F1F4F6801E114C9
:100BB000F10479F0D701ED91FC910680F781E02DE9
:100BC000B801C7010995080F111DF701E084F184F0
:100BD000EECFD8011C92F60101900020E9F7319781
:100BE000BF016C197D0940E0C601BFCF60E171E033
:100BF00002C06CE071E0FB01449150E080E80E948B
:100C00007001B8CFEE3F2AE0F20751F08081918168
:100C10008737A7E79A0721F09093FF0A8093FE0A8F
:100C200087E797E7918380838091600080933C0100
:100C30009BE088E10FB6F894A895809360000FBE02
:100C40009093600097CF808191818737974709F013
:100C500091CFA89580916000886180936000809119
:100C60003C0180936000EE3FBAE0FB0739F08091D1
:100C7000FE0A9091FF0A918380837CCF1092FF0A35
:100C80001092FE0A77CF81E28093EB006C960FB64C
:100C9000F894DEBF0FBECDBFDF91CF91FF91EF91F2
:100CA000BF91AF919F918F917F916F915F914F9184
:100CB0003F912F911F910F91FF90EF90DF90CF9078
:100CC0000F900FBE0F901F9018951F920F920FB6A6
:100CD0000F9211242F933F934F935F936F937F93C2
:100CE0008F939F93AF93BF93EF93FF9385E491E02E
:100CF0000E940802FF91EF91BF91AF919F918F9158
:100D00007F916F915F914F913F912F910F900FBE07
:100D10000F901F9018951F920F920FB60F921124EB
:100D20002F938F939F93EF93FF93E0915501F09151
:100D300056018081E0915B01F0915C0182FD12C05F
:100D4000908180915E018F5F8F7320915F01821788
:100D500051F0E0915E01F0E0EB5BFE4F958F8093E8
:100D60005E0101C08081FF91EF919F918F912F9142
:100D70000F900FBE0F901F9018953FB7F894809179
:100D8000330290913402A0913502B091360226B51B
:100D9000A89B05C02F3F19F00196A11DB11D3FBFB3
:100DA000BA2FA92F982F8827820F911DA11DB11D41
:100DB000BC01CD0142E0660F771F881F991F4A953D
:100DC000D1F70895EF92FF920F931F93CF93DF9384
:100DD000EC017B0100E010E02FB7F8948091430212
:100DE00090914402A0914502B09146022FBF88879E
:100DF0009987AA87BB87E881F9810284F385E02D72
:100E0000CE01099597FF1DC02FB7F894809143023A
:100E100090914402A0914502B09146022FBF4885AF
:100E200059856A857B85841B950BA60BB70B4C8176
:100E30005D816E817F8184179507A607B707D8F279
:100E400008C0F70181937F010F5F1F4F0C30110520
:100E500019F6C801DF91CF911F910F91FF90EF908C
:100E60000895CF92DF92EF92FF926B017C01E091A7
:100E70005501F091560182E08083C11481EED806BD
:100E8000E104F104B1F060E079E08DE390E0A701C6
:100E900096010E94CB0BDA01C9010197A109B109A2
:100EA000B695A795979587959C01211580E1380700
:100EB000B8F0E0915501F0915601108260E874E8B5
:100EC0008EE190E0A70196010E94CB0BDA01C901E7
:100ED0000197A109B109B695A795979587959C01AA
:100EE000E0915101F09152013083E0915301F09172
:100EF0005401208310925D01E0915901F0915A0153
:100F000086E08083E0915701F091580180818061F3
:100F10008083E0915701F09158018081886080833F
:100F2000E0915701F0915801808180688083E091C1
:100F30005701F091580180818F7D8083FF90EF9061
:100F4000DF90CF90089590E0FC01EC55FE4F449166
:100F5000FC01EB57FE4F2491FC01EA59FE4F8491AE
:100F6000882309F44DC04423E1F150E0FA013197A0
:100F7000EF30F105B0F5EA5AFF4F0C94ED0B90916C
:100F800080009F7707C0909180009F7D03C0909163
:100F90008000977F9093800024C094B59F7702C013
:100FA00094B59F7D94BD1DC0909190009F7707C020
:100FB000909190009F7D03C090919000977F9093B7
:100FC00090000FC09091C0009F7703C09091C00027
:100FD0009F7D9093C00005C09091C200977F909331
:100FE000C200E82FF0E0EE0FFF1FE85AFE4FA59178
:100FF000B4919FB7F8948C91209528232C939FBF90
:1010000008952FB7F89483E08093E9009091E80069
:10101000892F807295FF04C09091F20080E4891BB3
:101020002FBF0895CF92DF92EF92FF920E94BD06EC
:101030006B017C010E94BD06DC01CB018C199D096E
:10104000AE09BF09883E9340A105B10598F3FF9012
:10105000EF90DF90CF90089583E08093E900809136
:10106000F200882319F08AE38093E8000895CF9373
:10107000DF931F92CDB7DEB780914401811103C089
:101080008FEF9FEF26C03FB7F89482E08093E9008E
:101090008091F20090E01816190614F481E090E0B7
:1010A000282FFE013196215020F04091F10041930C
:1010B000FACF009721F02091F200222331F03FBFB8
:1010C0000197F1F6898190E004C02BE62093E800B7
:1010D000F6CF0F90DF91CF91089580913B0281115F
:1010E0000DC082E08093370284E080933802109232
:1010F0003A021092390281E080933B0287E392E04A
:101100000895CF93DF9390E0FC01EB57FE4F2491BD
:10111000FC01EA59FE4F8491882361F190E0880F29
:10112000991FFC01E65BFE4FC591D491FC01E85A82
:10113000FE4FA591B491611109C09FB7F8948881C1
:10114000209582238883EC912E230BC0623061F4BA
:101150009FB7F8948881322F309583238883EC9150
:101160002E2B2C939FBF06C08FB7F894E8812E2BAF
:1011700028838FBFDF91CF9108951F920F920FB6F2
:101180000F9211242F933F938F939F93AF93BF930D
:101190008091430290914402A0914502B091460291
:1011A0003091320223E0230F2D3720F40196A11D48
:1011B000B11D05C026E8230F0296A11DB11D209385
:1011C00032028093430290934402A0934502B0936D
:1011D00046028091330290913402A0913502B09181
:1011E00036020196A11DB11D809333029093340203
:1011F000A0933502B0933602BF91AF919F918F912A
:101200003F912F910F900FBE0F901F901895CF9385
:10121000DF93CDB7DEB764970FB6F894DEBF0FBE8D
:10122000CDBF789484B5826084BD84B5816084BD6F
:1012300085B5826085BD85B5816085BD80916E0074
:10124000816080936E0010928100809181008260A5
:1012500080938100809181008160809381008091E2
:1012600080008160809380008091910082608093F3
:101270009100809191008160809391008091900015
:101280008160809390008091C10084608093C10050
:101290008091C10082608093C1008091C100816013
:1012A0008093C1008091C30081608093C3008091CE
:1012B000C00082608093C0008091C20081608093F2
:1012C000C20080917A00846080937A0080917A00D5
:1012D000826080937A0080917A00816080937A00A6
:1012E00080917A00806880937A0010924401109275
:1012F0003E0110923D018091D70081608093D7001C
:1013000080EA8093D80089B5806189BD89B5826003
:1013100089BD09B400FEFDCF0E9412088091D8005B
:101320008F7C80618093D8008091E000807F8093E3
:10133000E0008091E1008E7E8093E1008DE080935B
:10134000E20061E08EE10E9481088EE10E94A30725
:1013500061E087E00E94810887E00E94A30761E0C6
:1013600085E00E94810885E00E94A30762E082E197
:101370000E94810862E083E10E94810862E084E1CA
:101380000E94810862E085E10E94810862E086E1B6
:101390000E94810862E087E10E94810862E082E0A9
:1013A0000E94810862E083E00E94810862E084E09C
:1013B0000E94810862E086E00E94810862E088E085
:1013C0000E94810862E089E00E94810862E08AE070
:1013D0000E94810862E08BE00E94810862E08CE05C
:1013E0000E94810862E08DE00E94810862E081E154
:1013F0000E9481088FEF9FEF9093EF018093EE01A1
:1014000080E4E82E81E0F82E00E010E0C8010E94A0
:10141000B50BF70181937F010F5F1F4F043011055A
:10142000A9F7609140017091410180914201909132
:1014300043010E94310710927A008091640081601C
:10144000809364008FEF80937E0091E090937F0003
:1014500080937D0080E980BF8091640084608093E8
:1014600064008091640080688093640080916400CF
:10147000806280936400809164008860809364003F
:10148000809164008064809364008091650088602E
:101490008093650080916500806180936500769AF5
:1014A0007E01FBE0EF0EF11CF89483B7817F83BFD0
:1014B00083B7816083BF7894889583B78E7F83BF1D
:1014C00082EE91E00E94B7028C3008F4CEC08034E6
:1014D00018F081E00E94DD0282EE91E00E94A903F3
:1014E0008034F9F4BE016F5F7F4F82EE91E00E947D
:1014F000E206FE01319680E09191890FEE16FF061B
:10150000D9F78B875D9A4CE050E0BE016F5F7F4F4B
:1015100085E491E00E94970185E491E00E947502C4
:1015200045C0813209F09AC0BE016F5F7F4F82EEE5
:1015300091E00E94E2068A818435B1F190F4823410
:10154000B9F1853469F18F3309F08FC060913F01A3
:1015500082EE91E00E94A1020E942C080E94D50216
:1015600084C08536F9F0843709F1823609F07DC0F0
:101570008091400190914101A0914201B0914301BD
:10158000898B9A8BAB8BBC8B44E050E0BE016F5EC5
:101590007F4F82EE91E00E941B030E942C0865C0E1
:1015A000469A63C0469861C05D9A5FC05D985DC011
:1015B0008B819C81AD81BE818D879E87AF87B88BE3
:1015C0008093400190934101A0934201B093430165
:1015D0006E018DE0C80ED11C00E010E0F601B19064
:1015E0006F01C8010E94B50BB81621F06B2DC80120
:1015F0000E94BD0B0F5F1F4F0430110579F785E482
:1016000091E00E947502E0915701F09158018081AC
:101610008F7E8083E0915701F09158018081877F10
:101620008083E0915701F091580180818F7780830A
:10163000E0915701F091580180818F7D80838091E6
:101640005F0180935E016091400170914101809142
:101650004201909143010E94310707C082EE91E060
:101660000E949D0383E00E94DD0285E491E00E94D8
:10167000F2018C30D0F1803418F081E00E94DD025C
:1016800085E491E00E94E4018034910539F5BE01C2
:101690006F5F7F4F85E491E00E94E2068B818111AC
:1016A00024C09B85FE0131962191820FEE15FF0526
:1016B000D9F7981304C01B860E94D50205C081E0AB
:1016C0008B8782E00E94DD024CE050E0BE016F5F3C
:1016D0007F4F82EE91E00E941B0307C085E491E0FA
:1016E0000E94D00183E00E94DD020E949702DCCEBE
:1016F000E5E4F1E01382128288EE93E0A0E0B0E02E
:1017000084839583A683B78327E131E031832083E7
:101710002DEC30E0358724872CEC30E037872687A6
:1017200028EC30E0318B208B29EC30E0338B228B9E
:101730002AEC30E0358B248B2EEC30E0378B268B77
:10174000118E128E138E148EE2EEF1E0138212824D
:1017500084839583A683B78389E291E09183808314
:101760008FEF9FEF958784870895F999FECF92BDFB
:1017700081BDF89A992780B50895262FF999FECF53
:101780001FBA92BD81BD20BD0FB6F894FA9AF99A9E
:101790000FBE01960895A1E21A2EAA1BBB1BFD01E4
:1017A0000DC0AA1FBB1FEE1FFF1FA217B307E40740
:1017B000F50720F0A21BB30BE40BF50B661F771F98
:1017C000881F991F1A9469F7609570958095909578
:1017D0009B01AC01BD01CF010895EE0FFF1F0590E5
:1017E000F491E02D099481E090E0F8940C94F80BCA
:0417F000F894FFCF9B
:1017F400FFFFFFFF00E100000000000000C1808146
:101804000000000000000029029701C1017502F2E6
:1018140001D001E40100000000A1021B039903E5CB
:0818240002B7029D03A90300B5
:00000001FF
