:100000000C94E3000C940B010C940B010C940B0169
:100010000C940B010C940B010C940B010C940B0130
:100020000C940B010C940B010C946D050C94C405FD
:100030000C940B010C940B010C940B010C940B0110
:100040000C940B010C940B010C940B010C940B0100
:100050000C940B010C940B010C940B010C942305D4
:100060000C940B010C9432080C940C080C940B01AA
:100070000C940B010C940B010C940B010C940B01D0
:100080000C940B010C940B010C940B010C940B01C0
:100090000C940B010C940B010C940B010C940B01B0
:1000A0000C940B010C940B010C940B0137013A01D9
:1000B00029012D0131015B015B015B013E01420120
:1000C00046014C0150015B015601080B000202027F
:1000D00001000904000001020200000524001001D3
:1000E0000524010101042402060524060001070578
:1000F000810310004009040100020A000000070506
:1001000002024000000705830240000004030904C6
:1001100012010002EF020140D80480EB000101024D
:1001200003015375727265792053656E736F727334
:10013000204C74642E00456C656374726935204CE4
:1001400074642E204D43552D38000000000024001B
:1001500027002A002D0030000000000025002800A4
:100160002B002E00310004040404040304050202E1
:100170000202040302020202060606060606040440
:1001800002020204040408020110408040102040D2
:10019000804080080204018040201002011080107D
:1001A000204040200000000200090F00000304016D
:1001B000000C000000000000000000000000000033
:1001C00000000000640811241FBECFEFDAE0DEBF9C
:1001D000CDBF22E0A8E3B1E001C01D92A234B20776
:1001E000E1F711E0A0E0B1E0ECE0F5E102C005903C
:1001F0000D92A833B107D9F710E0C3EED0E004C0E8
:100200002197FE010E94790AC23ED107C9F70E94D8
:10021000A1080C94840A0C94000090E0FC01EC55B9
:10022000FE4F4491FC01EB57FE4F2491FC01EA592B
:10023000FE4F8491882309F44DC04423E1F150E03E
:10024000FA013197EF30F105B0F5EA5AFF4F0C94FF
:10025000790A909180009F7707C0909180009F7DE0
:1002600003C090918000977F9093800024C094B544
:100270009F7702C094B59F7D94BD1DC09091900062
:100280009F7707C0909190009F7D03C09091900050
:10029000977F909390000FC09091C0009F7703C00C
:1002A0009091C0009F7D9093C00005C09091C200C6
:1002B000977F9093C200E82FF0E0EE0FFF1FE85AFF
:1002C000FE4FA591B4919FB7F8948C912095282367
:1002D0002C939FBF08952FB7F89483E08093E90093
:1002E0009091E800892F807295FF04C09091F200F0
:1002F00080E4891B2FBF0895CF93DF931F92CDB762
:10030000DEB780915401811103C08FEF9FEF26C0AB
:100310003FB7F89482E08093E9008091F20090E08A
:100320001816190614F481E090E0282FFE0131968A
:10033000215020F04091F1004193FACF009721F035
:100340002091F200222331F03FBF0197F1F689811D
:1003500090E004C02BE62093E800F6CF0F90DF91E9
:10036000CF91089580914C0181110DC082E080935E
:10037000480184E08093490110924B0110924A0198
:1003800081E080934C0188E491E00895CF93DF935E
:1003900090E0FC01EB57FE4F2491FC01EA59FE4F1F
:1003A0008491882361F190E0880F991FFC01E65B3E
:1003B000FE4FC591D491FC01E85AFE4FA591B4912E
:1003C000611109C09FB7F8948881209582238883A2
:1003D000EC912E230BC0623061F49FB7F8948881B2
:1003E000322F309583238883EC912E2B2C939FBF43
:1003F00006C08FB7F894E8812E2B28838FBFDF913A
:10040000CF9108953FB7F8948091440190914501B0
:10041000A0914601B091470126B5A89B05C02F3F8A
:1004200019F00196A11DB11D3FBFBA2FA92F982F1A
:100430008827820F911DA11DB11DBC01CD0142E095
:10044000660F771F881F991F4A95D1F7089540912D
:100450003A0150913B012091380130913901421706
:100460005307B4F49091E8009570E1F39091E8009F
:1004700092FD19C08093F10080913A0190913B0167
:1004800001968F739927892B19F48EEF8093E800DA
:1004900080913A0190913B01019690933B018093AA
:1004A0003A0181E0089580E00895DF92EF92FF9293
:1004B0000F931F93CF93DF93D82EF92EE42E062FA0
:1004C00010E0C8010196880F0E94270283E00E9475
:1004D0002702CD2DDF2D0C0F1D1FC017D10789F06E
:1004E000E7FE03C0FE01849101C088810E942702BB
:1004F000F82E80E00E9427028F2121968111EDCFF6
:1005000001C081E0DF91CF911F910F91FF90EF909B
:10051000DF900895DF92EF92FF920F931F93CF9396
:10052000DF93D82E8A017B01E40EF51EEB01CE1578
:10053000DF0571F0D7FE03C0FE01849101C0888100
:100540000E94270221968111F2CF8FEF9FEF01C009
:10055000C801DF91CF911F910F91FF90EF90DF9035
:1005600008950F931F93CF93DF931F92CDB7DEB7FC
:1005700082E0898342E450E06AEC70E080E80E9407
:100580008A020E94B201DC0112960D911C91139710
:100590000115110589F0D801ED91FC910280F381DC
:1005A000E02DBE016F5F7F4FC801099597FD04C024
:1005B000F80100851185ECCF89810F90DF91CF91F3
:1005C0001F910F910895CF93DF93EC012FB7F8940B
:1005D0008091400190914101A0914201B09143016D
:1005E0002FBF88879987AA87BB87E881F981028412
:1005F000F385E02DCE01099597FF1EC02FB7F89423
:100600008091400190914101A0914201B09143013C
:100610002FBF488559856A857B85841B950BA60B62
:10062000B70B4C815D816E817F8184179507A6078A
:10063000B707D8F28FEF9FEFDF91CF910895CF9258
:10064000DF92EF92FF920F931F93CF93DF936C0192
:100650007A018B01C0E0D0E0CE15DF0581F0D80132
:100660006D918D01D601ED91FC910190F081E02D0D
:10067000C6010995892B11F02196EECF7E01C701A5
:10068000DF91CF911F910F91FF90EF90DF90CF906E
:100690000895FC01538D448D252F30E0842F90E088
:1006A000821B930B541710F0CF960895019708956D
:1006B000FC01918D828D981761F0828DDF01A80F6A
:1006C000B11D5D968C91928D9F5F9F73928F90E08C
:1006D00008958FEF9FEF0895FC01918D828D9817FB
:1006E00031F0828DE80FF11D858D90E008958FEF38
:1006F0009FEF0895FC01918D228D892F90E0805C01
:100700009F4F821B91098F739927089585E591E08A
:100710000E947A0321E0892B09F420E0822F0895BA
:10072000FC01848DDF01A80FB11DA35ABF4F2C918E
:10073000848D90E001968F739927848FA689B7895D
:100740002C93A089B1898C9182748C93938D848D24
:10075000981306C00288F389E02D80818F7D808305
:100760000895EF92FF920F931F93CF93DF93EC01C5
:1007700081E0888F9B8D8C8D981305C0E889F9895D
:10078000808185FD26C0F62E0B8D10E00F5F1F4F78
:100790000F731127E02E8C8DE8120CC00FB607FCEA
:1007A000FACFE889F989808185FFF5CFCE010E94D3
:1007B0009003F1CF8B8DFE01E80FF11DE35AFF4F3F
:1007C000F0829FB7F8940B8FEA89FB898081806261
:1007D00009C09FB7F894EE89FF896083E889F98999
:1007E0008081827480839FBF81E090E0DF91CF9110
:1007F0001F910F91FF90EF900895CF93DF93EC013D
:10080000888D8823C9F0EA89FB89808185FD05C030
:10081000A889B9898C9186FD0FC00FB607FCF5CF6A
:10082000808185FFF2CFA889B9898C9185FFEDCFB2
:10083000CE010E949003E7CFDF91CF91089580E031
:1008400090E0892B29F00E94860381110C9400000E
:100850000895CF93DF931F92CDB7DEB76983DC0194
:10086000ED91FC910280F381E02D41E050E0BE016A
:100870006F5F7F4F09950F90DF91CF91089583E0CF
:100880008093E9008091F200882319F08AE3809335
:10089000E80008950E946B0190E00895FC018485B2
:1008A000958597FD05C02FEF3FEF35872487089585
:1008B0000C947C01CF93DF93EC018C859D8597FF91
:1008C00004C00E947C019D878C878C859D85DF916B
:1008D000CF910895FC018485958597FD0BC09FB746
:1008E000F89482E08093E9008091F2009FBF90E04D
:1008F000019608959FB7F89482E08093E900809173
:10090000F2009FBF90E00895089580E090E0089580
:100910000895CF92DF92EF92FF920E9402026B0144
:100920007C010E940202DC01CB018C199D09AE09F9
:10093000BF09883E9340A105B10598F3FF90EF9061
:10094000DF90CF9008958F929F92AF92BF92CF92F7
:10095000DF92EF92FF920F931F93CF93DF936C017F
:100960007B018A0180910B01882309F454C0809196
:100970005401882309F44FC080913D0180FF05C0D8
:100980008091E00082608093E000E801B12C8AEF62
:10099000A82E93E0892E2AE3922E209711F4BB20F3
:1009A000B9F10E946B01811106C0AA94AA2099F1A5
:1009B0000E948904F2CF282F30E0C217D3070CF42D
:1009C0008C2F9FB7F8948092E9002091E80025FFD2
:1009D0001DC0282F30E0C21BD30BF701815020F03F
:1009E00041914093F100FACFE20EF31EBB2019F0C3
:1009F0009092E8000AC08091E80085FD07C09092BF
:100A0000E800BB24B394209709F0B12C9FBFC5CF59
:100A10001016110644F081E090E0F6019383828382
:100A200080E090E001C0C801DF91CF911F910F914C
:100A3000FF90EF90DF90CF90BF90AF909F908F90FE
:100A400008950E947F0A1F920F920FB60F921124F1
:100A50002F933F938F939F93AF93BF9380914001C8
:100A600090914101A0914201B091430130913F0129
:100A700023E0230F2D3720F40196A11DB11D05C0E1
:100A800026E8230F0296A11DB11D20933F018093FC
:100A9000400190934101A0934201B09343018091A2
:100AA000440190914501A0914601B0914701019602
:100AB000A11DB11D8093440190934501A09346016F
:100AC000B0934701BF91AF919F918F913F912F912B
:100AD0000F900FBE0F901F9018951F920F920FB698
:100AE0000F9211248F939F938091E1009091E100E8
:100AF000937F9093E10083FF0FC01092E90091E093
:100B00009093EB001092EC0092E39093ED00109222
:100B1000540198E09093F00082FF0AC093E0909314
:100B2000E9009091F200992319F09AE39093E8007C
:100B300084FF10C08091E2008E7E81608093E2008D
:100B40008091E1008F7E8093E10080913D018E7E57
:100B5000806111C080FF11C08091E2008E7E8061B3
:100B60008093E2008091E1008E7E8093E10080918D
:100B70003D018E7E816080933D019F918F910F900A
:100B80000FBE0F901F9018951F920F920FB60F92E5
:100B90001124CF92DF92EF92FF920F931F932F9326
:100BA0003F934F935F936F937F938F939F93AF93F5
:100BB000BF93EF93FF93CF93DF93CDB7DEB76C97DF
:100BC000DEBFCDBF1092E9008091E80083FF05C22F
:100BD00089E0FE017596EE2EDF2E815029F090916E
:100BE000F10090833196F9CF82EF8093E8008D89F0
:100BF00087FF05C09091E80090FFFCCF03C09EEFF7
:100C00009093E800982F907609F0C5C09E894F898F
:100C1000588D2F89F88C91110CC0803829F480915F
:100C20003E018093F10002C01092F1001092F10099
:100C300048C1913051F4811144C14130510509F04E
:100C400040C180913E018D7F0BC0933061F48111D2
:100C500038C14130510509F034C180913E018260B4
:100C600080933E012EC1953049F48091E80080FFC9
:100C7000FCCF822F80688093E30023C1963009F077
:100C80005DC00B8D1C8D22E01092E90010923B019B
:100C900010923A01F21232C01092390110923801CA
:100CA0000E94B10299E0BE016F5F7F4FDB01E92F27
:100CB0001D92EA95E9F79983FA8291E09E8390EA82
:100CC00098879AEF998720913A0130913B01275FED
:100CD0003F4F3C832B838D831092E90010923B01A0
:100CE00010923A01109339010093380149E050E025
:100CF00080E00E948A020E94B102E3C01093390191
:100D0000009338010E94B201DC0112960D911C91F2
:100D100013970115110509F4BEC0D801ED91FC919E
:100D20000480F581E02D6E2D7D2DC8010995009779
:100D300009F0CBC0F80100851185EBCF973009F49D
:100D400049C1983021F481E08093F100BAC0993014
:100D500009F0B7C0837009F03DC1EDE0F1E081E03A
:100D600031E096E32081211109C08EE78093EA00EB
:100D70001092EA008F8980935401A3C08093E90008
:100D80003093EB0021912093EC009093ED008F5F66
:100D9000873041F7EACF8B8D9C8D1092E90010923D
:100DA0003B0110923A019093390180933801898D6B
:100DB000811158C08E899D89913A49F4813209F098
:100DC00009C147E050E064E071E080E0BFC09132CB
:100DD00009F000C1833269F48F89988DA0E0B0E0FA
:100DE0008093000190930101A0930201B09303014D
:100DF00068C0803291F48091E80082FFFCCF88E0E7
:100E0000E4E0F1E0815029F09091F1009083319677
:100E1000F9CF8BEF8093E80054C0823209F051C0C3
:100E20008F8980930B01EEEFFFE7859194918B3FC3
:100E30009C4D19F0E0E0F8E002C0EEEFFAE080919E
:100E4000040190910501A0910601B0910701803B3A
:100E50009440A105B10509F09DC080910B0180FF70
:100E600078C098C00E94B201FC0102811381011573
:100E7000110509F4AFC0D801ED91FC910190F0810A
:100E8000E02D6E2D7D2DC801099581111AC0F80144
:100E900000851185ECCFF1E0FF1609F44EC0F3E0B8
:100EA000FF1298C08F89882309F44AC0823089F4E0
:100EB00040E863E186E391E00E945502882309F44B
:100EC00089C08EEF8093E80088C018161906CCF30D
:100ED00081C0813029F440E863E182E291E0ECCF07
:100EE000833009F077C00E94B201DC011296ED90C8
:100EF000FC9013978E010F5F1F4F6801E114F104FE
:100F000079F0D701ED91FC910680F781E02DB801D1
:100F1000C7010995080F111DF701E084F184EECF98
:100F2000D8011C92F60101900020E9F73197BF012A
:100F30006C197D0940E0C601BFCF60E171E002C0DD
:100F40006CE071E0FB01449150E080E80E948A026D
:100F5000B8CFEE3F2AE0F20751F0808191818737C8
:100F6000A7E79A0721F09093FF0A8093FE0A87E78C
:100F700097E7918380838091600080933C019BE0A0
:100F800088E10FB6F894A895809360000FBE909307
:100F9000600097CF808191818737974709F091CF83
:100FA000A8958091600088618093600080913C01E9
:100FB00080936000EE3FBAE0FB0739F08091FE0AB3
:100FC0009091FF0A918380837CCF1092FF0A109248
:100FD000FE0A77CF81E28093EB006C960FB6F8940F
:100FE000DEBF0FBECDBFDF91CF91FF91EF91BF91DB
:100FF000AF919F918F917F916F915F914F913F91B1
:101000002F911F910F91FF90EF90DF90CF900F9055
:101010000FBE0F901F9018951F920F920FB60F9250
:1010200011242F933F934F935F936F937F938F93ED
:101030009F93AF93BF93EF93FF9385E591E00E9459
:101040009003FF91EF91BF91AF919F918F917F910D
:101050006F915F914F913F912F910F900FBE0F9025
:101060001F9018951F920F920FB60F9211242F9375
:101070008F939F93EF93FF93E0916501F091660149
:101080008081E0916B01F0916C0182FD12C0908132
:1010900080916E018F5F8F7320916F01821751F0E5
:1010A000E0916E01F0E0EB5AFE4F958F80936E0158
:1010B00001C08081FF91EF919F918F912F910F90AF
:1010C0000FBE0F901F901895E5E5F1E01382128294
:1010D00088EE93E0A0E0B0E084839583A683B78395
:1010E00027E131E0318320832DEC30E03587248700
:1010F0002CEC30E03787268728EC30E0318B208BD2
:1011000029EC30E0338B228B2AEC30E0358B248BBA
:101110002EEC30E0378B268B118E128E138E148EB0
:10112000E2EFF1E01382128284839583A683B78372
:1011300089E291E0918380838FEF9FEF9587848789
:101140000895CF93DF93CDB7DEB7789484B58260EE
:1011500084BD84B5816084BD85B5826085BD85B55B
:10116000816085BD80916E00816080936E001092D9
:101170008100809181008260809381008091810054
:1011800081608093810080918000816080938000E5
:1011900080919100826080939100809191008160A4
:1011A0008093910080919000816080939000809165
:1011B000C10084608093C1008091C10082608093EF
:1011C000C1008091C10081608093C1008091C30003
:1011D00081608093C3008091C00082608093C000D2
:1011E0008091C20081608093C20080917A00846007
:1011F00080937A0080917A00826080937A00809157
:101200007A00816080937A0080917A008068809370
:101210007A001092540110923E0110923D0180918B
:10122000D70081608093D70080EA8093D80089B589
:10123000806189BD89B5826089BD09B400FEFDCF9A
:101240000E9489048091D8008F7C80618093D800AF
:101250008091E000807F8093E0008091E1008E7EAD
:101260008093E1008DE08093E20061E08EE10E94D6
:10127000C6018EE10E940D0161E087E00E94C60177
:1012800087E00E940D0161E085E00E94C60185E0D3
:101290000E940D0162E082E10E94C60162E083E1EA
:1012A0000E94C60162E084E10E94C60162E085E11D
:1012B0000E94C60162E086E10E94C60162E087E109
:1012C0000E94C60162E082E00E94C60162E083E003
:1012D0000E94C60162E084E00E94C60162E088E0EC
:1012E0000E94C60162E089E00E94C60162E08AE0D5
:1012F0000E94C60162E08BE00E94C60162E08CE0C1
:101300000E94C60162E08DE00E94C60162E081E1B8
:101310000E94C6018FEF9FEF9093FF018093FE0123
:10132000E0916501F091660182E08083E0916101C6
:10133000F09162011082E0916301F091640183E019
:10134000808310926D01E0916901F0916A0186E05D
:101350008083E0916701F0916801808180618083E2
:10136000E0916701F0916801808188608083E0915D
:101370006701F0916801808180688083E091670156
:10138000F091680180818F7D808310927A00809136
:1013900064008160809364008FEF80937E0091E011
:1013A00090937F0080937D0080E980BF80916400EE
:1013B00080688093640080916400846080936400FE
:1013C00080916400806280936400809164008860F2
:1013D00080936400809164008064809364008091B5
:1013E00065008860809365008091650080618093CE
:1013F0006500769A82EF91E00E946A048823B1F139
:10140000ADB6BEB6803408F0469A8C0111278DB770
:101410009EB7801B910B0FB6F8949EBF0FBE8DBF79
:10142000EDB7FEB731967F016F014F01800E911E1F
:101430008C149D0451F082EF91E00E94E30297FD2D
:1014400004C0F60181936F01F3CF5D9AA801B70143
:1014500085E591E00E941F0385E591E00E94FD0370
:101460005D980FB6F894BEBE0FBEADBE85E591E0A7
:101470000E947A03882381F1ADB6BEB6803408F0AD
:10148000469A8C0111278DB79EB7801B910B0FB622
:10149000F8949EBF0FBE8DBFEDB7FEB731967F01AA
:1014A0006F014F01800E911E8C149D0451F085E553
:1014B00091E00E94E30297FD04C0F60181936F0161
:1014C000F3CFA801B70182EF91E00E94A3040FB609
:1014D000F894BEBE0FBEADBEF89483B7817F83BFC4
:1014E00083B7816083BF7894889583B78E7F83BFED
:1014F00081CFEE0FFF1F0590F491E02D099481E05C
:0C15000090E0F8940C94840AF894FFCF5B
:10150C00FFFFFFFF00E100000000000000C1808130
:10151C0000000000000000B1031F034903FD037A23
:10152C000358036C03000000002904A3044A043F81
:08153C00046A044E045A040085
:00000001FF
