:100000000C94E3000C940B010C940B010C940B0169
:100010000C940B010C940B010C940B010C940B0130
:100020000C940B010C940B010C943F040C94A3044E
:100030000C940B010C940B010C940B010C940B0110
:100040000C940B010C940B010C940B010C940B0100
:100050000C940B010C940B010C940B010C940B09E8
:100060000C940B010C9411070C94EB060C940B01EF
:100070000C940B010C940B010C940B010C940B01D0
:100080000C940B010C940B010C940B010C940B01C0
:100090000C940B010C940B010C940B010C940B01B0
:1000A0000C940B010C940B010C940B011B081E0803
:1000B0000D08110815083F083F083F0822082608C8
:1000C0002A08300834083F083A08080B00020202E8
:1000D00001000904000001020200000524001001D3
:1000E0000524010101042402060524060001070578
:1000F000810310004009040100020A000000070506
:1001000002024000000705830240000004030904C6
:1001100012010002EF020140D80480EB000101024D
:1001200003015375727265792053656E736F727334
:10013000204C74642E00456C656374726935204CE4
:1001400074642E204D43552D38000000000024001B
:1001500027002A002D0030000000000025002800A4
:100160002B002E00310004040404040304050202E1
:100170000202040302020202060606060606040440
:1001800002020204040408020110408040102040D2
:10019000804080080204018040201002011080107D
:1001A000204040200000000200090F00000304016D
:1001B000000C000000000000000000000000000033
:1001C00000000000AF0C11241FBECFEFDAE0DEBF4D
:1001D000CDBF24E0A8E3B3E001C01D92A734B2076D
:1001E000E1F713E0A0E0B1E0E4E7FAE102C0059036
:1001F0000D92A833B107D9F710E0C3EED0E004C0E8
:100200002197FE010E94240DC23ED107C9F70E942A
:1002100055090C94380D0C94000040913A0350910C
:100220003B03209138033091390342175307B4F44C
:100230009091E8009570E1F39091E80092FD19C06B
:100240008093F10080913A0390913B0301968F7364
:100250009927892B19F48EEF8093E80080913A0357
:1002600090913B03019690933B0380933A0381E086
:10027000089580E00895DF92EF92FF920F931F930D
:10028000CF93DF93D82EF92EE42E062F10E0C8016D
:100290000196880F0E940D0183E00E940D01CD2D73
:1002A000DF2D0C0F1D1FC017D10789F0E7FE03C01B
:1002B000FE01849101C088810E940D01F82E80E02A
:1002C0000E940D018F2121968111EDCF01C081E0A7
:1002D000DF91CF911F910F91FF90EF90DF900895E4
:1002E000DF92EF92FF920F931F93CF93DF93D82E5D
:1002F0008A017B01E40EF51EEB01CE15DF0571F0DE
:10030000D7FE03C0FE01849101C088810E940D01C7
:1003100021968111F2CF8FEF9FEF01C0C801DF91CD
:10032000CF911F910F91FF90EF90DF900895CF92A2
:10033000DF92EF92FF920F931F93CF93DF93EC0125
:100340006A017B0100E010E00C151D05E1F12FB7FB
:10035000F8948091440390914503A0914603B09195
:1003600047032FBF88879987AA87BB87E881F981D0
:100370000284F385E02DCE01099597FF1EC02FB7AB
:10038000F8948091440390914503A0914603B09165
:1003900047032FBF488559856A857B85841B950B4C
:1003A000A60BB70B4C815D816E817F818417950709
:1003B000A607B707D8F2680106C0F70181937F014D
:1003C0000F5F1F4FC1CFC601DF91CF911F910F91DA
:1003D000FF90EF90DF90CF900895CF92DF92EF9251
:1003E000FF920F931F93CF93DF936C017A018B01E0
:1003F000C0E0D0E0CE15DF0581F0D8016D918D0110
:10040000D601ED91FC910190F081E02DC601099596
:10041000892B11F02196EECF7E01C701DF91CF919C
:100420001F910F91FF90EF90DF90CF900895FC0106
:10043000538D448D252F30E0842F90E0821B930B49
:10044000541710F0CF96089501970895FC01918DEF
:10045000828D981761F0828DDF01A80FB11D5D9626
:100460008C91928D9F5F9F73928F90E008958FEF94
:100470009FEF0895FC01918D828D981731F0828D48
:10048000E80FF11D858D90E008958FEF9FEF08959F
:10049000FC01918D228D892F90E0805C9F4F821B03
:1004A00091098F739927089589E493E00E94480287
:1004B00021E0892B09F420E0822F0895FC01848D2E
:1004C000DF01A80FB11DA35ABF4F2C91848D90E07E
:1004D00001968F739927848FA689B7892C93A08959
:1004E000B1898C9182748C93938D848D981306C0FE
:1004F0000288F389E02D80818F7D80830895EF92BB
:10050000FF920F931F93CF93DF93EC0181E0888FCD
:100510009B8D8C8D981305C0E889F989808185FDB4
:1005200026C0F62E0B8D10E00F5F1F4F0F731127A3
:10053000E02E8C8DE8120CC00FB607FCFACFE889CC
:10054000F989808185FFF5CFCE010E945E02F1CF4F
:100550008B8DFE01E80FF11DE35AFF4FF0829FB72C
:10056000F8940B8FEA89FB898081806209C09FB76C
:10057000F894EE89FF896083E889F9898081827423
:1005800080839FBF81E090E0DF91CF911F910F9119
:10059000FF90EF900895CF93DF93EC01888D88232F
:1005A000C9F0EA89FB89808185FD05C0A889B989E0
:1005B0008C9186FD0FC00FB607FCF5CF808185FFBB
:1005C000F2CFA889B9898C9185FFEDCFCE010E9429
:1005D0005E02E7CFDF91CF91089580E090E0892B14
:1005E00029F00E94540281110C9400000895CF93C9
:1005F000DF931F92CDB7DEB76983DC01ED91FC91EB
:100600000280F381E02D41E050E0BE016F5F7F4F3B
:1006100009950F90DF91CF910895FC018485958510
:1006200097FD0BC09FB7F89482E08093E90080911A
:10063000F2009FBF90E0019608959FB7F89482E082
:100640008093E9008091F2009FBF90E008950895A3
:1006500080E090E0089580913F03882319F0469848
:1006600010923F03089590913F03981719F0469A0E
:1006700080933F0308950F931F93CF93DF93CDB7DC
:10068000DEB70DB71EB786EE93E00E940D038823F8
:10069000C1F0AC0155278DB79EB7841B950B0FB6E3
:1006A000F8949EBF0FBE8DBF6DB77EB76F5F7F4F53
:1006B00086EE93E00E9497010FB6F8941EBF0FBE1E
:1006C0000DBF0FB6F8941EBF0FBE0DBFDF91CF91C7
:1006D0001F910F9108950C947A080E942A0D0F9390
:1006E0001F93CF93DF931F92CDB7DEB782E089834C
:1006F00042E450E06AEC70E080E80E9470010E94E1
:10070000BB08DC0112960D911C9113970115110580
:1007100089F0D801ED91FC910280F381E02DBE01BA
:100720006F5F7F4FC801099597FD04C0F8010085F0
:100730001185ECCF89810F90DF91CF911F910F919F
:1007400008958F929F92AF92BF92CF92DF92EF92D5
:10075000FF920F931F93CF93DF936C017B018A016C
:1007600080910B01882309F454C0809148038823A9
:1007700009F44FC080913D0380FF05C08091E000E7
:1007800082608093E000E801B12C8AEFA82E93E00C
:10079000892E2AE3922E209711F4BB20B9F10E94F2
:1007A0004F08811106C0AA94AA2099F10E946008FE
:1007B000F2CF282F30E0C217D3070CF48C2F9FB74D
:1007C000F8948092E9002091E80025FF1DC0282FB1
:1007D00030E0C21BD30BF701815020F041914093D0
:1007E000F100FACFE20EF31EBB2019F09092E80060
:1007F0000AC08091E80085FD07C09092E800BB2404
:10080000B394209709F0B12C9FBFC5CF10161106E5
:1008100044F081E090E0F6019383828380E090E0F1
:1008200001C0C801DF91CF911F910F91FF90EF9010
:10083000DF90CF90BF90AF909F908F9008950E94CF
:100840004F0890E00895FC018485958597FD05C0CB
:100850002FEF3FEF3587248708950C948508CF93B9
:10086000DF93EC018C859D8597FF04C00E9485086D
:100870009D878C878C859D85DF91CF9108951F92F0
:100880000F920FB60F9211242F933F934F935F93C4
:100890006F937F938F939F93AF93BF93CF93EF9378
:1008A000FF93C091E1008091E100837F8093E1009C
:1008B000C3FF0FC01092E90081E08093EB0010921B
:1008C000EC0082E38093ED001092480388E080936F
:1008D000F000C2FD0E947A08C4FF10C08091E200BF
:1008E0008E7E81608093E2008091E1008F7E809314
:1008F000E10080913D038E7E806111C0C0FF11C078
:100900008091E2008E7E80618093E2008091E10020
:100910008E7E8093E10080913D038E7E8160809386
:100920003D03FF91EF91CF91BF91AF919F918F9137
:100930007F916F915F914F913F912F910F900FBEDB
:100940000F901F9018951F920F920FB60F921124BF
:10095000CF92DF92EF92FF920F931F932F933F93CB
:100960004F935F936F937F938F939F93AF93BF93B7
:10097000EF93FF93CF93DF93CDB7DEB76C97DEBFD6
:10098000CDBF1092E9008091E80083FF05C289E0A5
:10099000FE017596EE2EDF2E815029F09091F10028
:1009A00090833196F9CF82EF8093E8008D8987FF9D
:1009B00005C09091E80090FFFCCF03C09EEF90939C
:1009C000E800982F907609F0C5C09E894F89588D10
:1009D0002F89F88C91110CC0803829F480913E0346
:1009E0008093F10002C01092F1001092F10048C112
:1009F000913051F4811144C14130510509F040C199
:100A000080913E038D7F0BC0933061F4811138C11A
:100A10004130510509F034C180913E0382608093DA
:100A20003E032EC1953049F48091E80080FFFCCF51
:100A3000822F80688093E30023C1963009F05DC067
:100A40000B8D1C8D22E01092E90010923B03109256
:100A50003A03F21232C010923903109238030E9406
:100A60006F0399E0BE016F5F7F4FDB01E92F1D929D
:100A7000EA95E9F79983FA8291E09E8390EA988754
:100A80009AEF998720913A0330913B03275F3F4FBC
:100A90003C832B838D831092E90010923B031092CC
:100AA0003A03109339030093380349E050E080E0A3
:100AB0000E9470010E946F03E3C0109339030093FA
:100AC00038030E94BB08DC0112960D911C9113970C
:100AD0000115110509F4BEC0D801ED91FC91048007
:100AE000F581E02D6E2D7D2DC8010995009709F047
:100AF000CBC0F80100851185EBCF973009F449C1CF
:100B0000983021F481E08093F100BAC0993009F067
:100B1000B7C0837009F03DC1EDE0F1E081E031E064
:100B200096E32081211109C08EE78093EA0010929C
:100B3000EA008F8980934803A3C08093E900309333
:100B4000EB0021912093EC009093ED008F5F8730B4
:100B500041F7EACF8B8D9C8D1092E90010923B03F8
:100B600010923A039093390380933803898D811151
:100B700058C08E899D89913A49F4813209F009C1A2
:100B800047E050E064E071E080E0BFC0913209F0DE
:100B900000C1833269F48F89988DA0E0B0E0809322
:100BA000000190930101A0930201B093030168C07A
:100BB000803291F48091E80082FFFCCF88E0E4E08D
:100BC000F1E0815029F09091F10090833196F9CFB6
:100BD0008BEF8093E80054C0823209F051C08F89B6
:100BE00080930B01EEEFFFE7859194918B3F9C4D35
:100BF00019F0E0E0F8E002C0EEEFFAE080910401C5
:100C000090910501A0910601B0910701803B9440AD
:100C1000A105B10509F09DC080910B0180FF78C04E
:100C200098C00E94BB08FC010281138101151105C7
:100C300009F4AFC0D801ED91FC910190F081E02D55
:100C40006E2D7D2DC801099581111AC0F80100850E
:100C50001185ECCFF1E0FF1609F44EC0F3E0FF126E
:100C600098C08F89882309F44AC0823089F440E80B
:100C700063E186E391E00E943B01882309F489C087
:100C80008EEF8093E80088C018161906CCF381C057
:100C9000813029F440E863E182E291E0ECCF8330D7
:100CA00009F077C00E94BB08DC011296ED90FC9021
:100CB00013978E010F5F1F4F6801E114F10479F063
:100CC000D701ED91FC910680F781E02DB801C701B5
:100CD0000995080F111DF701E084F184EECFD801CA
:100CE0001C92F60101900020E9F73197BF016C19C1
:100CF0007D0940E0C601BFCF60E171E002C06CE059
:100D000071E0FB01449150E080E80E947001B8CF8F
:100D1000EE3F2AE0F20751F0808191818737A7E703
:100D20009A0721F09093FF0A8093FE0A87E797E7DE
:100D3000918380838091600080933C039BE088E1F5
:100D40000FB6F894A895809360000FBE9093600052
:100D500097CF808191818737974709F091CFA895E8
:100D60008091600088618093600080913C03809353
:100D70006000EE3FBAE0FB0739F08091FE0A9091E7
:100D8000FF0A918380837CCF1092FF0A1092FE0AA3
:100D900077CF81E28093EB006C960FB6F894DEBFBC
:100DA0000FBECDBFDF91CF91FF91EF91BF91AF917A
:100DB0009F918F917F916F915F914F913F912F9173
:100DC0001F910F91FF90EF90DF90CF900F900FBE8B
:100DD0000F901F9018951F920F920FB60F9211242B
:100DE0002F933F934F935F936F937F938F939F9333
:100DF000AF93BF93EF93FF9389E493E00E945E0269
:100E0000FF91EF91BF91AF919F918F917F916F91E2
:100E10005F914F913F912F910F900FBE0F901F90B8
:100E200018951F920F920FB60F9211242F938F9344
:100E30009F93EF93FF93E0915903F0915A038081C0
:100E4000E0915F03F091600382FD12C09081809178
:100E500062038F5F8F7320916303821751F0E091DB
:100E60006203F0E0E75BFC4F958F8093620301C063
:100E70008081FF91EF919F918F912F910F900FBEE5
:100E80000F901F9018953FB7F89480913704909178
:100E90003804A0913904B0913A0426B5A89B05C046
:100EA0002F3F19F00196A11DB11D3FBFBA2FA92FE9
:100EB000982F8827820F911DA11DB11DBC01CD0166
:100EC00042E0660F771F881F991F4A95D1F7089552
:100ED000DC01680F791F8FEF9FEFA617B70771F03E
:100EE000ED91E827F0E0EE0FFF1FED5EFE4F208151
:100EF0003181892F992782279327EFCF0895CF92A9
:100F0000DF92EF92FF926B017C01E0915903F09127
:100F10005A0382E08083C11481EED806E104F10413
:100F2000B1F060E079E08DE390E0A70196010E94C6
:100F3000020DDA01C9010197A109B109B695A7957A
:100F4000979587959C01211580E13807B8F0E091CD
:100F50005903F0915A03108260E874E88EE190E042
:100F6000A70196010E94020DDA01C9010197A109AA
:100F7000B109B695A795979587959C01E091550382
:100F8000F09156033083E0915703F091580320838A
:100F900010926103E0915D03F0915E0386E080832F
:100FA000E0915B03F0915C03808180618083E0913C
:100FB0005B03F0915C03808188608083E0915B0338
:100FC000F0915C03808180688083E0915B03F09105
:100FD0005C0380818F7D8083FF90EF90DF90CF90C6
:100FE000089590E0FC01EC55FE4F4491FC01EB5755
:100FF000FE4F2491FC01EA59FE4F8491882309F4A5
:101000004DC04423E1F150E0FA013197EF30F10592
:10101000B0F5EA5AFF4F0C94240D909180009F7711
:1010200007C0909180009F7D03C090918000977FC2
:101030009093800024C094B59F7702C094B59F7DA3
:1010400094BD1DC0909190009F7707C09091900033
:101050009F7D03C090919000977F909390000FC068
:101060009091C0009F7703C09091C0009F7D9093A6
:10107000C00005C09091C200977F9093C200E82FF6
:10108000F0E0EE0FFF1FE85AFE4FA591B4919FB715
:10109000F8948C91209528232C939FBF08952FB707
:1010A000F89483E08093E9009091E800892F8072A2
:1010B00095FF04C09091F20080E4891B2FBF089532
:1010C000CF92DF92EF92FF920E9443076B017C0167
:1010D0000E944307DC01CB018C199D09AE09BF09B1
:1010E000883E9340A105B10598F3FF90EF90DF9003
:1010F000CF90089583E08093E9008091F2008823E7
:1011000019F08AE38093E8000895CF93DF931F924C
:10111000CDB7DEB780914803811103C08FEF9FEFF9
:1011200026C03FB7F89482E08093E9008091F200F6
:1011300090E01816190614F481E090E0282FFE01C3
:101140003196215020F04091F1004193FACF009761
:1011500021F02091F200222331F03FBF0197F1F6F8
:10116000898190E004C02BE62093E800F6CF0F9031
:10117000DF91CF91089580913F0481110DC082E0ED
:1011800080933B0484E080933C0410923E041092D0
:101190003D0481E080933F048BE394E00895CF9376
:1011A000DF9390E0FC01EB57FE4F2491FC01EA59DC
:1011B000FE4F8491882361F190E0880F991FFC0114
:1011C000E65BFE4FC591D491FC01E85AFE4FA59114
:1011D000B491611109C09FB7F8948881209582234A
:1011E0008883EC912E230BC0623061F49FB7F89492
:1011F0008881322F309583238883EC912E2B2C937A
:101200009FBF06C08FB7F894E8812E2B28838FBF2D
:10121000DF91CF9108951F920F920FB60F92112474
:101220002F933F938F939F93AF93BF9380914403EA
:1012300090914503A0914603B09147033091360445
:1012400023E0230F2D3720F40196A11DB11D05C009
:1012500026E8230F0296A11DB11D2093360480932A
:10126000440390934503A0934603B09347038091B2
:10127000370490913804A0913904B0913A04019652
:10128000A11DB11D8093370490933804A0933904B5
:10129000B0933A04BF91AF919F918F913F912F915D
:1012A0000F900FBE0F901F901895CF93DF93CDB77F
:1012B000DEB766970FB6F894DEBF0FBECDBF789449
:1012C00084B5826084BD84B5816084BD85B582604B
:1012D00085BD85B5816085BD80916E0081608093FC
:1012E0006E00109281008091810082608093810065
:1012F0008091810081608093810080918000816075
:101300008093800080919100826080939100809111
:101310009100816080939100809190008160809322
:1013200090008091C10084608093C1008091C100D1
:1013300082608093C1008091C10081608093C10070
:101340008091C30081608093C3008091C00082605F
:101350008093C0008091C20081608093C200809120
:101360007A00846080937A0080917A008260809312
:101370007A0080917A00816080937A0080917A006F
:10138000806880937A001092480310923E03109276
:101390003D038091D70081608093D70080EA8093DD
:1013A000D80089B5806189BD89B5826089BD09B4DD
:1013B00000FEFDCF0E9460088091D8008F7C806184
:1013C0008093D8008091E000807F8093E00080913E
:1013D000E1008E7E8093E1008DE08093E20061E089
:1013E0008EE10E94CF088EE10E94F10761E087E064
:1013F0000E94CF0887E00E94F10761E085E00E942B
:10140000CF0885E00E94F10762E082E10E94CF08E8
:1014100062E083E10E94CF0862E084E10E94CF088D
:1014200062E085E10E94CF0862E086E10E94CF0879
:1014300062E087E10E94CF0862E082E00E94CF086C
:1014400062E083E00E94CF0862E084E00E94CF085F
:1014500062E086E00E94CF0862E088E00E94CF0848
:1014600062E089E00E94CF0862E08AE00E94CF0833
:1014700062E08BE00E94CF0862E08CE00E94CF081F
:1014800062E08DE00E94CF0862E081E10E94CF0817
:101490008FEF9FEF9093F3038093F20380ED97E03B
:1014A000A0E0B0E08093EA039093EB03A093EC03F9
:1014B000B093ED0320E4E22E23E0F22E00E010E0F2
:1014C000C8010E94EC0CF70181937F010F5F1F4F51
:1014D00004301105A9F76091400370914103809198
:1014E0004203909143030E947F0780ED97E0A0E0C4
:1014F000B0E080934D0390934E03A0934F03B093BD
:10150000500310927A00809164008160809364009F
:101510008FEF80937E0091E090937F0080937D0019
:1015200080E980BF80916400846080936400809132
:10153000640080688093640080916400806280937E
:1015400064008091640088608093640080916400EE
:10155000806480936400809165008860809365005A
:1015600080916500806180936500769A90ED492EA8
:1015700097E0592E612C712CF89483B7817F83BF3B
:1015800083B7816083BF7894889583B78E7F83BF4C
:1015900086EE93E00E940D038A3008F4F2C0803496
:1015A00018F081E00E9433034AE050E0BE016F5F13
:1015B0007F4F86EE93E00E94970189819A81813264
:1015C000F1E29F07E1F45D9A48E050E0BE016D5FF3
:1015D0007F4F89E493E00E94ED0189E493E00E944B
:1015E000CB025D9868E070E0CE0103960E94680728
:1015F000892B09F4C1C082E00E943303C2C0803449
:10160000904409F0BCC08B818435A1F180F4823410
:10161000A9F1853459F18F3309F0B1C060913F03CE
:1016200086EE93E00E94F7020E947A08A5C08536F4
:10163000F9F0843709F1823609F0A1C080914003A6
:1016400090914103A0914203B09143038B879C8703
:10165000AD87BE8744E050E0BE01655F7F4F86EEF8
:1016600093E00E94A1030E947A088BC0469A89C029
:10167000469887C05D9A85C05D9883C08C819D81A6
:10168000AE81BF818038E5E29E07A105B105D1F0AA
:101690008115FBE49F07A105B105A1F0811526E99D
:1016A0009207A105B10571F08115E1EE9E07A10534
:1016B000B10541F08115F2EC9F07F1E0AF07B105EC
:1016C00009F05FC0898B9A8BAB8BBC8B80934003F6
:1016D00090934103A0934203B09343037E0121E121
:1016E000E20EF11C00E010E0F701D1907F01C8018B
:1016F0000E94EC0CD81621F06D2DC8010E94F40C4C
:101700000F5F1F4F0430110579F789E493E00E94C1
:10171000CB02E0915B03F0915C0380818F7E80833C
:10172000E0915B03F0915C038081877F8083E0918F
:101730005B03F0915C0380818F778083E0915B0392
:10174000F0915C0380818F7D80838091630380931F
:101750006203609140037091410380914203909134
:1017600043030E947F0740924D0350924E036092C4
:101770004F037092500305C00E942B0302C00E94C9
:101780003B0389E493E00E944802853008F4E4C0FA
:10179000803418F081E00E94330342E050E0BE0143
:1017A0006B5E7F4F89E493E00E9497018E898330BE
:1017B00009F057C08DB69EB689E493E00E942602D8
:1017C000382E82E0E82EE30CF12C8DB79EB78E19EF
:1017D0009F090FB6F8949EBF0FBE8DBFEDB7FEB741
:1017E00031965F01A701BF0189E493E00E94970150
:1017F00005E0030D10E08DB79EB7801B910B0FB66F
:10180000F8949EBF0FBE8DBFEDB7FEB731966F0146
:101810008D899E89EDB7FEB792838183F60132826E
:101820008DB79EB70496A701B5010E942F0DA801A0
:10183000B60186EE93E00E94A1030E947A08B801E7
:10184000C6010E946807892B19F40E942B0303C06C
:1018500082E00E9433030FB6F8949EBE0FBE8DBE89
:101860007BC0863021F546E050E0BE01655F7F4FCA
:1018700089E493E00E9497018D899E899A838983E8
:1018800086E0FE013B96DE01139601900D928A954B
:10189000E1F748E050E0BE016F5F7F4F86EE93E0D6
:1018A0000E94A1030E947A0868E070E027C0833894
:1018B00011F0863871F543E050E0BE01655F7F4F5F
:1018C00089E493E00E9497018D899E899A83898398
:1018D00083E0FE013B96DE01139601900D928A95FE
:1018E000E1F745E050E0BE016F5F7F4F86EE93E089
:1018F0000E94A1030E947A0865E070E0CE01019683
:101900000E946807892B19F40E942B0325C082E0EE
:1019100021C089E493E00E9448028823D1F00DB7EA
:101920001EB7AC0155278DB79EB7841B950B0FB61C
:10193000F8949EBF0FBE8DBF6DB77EB76F5F7F4FB0
:1019400089E493E00E9497010FB6F8941EBF0FBE82
:101950000DBF83E00E9433030E94ED020DCEE9E447
:10196000F3E01382128288EE93E0A0E0B0E084837B
:101970009583A683B78327E133E0318320832DEC61
:1019800030E0358724872CEC30E03787268728EC39
:1019900030E0318B208B29EC30E0338B228B2AEC2A
:1019A00030E0358B248B2EEC30E0378B268B118E7C
:1019B000128E138E148EE6EEF3E01382128284836D
:1019C0009583A683B78389E293E0918380838FEF29
:1019D0009FEF958784870895F999FECF92BD81BDC9
:1019E000F89A992780B50895262FF999FECF1FBA46
:1019F00092BD81BD20BD0FB6F894FA9AF99A0FBE38
:101A000001960895A1E21A2EAA1BBB1BFD010DC071
:101A1000AA1FBB1FEE1FFF1FA217B307E407F5079E
:101A200020F0A21BB30BE40BF50B661F771F881F7A
:101A3000991F1A9469F760957095809590959B0110
:101A4000AC01BD01CF010895EE0FFF1F0590F49189
:101A5000E02D099481E090E0F8940C94380DFB019E
:101A6000DC0102C001900D9241505040D8F708951A
:041A7000F894FFCF18
:101A7400FFFFFFFF00E100000000000000C18081C3
:101A84000000000000C1C081C1400101C3C0038047
:101A94000241C201C6C006800741C70005C1C58115
:101AA400C4400401CCC00C800D41CD000FC1CF81D6
:101AB400CE400E000AC1CA81CB400B01C9C00980C7
:101AC4000841C801D8C018801941D9001BC1DB8165
:101AD400DA401A001EC1DE81DF401F01DDC01D8017
:101AE4001C41DC0014C1D481D5401501D7C0178036
:101AF4001641D601D2C012801341D30011C1D18145
:101B0400D0401001F0C030803141F10033C1F38185
:101B1400F240320036C1F681F7403701F5C0358016
:101B24003441F4003CC1FC81FD403D01FFC03F80D5
:101B34003E41FE01FAC03A803B41FB0039C1F981C4
:101B4400F840380028C1E881E9402901EBC02B8026
:101B54002A41EA01EEC02E802F41EF002DC1ED8114
:101B6400EC402C01E4C024802541E50027C1E78135
:101B7400E640260022C1E281E3402301E1C0218046
:101B84002041E001A0C060806141A10063C1A38144
:101B9400A240620066C1A681A7406701A5C0658016
:101BA4006441A4006CC1AC81AD406D01AFC06F80D5
:101BB4006E41AE01AAC06A806B41AB0069C1A981C4
:101BC400A840680078C1B881B9407901BBC07B8066
:101BD4007A41BA01BEC07E807F41BF007DC1BD8114
:101BE400BC407C01B4C074807541B50077C1B78135
:101BF400B640760072C1B281B3407301B1C0718046
:101C04007041B00050C190819140510193C0538004
:101C14005241920196C056805741970055C1958113
:101C2400944054019CC05C805D419D005FC19F81D4
:101C34009E405E005AC19A819B405B0199C05980C5
:101C44005841980188C04880494189004BC18B8123
:101C54008A404A004EC18E818F404F018DC04D8015
:101C64004C418C0044C184818540450187C0478034
:101C74004641860182C042804341830041C1818143
:101C8400804040000000007F02ED011702CB0248B3
:101C94000226023A0200000000F702A1031F046BAF
:081CA400030D0323042F0400CB
:00000001FF
