:1000000000800020693C000091300000852F000036
:10001000852F0000852F0000852F0000852F000010
:10002000852F0000852F0000852F000091300000F3
:1000300091300000852F00001D5F0000A15D0000D1
:1000400091300000913000009130000091300000AC
:10005000913000009130000091300000913000009C
:10006000913000009130000091300000913000008C
:10007000913000009130000091300000913000007C
:10008000913000009130000091300000913000006C
:10009000913000009130000091300000913000005C
:1000A000F9690000ED690000913000009130000016
:1000B000913000009130000091300000913000003C
:1000C000913000009130000091300000913000002C
:1000D000913000009130000091300000913000001C
:1000E000913000009130000091300000913000000C
:1000F00091300000ED40000091300000E93F000029
:1001000091300000293F0000913000009130000044
:1001100091300000913000009130000091300000DB
:1001200091300000913000009130000091300000CB
:1001300091300000913000009130000091300000BB
:1001400091300000913000009130000091300000AB
:10015000913000009130000091300000913000009B
:1001600091300000214200009130000091300000E9
:10017000913000009130000091300000913000007B
:10018000913000009130000091300000913000006B
:10019000913000009130000091300000913000005B
:1001A000913000009130000091300000913000004B
:1001B000913000009130000091300000FFFFFFFF00
:1001C000FFFFFFFFFFFFFFFFFFFFFFFFFFFFFFFF3F
:1001D000FFFFFFFFFFFFFFFFFFFFFFFFFFFFFFFF2F
:1001E000FFFFFFFFFFFFFFFFFFFFFFFFFFFFFFFF1F
:1001F000FFFFFFFFFFFFFFFFFFFFFFFFFFFFFFFF0F
:10040000FFFFFFFFFFFFFFFFFFFFFFFFDEF9FFFF23
:1004100010B5054C237833B9044B13B10448AFF33E
:1004200000800123237010BD8897FF1F000000008B
:1004300068DA0000084B10B51BB108490848AFF353
:1004400000800848036803B910BD074B002BFBD0A0
:10045000BDE81040184700BF000000008C97FF1F48
:1004600068DA00008897FF1F0000000048F234029D
:10047000C4F20402F0B510684AF2F413C1F6FF7337
:1004800040F4806049F6605749F662561060C1F644
:10049000FF764AF22A054AF22C044AF23010C1F6DD
:1004A000FF77C1F6FF75C1F6FF74C1F6FF7093F8D0
:1004B00000E04FF4884200233B80C0F69502338071
:1004C0004E082B8032442380B2FBF1F10370BEF161
:1004D000000F56D0BEF1150F2DD048F60F73C1F6A0
:1004E000FF731B78012B34D0052B42D01F2939D83C
:1004F00000210E4601254FF42043C4F206034EF2BC
:100500002D404EF20412CEF200001E7004245D70E5
:10051000CEF200024FF0020E88273C264025997249
:100520009C704FF4005183F813E05C751F74DE700B
:1005300005701160F0BD4CF21803C4F2040340F2E0
:1005400013321A6048F60F73C1F6FF731B78012B44
:10055000CAD14AF24403C4F204034FF451721F2972
:100560001A60C5D9C1F34436C1F3471501F01F0124
:10057000C1E74CF21C03C4F204034FF451721A6039
:10058000B4E74AF24003C4F2040340F213321A60A3
:10059000A3E700BF38B549F2A474C1F6FF74002187
:1005A000256828460CF0CAFEC0B14BF6204029460B
:1005B000C4F63E400CF0BAFD0CF0CAFEA0802846FE
:1005C0000CF0C6FE48F65854C1F6FF7401462046AA
:1005D000FFF74CFF4FF4FA63A36038BD4FF4046398
:1005E000C4F2FE3340F2031283F880024AF2400361
:1005F000C4F204031A6038BD40282DE9F0470546CF
:1006000045D01CD80A284CD00AD8052805D804287B
:1006100047D2431E012B44D944E0082841D041E091
:10062000192832D004D810283BD0142839D039E00A
:1006300028282AD032282AD0202833D125E0FA28A9
:1006400029D00CD87D2824D004D850281FD0642865
:100650001FD027E0A0281CD0C8281CD022E0B0F56D
:10066000FA7F1AD006D8B0F5A07F14D0B0F5C87FB5
:1006700013D017E0B0F5487F11D0B0F57A7F0ED0D7
:1006800040F2712398420DD109E001260AE00226CA
:1006900008E0032606E0042604E0052602E006261C
:1006A00000E0002649F65C04C1F6FF7404F2444AF7
:1006B0004FF074094FF0760840F64847032E2BD0D0
:1006C00004D8012E12D0022E1BD004E0052E35D006
:1006D00029D3062E3DD0142384F84030162384F805
:1006E000413046F66C33C4F890303CE0342384F853
:1006F0004030362384F841304FF43F53C4F89030F3
:1007000031E0542384F84030562384F841304FF4CC
:10071000BF53C4F8903026E084F8409084F84180BC
:10072000C4F890701FE0942384F84030962384F836
:10073000413040F28463C4F8903014E0B42384F86C
:100740004030B62384F8413040F29633C4F89030FC
:1007500009E0D42384F84030D62384F8413040F2B5
:100760002623C4F8903020469C340AF0C9FB544537
:10077000A4D128460CF0CEFB01464FF41050C4F62D
:1007800074100CF0D3FC49F2A4740CF0E1FDC1F636
:10079000FF74A060BDE8F08749F2A473C1F6FF734F
:1007A000012200201A7302F0BBBC00BFF7B549F26A
:1007B000A476C1F6FF7606F134050FCD06F11007D9
:1007C0003C460FC40FCD0FC42B682370212138463F
:1007D00009F01AFD02AB232123F8020D38461B88CD
:1007E000A6F8313004F08CFB03B0BDE8F04004F013
:1007F00015BB00BF37B549F2A474C1F6FF7404F10C
:1008000034054521284609F0FFFC02AB472123F8B7
:10081000020D28461B88A4F8793004F071FB03B060
:10082000BDE8304004F0FABA37B549F2A474C1F615
:10083000FF7404F134054521284609F0E5FC02ABBC
:10084000472123F8020D28461B88A4F8793007F0C9
:100850004FF903B0BDE8304007F080B800B583B071
:1008600002A800F8011D012107F042F903B05DF86C
:1008700004FB00BF4DF250432DE9F04FC0F20003DE
:1008800049F2A474C1F6FF741B68E3674FF2C80312
:10089000C4F20F0349F65C058022C1F6FF751A60A9
:1008A000D5F890303022534385B001D0013BFDD1C3
:1008B00004F090FC0026814640F24448A8199C367A
:1008C000C0F8949049F65C0706F0F2F94645C1F687
:1008D000FF77F3D1D7F890303022534301D0013B5A
:1008E000FDD104F077FC0026804640F24447A81969
:1008F0009C36C0F8948006F0DBF9BE42F7D194F83C
:100900007D5094F87C6094F87E704FF0000949F6B1
:100910005C0BCDF80890CDF80090CDF80490CA4655
:10092000C1F6FF7B4FF00108A9469BF84C202AB185
:1009300008FA0AF216430123F6B20093DBF850508E
:100940000021CCF2202128460CF0F8FC70B10021E7
:10095000C4F2AA2128460CF0D3FC38B108FA0AF2F6
:1009600042EA090901235FFA89F90293DBF854305E
:10097000DBF868500393294618460CF0D5FCA8B163
:1009800046F26661C3F68671DBF864000CF01AFB70
:1009900029460CF00FFA014603980CF0BBFC28B175
:1009A00008FA0AF217430123FFB201930AF1010A80
:1009B000BAF1070F0BF19C0BB7D1019B4D460BB160
:1009C00084F87E70009B0BB184F87C60029B0BB1B5
:1009D00084F87D5009F064FF28B194F87F3043F02B
:1009E000010384F87F3009F02BFC28B194F87F30A4
:1009F00043F0020384F87F3000F050FE02280AD052
:100A000003280FD0012813D194F87F3043F004035A
:100A100084F87F300CE094F87F3043F0080384F8CA
:100A20007F3005E094F87F3043F00C0384F87F308A
:100A300009F016F849F63C53C1F6FF7300219D6991
:100A4000CCF2202128460CF079FC60B10021C4F2E0
:100A5000FA2128460CF054FC28B194F87F3043F07A
:100A6000100384F87F304AF208204421C1F6FF7059
:100A700009F0CAFB4AF24E23C1F6FF731B8883427A
:100A800005D194F87F3043F0200384F87F3094F848
:100A90007C2049F2A473FF2AC1F6FF7311D193F8A9
:100AA0007D20FF2A0DD193F87E20FF2A09D193F8EB
:100AB0007F30FF2B05D14FF2C403C4F20F03802215
:100AC0001A6005B0BDE8F08F10B549F2A474C1F604
:100AD000FF7494F8802094F8811094F8820008F054
:100AE00099FE49F6E843C1F6FF734FF41050D96CF4
:100AF000C4F674100CF01AFB0CF02AFCC4F8840045
:100B000010BD00BF08B549F2A473C1F6FF73B3F876
:100B10008800FFF771FDFFF7D7FFBDE8084039E512
:100B200070B506F0C7FA49F65C0500242726C1F621
:100B3000FF7506FB045120465831043406F096FA3E
:100B40001C2CF6D149F6E441C1F6FF71204606F0AF
:100B50008DFA49F65851C1F6FF71202006F086FA49
:100B600049F2A471C1F6FF71282006F07FFA49F618
:100B70002451C1F6FF712C2006F078FA49F62C01B9
:100B8000C1F6FF71302006F065FA49F62E01C1F674
:100B9000FF71322006F056FA49F2B071C1F6FF71CA
:100BA000332006F04FFA49F62F01C1F6FF713420C9
:100BB00006F048FA49F62601C1F6FF71352006F025
:100BC00041FA49F62501C1F6FF71362006F03AFADE
:100BD00049F62401C1F6FF71372006F033FA49F6D1
:100BE0001851C1F6FF71382006F040FA49F61C5141
:100BF000C1F6FF713C2006F039FA49F62051C1F6E2
:100C0000FF71402006F032FA4AF24E21C1F6FF7120
:100C10004420BDE8704006F01DBA00BF2DE9F84F32
:100C200041F21C03C4F2FE33002583F880524BF2DC
:100C30001C03C4F204034FF480724FF288041A605C
:100C4000C4F20F040B2001F0A5FA402323600D200D
:100C500001F0A0FA202323604DF2544B4DF2804264
:100C600001244FF4A27E41F2100C4BF210014FF21E
:100C700084062B46C0F2000BC0F20002C4F2FE3C18
:100C8000A246C4F20401F146C4F20F064FF0100868
:100C900013F80B0021280CD802EBC0056F6852F83E
:100CA000305085F88042C7F800E03D6825F0200507
:100CB0003D6052F8300080F880408CF880A2C1F886
:100CC00000900868013320F02000072B0860C6F868
:100CD0000080DDD141F60403C4F2FE33002483F822
:100CE00080424CF20403C4F204034FF480721A6091
:100CF000052001F04FFA4FF2C803C4F20F0380221F
:100D00001A60FFF70DFF49F65C059C26C1F6FF75DA
:100D10004DF25443C0F2000306FB0450195D013448
:100D200008F05EFC072CF3D109F034F908F082FFDB
:100D300001F0F0FB49F2A473C1F6FF73232283F89C
:100D4000342048F66C53C1F6FF734FF4FA629A6090
:100D5000FFF7D8FEFFF78EFDBDE8F84FD2E600BFE3
:100D60002DE9804891B000AF0023FB61C7F81F3028
:100D700004F030FA01237B6149F2A4764AF2400B79
:100D80004FF40463C1F6FF76C4F2040BC4F2FE33E1
:100D90008046B860824638613446FB60C7F804B0CC
:100DA0007B6943B349F65C0B002307F11B09C1F6CD
:100DB000FF7B7B6119F8015F012D13D804F00AFA5B
:100DC000DBF89430DBF89020C31A934209D3CBF8B8
:100DD00094000135584605F06BFF89F80050012357
:100DE00000E0012349F6A0420BF19C0BC1F6FF7213
:100DF0009345DFD17B6104F0EDF9BB68C21AD6F8E8
:100E000084309A42054606D308F02AFE06F0AEFA70
:100E100008F05EF8BD6004F0DDF9A368C8EB0000DF
:100E2000984256D349F6B002C1F6FF721146984473
:100E300049F2D973C1F6FF7351F89C0B186008682A
:100E40005860D2F838019860D2F8D401D860D2F84E
:100E500070021861D2F80C035861D2F8A8039861A7
:100E600049F65452C1F6FF7249F6DC41C1F6FF71F2
:100E70001068D8610A4652F804091862106858626E
:100E800049F6005248689862C1F6FF7203CAD862F8
:100E900052F8040B1963586303CA9863D963106846
:100EA000186496F88A30012B08D196F88B30012B04
:100EB00002D1FFF79FFC01E0FFF778FC237B012BB9
:100EC00001D1FFF7B1FC0023FB61C7F81F300123FC
:100ED0007B6104F07FF93B69C21A42F20F739A42B8
:100EE000814640F21C8249F6A063C1F6FF739988DF
:100EF00049F6AC63C1F6FF731A681AB113885288B9
:100F00009B1A194411F0FF0100F00782CB1D23F05A
:100F10000703EB46ADEB030D684601F02BFA9DF895
:100F20000030402B6D4640F0F4819DF80130582B85
:100F300000F0C8814FD84A2B00F0B08123D8442B51
:100F400000F0F78016D8412B00F06081422B40F072
:100F5000E081DDF80200206049F2A471C1F6FF7162
:100F6000282006F05BF806F0A5F806F08DF8FFF7EC
:100F700011FBCEE1462B00F07781472B40F0C98171
:100F8000FFF752FCC5E1522B00F0C98015D84E2B5B
:100F900000F03281502B40F0BC8149F62F019DF8C2
:100FA000023084F88B30C1F6FF71342006F040F82F
:100FB00006F080F806F068F8ABE1542B00F0BF8033
:100FC000C0F08480572B40F0A481A81C06F080F864
:100FD000FFF798FD9DE1672B55D02AD8612B00F0D3
:100FE000198112D8592B00F022815A2B40F091819F
:100FF000012006F097F84AF208201C21C1F6FF7084
:1010000006F076FD06F0AAFC83E1642B00F09480E4
:10101000662B00F03481622B40F07B8107F14000A9
:10102000236840F81C3D042106F062FD06F096FCA2
:101030006FE1742B00F0DB8005D8702B00F0088185
:10104000732B45D065E1792B00F0F5807A2B49D0E0
:10105000782B40F05E8149F6E843C1F6FF73032127
:1010600093F8502087F8242007F1240093F85120AA
:1010700093F8523087F8252087F8263006F038FD9F
:1010800006F06CFC45E149F2B475C1F6FF7505F157
:10109000240EBEE80F000FC5BEE80F000FC528469E
:1010A000DEF8003000F82039212109F0ADF807F111
:1010B0004003232123F81C0D1B88A5F80130A5F15E
:1010C000200006F015FD06F049FC22E1FFF7D2FBF7
:1010D00049F620000421C1F6FF7006F009FD06F074
:1010E0003DFC16E1002007F1240506F01BF81C2248
:1010F0000021284609F0CCFF49F65C030021272295
:10110000C1F6FF7302FB0130806D685004311C2969
:10111000F8D1284606F0ECFC06F020FCF9E04AF293
:1011200008204621C1F6FF7006F0E2FC06F016FC2E
:10113000EFE001232373ECE000232373E9E07B68F5
:101140001B6813F4E06F0AD1FA68002382F880323A
:101150004AF24002C4F204024FF48073136048F272
:101160000023C1F6FF7348F22172C1F6FF72C3F883
:101170009C2148F25172C1F6FF72C3F8A02148F2D7
:101180008172C1F6FF72C3F8A42148F2B572C1F6AC
:10119000FF72C3F8A82148F2E972C1F6FF72C3F8E2
:1011A000AC2172B64AF24003C4F204034AF2400290
:1011B0001B68C4F2040223F47023136048F6B8528B
:1011C000C1F6FF7240F29971C0F2000111644AF257
:1011D0004002C4F2040243F08573136062B607F163
:1011E0004000012100F8261D06F082FC91E000205D
:1011F000207301F095FF8CE04AF22C200421C1F607
:10120000FF7006F075FC06F0A9FB82E007F14001D3
:10121000012302E007F14001002341F81C3D332087
:1012200005F0FCFE05F046FF05F02EFF71E007F12A
:101230004001012302E007F14001002341F81C3D79
:10124000322005F0EBFE05F035FF05F01DFF60E0F4
:1012500007F1400094F88B3000F8253D012106F09D
:1012600047FC06F07BFB54E09DF802109DF803005C
:1012700002F048FEA4F88800FFF7BEF949E0B4F890
:10128000883087F8243002211B1207F1240087F8E8
:10129000253006F02DFC06F061FB3AE09DF80210C7
:1012A0009DF8030002F02EFE07F14003022223F80E
:1012B0001C0D3021184602F035F805F0FBFE05F054
:1012C000E3FE26E09DF8023084F882309DF803307A
:1012D00084F881309DF8043084F88030FFF7F4FB07
:1012E00049F62601C1F6FF71352005F0A1FE49F649
:1012F0002501C1F6FF71362005F09AFE49F624015A
:10130000C1F6FF71372005F093FE05F0D3FE05F01E
:10131000BBFEDD46C7F8109001E0C7F81090CAEB9D
:10132000090242F20F739A4202D8D146CA4637E503
:10133000002120680CF002F80028F7D049F6605030
:1013400049F6625EC1F6FF70C1F6FF7E0188BEF805
:10135000003089B29BB2994238BF01F58071C91A39
:1013600011F0FF01E2D0A3884FF0180C6D460CFB82
:1013700003FCBCF1000F02D06346013BFDD10388A2
:10138000BEF800201FFA83FA93B29A4538BF0AF5D7
:10139000807AC3EB0A03DBB28B4201D01946E8E73F
:1013A000CB1D23F00703ADEB030D684600F006FFED
:1013B0009DF80030402B40F06E819DF80130582B95
:1013C00000F042814DD84A2B00F01F8123D8442BD6
:1013D00000F0D18016D8412B00F0DB80422B40F08A
:1013E0005A81DDF80200206049F2A471C1F6FF7154
:1013F000282005F013FE05F05DFE05F045FEFFF721
:10140000C9F848E1462B00F0E680472B40F04381C5
:10141000FFF7F0F93FE1522B00F0A38015D84E2BD7
:1014200000F0AD80502B40F0368149F62F019DF839
:10143000023084F88B30C1F6FF71342005F0F8FDDE
:1014400005F038FE05F020FE25E1532B5FD0572B29
:1014500040F021810DF1020005F03AFEFFF752FB4A
:1014600019E1662B00F0C28020D8612B00F0958036
:1014700012D8592B00F09E805A2B40F00C8101208D
:1014800005F050FE4AF208201C21C1F6FF7003F05F
:1014900037FD03F0C3FCFEE0622B00F0CA80642B32
:1014A00040F0F980002384F88A30F4E0732B30D0C8
:1014B0000BD8672B28D0702B40F0ED8094F88B0070
:1014C00003F0ACFD03F0AAFCE5E0792B76D07A2B93
:1014D00029D0782B40F0DF8049F6E843C1F6FF734E
:1014E000032193F8502087F8242007F1240093F873
:1014F000512093F8523087F8252087F8263003F0E2
:10150000FFFC03F08BFCC6E0FFF750F9C3E0FFF7E8
:10151000B1F949F620000421C1F6FF7003F0F0FC98
:1015200003F07CFCB7E0002007F1240A05F0FAFD87
:101530001C220021504609F0ABFD49F65C03002156
:101540002722C1F6FF7302FB0130806D4AF80100CB
:1015500004311C29F7D1504603F0D2FC03F05EFCA5
:1015600099E04AF208204621C1F6FF7003F0C8FC5A
:1015700003F054FC8FE0012384F88A308BE04AF2B8
:101580002C200421C1F6FF7003F0BAFC03F046FCE6
:1015900081E007F14001012302E007F1400100234F
:1015A00041F81C3D332005F039FD05F083FD05F0C1
:1015B0006BFD70E007F14001012302E007F14001FB
:1015C000002341F81C3D322005F028FD05F072FD96
:1015D00005F05AFD5FE09DF802109DF8030002F04F
:1015E00091FCA4F88800FFF707F854E0B4F88830BD
:1015F00087F8243002211B1207F1240087F82530D8
:1016000003F07EFC03F00AFC45E09DF802109DF813
:10161000030002F077FC07F14003022223F81C0DBF
:101620003021184601F07EFE05F044FD05F02CFD4A
:1016300031E007F14000236840F81C3D042103F02D
:101640005FFC03F0EBFB26E09DF8023084F882306B
:101650009DF8033084F881309DF8043084F88030A0
:10166000FFF732FA49F62601C1F6FF71352005F081
:10167000DFFC49F62501C1F6FF71362005F0D8FCE4
:1016800049F62401C1F6FF71372005F0D1FC05F0C1
:1016900011FD05F0F9FCAD4648E600BF2DE9F04F1D
:1016A00049F63404C1F6FF7449F6E8462069012181
:1016B0000022C1F6FF76C0F8441280F85522337834
:1016C000D0F8445222718B40B5F5817F85B080F807
:1016D0003C3140F27683D0F844322171B3F5817FFA
:1016E00040F27E8301232371617B01F057FA49F6B2
:1016F00034026023C1F6FF72013BFDD120693378CB
:1017000001250021C0F8445280F85512D0F84472E7
:101710002171AB40B7F5817F80F83C3140F2928374
:101720001571D0F84432B3F5817F40F281830123F3
:101730002371617B49F6340701F030FAC1F6FF7777
:101740006023013BFDD100F03FFF25693378012183
:101750000022C5F8441285F85522D5F844022271BA
:101760008B40B0F5817F85F83C3140F25783397169
:101770000022617B284601F027F803F02BFDD5F805
:10178000789272B64EF2180349F65C584EF604523F
:10179000C1F6FF78CEF20003CEF200021B68D8F843
:1017A0000070126862B6500102D5322B88BF013733
:1017B000C3F58C3348F6396103F23F13C3F6E301F6
:1017C0004FF47A70A1FB032300FB07F707EB131715
:1017D000B9F1000F40F0B98395F85532072BFBD8CB
:1017E00095F85532072B84BF012385F855326023C5
:1017F000013BFDD127693278617B95F8553297F826
:1018000055323846062308F027FA03F0E3FCD7F8F0
:10181000785203F0DFFC8146002D40F0518397F8A9
:101820005532072BFBD897F85532072B84BF01237D
:1018300087F855326023013BFDD197F855320BB93B
:10184000D7F83831D4F81090D9F83411D9F83821B4
:10185000914280F08D84D9F83421511C4A44C9F852
:10186000341192F83010D9F83401D9F83821317494
:10187000904280F07A84D9F83421501C4A44C9F847
:10188000340192F83000D9F83451D9F83821F07386
:10189000954280F06684D9F83421551C4A44C9F831
:1018A000345192F830B0D9F83451D9F8382186F84B
:1018B00012B0954280F05184D9F83421551C4A4425
:1018C000C9F8345192F830A0D9F83451D9F83821F8
:1018D00086F811A0954280F03D84D9F83421551C3A
:1018E0004A44C9F8345192F83070D9F83451D9F8D3
:1018F00038213775954280F02A84D9F83421551C57
:101900004A44C9F8345192F83050F57402F0FAFAAA
:10191000010400F10B840BF0FDFA4FF082410BF053
:1019200051FB4FF060510BF04DFB59460190504672
:1019300002F0E8FA030400F1F1830BF0EBFA4FF048
:1019400082410BF03FFB4FF060510BF03BFB3946FF
:101950000290284602F0D6FA050400F1D7830BF076
:10196000D9FA4FF082410BF02DFB4FF060510BF094
:1019700029FB002103900120C9F8440289F855127F
:101980003278D9F844522171824049F63401B5F5D4
:10199000817F89F83C21C1F6FF7140F2868208718F
:1019A000D9F84422B2F5817F40F27482012222717B
:1019B0004846617B01F0F2F849F634026023C1F633
:1019C000FF72013BFDD12069337801250021C0F869
:1019D0004452AB4080F8551280F83C31D0F8443284
:1019E0002171B3F5817F40F24B821571D0F84432FA
:1019F000B3F5817F40F23A8201232371617B49F67E
:101A0000340701F0CBF8C1F6FF776023013BFDD12D
:101A100000F0DAFD2569337801210022C5F844126F
:101A20008B4085F8552285F83C31D5F84432227137
:101A3000B3F5817F40F2108239710022617B284624
:101A400000F0C2FE03F0C6FBD5F8787203F0C2FBCB
:101A50008246002F40F0FB8295F85532072BFBD8C9
:101A600095F85532072B84BF012385F85532602342
:101A7000013BFDD127693278617B95F8553297F8A3
:101A800055323846062308F0E7F803F0A3FBD7F8F1
:101A9000785203F09FFB8246002D40F0948297F825
:101AA0005532072BFBD897F85532072B84BF0123FB
:101AB00087F855326023013BFDD197F855320BB9B9
:101AC000D7F83831D4F81090D9F83411D9F8382132
:101AD000914280F05283D9F83421511C4A44C9F80C
:101AE000341192F83010D9F83401D9F83821317412
:101AF000904280F04083D9F83421501C4A44C9F800
:101B0000340192F83000D9F83451D9F83821F07303
:101B1000954280F03B83D9F83421551C4A44C9F8DA
:101B2000345192F830A0D9F83451D9F8382186F8D8
:101B300012A0954280F02783D9F83421551C4A44DD
:101B4000C9F8345192F83080D9F83451D9F8382195
:101B500086F81180954280F01483D9F83421551C01
:101B60004A44C9F8345192F83070D9F83451D9F850
:101B700038213775954280F00283D9F83421551CFD
:101B80004A44C9F8345192F83050F57402F0BAF969
:101B9000030400F1B3820BF0BDF94FF082410BF06A
:101BA00011FA4FF060510BF00DFA51468346404652
:101BB00002F0A8F9010400F199820BF0ABF94FF0A3
:101BC00082410BF0FFF94FF060510BF0FBF9394601
:101BD0008046284602F096F9030400F17F820BF05C
:101BE00099F94FF082410BF0EDF94FF060510BF095
:101BF000E9F95946054601980BF0DAF80021074645
:101C00000BF09CFB002800F0668238464FF08041C4
:101C10000BF094FB30B3414602980BF0C9F8002159
:101C200007460BF08BFB002800F0898238464FF006
:101C300080410BF083FBA8B1294603980BF0B8F85C
:101C4000002105460BF07AFB002800F07B82284635
:101C50004FF080410BF072FB4FF0010700B90746CF
:101C60007FB200E0074600210120C9F8440289F84C
:101C700055123278D9F844522171824049F6340124
:101C8000B5F5817F89F83C21C1F6FF7175D9D9F886
:101C900044220871B2F5817F7ED901222271617BD5
:101CA000484600F07BFF00F08FFC2069337800226B
:101CB0000121C0F8441280F85522D0F84452227114
:101CC0008B4049F63402B5F5817F80F83C31C1F68E
:101CD000FF726CD91171617B00F0A2FE2569327828
:101CE000617B2846012307F0B7FF284600F0CAFCB5
:101CF00008B1D5F838312069D0F83421D0F838311E
:101D00009A4280F02282D0F834315A1C0344C0F841
:101D1000342193F8305005F002056DB26023013B89
:101D2000FDD100220121C0F8441280F855223378F9
:101D3000D0F8446222718B403D4349F63402B6F537
:101D4000817F80F83C31EDB2C1F6FF725CD9117130
:101D5000D0F84432B3F5817F4CD901232371617BE4
:101D600000F01CFF6023013BFDD100F02DFC06F0CC
:101D7000DFFC284605B0BDE8F08FD9F8442209EB16
:101D8000020102446D20C9F8442281F83C01D9F8CF
:101D90004422B2F5817F80D8D9F8442209EB0201B0
:101DA00010200132C9F8442281F83C0177E7D0F8CD
:101DB0004432C2180B449B21C0F8443282F83C11D3
:101DC00089E7D0F84432C2180B444021C0F84432AD
:101DD00082F83C11D0F84432B3F5817F3FF682ACF3
:101DE000D0F84432C2182C210133C0F8443282F8B2
:101DF0003C1179E4D0F84432C21800210133C0F814
:101E0000443282F83C11AAE7D0F84432C2180B449D
:101E10006D21C0F8443282F83C1199E7D5F844327C
:101E2000EA180B449221C5F8443282F83C119FE431
:101E3000D0F84432C21805210133C0F8443282F888
:101E40003C1176E4D0F84432C2186D212B44C0F81E
:101E5000443282F83C1164E4D5F84432EA180B4469
:101E60009221C5F8443282F83C11E6E5D0F84432BC
:101E7000C21801210133C0F8443282F83C11BDE59B
:101E8000D0F84432C2186D212B44C0F8443282F895
:101E90003C11ABE5D9F8442209EB02012C200132B8
:101EA000C9F8442281F83C0182E5D9F8442209EBC3
:101EB000020102444020C9F8442281F83C016FE548
:101EC0004EF2180E4EF6045048F63961CEF2000E6E
:101ED000CEF20000C3F6E3014FF47A7C97F8553256
:101EE000072B19D972B6DEF80030D8F80020D0F8E8
:101EF00000A062B61AF0806F02D0322B00D90132F6
:101F0000C3F58C3303F23F13A1FB03A3C9EB1313F7
:101F10000CFB02339D42E1D803F05CF9C9EB0000F1
:101F200085423FF680AC97F84832022B7FF47BACB9
:101F300097F85E32002B3FF476AC97F85532072BBA
:101F4000FBD8012387F855326DE44EF2180C4EF69B
:101F5000045ECEF2000CCEF2000E95F85532072B3F
:101F600019D972B6DCF80030D8F80020DEF800A0ED
:101F700062B61AF0806F02D0322B00D90132C3F55D
:101F80008C3303F23F13A1FB03A3C7EB131300FB36
:101F900002334B45E1D303F01DF9C01B81453FF6E9
:101FA0001FAC95F84832022B7FF41AAC95F85E32DC
:101FB000002B3FF415AC95F85532072BFBD80123C5
:101FC00085F855320CE44EF2180C4EF6045E48F6D5
:101FD0003960CEF2000CCEF2000EC3F6E3004FF4EF
:101FE0007A7B97F85532072B18D972B6DCF8003097
:101FF000D8F80020DEF8001062B6490102D5322B75
:1020000000D90132C3F58C3303F23F13A0FB031355
:10201000CAEB13130BFB0233AB42E2D303F0DAF843
:10202000CAEB000085423FF63EAD97F84832022BDE
:102030007FF439AD97F85E32002B3FF434AD97F85A
:102040005532072BFBD8012387F855322BE54EF28A
:10205000180C4EF6045E48F63960CEF2000CCEF253
:10206000000EC3F6E3004FF47A7B95F85532072B48
:1020700018D972B6DCF80030D8F80020DEF800106D
:1020800062B6490102D5322B00D90132C3F58C3337
:1020900003F23F13A0FB0313CAEB13130BFB023332
:1020A000BB42E2D303F096F8CAEB000087423FF64A
:1020B000D7AC95F84832022B7FF4D2AC95F85E325B
:1020C000002B3FF4CDAC95F85532072BFBD80123FC
:1020D00085F85532C4E407F1004097E5C24390B259
:1020E00001300AF017FF00F100407AE5C24390B2D8
:1020F00001300AF00FFF00F1004060E5C24390B2EA
:1021000001300AF007FF00F1004046E5C24390B2FB
:1021100001300AF0FFFE00F1004022E4C24390B219
:1021200001300AF0F7FE00F1004008E4C24390B22B
:1021300001300AF0EFFE00F10040FFF7EEBB07F1BF
:10214000004074E505F1004082E50225E6E5FF2543
:10215000FFF7DBBBFF27FFF7C8BB4FF0FF0AFFF716
:10216000B3BB4FF0FF0BFFF79EBBFF20FFF78BBB0E
:10217000FF21FFF778BBFF20C5E4FF21B3E4FF2573
:1021800003E5FF27F1E44FF0FF08DDE44FF0FF0A1D
:10219000C9E400BF4DF25C43C0F2000303EBC00092
:1021A0000121426A836A82F880124FF4A2721A6097
:1021B0001A6822F020021A60704700BF2DE9F04F24
:1021C000054683B0002865D00E46002944D049F664
:1021D0003007C1F6FF7748F62009BA46B846C1F67F
:1021E000FF79002419E008EB0302D8F8340692F8CE
:1021F00034251FFA83FED2B2A8F832E540B19942E5
:1022000038BF01F58071CB1ADA2B01DC0023037093
:102210000134A64205F8012B1ED0D7F82C350193C6
:10222000DDF804B0B7F83035B7F8322599B292B27C
:10223000914215D0531CFF2BD5D998F83425D8F8E6
:1022400034060023D2B2A8F832350028DBD101349D
:10225000A64205F8012BE0D1304603B0BDE8F08F6F
:102260009AF838360BB905F043FBD7F82C350093B4
:10227000009AD9F84035CBEB020248F620019A4289
:10228000C1F6FF71CED30123204681F8443503B057
:10229000BDE8F08F03B0BDE8F08F00BF72B649F61D
:1022A0003003C1F6FF7393F83F26012A24D01DD3D3
:1022B000022A07D0032A25D148F298020421C1F648
:1022C000FF7204E048F29002C1F6FF72052183F824
:1022D0003F16018812F0080F14BFC8238823083066
:1022E00043EA01435060136062B6704748F29002BF
:1022F0000321C1F6FF72EAE748F298020221C1F613
:10230000FF72E4E7D3F84C2632B1D3F85C26506074
:10231000C3F85C0662B67047C3F84C06F8E700BF26
:1023200072B649F63003C1F6FF73D3F84C3633B1B9
:1023300000205B680130002BFBD162B67047184665
:10234000FBE700BF72B649F63003C1F6FF73D3F85E
:10235000680660B10188B3F8742610B4521A446854
:10236000C3F86846A3F8742662B610BC704762B61C
:10237000704700BF2DE9F04F49F63004C1F6FF74F5
:1023800089B0D4F82C350793079B059348F6396A32
:10239000002304900391A346C3F6E30A0293049A30
:1023A000029BD618039AD51A00F0B18094F87836BB
:1023B00003F0FF0723B30027D4F87C36002B41D06D
:1023C0001A8859880193C1EB0208A84528BFA8467E
:1023D00003F1080211443046424609F00BFB019B11
:1023E0005A881988424492B291424744C8EB050585
:1023F00046445A801FD91DB194F87836002BDBD1A2
:10240000029B039A3B449A42029310D9D4F82C358C
:10241000069348F62003C1F6FF73069A0598D3F891
:102420005415121A8A42BAD3012283F85825029809
:1024300009B0BDE8F08F184605F0AAFC0023C4F8E7
:102440007C36D8E748F2BC3948F62008C1F6FF7957
:10245000C1F6FF78FFF776FF0346C4F87C06002834
:10246000CED00288002AACD1C9EB0001AAFB01E161
:1024700009090B29EED89BF880E6BEF1000F04D0C5
:102480009BF878E6BEF1000F12D172B64FF0004211
:10249000D8F8483522FA01F10B43C8F8483562B63E
:1024A000FFF750FF0346C4F87C060028D9D1A7E700
:1024B00072B648F2000EC1F6FF7EDEF8601041B140
:1024C000DEF86810A1B162B68BF8802605F060FCDA
:1024D000C0E79BF880260833CEF864308823013AA1
:1024E000C0F240038BF88026CEF8603062B6B1E7C8
:1024F0009BF880260833CEF86C30C823013AC0F22E
:1025000040038BF88026CEF8683062B6A2E72F46EB
:1025100076E700BF70B541F6040149F630044CF28D
:102520000402C1F6FF74C4F20402C4F2FE3148F69C
:10253000200500230E264FF48070C1F6FF7584F845
:10254000206581F88032106095F85C2584F881362A
:10255000102A07D094F88226102185F85C1522BB3A
:1025600001F020F994F8823653BB4BF224010A465D
:10257000C4F20B02C4F2030106230B60136094F84B
:10258000830649F63003102485F85D45C1F6FF73D4
:10259000A8B193F88246002083F883060CB1086046
:1025A0001060BDE8704001F0FDB84BF224010A460E
:1025B000C4F20B02C4F203010B601360D0E770BDDC
:1025C00001F022F8D1E700BF2DE9F84372B64EF2D0
:1025D000180349F630064EF60452C1F6FF76CEF2E5
:1025E0000003CEF200021B68D6F82C45126862B6D2
:1025F000520102D5322B88BF0134C3F58C3348F623
:10260000396703F23F13C3F6E3074FF47A72A7FB6F
:10261000031302FB04F44EF218094EF6045804EBBF
:102620001314CEF20009CEF20008642572B6D9F870
:102630000010D6F82C25D8F800E062B6C1F58C332E
:1026400003F23F13A7FB03031EF0806FC4EB1313C9
:102650004FF47A7002D0322988BF013200FB023376
:10266000B3F57A7F04D3013D09D004F57A74DDE730
:1026700096F83836002BD9D105F03AF9D6E7BDE8FF
:10268000F88300BF2DE9F04172B64EF2180349F607
:1026900030044EF60451CEF20003C1F6FF74CEF2C0
:1026A00000011A68D4F82C250A6862B6D0F878526E
:1026B00072B61B68D4F82C25096862B6490102D5A8
:1026C000322B88BF0132C3F58C3348F6396603F2EA
:1026D0003F13C3F6E3064FF47A77A6FB031307FB19
:1026E00002F202EB1311A5B990F85532072BFBD873
:1026F00090F85532072B84BF012380F855326023B0
:10270000013BFDD190F85502B0FA80F04009BDE8D8
:10271000F0814EF2180C4EF6045ECEF2000CCEF2B2
:10272000000E90F85522072A19D972B6DCF800304D
:10273000D4F82C25DEF8008062B618F0806F02D045
:10274000322B00D90132C3F58C3303F23F13A6FBC1
:102750000383C1EB131307FB02339D42E1D872B62A
:102760004EF218024EF60453CEF20002CEF20003EF
:102770001268D4F82C451B6862B65B0102D5322A78
:1027800088BF0134C2F58C3248F6396302F23F1239
:10279000C3F6E303A3FB0223C1EB13134FF47A71D7
:1027A00001FB04339D42A3D890F84832022B9FD1FD
:1027B00090F85E32002B9BD090F85532072BFBD857
:1027C000012380F8553293E72DE9F04FD0F84432D9
:1027D00085B000258DF80F5063B1D0F87862C368DA
:1027E000122517461D7032460DF10F03044604F002
:1027F00043F910B905B0BDE8F08F94F84832BBB189
:102800009DF80F20A2B9591E0129F3D80821022BE7
:1028100084F8551284F85472C4F8402200F0D08035
:10282000A368F0221A70236994F83C211A70E1E73A
:1028300002F0D0FC082384F85532D4F8445284F8CE
:1028400054728046002D00F0B98049F630034EF2F4
:1028500018094EF6045B48F6396AC1F6FF73CEF2EA
:1028600000090193CEF2000BC3F6E30A04F23B1712
:102870000025002E32D1236917F8011F1970E16875
:102880000B789A07FCD502230B70E1680B78DBB25A
:10289000DA0663D4DB0773D4D4F844320135AB4293
:1028A000E7D894F85422A368012A0CBF8022B022F2
:1028B0001A70D4F84432AB4244D9012384F855321B
:1028C000D4F88032013304D0D4F880320133C4F814
:1028D0008032D4F87032002B3CD18BE702F07AFCC6
:1028E000C8EB00008642DCD9236917F8011F197074
:1028F000E3684FF47A71187880071AD472B6019A97
:10290000D9F80030D2F82C05DBF8002062B652016D
:1029100002D5322B00D90130C3F58C3303F23F13BB
:10292000AAFB0323C8EB131301FB00339E42E368A9
:10293000E1D80221197002F04DFCC8EB000086427C
:10294000A3D8AEE7D4F86032002284F85522002BD9
:102950003FF450AF984705B0BDE8F08F0422102334
:1029600084F855220B70A36880221A70D4F88C3238
:102970000133AED0D4F88C320133C4F88C32A8E7DE
:102980007DB9022384F85532D4F88432013304D05F
:10299000D4F884320133C4F88432A36880221A70D8
:1029A00097E7032384F85532D4F888320133F4D002
:1029B000D4F888320133C4F88832EEE73A4672E739
:1029C000D4F84432042B7FF62BAFD4F874120120D4
:1029D0000D6884F85E02D4F84432EA710E68A8806B
:1029E00004F59F772F60B0600D68033B98B2E883D1
:1029F00009685B42EB60C882D4F8741220690B68E6
:102A0000B0F1804F9A7118619A820B6801D39A686D
:102A100012B901229A600B6800229A6100E700BF98
:102A20002DE9F04100220446FFF7CEFE72B64EF2C9
:102A3000180349F630024EF60450CEF20003C1F6F8
:102A4000FF72CEF200001968D2F82C15016862B648
:102A5000D4F8785272B61B68D2F82C15006862B6AA
:102A6000400102D5322B88BF0131C3F58C3348F6C3
:102A7000396603F23F13C3F6E3064FF47A77A6FBF9
:102A8000030307FB01F101EB13105DBB94F8553212
:102A9000072BFBD894F85532072B84BF012384F809
:102AA00055326023013BFDD1536994F8551293F8D8
:102AB0005502C0B2032809D00AD9052805D001D390
:102AC000062809D10420BDE8F0810120BDE8F0818D
:102AD0000128F7D00228F9D0107A003018BF012061
:102AE000BDE8F0814EF2180C4EF6045ECEF2000CFA
:102AF000CEF2000E94F85512072919D972B6DCF8F7
:102B00000030D2F82C15DEF8008062B618F0806F25
:102B100002D0322B00D90131C3F58C3303F23F13BD
:102B2000A6FB0383C0EB131307FB01339D42E1D8DF
:102B300072B64EF218014EF60453CEF20001CEF2F8
:102B400000030968D2F82C651B6862B65B0102D5E8
:102B5000322988BF0136C1F58C3148F6396301F25C
:102B60003F11C3F6E303A3FB0113C0EB13134FF4B0
:102B70007A7000FB06339D428CD894F84832022BC1
:102B800088D194F85E32002B84D094F85532072B0C
:102B9000FBD8012384F855327CE700BF2DE9F041D2
:102BA00001220446FFF710FE72B64EF2180349F6F2
:102BB00030024EF60450CEF20003C1F6FF72CEF2A0
:102BC00000001968D2F82C15016862B6D4F8785262
:102BD00072B61B68D2F82C15006862B6400102D5A7
:102BE000322B88BF0131C3F58C3348F6396603F2C6
:102BF0003F13C3F6E3064FF47A77A6FB030307FB04
:102C000001F101EB13105DBB94F85532072BFBD893
:102C100094F85532072B84BF012384F85532602382
:102C2000013BFDD1536994F8551293F85502C0B297
:102C3000032809D00AD9052805D001D3062809D1CF
:102C40000420BDE8F0810120BDE8F0810128F7D023
:102C50000228F9D0107A003018BF0120BDE8F081B9
:102C60004EF2180C4EF6045ECEF2000CCEF2000EC0
:102C700094F85512072919D972B6DCF80030D2F849
:102C80002C15DEF8008062B618F0806F02D0322B6F
:102C900000D90131C3F58C3303F23F13A6FB038344
:102CA000C0EB131307FB01339D42E1D872B64EF21D
:102CB00018014EF60453CEF20001CEF2000309686B
:102CC000D2F82C651B6862B65B0102D5322988BF39
:102CD0000136C1F58C3148F6396301F23F11C3F674
:102CE000E303A3FB0113C0EB13134FF47A7000FB53
:102CF00006339D428CD894F84832022B88D194F840
:102D00005E32002B84D094F85532072BFBD8012378
:102D100084F855327CE700BF49F63003C1F6FF73F3
:102D20005A69D2F84412B1F5817F04D901221A728E
:102D3000002318467047D2F84432D1180133C2F844
:102D40004432012381F83C01F3E700BF08B500F0ED
:102D5000B1FB49F63000C1F6FF7008BD2DE9F04720
:102D600049F63004C1F6FF7448F61C0846F6594788
:102D70000025C1F6FF78C0F200074FF47A7A48F6D2
:102D800020064DF26449C0F20009424639462572D8
:102D9000C1F6FF762574201DC4F80CA06574C4F834
:102DA0000490666108F03AF906F5277642463946FE
:102DB0000123257784F8245004F11800C4F820A0DA
:102DC00084F82530A662C4F8189008F027F9FFF7B8
:102DD000BDFF4BF6CC42C2F68C3200232263C4F80E
:102DE000CC20C4F86821C4F80422C4F8A022C4F896
:102DF0003C23C4F8D82300277722C4F2F01784F8C4
:102E00002C5084F8785084F8C45084F8C85084F862
:102E1000145184F8605184F8645184F8B05184F8F6
:102E2000FC5184F8005284F84C5284F8985284F88B
:102E30009C5284F8E85284F8345384F8385384F868
:102E4000845384F8D05384F8D45368264EF28060BB
:102E5000C4F88430C4F82031C4F8BC31C4F8583206
:102E6000C4F8F432C4F8903384F8205484F86C54D5
:102E700084F870240525B722C4F2C57084F8715413
:102E800084F87224B4250C22C4F8B07484F8B864B1
:102E90004FF000094BF6491C4FF4A0414CF60F7E51
:102EA00043F2333749F23336C4F2C37184F87354B2
:102EB00084F8742403250A22C4F8AC04C4F2C819A7
:102EC00004204FF07E58C3F6761CC3F65B3EC4F276
:102ED0005307CCF28836C4F82C34C4F8B434C4F8A0
:102EE000D034C4F8D434C4F8D834C4F8DC34C4F8CA
:102EF000E034C4F8E434C4F8E834C4F8EC34C4F87A
:102F0000F034C4F8F834C4F8A894C4F8F484C4F8CD
:102F10000CC584F8B92484F8BB2484F8BD2484F853
:102F2000BF2484F8BA5484F8BE5484F8BC0484F8EE
:102F3000C004C4F81015C4F81415C4F82835C4F832
:102F400018E5C4F81C75C4F82465BDE8F08700BF17
:102F5000704700BFFEE700BFF8B50E4671B17AB109
:102F60000746144600253B6816F8011B1B683846C7
:102F70009847013C0544F6D12846F8BD0846F8BDFF
:102F80001046F8BD2DE9804849F6F86383B04AF24F
:102F90005B254AF25C2649F6B46849F6F46A49F6BC
:102FA000F56949F6207748F2340B4FF44044C1F6F6
:102FB000FF73C1F6FF75C1F6FF76C1F6FF78C1F663
:102FC000FF7AC1F6FF790193C1F6FF77C4F2040BD3
:102FD000C4F206040BE0DBF80020500511D4DBF846
:102FE0000020110513D4DBF80020D20415D4DBF83F
:102FF00000205303EFD501F013F9DBF80020500552
:10300000EDD501F073F8DBF800201105EBD500F0E9
:10301000EBFFDBF80020D204E9D5227993060DD529
:10302000E1792A78307801323F2AC8BF00229042E5
:10303000C9B203D0D0B208F802102870E278D2B238
:10304000100609D45206D2D522795306CFD50021D5
:103050002C223970E270CAE721790906F2D59AF874
:10306000000099F80010C9B288420DD0013127291B
:1030700088BF0020019B8CBF0146C8B2595CC9B211
:10308000E17189F80000DDE76C21E170DAE700BF4B
:1030900008B5FFF777FF00BF10B549F6AC64C1F67D
:1030A000FF74206818B143881844007A10BD49F6AF
:1030B000A863C1F6FF731B7823B1FFF743F92060C3
:1030C0000028F0D14FF0FF3010BD00BF38B549F6F1
:1030D000AC64C1F6FF74206878B143880288C118D7
:1030E000013393420D7A02D24380284638BD04F062
:1030F0004FFE00232846236038BD49F6A863C1F679
:10310000FF731B7823B1FFF71DF920600028E4D17D
:103110004FF0FF3038BD00BF0846114604F0E8BC50
:103120004DF28043C0F2000303EBC00010B44268CC
:1031300002F14043A3F592217C292CD9A3F59421D7
:103140007C2910D9A3F596217C292ED9A3F59821A5
:103150007C2925D9A3F59A237C2B1AD848F65860E8
:10316000C1F6FF7003E048F6B850C1F6FF7072B6C2
:10317000136823F08773C2F3840423F4803342F688
:10318000517143F08073C0F20001136040F82410C5
:1031900062B610BC704748F68050C1F6FF70E6E793
:1031A00048F63860C1F6FF70E1E748F60860C1F6FE
:1031B000FF70DCE72128F0B45DD8022A74D05CDC13
:1031C000002A61D0012A56D14FF440274DF28043A6
:1031D000C0F2000303EBC0025268146814F4E06408
:1031E0006AD048F20023C1F6FF7348F25176C1F667
:1031F000FF7648F2217048F28175C1F6FF70C1F682
:10320000FF75C3F8A06102F1404648F2B574C3F8F7
:103210009C01C3F8A45148F2E970A6F59225C1F6C5
:10322000FF74C1F6FF707C2DC3F8A841C3F8AC0150
:1032300030D9A6F594237C2B31D9A6F596237C2B87
:1032400035D9A6F598237C2B3ED9A6F59A267C2E57
:1032500011D848F65864C1F6FF7472B6136823F4A7
:10326000702343F08070C2F384050743136044F871
:103270002510176062B6F0BC7047032A07D0042AF5
:10328000F9D14FF43027A1E74FF400279EE74FF420
:1032900010279BE748F68054C1F6FF74DDE748F637
:1032A000B854C1F6FF74D8E74FF420278EE748F6EC
:1032B0000864C1F6FF74D0E753F830004FF4807310
:1032C00080F8804213608CE748F63864C1F6FF74DA
:1032D000C3E700BFFEE700BFFEE700BF08B548F642
:1032E0008053C1F6FF73D3F8E02048B1694610441B
:1032F000A1F58051884205D2C3F8E000104608BD10
:10330000104608BD07F096FE0C2303604FF0FF3017
:1033100008BD00BF0122C4F202021378DB07FCD50E
:10332000704700BFB1F5006F6ED22DE9F0434FF04A
:10333000010EC4F2020E05469EF80030D80785B093
:103340000F4616460C4660D5B6F5006F04D2BB1981
:10335000B3F5006FC0F0A680C7F500660021012319
:10336000C4F20201C4F2020314F0030219D0022ACB
:103370002ED004F1A0502F780278974205F1010574
:1033800008D00A7812F0700218BF0A7007701A7815
:10339000D207FCD5013E0134002EE5D105B0BDE8D1
:1033A000F083032E14D904F1A05055F8047B026871
:1033B000974208D00A7812F0700218BF0A700760AE
:1033C0001A78D707FCD5043E0434002ECCD1E5E7AB
:1033D000012ECED004F1A05795F801E02A78388864
:1033E00042EA0E22904205F1020508D0087810F05A
:1033F000700018BF08703A801A78D007FCD5023EDA
:103400000234002EB0D1C9E770474DF21C63C0F200
:103410000003EC46596818689A68DB68ACE80F004E
:103420009EF800309907E84629D50022C4F202022E
:103430000421137813F0700318BF13700723C4F22C
:103440000203C4F2020180200B221870C4F20202AF
:1034500000200A230870C4F20203332111700322F2
:103460001A7072B68146C4F2020948F00108484653
:10347000C04762B699F8003013F0700316D140F6D9
:1034800041530121C0F20303C4F2020102E0013BF7
:103490003FF45AAF0A78D207F9D5B6F5006FFFF4BA
:1034A00056AF59E7002E7FF459AF77E789F800301F
:1034B0004AE700BFF0B54DF21C63C0F2000385B0CF
:1034C000596818689A68DB686C460FC40123C4F217
:1034D00002031B78990729D50022C4F202020720B3
:1034E000137813F0700318BF1370C4F202000421A4
:1034F0000B220A23C4F20201C4F20202C4F2020344
:10350000802707700026332403200E706D46147048
:10351000187072B63446C4F2020445F00105204624
:10352000A84762B6237813F070030ED140F64153DA
:103530000121C0F20303C4F2020101E0013B02D009
:103540000A78D207FAD505B0F0BD237005B0F0BDFA
:10355000B0F5006F0ED2F0B50125C4F202050446A5
:103560002B78D80785B007D504F1A0500078C0B2F9
:1035700005B0F0BD002070474DF21C63C0F200039F
:103580006E46596818689A68DB680FC62B789907E9
:103590006F4628D50022C4F202020720137813F0E8
:1035A000700318BF1370C4F2020004210B220A2317
:1035B000C4F20201C4F20202C4F2020380250570C3
:1035C0000026332503200E701570187072B635462C
:1035D000C4F2020547F001072846B84762B62B78C7
:1035E00013F070030DD140F641530121C0F20303E3
:1035F000C4F2020101E0013BB6D00A78D207FAD545
:10360000B2E72B70B0E700BF4BF224021146C4F2C0
:103610000B01C4F2030213681B06FCD40B6813F001
:103620008003F8D172B649F6B262C1F6FF72117822
:10363000002900F0B580F0B44BF23C014BF23804A5
:103640004BF24000C4F20304C4F20300C4F20301CD
:103650004BF24407256809680468C4F203074BF27B
:103660004800C4F203004BF24C060D44C4F20306BA
:10367000396800682C440C443168204401444BF202
:103680002C05C4F20305C1F34E014BF258044BF272
:103690005C064BF2600041F40041C4F20304C4F242
:1036A0000306C4F2030029604BF264072568316801
:1036B0000468C4F203074BF26800C4F203004BF243
:1036C0006C060D44C4F20306396800682C440C44AF
:1036D0003168204401444BF23005C4F20305C1F3C4
:1036E0004E014BF238044BF23C064BF2400041F4E1
:1036F0000041C4F20B04C4F20B06C4F20B002960B3
:103700004BF24407256831680468C4F20B074BF29A
:103710004800C4F20B004BF24C060D44C4F20B06F9
:10372000396800682C440C443168204401444BF251
:103730002C05C4F20B05C1F34E014BF258044BF2B9
:103740005C064BF2600041F40041C4F20B04C4F289
:103750000B06C4F20B0029604BF264072568316840
:103760000468C4F20B074BF26800C4F20B004BF282
:103770006C060D44C4F20B06396800682C440C44F6
:103780003168204401444BF23000C4F20B00C1F315
:103790004E0141F400410160137062B6F0BC704705
:1037A00062B6704730B44FF4804144F20102C4F273
:1037B0000701C4F2070248F67C536024E120C1F6F9
:1037C000FF730C7010701B784BF20805082B4BF23E
:1037D0000C04294654D00A2B62D00C2B2346C4F289
:1037E0000305C4F20304C4F20B01C4F20B030CBFC3
:1037F00015203D2012222860226008601A6049F6D8
:10380000B363C1F6FF734BF220011B783BB30B4649
:10381000C4F20B03C4F2030101220A601A6048F6E5
:103820007D53C1F6FF734BF224011B78012B4BD95A
:10383000042B1CD9082B3ED9102B0B46C4F20B03CA
:10384000C4F2030194BF862287220A601A6049F6F7
:10385000B263C1F6FF7301221A7030BC70470A468A
:10386000C4F20B02C4F203010B601360D7E70B46EE
:10387000C4F20B03C4F2030184220A601A60E6E773
:103880002346C4F20305C4F20304C4F20B01C4F2DC
:103890000B03012013222860226008601A60AEE743
:1038A0002346C4F20305C4F20304C4F20B01C4F2BC
:1038B0000B031920EEE70B46C4F20B03C4F203011D
:1038C00085220A601A60C2E70B46C4F20B03C4F2F9
:1038D000030180220A601A60B9E700BF4EF20813A4
:1038E000CEF200034FF400002DE9F04318604FF0D2
:1038F000807018604FF00070186048F204014FF0BB
:1039000080601860C4F203014FF0006048F2080CB8
:1039100048F20C0548F214021860C4F2030C0020AF
:10392000C4F20305C4F2030248F21C040860282311
:1039300048F6FF71C4F20304CCF8001048F2240EDC
:103940002B6048F22C07136048F2340648F23C051D
:1039500048F244022360C4F2030EC4F20307C4F227
:103960000306C4F20305C4F203024FF40044C4F298
:103970000304CEF800303B6033602B6013600922F3
:10398000226049F2040E49F2080749F20C0649F296
:1039900014054FF41044C4F2030EC4F20307C4F23A
:1039A0000306C4F20305C4F20304CEF80000396034
:1039B00048F2040E336048F208072B6048F20C0608
:1039C000226048F214054FF40044C4F20B0EC4F216
:1039D0000B07C4F20B06C4F20B05C4F20B04CEF8BD
:1039E000000085B0396033602B602260FFF7DAFE9B
:1039F000192001F08FFB72B6002307200621C4F2C4
:103A00000203C4F20200C4F20201702241260F2513
:103A100080241A7006701A460D701C7013781B06ED
:103A2000FCD50823C4F202031B6862B649F27F6228
:103A3000C0F29802934298BF0A224CF6CD4698BF36
:103A40005343CCF6CC46A6FB0312D20802EB82010C
:103A5000A3EB410330338DF804301346002A00F005
:103A6000EE8001A804460021A6FB0352D20802EB17
:103A70008205A3EB4503303304F8013F01311346BF
:103A8000002AF1D104AC0C4401AA0A4404F80B3C0E
:103A90001478057800F8014B0133CC1AA34202F8E0
:103AA0000159F5DB9DF8043048F67861002B00F0F1
:103AB000C980C1F6FF719DF805204B80002A00F0F7
:103AC000C5809DF806308A80002B00F0C1809DF8EB
:103AD0000720CB80002A00F0BD809DF808300A81C5
:103AE000002B00F0B9809DF809204B81002A00F0DE
:103AF000B5809DF80A308A81002B00F0B1809DF8D6
:103B00000B20CB81002A00F0AD809DF80C300A829A
:103B1000002B00F08F809DF80D204B820920002A99
:103B200000F089808A82162048F20003C1F6FF73F4
:103B300048F234040022C4F2040408701A605A6087
:103B40009A60DA601A615A619A61DA611A625A629D
:103B50009A62DA621A635A639A63DA631A645A647D
:103B60009A64DA641A655A659A65DA651A665A665D
:103B70009A66DA661A675A679A67DA67C3F8802026
:103B80002168C3F8842042F29C05C4F2070541F481
:103B9000802142F2B0002160C4F20700C3F3072184
:103BA00042F2B4092970C4F20709C3F307414FF484
:103BB000025C42F2880E42F210070170C4F2070C58
:103BC000C4F2070EC4F207071B0E42F294084FF42A
:103BD000045642F2840089F80030C4F20708FF233B
:103BE000C4F20706C4F207004EF249454EF208142B
:103BF00042F208118CF80030CEF200058EF8003049
:103C0000CEF200043B70C4F20701012388F80030B3
:103C10004FF0700E32704FF400770370102240F2B4
:103C2000131085F800E027600A7005B0BDE8F04386
:103C300001F070BA082001304000C0B274E78DF87E
:103C400005202FE71846C1F6FF71F4E70120F2E7DF
:103C50000220F0E70320EEE70420ECE70520EAE786
:103C60000620E8E70720E6E708B542F20E03C4F2B3
:103C700005034CF220521A804DF628121A8000BF1C
:103C800000BF4FF40053C4F2050310221A8048F21B
:103C90003003C4F204034FF010621A6048F2380394
:103CA000C4F2040343F68272C0F204021A6048F2BE
:103CB0003C03C4F204030122C2F600321A604DF242
:103CC0001002C4F20302136813F4807307D14DF29B
:103CD0001401C4F203010B604FF4A85313604DF2BA
:103CE0000203C4F207031A78100703D51A7842F0CA
:103CF00008021A704FF46043C4F207032A221A70B4
:103D00004DF66C2148F2207349F28872C0F200012E
:103D1000C1F6FF73C1F6FF72934204D251F8040F4B
:103D200043F8040BF8E749F288734AF2A822C1F677
:103D3000FF73C1F6FF720021934202D243F8041BC5
:103D4000FAE748F2002040F200010023C1F6FF70BC
:103D5000C0F2000151F8232040F82320013348F23B
:103D600000226F2BC1F6FF72F4D14FF464434EF280
:103D70005F41CEF200038020CEF2000103F8010B78
:103D80008B42FBD14EF60853CEF200031A604FF47B
:103D9000A043C4F206038A221A704FF48043C4F28F
:103DA000060324225A70A0221A709A799107FCD532
:103DB0009A79D206FCD44FF48042C4F20602937979
:103DC00003F00C03082B4FF48043C4F20603F6D132
:103DD00005221A7143225A719A799406FCD54FF440
:103DE0008042C4F2060291794FF480434806C4F23F
:103DF0000603F8D548F24402C4F204024FF0817180
:103E0000116048F24802C4F2040205211160202228
:103E10001A709A7902F00C020C2AFAD148F20403C3
:103E2000C4F204034FF48652C0F205021A604EF247
:103E30001403CEF2000341F63F12C0F201021A60F1
:103E40004EF21803CEF2000300241C604EF2100361
:103E5000CEF2000307221A604EF62053CEF2000382
:103E60002246C2F220021A6062B6FFF737FD4DF219
:103E70001403C4F203031A68D10719D54DF20401E3
:103E8000C4F203011C600C604FF45041C4F2030102
:103E900041F6F002C6F20E120A6010221A604EF2CB
:103EA0001C02C4F203024CF2A531C5F69421116044
:103EB0004FF47042C4F20702127852061DD54EF23A
:103EC0001C02C4F203024CF2A5311068C5F694211D
:103ED000884212D14DF20404C4F203040021196097
:103EE00021604FF4504441F6F000C4F20304C6F2DE
:103EF0000E10206010201860116007F0A1F800F08B
:103F00000DF800BF41EA0020704700BF10B50368FC
:103F100014465B689847204610BD00BF08B5FCF703
:103F20007DFEFCF71DFF00BF10B44FF44043C4F208
:103F300006031A79920618D54AF25B22C1F6FF727F
:103F4000D87913784AF25C21C1F6FF7101333F2B17
:103F50000978C8BF00238B42C0B206D049F6B461CD
:103F6000C1F6FF71DCB2C85414704FF44042C4F281
:103F70000602D378DBB21C0613D459060FD54FF4D2
:103F80004043C4F206031A79520608D549F6B462D2
:103F9000C1F6FF7200202C2182F86C00D97010BC91
:103FA000704711790806E8D549F6B460C1F6FF708C
:103FB00090F8404090F84110C9B28C4211D04A1C90
:103FC000272A86BF00242246D4B202444FF440413F
:103FD00092F84420C4F20601D2B2CA7180F841407E
:103FE000CBE76C21D170C8E7F0B54FF43043C4F291
:103FF00006031A7912F0300F2BD072B6997D01F0BA
:10400000FF02002940D062B64AF259274AF25A21EB
:10401000C1F6FF77C1F6FF713C780E7849F6B46EB1
:104020001846E4B2F6B2C1F6FF7E631C802BC1795C
:1040300028BF0023B34202F1FF32C9B204D00EEB15
:1040400003051C4685F8701012F0FF02EDD1E4B2B2
:104050003C704FF43042C4F20602D178C9B20D066A
:1040600017D449060FD54FF43043C4F206031A792A
:10407000520608D549F6B462C1F6FF7200203C2111
:1040800082F87401D970F0BD4022D9795A7462B6B1
:10409000DFE713791C06E4D549F6B464C1F6FF7472
:1040A00094F8F05094F8F130EDB2DBB29D4202D1B9
:1040B0000EE0AB420CD00133802B28BF0023E01868
:1040C000167990F8F400C0B2D071107D0728F0D9AD
:1040D0004FF43042DBB2C4F2060284F8F1301379B7
:1040E000180644BF7C23D370BBE700BFF0B44FF485
:1040F0002043C4F206031A7912F0300F39D072B699
:10410000997D01F0FF02002957D062B649F6605749
:1041100049F66251C1F6FF77C1F6FF713C880D8800
:1041200049F664561846A4B2ADB2C1F6FF76631CD8
:10413000B3F5807FC17928BF0023AB4202F1FF3283
:10414000C9B21CBFF1541C4612F0FF02EFD149F670
:104150006462C1F6FF72A3B212683B804AB1AC42FE
:1041600036BFC5F58075641B6419E72CC4BF0123F5
:1041700013704FF42042C4F20602D178C9B20D0682
:1041800020D44A0617D54FF42043C4F206031B7906
:104190005B0610D549F6B463C1F6FF730021D3F86E
:1041A000802283F87C1202B111704FF42043C4F2D4
:1041B00006033C22DA70F0BC70474022D9795A7469
:1041C00062B6D6E713791C06DBD549F6B464C1F6AE
:1041D000FF74B4F87651B4F87831ADB29BB29D4219
:1041E00002D10FE0AB420DD00133B3F5807F28BF81
:1041F0000023E018167990F87C01C0B2D071107DD0
:104200000728EFD94FF420429BB2C4F20602A4F86B
:1042100078311379180644BF7C23D370B1E700BF0F
:104220002DE9F04F42F2940389B042F298024FF424
:10423000035142F2C4004FF4025942F2900AC4F210
:104240000703C4F20702C4F20701C4F20700C4F274
:104250000709C4F2070A009301920291039070E0EB
:1042600048F200068F08C1F6FF7606EBC708013D4D
:10427000D8F8042001F00801EDB2A2F1080001F025
:10428000FF04002940F0C98056F837301B0C1FFA94
:1042900083FE22F808EC002B00F0B28049F6906112
:1042A000C1F6FF7122F8064C51F8253042F8044C53
:1042B00049F6B464002B00F00D84C1F6FF74AB0026
:1042C000E218D2F8A022506049F6A06BC1F6FF7B3D
:1042D0001C443BF81530C4F8A0029E442BF815E0AE
:1042E00072B648F66852C1F6FF721168B1FA81F3EE
:1042F0000B2B00F3F6834FF00040D84021EA000179
:10430000116062B648F2BC3103EBC303C1F6FF7122
:10431000C824C0F2400401EBC300882218F0080F43
:10432000C0F2400200F1080518BF2246C8F8045048
:10433000002446F8372041F833404460082389F8C8
:10434000003099F80040E4B2600725D549F6A8632B
:10435000C1F6FF731B78E3B149F6B463C1F6FF738E
:1043600093F88C1201F0FF0229B1013AD2B283F81E
:104370008C2202B900BE4AF25823C1F6FF731978A5
:1043800001F0FF0229B1013AD2B21A70002A00F0FE
:104390004183042389F8003004F0080303F0FF028E
:1043A000002B00F0B9809AF80010C9B20D097FF413
:1043B00057AF48F200088908C1F6FF7808EBC10042
:1043C00058F831304068C3F38303092B00F0C480F0
:1043D00051D8013B012B0FD849F6B464C1F6FF74E4
:1043E00042F22103B4F890529D4200F08382C82328
:1043F000C0F2400348F83130009A012313709DE762
:10440000C822882318F0080FC0F24002C0F240030F
:1044100018BF134646F8373090E703F0B9FC49F669
:104420007062C1F6FF7252F82510002900F06E8309
:1044300049F66C60C1F6FF704B68445D42F8253068
:10444000012C01F10803C8F8043000F05C83C0F0CF
:104450005783022C00F05183032C01D104234355D0
:1044600018F0080F0A880CBF8823C82343EA0243C8
:1044700046F8373062E70D2BBED149F6B4640668C2
:104480004068C1F6FF74C823C0F2400348F83130D9
:10449000C4F89402B3B240F2816001218342C8F8AB
:1044A0001050C8F81850C4F89062C4F8985284F8B4
:1044B0009C1200F29680B3F5D06F80F0FE83B3F5C6
:1044C000817F00F0888300F24183802B00F0EA8333
:1044D000822B40F08783B4F8943203F07F0349F6CF
:1044E000B460042BC1F6FF7000F27C834FF40351DB
:1044F0009B00C4F207011944002380F8843280F83D
:1045000085320B789D0740F16C84012380F884325A
:10451000022500F52170A9E3E00700F1948221064D
:1045200000F10483A2070CD542F28803C4F207030A
:104530004FF402511A78C4F20701D2B202201A7065
:104540000870E30605D54FF40253C4F207031022A6
:104550001A7009B0BDE8F08F49F6B464C1F6FF7473
:10456000D4F898325BB3B4F8B61294F89C5294F82D
:10457000B50240290E4640F0020728BF4026002D14
:1045800085F00105A1EB06010CBF4FF0880E4FF03E
:10459000C80E84F89C5208EBC70589B24EEA064261
:1045A00080F001006B60A4F8B61248F8372033445D
:1045B00084F8B502002900F09981C4F89832B4F863
:1045C000902249F6B463B2F5A06FC1F6FF737FF491
:1045D00013AF002193F8922283F89112019B1A7075
:1045E0000AE742F22100834200F0108200F2B78114
:1045F000B3F5086F00F03083B3F5106F40F0F2822E
:1046000049F6A863C1F6FF73D8F8201094F8920217
:104610001870090648F20003C1F6FF7300F18883A1
:10462000D8F8281048F200030A06C1F6FF7300F11B
:10463000CE83D8F8301048F200030F06C1F6FF739E
:1046400000F1C083D8F8381048F200030E06C1F616
:10465000FF7300F1B283D8F8401048F200030D0652
:10466000C1F6FF7300F1A483D8F8481048F20003A4
:104670000806C1F6FF7300F19683D8F8501048F28F
:1046800000030906C1F6FF7300F18883D8F85810BB
:1046900048F200030A06C1F6FF7300F17A83D8F8E6
:1046A000601048F200030F06C1F6FF7300F16C833F
:1046B000D8F8681048F200030E06C1F6FF7300F147
:1046C0005E83D8F8701048F200030D06C1F6FF7340
:1046D00000F15083D8F8781048F200030806C1F6BC
:1046E000FF7300F14283D8F8801048F200030906F6
:1046F000C1F6FF7300F13383D8F8881048F2000345
:104700000A06C1F6FF7300F12483D8F8901048F22E
:1047100000030F06C1F6FF7300F11583D8F8981057
:1047200048F200030E06C1F6FF7300F1068349F656
:10473000906349F6706249F6806149F66C60002624
:1047400049F6A06BC1F6FF73C1F6FF72C1F6FF71A7
:10475000C1F6FF70CDF810800594CDF8189035465D
:10476000C1F6FF7B174680461C468946CDF81CA043
:104770002068A24630B1446803F00AFB2046002CB2
:10478000F9D154464AF25413C1F6FF7338682560D4
:1047900043F82650A24630B1446803F0F9FA2046A7
:1047A000002CF9D1544698F800303D60032B49F8AD
:1047B000045B2BF8165000F0098240F23A82042B79
:1047C00000F03A82052B00F001820136042E04F13C
:1047D000040407F1040708F10108C9D149F6B061E2
:1047E00042F2C80642F2CC00DDF81080039AC1F60E
:1047F000FF71C4F20706C4F20700002305AC4FF0B6
:10480000150E192748F2000594E810060B70C1F642
:10481000FF751370C8F83030C8F8383086F800E0FB
:10482000C8F85030C8F85830077072B648F668506B
:10483000C1F6FF700768B7FA87F60B2E00F3DD822A
:104840004FF0004E2EFA06FE27EA0E07076062B60A
:1048500048F2BC3706EBC606C1F6FF7707EBC60C7D
:10486000882247F83630C0F240020CF10806CCF836
:1048700004306E662A6672B60068B0FA80F348F6B5
:1048800068550B2BC1F6FF7500F3AF824FF0004166
:10489000D94020EA0100286062B648F2BC3103EB3F
:1048A000C303C1F6FF7101EBC30000F10805C82680
:1048B000C0F24006C8F86C50002541F83350C8F8E3
:1048C0006860456042F2D001C4F207010023152060
:1048D000C8F87030C8F87830087094F89C52C8F85E
:1048E0009030C8F8983085F001034AE0402E18BF98
:1048F000002362E603784678857884F8B832C37876
:1049000084F8B96284F8BA5284F8BB32D4F8B83269
:1049100006794579807984F8BD52862B94F8B55292
:1049200084F8BE0294F89C0284F8BC6204BF0F2392
:1049300084F88C3245F00203002885F0010584F8E4
:10494000B5520CBF8825C82548F8335008EBC3037F
:1049500080F00100002584F89C025D6047E542F28A
:104960002120834240F0CD8149F65C53C1F6FF73AC
:1049700094F892021B68C4F8B0322B4684F8B40253
:104980000D4600210E468E460A46084694F8B5723A
:1049900047F0020C08EBCC0B002DCBF804000CBF49
:1049A0008820C82040EA0E0049F6B46B48F2000E99
:1049B00048F83C0087F0010084F89C32C1F6FF7E85
:1049C000C1F6FF7B84F8B502002940F01281402A2D
:1049D0001CD140F0020008EBC00248F2000E566005
:1049E000C1F6FF7E002B40F019810B0443F08803D1
:1049F0004EF8303084F89C5284F8B5720E44402949
:104A000004D10021C4F89862A4F8B612009A0123D8
:104A10001370F1E44AF25022C1F6FF72127802F0EC
:104A2000FF06002A7FF4B5AC4AF25425C1F6FF75A3
:104A30002A68002A00F0A880538813801046FDF7EA
:104A40002DFC2E60A5E442F2940049F6B461C4F254
:104A50000700C1F6FF7148F20003C1F6FF7302249C
:104A6000047081F8B52201F5307401F54071D96008
:104A70004FF4035C8821C0F24001C4F2070C42F2FB
:104A8000880E5C60196099601A619A61C4F2070E21
:104A90000D234FF4025742F2980642F28C0542F27F
:104AA00084048CF80030C4F20707FF23C4F2070621
:104AB000C4F20705C4F207048EF8003001214FF05C
:104AC0009F0E3B7032702B7084F800E0017009B0CB
:104AD000BDE8F08F41F82500C1F6FF74AB00FFF789
:104AE000F3BB62B649F6B063C1F6FF7300211A78D2
:104AF00046F8371001321A7020E405234355AFE41D
:104B000003234355ACE402234355A9E449F66C63FF
:104B1000C1F6FF735A5D022A00F09380FFF40EACD9
:104B2000032A40F0918001225A5507E44FF40352C2
:104B3000C4F207024FF40253C4F207030D201070B1
:104B40008021A20719707FF5FCACEDE440F2023140
:104B50008B4240F0CF80B4F8941201F07F0149F607
:104B6000B4630429C1F6FF733CD8B3F89232CBBBCF
:104B70004FF403508900C4F207000844012501786E
:104B800041F002010170FCE672B648F66850C1F6C9
:104B9000FF700568B5FA85F10B2900F31D814FF010
:104BA0000043CB4025EA0305056062B648F2BC33FA
:104BB00001EBC101C1F6FF7303EBC10543F83120DE
:104BC00028466A60FDF76AFBFFF7E3BB4FF001037D
:104BD00088F80030F9E5B4F8943203F07F03042B31
:104BE00040F29480029A0F231370009A01231370ED
:104BF00002E440297FF6EDAE40F002000EEBC00269
:104C00005660E3B1C823C0F2400340398BF89C5290
:104C10008BF8B57240364EF83030F3E60B0443F0B3
:104C2000C80384F89C5284F8B5720E444EF83030B4
:104C3000E5E6022B7FF4C9AD88F80050C5E588236E
:104C4000E1E75955FFF77ABB18F0080F0CBF0222B5
:104C500003225A55FFF772BB49F6A863C1F6FF73EA
:104C60000D461B7884F8843204F52170B4F896124E
:104C700049F6B463A942C1F6FF7380F0C48093F88B
:104C8000B57247F0020C08EBCC0340290A4628BF56
:104C9000402258608618891A4FEA024E00230125E7
:104CA000C8207FE600234AF2381084F8843284F862
:104CB00085320225C1F6FF70D8E748F664604DF2F0
:104CC0002C63B4F89252B4F89462C1F6FF70C0F24B
:104CD000000303E00C335868002883D01A88AA42E6
:104CE000F8D15A88B242F5D12D0A032D0CBF0578B0
:104CF0001D89BBE7B3F5A06F7FF474AF00230125D6
:104D00003FE642F221318B42F8D06BE7B4F89212C1
:104D100000297FF467AF4FF403519B00C4F20701F1
:104D200019440125087820F002000023087028E6C5
:104D3000586A083803F02CF872E4D3F89C0008385D
:104D400003F026F8F3E4D3F89400083803F020F8D1
:104D5000E4E4D3F88C00083803F01AF8D5E4D3F86B
:104D60008400083803F014F8C6E4D86F083803F05C
:104D70000FF8B8E4586F083803F00AF8AAE4D86EC0
:104D8000083803F005F89CE4586E083803F000F882
:104D90008EE4D86D083802F0FBFF80E4586D0838C7
:104DA00002F0F6FF72E4D86C083802F0F1FF64E418
:104DB000586C083802F0ECFF56E4D86B083802F063
:104DC000E7FF48E4586B083802F0E2FF3AE4D86A9B
:104DD000083802F0DDFF2CE462B601221A70FFF7FA
:104DE000D8BA00F52170022540E762B60B780020A2
:104DF0000133C8F868000B7064E562B60E782B6664
:104E0000731C0B7037E5402D2A4628BF4022A91A93
:104E10004FEA024E861800230125B7E52DE9F84F29
:104E200049F6686549F6B46449F6605949F662582E
:104E30004AF259274AF25A26C1F6FF75C1F6FF74A5
:104E4000C1F6FF79C1F6FF78C1F6FF77C1F6FF76AC
:104E50002B782BB194F87C32002BFBD1BDE8F88F76
:104E60004AF25B2E4AF25C201A46C1F6FF7EC1F67A
:104E7000FF7094F87C3203F0FF01002B3BD0B9F8AF
:104E80000030B8F800303B7833789EF80030037873
:104E9000EFF305830122002BEBD12B70EFF3108E83
:104EA00072B64AF26023C1F6FF731868F0B14AF295
:104EB000642AC1F6FF7A9AF80010B9B9D0F814C084
:104EC0008AF80020C3F800C0BCF1000F01D0CCF874
:104ED0001810BEF1000F00D162B64FF0000B80F841
:104EE0001DB0836898478AF800B0B1E7BEF1000FA3
:104EF000AED162B6ACE70AB9BDE8F88F2970FBE71E
:104F000048F23403C4F204031B685A0540F184805C
:104F10002DE9F04749F6B465C1F6FF750646D5F8A8
:104F200080320BB101221A7006EB01094E456BD29B
:104F30004FF4204849F6686AC4F20608C1F6FF7AC1
:104F40000CE016F8013B2C44B14584F87C314FF05D
:104F5000010385F87C32A5F8767155D0B5F8764115
:104F6000B5F87831A4B20134FF2C84BF00273C4649
:104F70009BB298BFA7B29C42E3D1BC2388F8033010
:104F80001BE0EFF30582002A34D00F2A05D94EF238
:104F9000F033CEF2000313441B78EFF3118212B109
:104FA000934228BF1346402B0ED9B3F5807F24D0FF
:104FB000B5F878319BB29C42C3D1EFF313831BB990
:104FC000EFF31083002BDCD098F804301B06EFD5EC
:104FD000B5F878319BB20133FF2B86BF0022134610
:104FE0009AB22B4493F87C31DBB288F80730A5F8ED
:104FF0007821DDE74FF48073CFE79AF80030002B7B
:10500000D6D102F075FCD3E74FF42043C4F2060377
:10501000BC22DA70BDE8F087704700BF2DE9F84385
:1050200048F23403C4F204031B685A056FD549F6ED
:10503000B465C1F6FF75D5F880320BB101221A7044
:10504000B5F87641A4B20134FF2C88BF4FF00008B8
:105050004FF4204649F6686994BF1FFA84F8444625
:105060000746C4F20606C1F6FF79B5F878319BB25F
:1050700049F6B462A342C1F6FF7239D1EFF313834C
:10508000FBB9EFF31083E3B9EFF305826AB30F2A9C
:1050900005D94EF2F033CEF2000313441B78EFF340
:1050A000118212B1934228BF1346402B09D9B3F5A0
:1050B000807FDAD199F80030002BD6D102F018FCAD
:1050C000D3E733791B06D0D5B5F878319BB20133DD
:1050D000FF2B86BF002213469AB22B4493F87C31F3
:1050E000DBB2F371A5F87821BFE74FF48073D6E700
:1050F0004FF420431444C4F20603FFB20120BC2144
:1051000084F87C7182F87C02A2F87681D970BDE8BF
:10511000F88300BF2DE9F843054672B64EF2180336
:1051200049F65C564EF60452C1F6FF76CEF2000305
:10513000CEF200021B683168126862B6520102D5D5
:10514000322B88BF0131002D41D0C3F58C334FF491
:105150007A724EF218094EF6045848F63967482418
:1051600003F23F13CEF20009B3FBF4F3CEF20008D2
:1051700002FB0134C3F6E30772B6D9F800103268B7
:10518000D8F800E062B6C1F58C3303F23F13A7FBF9
:1051900003031EF0806FC4EB13134FF47A7002D038
:1051A000322988BF013200FB0233B3F57A7F04D382
:1051B000013D0CD004F57A74DEE749F66863C1F668
:1051C000FF731B78002BD7D102F092FBD4E7BDE828
:1051D000F88300BF72B64EF2180349F65C524EF6E1
:1051E0000451C1F6FF72CEF20001CEF200031B683B
:1051F00010680A6862B6520102D5322B88BF0130AE
:10520000C3F58C3348F63961C3F6E3014FF47A7283
:1052100003F23F13A1FB031302FB00F000EB13109A
:10522000704700BF212823D84DF28043C0F200030D
:1052300003EBC002012952680FD004291DD053F896
:105240003000002380F8803299B1022922D003294E
:105250000DD14FF481731360704753F830004FF451
:10526000A27380F880121360136823F02003136088
:1052700070474FF480731360704753F830104FF449
:10528000A273012081F880021360136843F02003A9
:105290001360704740F20313136070474AF22A0309
:1052A0004AF22C02C1F6FF72C1F6FF731B88108808
:1052B0009BB280B283422CBFFF3000F1FF30C01A96
:1052C000704700BF48F23403C4F204031B685B0557
:1052D00020D54FF42043C4F206034021DA7802F0CF
:1052E000CB02DA705974D87849F6625240F0340033
:1052F000C1F6FF7249F66461D870C1F6FF71128879
:10530000096849F66053C1F6FF7392B21A8009B179
:1053100000230B70704700BF30B449F6605349F664
:105320006254C1F6FF73C1F6FF741A88238892B2E3
:105330009BB29A422BD00133FF2B14D949F664510A
:1053400049F66463C1F6FF71C1F6FF730878196806
:105350000023C0B2238021B1D31ADA2B01DC002351
:105360000B7030BC704749F6645049F66461C1F671
:10537000FF70C1F6FF71C05C09689DB2C0B22580A4
:105380000029EED09A4238BF02F58072E4E74FF070
:10539000FF30E6E749F6605249F66253C1F6FF7204
:1053A000C1F6FF7312881B8892B29BB29A420BD04F
:1053B0000133B3F5807F49F6645228BF0023C1F65C
:1053C000FF72D05CC0B270474FF0FF30704700BF33
:1053D00049F6605249F66253C1F6FF72C1F6FF7397
:1053E00010881B8880B29BB2984238BF00F580704D
:1053F000C01A704748F23403C4F20403186810F46A
:1054000080601CD012290BD0142919D04FF42043EE
:10541000C4F2060300205A7B02F0FE025A73704762
:105420004AF20C03C4F2040340F202321A604FF451
:105430002043C4F2060301205A7B02435A7370478B
:105440004CF21403C4F2040340F202321A60EEE795
:1054500048F23403C4F20403186810F4806024D0C6
:10546000212906D949F66463C1F6FF73002018604C
:1054700070474DF28043C0F2000303EBC10210B449
:1054800049F6646453F831305268C1F6FF74012064
:105490004FF4A27183F88002236011601168002428
:1054A00021F0200111601C7010BC70470AB141F05E
:1054B000800148F60F73C1F6FF73187888421BD03D
:1054C00010B448F23404C4F204042468640511D50D
:1054D00000F07F00012823D0052814D0002A01F015
:1054E0007F020CBF4FF451704FF45870012A11D055
:1054F000052A02D0197010BC70474CF21C02C4F28D
:1055000004021060F6E74CF21C00C4F20400002410
:105510000460E3E74AF24402C4F204021060E9E7DF
:105520004AF24400C4F2040000240460D6E700BF3D
:105530004AF2F413C1F6FF731A7891420DD048F283
:105540003400C4F204000068400505D5F2B1152A04
:105550000CD099B1152901D0197070474CF218027E
:10556000C4F2040240F213301060F5E74CF2180266
:10557000C4F20402002010600029EBD14AF240027C
:10558000C4F2040240F213301060E5E74AF2400032
:10559000C4F204000260DCE74AF23012C1F6FF7286
:1055A0001378002BFCD14DF280432129C0F2000377
:1055B00023D803EBC10053F8312043684FF4A271A4
:1055C000012082F880021960196821F02001196019
:1055D00092F8801249B9196821F0020119604AF263
:1055E0003413C1F6FF731A6070474AF23413C1F6E0
:1055F000FF7382F800011A60704753F831204AF2B5
:105600003413C1F6FF731A60704700BF026845F695
:1056100065131268C0F200039A422DE9F0475FFA61
:1056200081F940F0818048F23403C4F204031B681E
:105630005A0563D54AF23413C1F6FF731B680BB1E8
:1056400001221A704AF22A08C1F6FF784AF22C05A4
:10565000B8F80040A4B20134FF2C88BF4FF0000A14
:105660004AF230074FF4204694BF1FFA84FA54469A
:10567000C1F6FF75C1F6FF77C4F206062B889BB210
:10568000A3422BD1EFF31383002B3AD1EFF3108316
:10569000002B36D1EFF30582002A42D00F2A05D91C
:1056A0004EF2F033CEF2000313441B78EFF3118275
:1056B00012B1934228BF1346402B22D9B3F5807F05
:1056C000DCD149F66863C1F6FF731B78002BD5D196
:1056D00002F00EF92B889BB2A342D3D04AF23013CA
:1056E0004FF42042C1F6FF73C4F206020120BC2130
:1056F00007F804901870A8F800A0D1700120BDE848
:10570000F08733791B06B9D52B889BB20133FF2B69
:1057100086BF002213469AB2FB5CDBB2F3712A808B
:10572000ACE74FF48073C1E74946BDE8F047104746
:1057300048F23403C4F204031B685A057ED54AF2CA
:105740003413C1F6FF732DE9F0471B680BB101223A
:105750001A704AF22A09C1F6FF794AF22C05B9F803
:105760000040A4B20134FF2C88BF4FF0000A4AF277
:1057700030084FF4204694BF1FFA84FA54460F466F
:10578000C1F6FF75C1F6FF78C4F206062B889BB2FE
:10579000A3422BD1EFF31383002B3BD1EFF3108304
:1057A000002B37D1EFF30582002A44D00F2A05D908
:1057B0004EF2F033CEF2000313441B78EFF3118264
:1057C00012B1934228BF1346402B23D9B3F5807FF3
:1057D000DCD149F66863C1F6FF731B78002BD5D185
:1057E00002F086F82B889BB2A342D3D04AF2301342
:1057F0004FF42042C1F6FF73C4F20602FFB208F86C
:1058000004700120BC211870A9F800A0D1700120FB
:10581000BDE8F08733791B06B8D52B889BB20133DE
:10582000FF2B86BF002213469AB218F80330DBB272
:10583000F3712A80AAE74FF48073BFE70120704715
:10584000026845F665131268C0F200039A422DE91A
:10585000F0475FFA81F940F0818048F23403C4F2E6
:1058600004031B685A0563D54AF23413C1F6FF736B
:105870001B680BB101221A704AF22A08C1F6FF78A0
:105880004AF22C05B8F80040A4B20134FF2C88BFBE
:105890004FF0000A4AF230074FF4204694BF1FFA37
:1058A00084FA5446C1F6FF75C1F6FF77C4F20606C6
:1058B0002B889BB2A3422BD1EFF31383002B3AD159
:1058C000EFF31083002B36D1EFF30582002A42D08C
:1058D0000F2A05D94EF2F033CEF2000313441B78A1
:1058E000EFF3118212B1934228BF1346402B22D905
:1058F000B3F5807FDCD149F66863C1F6FF731B788E
:10590000002BD5D101F0F4FF2B889BB2A342D3D05A
:105910004AF230134FF42042C1F6FF73C4F206027C
:105920000120BC2107F804901870A8F800A0D170DD
:105930000120BDE8F08733791B06B9D52B889BB2CF
:105940000133FF2B86BF002213469AB2FB5CDBB209
:10595000F3712A80ACE74FF48073C1E74946BDE894
:10596000F047104748F23403C4F204031B685A0599
:105970007CD54AF23413C1F6FF732DE9F0471B685A
:105980000BB101221A704AF22A08C1F6FF784AF2D6
:105990002C05B8F80040A4B20134FF2C88BF4FF0AA
:1059A000000A4AF230074FF4204694BF1FFA84FAE7
:1059B00054468946C1F6FF75C1F6FF77C4F2060664
:1059C0002B889BB2A3422BD1EFF31383002B3AD148
:1059D000EFF31083002B36D1EFF30582002A42D07B
:1059E0000F2A05D94EF2F033CEF2000313441B7890
:1059F000EFF3118212B1934228BF1346402B22D9F4
:105A0000B3F5807FDCD149F66863C1F6FF731B787C
:105A1000002BD5D101F06CFF2B889BB2A342D3D0D1
:105A20004AF230134FF42042C1F6FF73C4F206026B
:105A300007F804900120BC211870A8F800A0D170CC
:105A40000120BDE8F08733791B06B9D52B889BB2BE
:105A50000133FF2B86BF002213469AB2FB5CDBB2F8
:105A6000F3712A80ACE74FF48073C1E701207047DF
:105A700048F23403C4F204031B685B0573D52DE9B7
:105A8000F04F4AF25C2849F6605649F6625549F6ED
:105A900068674AF230144AF2592B4AF25A2A4AF2FB
:105AA0005B29C1F6FF7883B0C1F6FF76C1F6FF75BA
:105AB000C1F6FF77C1F6FF74C1F6FF7BC1F6FF7A2E
:105AC000C1F6FF7941463B78002B55D02378002B57
:105AD000FCD14EF284114FF42042CEF20001C4F208
:105AE00006024AF2F4134FF400540020C1F6FF738B
:105AF0000C60D0701B7873B3152B06D14CF21803D1
:105B0000C4F2040340F203121A6048F60F73C1F6A0
:105B1000FF731B7803F07F03012B25D0052B06D1E3
:105B20004CF21C03C4F2040340F203121A6049F65B
:105B30006462C1F6FF724FF42043C4F20603126898
:105B40001979DB79002333802B800AB1012313708C
:105B500003B0BDE8F08F4AF24003C4F2040340F200
:105B600003121A60D1E770474AF24403C4F20403F7
:105B700040F203121A60DAE79C46237803F0FF0232
:105B8000002B3CD033882B889BF800309AF80030EB
:105B900099F800300B78EFF305834FF0010C002BE0
:105BA000EBD13B70EFF3108E72B64AF26023C1F670
:105BB000FF731868E8B14AF26428C1F6FF7898F8D4
:105BC00000200092AAB9426988F800C01A600AB1A0
:105BD000009B9361BEF1000F00D162B600234377B2
:105BE0008268019100939047009B88F800300199EA
:105BF00069E7BEF1000F7FF466AF62B663E7BCF100
:105C0000000F3FF466AF3A7063E700BF48F234001C
:105C1000C4F20400F0B504684AF2F413C1F6FF734D
:105C200044F4806449F6605E49F662574AF22A06F7
:105C30000460C1F6FF764AF22C05C1F6FF7EC1F67C
:105C4000FF774AF23014C1F6FF7593F800C0C1F631
:105C5000FF7400234FF48840AEF80030C0F6950082
:105C60003B8033804E082B8030442370B0FBF1F131
:105C7000BCF1000F00F08780BCF1150F5DD048F635
:105C80000F73C1F6FF731B78012B64D0052B72D004
:105C90001F2969D800210E4601274FF42043C4F282
:105CA00006034EF22D444EF204101E70CEF2000098
:105CB00004250226CEF200045F704FF0880E997220
:105CC0003C279D704FF40051DE7440265D7583F8CB
:105CD00010E0DF70267001609978500701F0EC0148
