:100000000080002015AA000045A6000039A50000C8
:1000100039A5000039A5000039A5000039A5000068
:1000200039A5000039A5000039A5000045A600004B
:1000300045A6000039A50000A18E0000258D000016
:1000400045A6000045A6000045A6000045A6000004
:1000500045A6000045A6000045A6000045A60000F4
:1000600045A6000045A6000045A6000045A60000E4
:1000700045A6000045A6000045A6000045A60000D4
:1000800045A6000045A6000045A6000045A60000C4
:1000900045A6000045A6000045A6000045A60000B4
:1000A000E1510000D551000045A6000045A6000022
:1000B00045A6000045A6000045A6000045A6000094
:1000C00045A6000045A6000045A6000045A6000084
:1000D00045A6000045A6000045A6000045A6000074
:1000E00045A6000045A6000045A6000045A6000064
:1000F00045A600002177000045A600001D760000FF
:1001000045A600005D75000045A6000045A600005C
:1001100045A6000045A6000045A6000045A6000033
:1001200045A6000045A6000045A6000045A6000023
:1001300045A6000045A6000045A6000045A6000013
:1001400045A6000045A6000045A6000045A6000003
:1001500045A6000045A6000045A6000045A60000F3
:1001600045A600007D79000045A6000045A60000D8
:1001700045A6000045A6000045A6000045A60000D3
:1001800045A6000045A6000045A6000045A60000C3
:1001900045A6000045A6000045A6000045A60000B3
:1001A00045A6000045A6000045A6000045A60000A3
:1001B00045A6000045A6000045A60000FFFFFFFF82
:1001C000FFFFFFFFFFFFFFFFFFFFFFFFFFFFFFFF3F
:1001D000FFFFFFFFFFFFFFFFFFFFFFFFFFFFFFFF2F
:1001E000FFFFFFFFFFFFFFFFFFFFFFFFFFFFFFFF1F
:1001F000FFFFFFFFFFFFFFFFFFFFFFFFFFFFFFFF0F
:10040000FFFFFFFFFFFFFFFFFFFFFFFFDEF9FFFF23
:1004100010B5054C237833B9044B13B10448AFF33E
:1004200000800123237010BD8097FF1F0000000093
:1004300010D70000084B10B51BB108490848AFF3AE
:1004400000800848036803B910BD074B002BFBD0A0
:10045000BDE81040184700BF000000008497FF1F50
:1004600010D700008097FF1F000000002DE9804892
:1004700041F21C024BF21C03C4F2FE32C4F204032C
:100480004FF000084FF480794FF28804D9B082F819
:100490008082C4F20F040B20C3F8009005F0DCF852
:1004A000402323600D2005F0D7F84FF400654FF48A
:1004B0002040C4F20400C4F2FE3501224FF4A271C0
:1004C0002023236085F880220160046841F2100631
:1004D0004BF21003C4F20403C4F2FE3624F02004ED
:1004E000046085F8802086F8802219601D684FF22C
:1004F000840740F604044AF20400C4F20F07C4F271
:100500000400C4F2FE344FF0100E25F020051D60EB
:10051000C7F800E084F880220160056825F0200516
:10052000056084F8802086F8802219601D6840F6F6
:1005300048044AF24800C4F20400C4F2FE3425F034
:1005400020051D60C7F800E084F88022016005687E
:1005500025F02005056084F8802086F88022196047
:100560001D6849F234003424C4F20400C4F2FE349D
:1005700025F020051D60C7F800E084F880220160A6
:10058000056825F02005056084F8802086F8802223
:1005900019601D68302449F23000C4F20400C4F22E
:1005A000FE3425F020051D60C7F800E084F88022A5
:1005B0000160056825F02005056084F8802086F834
:1005C000802219601D68142449F21400C4F204004A
:1005D000C4F2FE3425F020051D60C7F800E084F861
:1005E00080220160056825F02005056084F88020E0
:1005F00086F8802219601D68744649F21000C4F222
:100600000400C4F2FE3425F020051D60C7F800E0A8
:1006100084F880220160056825F02005056084F8D3
:10062000802086F880221960186841F604014CF297
:100630000402C4F2FE31C4F2040220F0200018606B
:10064000C7F800E0052081F88082C2F8009005F02C
:1006500003F84FF2C803C4F20F0380221A6002F0BD
:1006600085FE4AF21413C1F6FF73A3F58C63299338
:100670001C467426762740F6484584F8446084F882
:100680004570C4F89450204606F0D2FE4AF2141386
:10069000A034C1F6FF73A342EFD148F614024AF228
:1006A0005C13C1F6FF72C1F6FF731D46144642F299
:1006B00010711392049303224FF080432160AA71BA
:1006C000AB6105F0FFFA4AF2A8130A241E464AF26B
:1006D00014131F466C7105F0F5FA0023C4F2FA23D7
:1006E000EB6133460422C1F6FF732A72129305F0C0
:1006F00063FB3B46C1F6FF73EC71039305F05CFBB3
:100700004AF2C8131C4606F013FA49F68C431D46FC
:1007100005F0CEFB49F634031A46C1F6FF7248F6DF
:10072000387311921A46C1F6FF7248F2BC332F9209
:100730001A46C1F6FF724AF21D2330921A46C1F6DC
:10074000FF724AF21E2332921A46C1F6FF724AF233
:10075000DC1323921A46C1F6FF724AF2202322923A
:100760001A46C1F6FF724AF2CC1320921A46C1F61D
:10077000FF724DF2500335921A464EF6045348F676
:10078000396EC1F6FF74CEF200030094019349F66E
:10079000B83173464AF215204AF218264AF21C274D
:1007A0002C464FF0000CC3F6E303C1F6FF71C1F60F
:1007B000FF70C0F20002C1F6FF74C1F6FF76C1F609
:1007C000FF77CDF8E4C00293CDF8E7C005943191EE
:1007D000249033962197349207F064FF49F29C7974
:1007E000C1F6FF79012306900793CA46079B23B3FE
:1007F0009DF8E440012C40F2AC80002307939DF863
:10080000E540012C40F2D6809DF8E640012C40F2F4
:1008100002819DF8E740012C40F22E819DF8E840CE
:10082000012C40F25A819DF8E940012C40F286816A
:100830009DF8EA40012C40F2B28172B64EF21803E4
:10084000009ACEF200031B681168019A126862B622
:10085000500102D5322B88BF0131C3F58C33029889
:1008600003F23F134FF47A72A0FB030302FB01F281
:1008700002EB131B089BC3EB0B0242F20F739A426D
:1008800000F21C8372B64EF21803009A0199CEF260
:1008900000031B681268096862B64D0102D5322B4D
:1008A00088BF013202991398C3F58C3303F23F13CA
:1008B000A1FB03130699D0F80090C1EB13134FF47A
:1008C0007A7101FB02334B4580F0968172B64EF28D
:1008D0001803009ACEF200031B681168019A12688F
:1008E00062B6540102D5322B88BF0131C3F58C3377
:1008F00002984FF47A7203F23F13A0FB030302FB4A
:1009000001FB109A0BEB131B48F29F63C2EB0B0227
:10091000C0F201039A427FF669AF209B1868229BC0
:1009200099884AF2DC13C1F6FF73002801F03D817B
:1009300002884388D41ACC4241F05581079BCDF8F8
:1009400040B0002B3FF479AF9DF8E440012C3FF616
:1009500054AF72B64EF21803009ACEF200031B6831
:100960001168019A126862B6560102D5322B00D97D
:1009700001314FF47A7202FB01F2C3F58C332999ED
:10098000029803F23F13A0FB0330D1F89830D1F85E
:10099000941002EB1012D31A49F6B4458B42C1F6FB
:1009A000FF7582F000809DF8E5400123012C07933C
:1009B0003FF62AAF72B64EF21803009ACEF2000349
:1009C0001B681168019A126862B6550102D5322B74
:1009D00000D901314FF47A7202FB01F2C3F58C3376
:1009E0002999029803F23F13A0FB0330D1F8383164
:1009F000D1F8341102EB1012D31A49F6B4458B42E8
:100A0000C1F6FF7581F0F5879DF8E6400123012CC2
:100A100007933FF6FEAE72B64EF21803009ACEF27E
:100A200000031B681168019A126862B6500102D572
:100A3000322B00D901314FF47A7202FB01F2C3F577
:100A40008C332999029803F23F13A0FB0330D1F8AD
:100A5000D831D1F8D41102EB1012D31A49F6B445AB
:100A60008B42C1F6FF7581F0DE879DF8E7400123D8
:100A7000012C07933FF6D2AE72B64EF21803009ADD
:100A8000CEF200031B681168019A126862B6520127
:100A900002D5322B00D901314FF47A7202FB01F2F8
:100AA000C3F58C332999029803F23F13A0FB03305E
:100AB000D1F87832D1F8741202EB1012D31A49F639
:100AC000B4458B42C1F6FF7581F0A0879DF8E840E0
:100AD0000123012C07933FF6A6AE72B64EF218031F
:100AE000009ACEF200031B681168019A126862B680
:100AF000570102D5322B00D901314FF47A7202FB33
:100B000001F2C3F58C332999029803F23F13A0FB3D
:100B10000330D1F81833D1F8141302EB1012D31AA2
:100B200049F6B4458B42C1F6FF7581F02F879DF8D9
:100B3000E9400123012C07933FF67AAE72B64EF2DC
:100B40001803009ACEF200031B681168019A12681C
:100B500062B6560102D5322B00D901314FF47A72B8
:100B600002FB01F2C3F58C332999029803F23F137B
:100B7000A0FB0330D1F8B833D1F8B41302EB101254
:100B8000D31A49F6B4458B42C1F6FF7581F0178739
:100B90009DF8EA400123012C07933FF64EAE72B652
:100BA0004EF21803009ACEF200031B681168019AF6
:100BB000126862B6550102D5322B00D901314FF4CB
:100BC0007A7202FB01F2C3F58C332999029803F281
:100BD0003F13A0FB0330D1F85834D1F8541402EB82
:100BE0001012D31A49F6B4458B42C1F6FF7581F055
:100BF000F3860123079320E649F60C53C1F6FF73F1
:100C00004AF24C12186849F29D73C1F6FF73C1F69F
:100C1000FF72186049F6AC53C1F6FF7349F2C9740C
:100C2000186849F2A173C1F6FF73C1F6FF7418602A
:100C300049F64C63C1F6FF730AF10C08186849F2D3
:100C4000A573C1F6FF73186049F6EC63C1F6FF7334
:100C5000186849F2A973C1F6FF73186049F68C73DE
:100C6000C1F6FF73186849F2AD73C1F6FF731860DF
:100C70004AF22C03C1F6FF73186849F2B173C1F64A
:100C8000FF7318604AF2CC03C1F6FF73186849F28B
:100C9000B573C1F6FF7318604AF25013C1F6FF73C3
:100CA000186849F2B973C1F6FF7318604AF2C013AD
:100CB000C1F6FF73186849F2BD73C1F6FF7318607F
:100CC000106849F2C172C1F6FF724AF27C131060DB
:100CD0004AF25412C1F6FF72C1F6FF73106849F26E
:100CE000C572C1F6FF72106007CB20606160A26020
:100CF00007CB04F10C03E0605960DAF82C1007917F
:100D000049F2D571DAF80430DAF800B0DAF8187080
:100D1000DAF81C60DAF82050DAF82440DAF8280013
:100D2000C1F6FF7198E800518A6003F07F328BEAC8
:100D300003030BF07F3B9344DAF8081003F0803391
:100D40008BEA030303F07F3201F07F3B4B405A44B0
:100D500003F08033534003F07F3B88EA030308F03D
:100D60007F38D84403F0803388EA030303F07F32EE
:100D70008CEA03030CF07F3C944403F080338CEA4C
:100D8000030303F07F3883EA0E030EF07F3EC64470
:100D900003F080338EEA030303F07F327B4007F0D9
:100DA0007F37174403F080337B4003F07F3E73406E
:100DB00006F07F36764403F08033734003F07F32D1
:100DC0006B4005F07F35154403F080336B4003F032
:100DD0007F36634004F07F34344403F08033634053
:100DE00003F07F3583EA000200F07F30284402F0F0
:100DF00080330799DAF83440434003F07F324B40A8
:100E000001F07F310A4403F080335A40DAF8303081
:100E1000DAF83800DAF83C1002F07F355A4003F077
:100E20007F3302F080321D4485EA020303F07F32F3
:100E3000634004F07F34144403F08033634003F0D4
:100E40007F32434000F07F30024403F080335A4049
:100E500002F07F334A4001F07F3102F08032DAF84D
:100E600040009AF84440194481EA020303F07F32BB
:100E7000434000F07F30104403F080335840C0F30B
:100E8000072303441C44069AC0F307431C4442F260
:100E90000F7304EB10604A44994506928AF84500A6
:100EA00000F2C4869AF84630002B40F0D686002324
:100EB0003993CDF8E7300123079307E5129B187D9E
:100EC000282800F2878703F0CFFB0BF023FE4FF0BA
:100ED0005E510BF077FE129A0746106816690AF009
:100EE00021FE04460D46304639460BF06BFE0146A6
:100EF00030460BF01BFF4FF07E510BF059FD129E58
:100F000071680BF05FFEB1680BF010FF0AF00AFE8B
:100F10000BF0D0FA02460B46204629460AF056FE50
:100F20000446F0680D460AF0FDFD02460B462046D9
:100F300029460AF099FC0B4600210246C3F6F071DF
:100F400000200AF06DFF41F266234FF0C042C4F268
:100F500071030AF087FC0BF0E9F80146F0690BF029
:100F600029FD3546059E039B34691B78A861002244
:100F70000121C4F8441284F85522D4F84402327195
:100F80008B4049F68C42B0F5817F84F83C31C1F644
:100F9000FF7240F21387117133460022597B2046BD
:100FA00008F000FB72B64EF21803CEF2000300996F
:100FB0001A6801980A4612680246126862B6D4F8A6
:100FC000785272B61B680A68016862B6490102D598
:100FD000322B88BF01320299C3F58C3303F23F13E1
:100FE0004FF47A70A1FB031300FB02F202EB131122
:100FF000002D40F0F38694F85532072BFBD894F877
:101000005532072B84BF012384F855326023013BFE
:10101000FDD10599039B0D691A78497B94F85532E7
:1010200095F855322846082308F0E2F872B64EF2D9
:101030001803CEF2000300991A6801980A46126854
:101040000246126862B6D5F8784272B61B68096823
:10105000026862B6560102D5322B88BF0131C3F552
:101060008C33029A03F23F134FF47A70A2FB0323EE
:1010700000FB01F101EB1311002C40F0068795F8FD
:101080005532072BFBD895F85532072B84BF012327
:1010900085F855326023013BFDD195F855320BB9E7
:1010A000D5F83831059B1C69D4F83421D4F838318F
:1010B0009A4281F01786D4F834315A1C2344C4F87C
:1010C000342193F830301A032C92D4F83411D4F828
:1010D00038210398914280F82D3081F0FD85D4F8B5
:1010E00034315A1C2344C4F8342193F830301A01A7
:1010F0002D92D4F83411D4F8382180F82E30914252
:1011000081F0E585D4F834315A1C2344C4F83421E5
:1011100093F830301A112E92D4F83411D4F83821C3
:1011200080F82F30914281F0CC85D4F834315A1CAC
:101130002344C4F8342193F8303005461903D4F819
:101140003401D4F8382185F83030904281F0B385ED
:10115000D4F834315A1C2344C4F8342193F8303085
:101160002E461A01D4F83451D4F8380186F83130BB
:10117000854281F09785D4F83431581C2344C4F853
:10118000340193F830304FEA231ED4F83451D4F8A8
:10119000380186F83230854281F07F85D4F83431C9
:1011A000581C2344C4F8340193F830301E02D4F89C
:1011B0003451D4F83801039F854287F8333081F0E9
:1011C0007685D4F83431581C2344C4F8340193F89C
:1011D00030703D4603980A438389B0F912C0014636
:1011E00042EA0E0281F83470C3EB121707FB07F7CF
:1011F000B0F910003F135B00C3EBD2030CFB07F107
:10120000891300FB03F301EBE3231F46289303EB51
:10121000830046EA0503039D25932B4680309F609B
:1012200000120BF07BFC4DF20A71C3F623410BF068
:10123000C9FCFA17B7F5FA36134643F1FF3706FB38
:1012400007F1A6FB0623B5F91680CDE90867CDE9BD
:101250000A2303EB41032A46B5F914600B9308FBFC
:1012600003F5099B906306FB03F10A9B4FEAE879BB
:1012700003FB0955A8FB0389089BF71703FB07111C
:10128000A6FB03670F444FEA18230E933B030D930D
:101290000E9BA94443EA09630E930D9B43EA165340
:1012A0000D934FEA29230F9333030C93DDE90C567A
:1012B000DDE90E8918EB050849EB060918F1000570
:1012C00049F500462F46B046D589CDE926783B46FC
:1012D000A3FB0578279B05FB03884FEA680314935B
:1012E0004FEAE87315934AF2141319460B46C1F6F8
:1012F000FF731D46DDE91423134300F05C85DDE92F
:1013000008122D9B2C9EB5F91A702E981E43134679
:101310004FEAE77807FB03F301FB0831089B0895C8
:10132000A7FB0323DDE90A890B445F040643B5F9F3
:101330001C0017974F46C11700FB07F7C6F580162C
:1013400008FB0177530408991693179DF317A0FB28
:101350000889DB07B1F91800199345EAD235002353
:1013600017952A93C100199B2B91DDE9160143EAD9
:1013700056031993F30710EB0800B9441893DDE9FD
:101380002A78DDE9185641EB09013F1848EB0108BE
:10139000ED1B66EB08066A19A84646EB06035519CD
:1013A000B14643EB0606B30143EA95631B93AB01D9
:1013B0001A93DDE91A12491908467241870096000E
:1013C00046EA907617EB080246EB090397009E0069
:1013D00018EB070046EA927649EB0601DDE9142393
:1013E0000BF0D6FD089DB5F922200F464FEA503E7E
:1013F000491306464EEAC74E02FB01F0D3170EFB17
:101400000300A2FB0E23034402FB01FCB5F92000FC
:101410000EFB03CCA2FB0E236344C11700FB07FEA7
:10142000550E06FB01EE45EAC315A0FB060171440B
:101430001C955B16C50C1D9345EA4133C9141E93D8
:101440001F91DDE91C23DDE91E0192197B41801803
:101450005941089BB3F91E60020A42EA0162300159
:1014600010440BF057FB4FF06E510BF0ABFB0546F1
:10147000039F289997F82B2097F92C30B7F926006D
:10148000A1F5963101FB02F201FB03F3D2129B128C
:1014900002F5004203FB02F20605B7F92430B7F962
:1014A0002800259F9212C6EB873602F5001201FB39
:1014B000106103FB02F303F5005301F58042D213E0
:1014C0009B1303FB02F3039EDA1396F82A0002FB38
:1014D00002F2D21100FB02F0A3EB201020EAE07030
:1014E000B0F1C85FA8BF4FF0C85000130BF012FB5B
:1014F0004FF06A510BF066FB29463064706C0BF0BC
:1015000059FA01210022049BC4F8441284F85522A0
:101510001B78D4F84452F063059E8B4049F68C400A
:10152000B5F5817F327184F83C31C1F6FF7040F22D
:101530003684017133460022597B204608F032F888
:1015400072B64EF21803CEF2000300991A680198A1
:101550000A4612680246126862B6D4F8785272B629
:101560001B680968026862B6520102D5322B88BF37
:101570000131C3F58C33029A03F23F134FF47A70B2
:10158000A2FB032300FB01F101EB1311002D40F03E
:10159000E08494F85532072BFBD894F85532072B8A
:1015A00084BF012384F855326023013BFDD10599A6
:1015B000049B0D691A78497B94F8553295F8553299
:1015C0002846012307F014FE72B64EF21803CEF23D
:1015D000000300991A6801980A46126802461268C8
:1015E00062B6D5F8784272B61B680968026862B6BE
:1015F000560102D5322B88BF0131C3F58C33029AD4
:1016000003F23F134FF47A70A2FB032300FB01F1B6
:1016100001EB1311002C40F0F38495F85532072BA1
:10162000FBD895F85532072B84BF012385F8553236
:101630006023013BFDD195F855320BB9D5F838310F
:10164000059BD3F81090D9F83421D9F838319A4253
:1016500081F04284D9F834315A1C4B44C9F8342102
:1016600093F8303013F0400F23F07F0300F0D7825F
:101670005FFA83F800220121049BC9F8441289F81B
:1016800055221B78D9F84402059C8B402271B0F595
:10169000817F49F68C4289F83C31C1F6FF7240F2F5
:1016A000AC85117123460022597B484607F07AFF2A
:1016B00072B64EF21803CEF2000300991A68019830
:1016C0000A4612680246126862B6D9F8784272B6C3
:1016D0001B680A68016862B6490102D5322B88BFCF
:1016E00001320299C3F58C3303F23F134FF47A7041
:1016F000A1FB031300FB02F202EB1311002C40F0DC
:10170000BA8799F85532072BFBD899F85532072B31
:1017100084BF012389F855326023013BFDD105992F
:10172000049B0C691A78497B99F8553294F8553224
:101730002046062307F05CFD72B64EF21803CEF287
:10174000000300991A6801980A4612680246126856
:1017500062B6D4F8785272B61B680968026862B63D
:10176000560102D5322B88BF0131C3F58C33029A62
:1017700003F23F134FF47A70A2FB032300FB01F145
:1017800001EB1311002D40F01F8794F85532072B01
:10179000FBD894F85532072B84BF012384F85532C7
:1017A0006023013BFDD194F855320BB9D4F83831A0
:1017B000059BD3F81090D9F83421D9F838319A42E2
:1017C00081F0D483D9F834315A1C4B44C9F8342100
:1017D00093F83010D9F83421D9F8383104989A4266
:1017E000817281F0C083D9F834315A1C4B44C9F856
:1017F000342193F83000D9F83421D9F83831049CD9
:101800009A42607281F0AB83D9F834315A1C4B4450
:10181000C9F8342193F830300893D9F83421D9F835
:10182000383125469A429DF820402C7381F09483EC
:10183000D9F834315A1C4B44C9F8342193F830702C
:10184000D9F83421D9F83831049C9A42E77281F0F2
:101850009B83D9F834315A1C4B44C9F8342193F88E
:101860003060D9F83421D9F83831A6739A4281F022
:101870008883D9F834315A1C4B44C9F8342193F881
:101880003050657303F05EF80204E46900F1AA8445
:101890000BF040F921460BF095F94FF060510BF039
:1018A00091F9049B0146986B0BF084F8049B08990E
:1018B000D862384603F046F8070400F18A840BF03A
:1018C00029F921460BF07EF94FF060510BF07AF9BF
:1018D000049F0146F86B0BF06DF8314638632846DB
:1018E00003F030F8050400F153840BF013F921469E
:1018F0000BF068F94FF060510BF064F90146386C59
:101900000BF058F800237B7578630223B8F1000FC1
:1019100000F07F8100220121049BC9F8441289F85C
:1019200055221B78D9F84402059C8B402271B0F5F2
:10193000817F49F68C4289F83C31C1F6FF7240F252
:101940006984117123460022597B484607F02AFE1C
:1019500072B64EF21803CEF2000300991A6801988D
:101960000A4612680246126862B6D9F8784272B620
:101970001B680A68016862B6490102D5322B88BF2C
:1019800001320299C3F58C3303F23F134FF47A709E
:10199000A1FB031300FB02F202EB1311002C40F039
:1019A000188799F85532072BFBD899F85532072B31
:1019B00084BF012389F855326023013BFDD105998D
:1019C000049B0C691A78497B99F8553294F8553282
:1019D0002046062307F00CFC72B64EF21803CEF236
:1019E000000300991A6801980A46126802461268B4
:1019F00062B6D4F8785272B61B680968026862B69B
:101A0000560102D5322B88BF0131C3F58C33029ABF
:101A100003F23F134FF47A70A2FB032300FB01F1A2
:101A200001EB1311002D40F07D8694F85532072B01
:101A3000FBD894F85532072B84BF012384F8553224
:101A40006023013BFDD194F855320BB9D4F83831FD
:101A5000059B1B69D3F83411D3F83821914281F0EA
:101A6000A282D3F83421511C1A44C3F8341192F8DD
:101A70003010D3F83401D3F83821049C90422174FB
:101A800081F08D82D3F83421501C1A44C3F83401FC
:101A900092F830002546D3F83441D3F83821E87362
:101AA000944281F07882D3F83421541C1A44C3F84C
:101AB000344192F83090D3F83441D3F8382185F886
:101AC0001290944281F06382D3F83421541C1A445A
:101AD000C3F8344192F83080D3F83441D3F8382138
:101AE00085F81180944281F03482D3F83421541C5B
:101AF0001A44C3F8344192F83070D3F83441D3F823
:101B000038212F75944281F02082D3F83421541C5F
:101B10001A44C3F8344192F830602C46E67402F05F
:101B200011FF0104A56900F14C830AF0F3FF294677
:101B30000BF048F84FF060510BF044F8646C01462C
:101B400020460BF03FF8049B49461862404602F0DD
:101B5000F9FE020400F12D830AF0DCFF29460BF0A8
:101B600031F84FF060510BF02DF8014620460BF094
:101B700029F8049B39465862304602F0E3FE060419
:101B800000F10F830AF0C6FF29460BF01BF84FF057
:101B900060510BF017F8014620460BF013F8049B38
:101BA000CDF820B09862FEF76DBE00293EF4C6AEB7
:101BB000219A1278002A00F06B8672B6359A9068E6
:101BC0004AF2CC14C1F6FF7428B105889A8841689E
:101BD000A160521B9A8062B6209B1860002800F01A
:101BE000578643880288C118013393420C7A80F0EB
:101BF00047869BB2402C438000F03583438802889F
:101C00000133934280F064864380CDF840B0FEF704
:101C1000EDBD049ACDF820B05375FEF733BE5FFAE0
:101C200083F8049B01225A7503236FE649F29C70E6
:101C3000C1F6FF70462106F047FC119C319D2378C8
:101C4000002B00F0A5802A461378002BFCD19AF8CF
:101C500046303192002B3FF42AA94AF21526249AE5
:101C6000CDF894A0C1F6FF76012349F29C74079643
:101C70001370C1F6FF744625339FDDF884B0329EA1
:101C800004E0239A05231370002D7CD038680028C7
:101C900000F00D82B0F802C0CCF14003AB4228BF87
:101CA0002B460CEB030189B200F108024FF0000E45
:101CB000ED1A418003F1FF38624486F800E0002B02
:101CC00054D00CF108010CF10C0C8444014404F1D3
:101CD0000409494538BF64452CBF4FF0010C4FF053
:101CE000000C092B94BF4FF0000C0CF0010CBCF160
:101CF000000F00F0258141EA040C1CF0030F40F0B6
:101D00001F81A3F1040C4FEA9C0C0CF1010CB8F1FB
:101D1000020F4FEA8C0940F21181A4F1040A0A94DF
:101D20000EF1010E5AF8044F41F8044BF445F7D870
:101D30000A9C4B454A44C9EB080804EB090100F032
:101D40005A8291F800E082F800E0B8F1000F00F04C
:101D5000F38091F801E082F801E0B8F1010F00F0A2
:101D6000EB8089789170234441881C463F2988D9AB
:101D70004023038007F074FF0023239A3B60052370
:101D80001370002D82D1249BDDF894A01D70E0E13A
:101D90002B78002B3FF486A808F024F84FE7D4F8FE
:101DA0004432E2180B449B21C4F8443282F83C11BF
:101DB0003346FFF7C0BB0025FFF75ABBD4F84432C7
:101DC000E2180B44F721C4F8443282F83C11334640
:101DD000FFF7E3B800271A46FFF77FB89DE84440B5
:101DE0004EF21807CEF2000794F85532072B19D996
:101DF00072B63B68D2F800C0D6F8008062B618F020
:101E0000806F03D0322B01D90CF1010CC3F58C3358
:101E100003F23F13AEFB0383C1EB131300FB0C3340
:101E20009D42E1D872B64EF21803009A0198CEF2A4
:101E300000031B681268006862B6470102D5322BA6
:101E400088BF0132C3F58C33029803F23F13A0FB25
:101E50000303C1EB13114FF47A7303FB02118D429C
:101E60003FF6CDA894F84832022B7FF4C8A894F826
:101E70005E32002B3FF4C3A894F85532072BFBD8F1
:101E8000012384F85532FFF7BAB89DE844404EF27A
:101E90001807CEF2000795F85532072B19D972B6FC
:101EA0003B68D2F800C0D6F8008062B618F0806FA8
:101EB00003D0322B01D90CF1010CC3F58C3303F2A2
:101EC0003F13AEFB0383C1EB131300FB0C339C42A7
:101ED000E1D872B64EF21803009A0198CEF20003D0
:101EE0001B681268006862B6400102D5322B88BFB9
:101EF0000132C3F58C33029803F23F13A0FB0303B6
:101F0000C1EB13114FF47A7303FB02118C423FF6BD
:101F1000BAA895F84832022B7FF4B5A895F85E323E
:101F2000002B3FF4B0A895F85532072BFBD80123BE
:101F300085F85532FFF7A7B8234415E7214600E797
:101F4000013A234414F8011B02F8011F9C42F9D105
:101F50000AE79DE844404EF21807CEF2000794F8D5
:101F60005532072B19D972B63B68D2F800C0D6F8A3
:101F7000008062B618F0806F03D0322B01D90CF1CB
:101F8000010CC3F58C3303F23F13AEFB0383C1EBAB
:101F9000131300FB0C339D42E1D872B64EF21803C6
:101FA000009A0198CEF200031B681268006862B6BE
:101FB000470102D5322B88BF0132C3F58C3302981A
:101FC00003F23F13A0FB0303C1EB13114FF47A7329
:101FD00003FB02118D423FF6E0AA94F84832022B2F
:101FE0007FF4DBAA94F85E32002B3FF4D6AA94F873
:101FF0005532072BFBD8012384F85532FFF7CDBAB1
:102000009DE844404EF21807CEF2000795F855328D
:10201000072B19D972B63B68D2F800C0D6F80080F9
:1020200062B618F0806F03D0322B01D90CF1010C8D
:10203000C3F58C3303F23F13AEFB0383C1EB1313E1
:1020400000FB0C339C42E1D872B64EF21803009AA2
:102050000198CEF200031B681268006862B6400166
:1020600002D5322B88BF0132C3F58C33029803F2BC
:102070003F13A0FB0303C1EB13114FF47A7303FB6F
:1020800002118C423FF6CDAA95F84832022B7FF41C
:10209000C8AA95F85E32002B3FF4C3AA95F85532D2
:1020A000072BFBD8012385F85532FFF7BABA48F65B
:1020B00001484FF001099BF8003003F0FF02ABB17B
:1020C00007F00AFE072816D9B8F101083CD033788A
:1020D000002B39D1119B1B78002BECD107F082FE2D
:1020E0009BF8003003F0FF02002BE9D1249BDDF8C0
:1020F00094A01A702DE0249B83F8009072B62F9B59
:102100001A68B2FA82F348F638710B2BC1F6FF71E8
:1021100012DC4FF00040D84022EA00020A6062B6AA
:10212000309803EBC30300EBC302002140F83310E7
:102130003A6010465160ADE562B6079A0023B8F1E7
:1021400001083B601370C2D1329ADDF894A00123DC
:102150001370219B1B78002B3EF4A9AE339B249A6D
:102160001B6801204AF218241070C1F6FF74002B7E
:1021700000F0C98623995A8800250D7018461A80E8
:1021800007F06EFD2560249A00231370FEF78FBEC2
:10219000C34398B201300AF0BDFC00F10040FFF7E4
:1021A000A6BBC34398B201300AF0B4FC00F1004072
:1021B000EAE4C34398B201300AF0ACFC00F10040FD
:1021C000CCE4C34398B201300AF0A4FC00F1004013
:1021D000ADE4C34398B201300AF09CFC00F100402A
:1021E000FFF76FBBC34398B201300AF093FC00F1D4
:1021F0000040FFF74FBB0B46B6E5D9F8443209EB78
:1022000003020B448C21C9F8443282F83C11234666
:10221000FFF749BAD9F8443209EB03020B44922183
:10222000C9F8443282F83C112346FFF78CBB219B4E
:102230001B78002B3EF482AB72B6359B98684AF24D
:10224000CC12C1F6FF7230B1229D0488AB88416880
:1022500091601B1BAB8062B6209B186000283EF487
:102260006DAB43880288C118013393420C7A80F029
:102270003786532C438000F03B8640F27383642CF6
:1022800000F0238700F23485572C00F023875A2C66
:102290007EF454AB299BD3F894000AF03BFC014632
:1022A0004FF41050C4F674100AF040FD0021C4F23F
:1022B000A0010AF087FC0AF04BFECDF840B0CDF843
:1022C00094A09DE8000D002200234EF218073F92D3
:1022D0004092419242924392449245924693479350
:1022E000489349934A934B934C93CEF200070A903C
:1022F00049F6B444C1F6FF743FAE46AD0AE04AF277
:102300001413A034C1F6FF739C4206F1040605F1D4
:1023100004054CD094F89C9072B6D7F800E0D8F839
:102320000030DAF800C062B6CEF58C3101F23F1110
:102330001CF0806F4FF47A72ABFB011003D0BEF13A
:10234000320F88BF013302FB03F3D4F89820D4F88E
:10235000941003EB10139A1A8A42D0D32046C4F883
:10236000983007F041FFB9F1000FC8D0D4F8609061
:10237000E16948460AF026FCA1690AF01BFB4946C0
:102380000AF020FC61690AF015FB49460AF01AFCC4
:1023900021690AF00FFB616E0AF00AFB0146306802
:1023A0000AF008FB2B68306001332B60A7E74698E2
:1023B0000A9B83429CD80AF0ADFB01463F98DDF8AA
:1023C00040B0DDF894A00AF0B1FC299CE065479884
:1023D0000AF0A0FB014640980AF0A8FCC4F8FC00F3
:1023E00048980AF097FB014641980AF09FFCC4F810
:1023F0009C0149980AF08EFB014642980AF096FC2F
:10240000C4F83C024A980AF085FB014643980AF05A
:102410008DFCC4F8DC024B980AF07CFB0146449822
:102420000AF084FCC4F87C034C980AF073FB014664
:1024300045980AF07BFC4FF0040849F6B443C1F616
:10244000FF7341460722C4F81C04299301240A9310
:10245000C4F20202C4F20201DDF8D0901092C1F27F
:102460000048C4F202042591CDF8A0B0CDF898A0A0
:102470000A9B4FF00B0BDB6D36934FF00A0AC4F248
:10248000020BC4F2020A36AFA8F10405237817F84C
:10249000016BD80740F125822B789E427FD1013510
:1024A000A845F3D10A9A202308F10408C1F2004399
:1024B000A03298450A92DBD149F2E7740A23DDF88D
:1024C000A0B0CDF840B0C1F6FF74012507274FF04A
:1024D00004084FF00B09C4F20203DDF898A00A9338
:1024E00004F14606C4F20205C4F20207C4F202086F
:1024F000C4F20209DDF8D0B010E049F2E873C1F689
:10250000FF73C3F1A053013349F29C721B5D04F8C1
:10251000013FA642C1F6FF7200F092822B78D807E5
:10252000EBD4DBF80410DBF80C30DBF80000DBF850
:1025300008200DF1EC0EAEE80F002B78990723D59B
:102540000022C4F202028020137813F0700318BF37
:10255000137000213322387088F8001089F80020A9
:102560000A9A0323137072B60B46C4F202033BAA05
:1025700042F0010218462593904762B6259B1A78CF
:1025800012F0700240F0878340F64153C0F203031B
:1025900001E0013BB1D02A78D207FAD5ADE7237824
:1025A000D80740F137832B789E423FF478AF002262
:1025B000C4F20202137813F0700318BF13702E7068
:1025C0002378DE07FCD56AE79DE844404EF2180701
:1025D000CEF2000794F85532072B19D972B63B6832
:1025E000D2F800C0D6F8009062B619F0806F03D020
:1025F000322B01D90CF1010CC3F58C3303F23F13DC
:10260000AEFB0393C1EB131300FB0C339D42E1D8E7
:1026100072B64EF21803009A0198CEF200031B68BE
:102620001268006862B6400102D5322B88BF0132C1
:10263000C3F58C33029803F23F13A0FB0303C1EBF5
:1026400013114FF47A7303FB02118D423FF6A1A8D8
:1026500094F84832022B7FF49CA894F85E32002B49
:102660003FF497A894F85532072BFBD8012384F840
:102670005532FFF78EB89DE8A4004EF21806CEF250
:10268000000699F85532072B19D972B63368D2F87B
:1026900000E0D5F800C062B61CF0806F03D0322B8A
:1026A00001D90EF1010EC3F58C3303F23F13A7FBE2
:1026B00003C3C1EB131300FB0E339C42E1D872B687
:1026C0004EF21803009A0198CEF200031B681268BC
:1026D000006862B6470102D5322B88BF0132C3F5CC
:1026E0008C33029803F23F13A0FB0303C1EB1311D9
:1026F0004FF47A7303FB02118C423FF606A899F857
:102700004832022B7FF401A899F85E32002B3EF488
:10271000FCAF99F85532072BFBD8012389F85532C5
:10272000FEF7F3BF9DE844404EF21807CEF20007D3
:1027300094F85532072B19D972B63B68D2F800C00D
:10274000D6F8008062B618F0806F03D0322B01D922
:102750000CF1010CC3F58C3303F23F13AEFB038382
:10276000C1EB131300FB0C339D42E1D872B64EF25D
:102770001803009A0198CEF200031B6812680068E3
:1027800062B6400102D5322B88BF0132C3F58C33CB
:10279000029803F23F13A0FB0303C1EB13114FF4A4
:1027A0007A7303FB02118D423FF643A994F8483235
:1027B000022B7FF43EA994F85E32002B3FF439A936
:1027C00094F85532072BFBD8012384F85532FFF7D4
:1027D00030B99DE8A4004EF21806CEF2000699F832
:1027E0005532072B19D972B63368D2F800E0D5F804
:1027F00000C062B61CF0806F03D0322B01D90EF1FD
:10280000010EC3F58C3303F23F13A7FB03C3C1EBE7
:10281000131300FB0E339C42E1D872B64EF218033C
:10282000009A0198CEF200031B681268006862B635
:10283000470102D5322B88BF0132C3F58C33029891
:1028400003F23F13A0FB0303C1EB13114FF47A73A0
:1028500003FB02118C423FF6A8A899F84832022BDC
:102860007FF4A3A899F85E32002B3FF49EA899F854
:102870005532072BFBD8012389F85532FFF795B85D
:1028800007F036FC209A0023402C13603FF4CFACB5
:10289000219B1B78002B3EF451A872B6359B98689B
:1028A0004AF2CC12C1F6FF7230B1229D0488AB8887
:1028B000416891601B1BAB8062B6209B18600028AA
:1028C0003EF43CA84388028801339342FFF49CA95C
:1028D00007F00EFC209ACDF840B000231360FDF7FE
:1028E00085BFD9F80410D9F80C30D9F80000D9F810
:1028F00008200DF1EC0EAEE80F002378990725D5DE
:102900000022C4F202028020137813F0700318BF73
:102910001370109B1870259B002133224FF0030E7B
:1029200019708BF800208AF800E072B60B46C4F2EA
:1029300002033BAA42F0010218462C93904762B66C
:102940002C9B1A7812F0700240F0BC8340F6415381
:10295000C0F2030302E0013B3FF49EAD2278D207B0
:10296000F9D599E5462C00F02A8340F202834E2CDB
:1029700000F01C83522C7DF4E1AF49F2E87046214F
:10298000C1F6FF7007F064FAFDF7D8BF05F52070B7
:10299000C5F8182307F028FC013401238DF8E8401E
:1029A0000793FDF740BF2846C5F8982007F01CFCA8
:1029B000013401238DF8E4400793FDF720BF05F5AE
:1029C0004870C5F8B82307F00FFC013401238DF8D7
:1029D000E9400793FDF72CBF05F57070C5F8582442
:1029E00007F002FC013401238DF8EA400793FDF75C
:1029F00024BF05F1A000C5F8382107F0F5FB01342C
:102A000001238DF8E5400793FDF7FEBE05F5F07054
:102A1000C5F8782207F0E8FB013401238DF8E74080
:102A20000793FDF7FBBE05F5A070C5F8D82107F0A8
:102A3000DBFB013401238DF8E6400793FDF7E9BE87
:102A4000136DD06C516DDDF840B003F07F3443401E
:102A500000F07F30204403F08033434003F07F34A4
:102A60004B4001F07F310C44906DD16D03F0803309
:102A7000634003F07F34434000F07F30204403F094
:102A80008033434003F07F344B4001F07F310C44EE
:102A9000106E516E03F08033634003F07F34434087
:102AA00000F07F30204403F08033434003F07F3454
:102AB0004B4001F07F310C44906ED16E03F08033B7
:102AC000634003F07F34434000F07F30204403F044
:102AD0008033434003F07F344B4001F07F310C449E
:102AE000106F516F03F08033634003F07F34434035
:102AF00000F07F30204403F08033434003F07F3404
:102B00004B4001F07F310C44906FD16F03F0803364
:102B1000634003F07F34434000F07F30204403F0F3
:102B20008033434003F07F344B4001F07F310C444D
:102B3000D2F88000D2F8841003F08033634003F0B1
:102B40007F34434000F07F30204403F08033434023
:102B500003F07F344B4001F07F310C44D2F8880001
:102B6000D2F88C1003F08033634003F07F3443408D
:102B700000F07F30204403F08033434003F07F3087
:102B80004B4001F07F31014403F080334B40C3F3ED
:102B9000072192F8904019440C44C3F307410C44B8
:102BA00004EB13630121DCB2C4F2020182F891400C
:102BB0000B78DD0740F1D4834523C1F200431B7835
:102BC000A3421ED00123C4F202031B78D80740F1B0
:102BD000CA834523C1F200431B78A34211D00022CF
:102BE000C4F20202137813F0700318BF1370452269
:102BF000C1F2004201231470C4F202031A78D10713
:102C0000FCD549F2E8701C21C1F6FF7007F020F9ED
:102C1000FDF794BED9F80410D9F80C30D9F80000AB
:102C2000D9F808200DF1EC0EAEE80F0023789907D3
:102C300025D50022C4F202028020137813F070031D
:102C400018BF1370109B1870259B002133224FF082
:102C5000030E19708BF800208AF800E072B60B465C
:102C6000C4F202033BAA42F0010218462C9390479B
:102C700062B62C9B1A7812F0700240F06E8340F618
:102C80004153C0F2030302E0013B3FF48CAC2278D5
:102C9000D207F9D587E41A702FE4FF234FF47F465B
:102CA000FEF785BAFF234FF00F0EFEF76EBAFF2531
:102CB0002F46FEF78FBAFF234FF47F622E46FEF7B2
:102CC00051BAFF234FF47F210546FEF738BA0F2291
:102CD000FF232E92FEF720BA4FF47F62FF232D923E
:102CE000FEF707BA4FF47F22FF232C92FEF7EDB9CF
:102CF000732C00F0FF807A2C7DF420AE299BD3F852
:102D0000940009F007FF01464FF41050C4F6741008
:102D10000AF00CF80021C4F2A00109F053FF0AF0F8
:102D200017F9CDF840B0CDF894A09DE8000D002231
:102D300000234EF218073F924092419242924392F2
:102D40004492459246934793489349934A934B93B1
:102D50004C93CEF200070A9049F6B444C1F6FF74D2
:102D60003FAE46AD0AE04AF21413A034C1F6FF7339
:102D70009C4206F1040605F104054CD094F89C90A1
:102D800072B6D7F800E0D8F80030DAF800C062B6C2
:102D9000CEF58C3101F23F111CF0806F4FF47A7246
:102DA000ABFB011003D0BEF1320F88BF013302FB31
:102DB00003F3D4F89820D4F8941003EB10139A1A64
:102DC0008A42D0D32046C4F8983007F00DFAB9F102
:102DD000000FC8D0D4F86090E169484609F0F2FECF
:102DE000A16909F0E7FD494609F0ECFE616909F0C7
:102DF000E1FD494609F0E6FE216909F0DBFD616E5F
:102E000009F0D6FD0146306809F0D4FD2B6830602A
:102E100001332B60A7E746980A9B83429CD809F0B0
:102E200079FE01463F98DDF840B0DDF894A009F046
:102E30007DFF299CE065479809F06CFE01464098AB
:102E400009F074FFC4F8FC00489809F063FE0146DD
:102E5000419809F06BFFC4F89C01499809F05AFEAB
:102E60000146429809F062FFC4F83C024A9809F012
:102E700051FE0146439809F059FFC4F8DC024B9813
:102E800009F048FE0146449809F050FFC4F87C035D
:102E90004C9809F03FFE0146459809F047FF49F676
:102EA00010520023C1F6FF724693C4F81C0402F5C9
:102EB0008C614793489349934A934B934C9346AB09
:102EC00052F8A00B43F8040B8A42F9D11C2146A802
:102ED00006F0BEFFFDF732BD4FF08008FEF7CABB1B
:102EE00007F006F9209A0023532C13607FF4C5A93C
:102EF00002F0DEFF49F2E4700421C1F6FF7006F033
:102F0000A7FFFDF71BBD72B62F9A1168B1FA81F2C7
:102F100048F638740B2AC1F6FF7400F319824FF09B
:102F20000040D04021EA0001216062B6309C02EBF3
:102F3000C20204EBC20144F83230239A4B600846C7
:102F4000137006F08DFEFFF71EB9FF262C46FEF724
:102F5000E5BDFF27FEF7D1BDFF27FEF771BCFF23BC
:102F60000893FEF75ABCFF20FEF745BCFF21FEF791
:102F700031BC442C7DF4E2AC01238AF84630FDF7E5
:102F8000DDBCFF25FEF77DBCFF26FEF76ABC4FF0D7
:102F9000FF08FEF7A1BD4FF0FF09FEF78CBDFF2033
:102FA0002546FEF778BDFF21FEF763BD49F60C000C
:102FB0000421C1F6FF7006F04BFFFDF7BFBC07F020
:102FC000E9F8C5B207F0E6F8064607F0E3F8F1B213
:102FD000C0B201F0B7FC49F6B4448146C1F6FF74B3
:102FE0007426762740F6484816E0012D49D03DD892
:102FF0001423162284F8443046F66C3384F84520B6
:10300000C4F89430204604F013FA4AF21413A034A2
:10301000C1F6FF739C4219D0032D10D0E5D9052DC0
:1030200045D039D3062DEDD1D423D62284F84430AF
:1030300040F2262384F84520C4F89430E2E784F86F
:10304000446084F84570C4F89480DBE7484609F092
:1030500061FD01464FF41050C4F6741009F066FE8D
:1030600009F076FF139B1860FDF768BC54235622C5
:1030700084F844304FF4BF5384F84520C4F89430AA
:10308000C0E73423362284F844304FF43F5384F8A9
:103090004520C4F89430B5E79423962284F8443050
:1030A00040F2846384F84520C4F89430AAE7B4233E
:1030B000B62284F8443040F2963384F84520C4F8B0
:1030C00094309FE71A70FFF7E7B900238AF846307B
:1030D000FDF734BC009BCDF8A0A01B683893389B4B
:1030E0001093DDF880A0CDF894B000230A930A9ADB
:1030F00046A9D2F1460701EB020800F01D81219B91
:103100001B7803F0FF091BB3DAF800404FF0000909
:10311000002C00F08380B4F800B06588C5EB0B0686
:10312000BE4228BF3E4604F10801294435444046CA
:10313000ADB2324608F05AFA5D45B144A7EB060736
:103140006580B04472D21FB1219B1B78002BDFD168
:103150000A9B4B44452B0A9300F2F580009B139A7F
:103160001B683793D168379B109A9B1A8B4248F69D
:103170001402C1F6FF72BAD30123DDF894B0DDF872
:10318000A0A013740B230A2201244FF007084FF06C
:103190000409C4F20203C4F20202CDF894B0C4F2EE
:1031A0000204C4F20208C4F202090A9310920DF25A
:1031B0001715DDF8D0B003E00DF25D139D4221D06C
:1031C000237815F8016FDA0737D546ABC3F1A05362
:1031D0005F195B5D9E42EFD02378D80767D53B78B7
:1031E0009E42E9D00022C4F20202137813F0700369
:1031F00018BF13703E702378DB07FCD50DF25D130A
:103200009D42DDD1DDF894B003F092FCFDF796BB52
:103210000388002B40F08A8006F06AFF06F00CFD60
:103220000446CAF800000028F2D191E720460024A5
:1032300006F05EFFCAF8004085E7DBF80C30DBF8EB
:103240000000DBF80410DBF808203FAF0FC723783D
:103250009B0721D50022C4F20202802013780021AE
:1032600013F0700318BF137088F8000089F800107D
:103270000A9933220A70109A0323137072B600273A
:10328000C4F202073FAB43F001033846984762B6E9
:103290003B7813F070034BD140F64153C0F2030367
:1032A00001E0013B91D02278D707FAD58DE7DBF812
:1032B0000410DBF80C30DBF80000DBF808200DF11F
:1032C000FC0EAEE80F002378990723D50022C4F244
:1032D000020280201378002113F0700318BF1370CE
:1032E00088F8000089F800100A9933220A70109AB1
:1032F0000323137072B60023C4F202033FAA42F004
:10330000010218462893904762B6289B1A7812F05B
:1033100070020FD140F64153C0F2030302E0013BBB
:103320003FF45DAF2278D207F9D558E79B46F4E623
:103330003B704AE71A7052E70A9BB9464B44452B4B
:103340000A937FF60BAFDDF894B0DDF8A0A019E783
:1033500062B6239B1870FEF716BF1A70FFF723B9E9
:1033600001F066F828E401F063F832E42DE9F04F4B
:1033700083B04DF2870349F6B44548F63C0A4DF256
:10338000A41B4AF2C8164EF6045848F63967C0F234
:103390000003C1F6FF75C1F6FF7A0193C0F2000B7E
:1033A000C1F6FF76CEF20008C3F6E307019B13F8DF
:1033B000012F0193212A4FF00A032A726B7200F247
:1033C00098830BEBC2035BF832105B684FF4A27278
:1033D000012081F880021A601A6822F020021A6027
:1033E0002A7A4DF2A413212AC0F2000300F2A78327
:1033F00053F8321091F88042002C00F0998381F844
:1034000080006B7A212B40F27483DAF8043093E861
:103410000600086802430A60DAF8002044F201015D
:1034200041F20104C0F21F01116020460021C3F6E1
:103430000004C7F60000C8F21F01D46010611160DB
:103440009AF8092099180A3291F8241053F822406A
:103450000BEBC1022846526814609AF808209918AC
:1034600003EB8202097ED4690BEBC102526814603F
:103470009AF80A20991803EB820391F83020596BCF
:103480000BEBC2035B68196003F0CAFD9AF80B30BE
:1034900085F85000002B33D072B648F63C03C1F6D5
:1034A000FF73DB7ADC0710D54EF2801248F63C033E
:1034B000CEF20002C1F6FF731168DB680B4048F6DC
:1034C0003C01C1F6FF718B6113609AF80B309807CD
:1034D00010D54EF2841248F63C03CEF20002C1F63B
:1034E000FF7311681B690B4048F63C01C1F6FF7180
:1034F000CB6113609AF80B30590700F12A8362B64A
:10350000DAF8002040F20113D168C3F60023994293
:103510000ED044F20101C0F23F01116040F20110EF
:103520000021C7F60020C8F23F01D360106111608E
:103530002B7A5BF83310012081F8000106234FF04D
:103540000041D1625363D36A002BFCDA936B72B6ED
:103550004EF21803CEF200031B683468D8F800203E
:1035600062B6520102D5322B88BF0134C3F58C33C9
:1035700003F23F134FF47A7249F63400A7FB0313AA
:1035800002FB04F44EF21809C1F6FF70594604EB31
:103590001314D346CEF20009AA4605464FF47A7EAC
:1035A000A446009172B6D9F800003268D8F80040FD
:1035B00062B6C0F58C3303F23F13A7FB031364011B
:1035C000CCEB131302D5322888BF01320EFB023335
:1035D000B3F57A7FC0F084825546DA464322DAF8A2
:1035E0000030DDF800B04FF00041D9625A63DA6A6A
:1035F000002AFCDA996B95F840204FF00041D9621F
:103600005A63DA6A002AFCDA996B95F841204FF088
:103610000041D9625A63DA6A002AFCDA996B95F89C
:1036200042204FF00041D9625A63DA6A002AFCDA7C
:10363000996B95F843204FF00041D9625A63DA6ADA
:10364000002AFCDA297A9AF80B205BF831109B6B80
:10365000012381F880303AB3D10709D548F63C03FD
:103660004FF46142C1F6FF73CEF200029B69136012
:103670009AF80B309A0709D548F63C034EF204122B
:10368000C1F6FF73CEF20002DB6913609AF80B30CB
:103690005B0709D548F63C034EF20812C1F6FF73EA
:1036A000CEF200021B6A1360742385F84430762240
:1036B00040F64843C5F8943085F84520284603F085
:1036C000B7FE4AF21413A035C1F6FF73AB427FF484
:1036D0006DAE49F68C45C1F6FF754AF21414697B4C
:1036E000286901F0CDFFC1F6FF742B6920784CF2F8
:1036F0005032C3F8782201F03FFFE02001F022FFB2
:10370000B62001F01FFF697B286906F055F801F02B
:1037100045FF207801F030FFF22001F013FF6078C0
:1037200001F010FFF42001F00DFFE07801F00AFF36
:10373000F52001F007FF207901F004FF697B28697B
:1037400006F03AF801F02AFF207801F015FF8820F2
:1037500001F0F8FE697B286901F072FE2E6922787B
:10376000697B3046192305F043FD304605F0DEFE47
:1037700008B1D6F83831286901F060FDA0812869C8
:1037800001F05CFD03022869A38101F057FD20824E
:10379000286901F053FD238A00B243EA0023286917
:1037A000238201F04BFD6082286901F047FD638AA6
:1037B00000B243EA00232869638201F03FFDE08103
:1037C000286901F03BFDE38943EA00232869E3818E
:1037D00001F034FDA082286901F030FDA38A00B217
:1037E00043EA00232869A38201F028FDE0822869CA
:1037F00001F024FDE38A00B243EA00232869E38252
:1038000001F01CFD2083286901F018FD238B00B214
:1038100043EA00232869238301F010FD60832869AF
:1038200001F00CFD638B00B243EA00232869638337
:1038300001F004FDA083286901F000FDA38B00B214
:1038400043EA00232869A38301F0F8FCE083286998
:1038500001F0F4FCE38B00B243EA00232869E38320
:1038600001F0ECFC2084286901F0E8FC238C00B214
:1038700043EA00232869238401F0E0FC608428697E
:1038800001F0DCFC638C00B243EA00232869638406
:1038900001F0D4FC84F82A00207801F06DFEE120CC
:1038A00001F050FE697B286901F0CAFD2E6922787B
:1038B000697B3046072305F09BFC304605F036FE59
:1038C00008B1D6F83831286901F0B8FCA08428691D
:1038D00001F0B4FCA38C00B243EA00232869A3845E
:1038E00001F0ACFC84F82B00286901F0A7FC03016F
:1038F0002869E38401F0A2FCE28CC0B200F00F0161
:103900000A4303092869E284238501F097FC238D8B
:1039100000B243EA00132869238501F08FFC84F884
:103920002C00207801F028FEF42001F00BFEA07896
:1039300001F008FE697B286905F03EFF01F02EFECC
:10394000697B286901F09CFE2B694CF25032C3F868
:10395000782206F0AFF841F604044AF2A8124CF2BD
:103960000400C1F6FF72C4F2FE34C4F2040048F64B
:10397000380300210E264FF48075C1F6FF731675CB
:1039800084F88012056049F630021878C1F6FF729B
:1039900049F62E0410281170C1F6FF7407D0227862
:1039A00010201870002A40F0E68000F037FF2378DE
:1039B000002B40F005814BF224000146C4F20B01BC
:1039C000C4F2030049F632030625C1F6FF73056011
:1039D00048F639020D60C1F6FF721D781026167088
:1039E0003DB1247800221A70002C40F0D68000F0FF
:1039F00015FF49F29C7148F61803C1F6FF71C1F634
:103A0000FF7348F23402C4F2040223244FF4FA6034
:103A10000C709860116849F67C4341F48061C1F6EE
:103A2000FF7311604AF208254AF20A2449F6B420CD
:103A300049F6B62149F6B8321E78C1F6FF75C1F6CF
:103A4000FF74C1F6FF70C1F6FF71C1F6FF7200236B
:103A50002B80238003800B801370002E00F0A88041
:103A6000152E00F0928048F61F13C1F6FF731B78E5
:103A7000012B00F09580052B06D14CF21C03C4F2FB
:103A800004034FF451721A604FF42043C4F206034A
:103A900000254EF22D404EF2041148F628021D700A
:103AA0000424CEF20000CEF20001C1F6FF7213270B
:103AB000112602255F704FF0880E9E723C279C7085
:103AC0004026DD745C754FF400554FF4FA6483F8BA
:103AD00010E0DF7006700D60946003B0BDE8F08FF9
:103AE0002B78002B7FF45EAD644606F07BF90099DD
:103AF00054E50BEBC3025BF83310536801204FF41D
:103B0000A27281F880021A601A6822F020021A60FC
:103B10006A7A4DF2A413212AC0F200033FF675AC75
:103B200053F8321091F880425CB181F880006CE467
:103B300003EBC2035A68136843F0030313606B7A04
:103B400060E403EBC2035A68136843F00303136095
:103B50005BE44EF2881248F63C03CEF20002C1F656
:103B6000FF7311685B690B4048F63C01C1F6FF71B9
:103B70000B621360C3E44BF224021346C4F20B033E
:103B8000C4F20302116019600FE74CF21803C4F28B
:103B9000040340F213321A6065E702600A6026E708
:103BA0004AF24403C4F204034FF451721A606BE703
:103BB0004AF24003C4F2040340F213321A6052E79F
:103BC00000F084FCF7E600BF10B54AF22024C1F6ED
:103BD000FF74206818B143881844007A10BD4AF277
:103BE0001C23C1F6FF731B7823B106F025F8206073
:103BF0000028F0D14FF0FF3010BD00BFF8B50E46E1
:103C000071B17AB10746144600253B6816F8011BCE
:103C10001B6838469847013C0544F6D12846F8BD54
:103C20000846F8BD1046F8BD48F23403C4F2040358
:103C30001B685A057ED549F6BC33C1F6FF732DE9E2
:103C4000F0471B680BB101221A7049F6B429C1F67E
:103C5000FF7949F6B625B9F80040A4B20134FF2C2B
:103C600088BF4FF0000A49F6B8284FF4204694BFA9
:103C70001FFA84FA54460F46C1F6FF75C1F6FF7865
:103C8000C4F206062B889BB2A3422BD1EFF3138319
:103C9000002B3BD1EFF31083002B37D1EFF30582DC
:103CA000002A44D00F2A05D94EF2F033CEF2000399
:103CB00013441B78EFF3118212B1934228BF1346CD
:103CC000402B23D9B3F5807FDCD149F63403C1F60C
:103CD000FF731B78002BD5D106F084F82B889BB29C
:103CE000A342D3D049F6B8334FF42042C1F6FF7354
:103CF000C4F20602FFB208F804700120BC2118705B
:103D0000A9F800A0D1700120BDE8F08733791B0627
:103D1000B8D52B889BB20133FF2B86BF00221346F8
:103D20009AB218F80330DBB2F3712A80AAE74FF495
:103D30008073BFE701207047026843F68173126801
:103D4000C0F200039A422DE9F0475FFA81F940F092
:103D5000818048F23403C4F204031B685A0563D51A
:103D600049F6BC33C1F6FF731B680BB101221A7010
:103D700049F6B428C1F6FF7849F6B625B8F80040F0
:103D8000A4B20134FF2C88BF4FF0000A49F6B827CF
:103D90004FF4204694BF1FFA84FA5446C1F6FF75CB
:103DA000C1F6FF77C4F206062B889BB2A3422BD143
:103DB000EFF31383002B3AD1EFF31083002B36D1AE
:103DC000EFF30582002A42D00F2A05D94EF2F033D4
:103DD000CEF2000313441B78EFF3118212B1934229
:103DE00028BF1346402B22D9B3F5807FDCD149F69A
:103DF0003403C1F6FF731B78002BD5D105F0F2FF19
:103E00002B889BB2A342D3D049F6B8334FF420425B
:103E1000C1F6FF73C4F206020120BC2107F804902A
:103E20001870A8F800A0D1700120BDE8F0873379A0
:103E30001B06B9D52B889BB20133FF2B86BF00220E
:103E400013469AB2FB5CDBB2F3712A80ACE74FF405
:103E50008073C1E74946BDE8F0471047026843F662
:103E600081731268C0F200039A422DE9F0475FFAAD
:103E700081F940F0818048F23403C4F204031B68E6
:103E80005A0563D549F6BC33C1F6FF731B680BB105
:103E900001221A7049F6B428C1F6FF7849F6B62512
:103EA000B8F80040A4B20134FF2C88BF4FF0000ADC
:103EB00049F6B8274FF4204694BF1FFA84FA5446B7
:103EC000C1F6FF75C1F6FF77C4F206062B889BB2D8
:103ED000A3422BD1EFF31383002B3AD1EFF31083DE
:103EE000002B36D1EFF30582002A42D00F2A05D9E4
:103EF0004EF2F033CEF2000313441B78EFF311823D
:103F000012B1934228BF1346402B22D9B3F5807FCC
:103F1000DCD149F63403C1F6FF731B78002BD5D1F1
:103F200005F060FF2B889BB2A342D3D049F6B8338B
:103F30004FF42042C1F6FF73C4F206020120BC21F7
:103F400007F804901870A8F800A0D1700120BDE80F
:103F5000F08733791B06B9D52B889BB20133FF2B31
:103F600086BF002213469AB2FB5CDBB2F3712A8053
:103F7000ACE74FF48073C1E74946BDE8F04710470E
:103F800048F23403C4F204031B685A057CD549F691
:103F9000BC33C1F6FF732DE9F0471B680BB101225A
:103FA0001A7049F6B428C1F6FF7849F6B625B8F874
:103FB0000040A4B20134FF2C88BF4FF0000A49F63C
:103FC000B8274FF4204694BF1FFA84FA5446894616
:103FD000C1F6FF75C1F6FF77C4F206062B889BB2C7
:103FE000A3422BD1EFF31383002B3AD1EFF31083CD
:103FF000002B36D1EFF30582002A42D00F2A05D9D3
:104000004EF2F033CEF2000313441B78EFF311822B
:1040100012B1934228BF1346402B22D9B3F5807FBB
:10402000DCD149F63403C1F6FF731B78002BD5D1E0
:1040300005F0D8FE2B889BB2A342D3D049F6B83303
:104040004FF42042C1F6FF73C4F2060207F8049051
:104050000120BC211870A8F800A0D1700120BDE893
:10406000F08733791B06B9D52B889BB20133FF2B20
:1040700086BF002213469AB2FB5CDBB2F3712A8042
:10408000ACE74FF48073C1E70120704749F6B423D1
:1040900049F6B622C1F6FF72C1F6FF731B8810887D
:1040A0009BB280B283422CBFFF3000F1FF30C01AB8
:1040B000704700BF48F23403C4F204031B685B0579
:1040C00020D54FF42043C4F206034021DA7802F0F1
:1040D000CB02DA705974D8784AF20A2240F03400E0
:1040E000C1F6FF7249F6B021D870C1F6FF7112888F
:1040F00009684AF20823C1F6FF7392B21A8009B127
:1041000000230B70704700BF2DE9F84F49F63405C6
:1041100049F6B8344AF208294AF20A284AF20C272A
:104120004AF20D26C1F6FF75C1F6FF74C1F6FF799C
:10413000C1F6FF78C1F6FF77C1F6FF762B7823B181
:104140002378002BFCD1BDE8F88F4AF20E2E4AF2FC
:104150000F201A46C1F6FF7EC1F6FF70237803F0E8
:10416000FF01002B3BD0B9F80030B8F800303B78A5
:1041700033789EF800300378EFF305830122002B9B
:10418000ECD12B70EFF3108E72B64AF21023C1F609
:10419000FF731868F0B14AF2142AC1F6FF7A9AF850
:1041A0000010B9B9D0F814C08AF80020C3F800C0D4
:1041B000BCF1000F01D0CCF81810BEF1000F00D1F7
:1041C00062B64FF0000B80F81DB0836898478AF8FC
:1041D00000B0B3E7BEF1000FB0D162B6AEE70AB9E6
:1041E000BDE8F88F2970FBE730B44AF208234AF2A1
:1041F0000A24C1F6FF73C1F6FF741A88238892B2AD
:104200009BB29A422BD00133FF2B14D949F6B0113F
:1042100049F6B023C1F6FF71C1F6FF73087819683B
:104220000023C0B2238021B1D31ADA2B01DC002392
:104230000B7030BC704749F6B01049F6B021C1F69A
:10424000FF70C1F6FF71C05C09689DB2C0B22580E5
:104250000029EED09A4238BF02F58072E4E74FF0B1
:10426000FF30E6E74AF208224AF20A23C1F6FF725B
:10427000C1F6FF7312881B8892B29BB29A420BD090
:104280000133B3F5807F49F6B01228BF0023C1F691
:10429000FF72D05CC0B270474FF0FF30704700BF74
:1042A0004AF208224AF20A23C1F6FF72C1F6FF73EE
:1042B00010881B8880B29BB2984238BF00F580708E
:1042C000C01A704748F23403C4F20403186810F4AB
:1042D00080601CD012290BD0142919D04FF4204330
:1042E000C4F2060300205A7B02F0FE025A737047A4
:1042F0004AF20C03C4F2040340F202321A604FF493
:104300002043C4F2060301205A7B02435A737047CC
:104310004CF21403C4F2040340F202321A60EEE7D6
:1043200048F23403C4F20403186810F4806024D007
:10433000212906D949F6B023C1F6FF730020186081
:1043400070474DF2A413C0F2000303EBC10210B496
:1043500049F6B02453F831305268C1F6FF74012099
:104360004FF4A27183F88002236011601168002469
:1043700021F0200111601C7010BC704770B54AF22A
:104380002024C1F6FF74206878B143880288C118E0
:10439000013393420D7A02D24380284670BD05F066
:1043A000A7FE00232846236070BD4AF21C23C1F6F5
:1043B000FF731B78A3B172B64AF2CC13C1F6FF7338
:1043C000986848B14AF2DC12C1F6FF7205889188FC
:1043D00046689E604B1B938062B620600028D4D153
:1043E0004FF0FF3070BD00BF0846114605F030BDEC
:1043F00000B583B002A800F8011D012105F028FDD9
:1044000003B05DF804FB00BF10B508461446114622
:1044100004F05AF8204610BD38B508460D4607F09E
:10442000AFF904460146284604F04EF8204638BD50
:10443000F0B54DF2F003C0F2000385B0596818687A
:104440009A68DB686C460FC40123C4F202031B7830
:10445000990729D50022C4F202020720137813F02D
:10446000700318BF1370C4F2020004210B220A2348
:10447000C4F20201C4F20202C4F2020380270770F0
:104480000026332403200E706D461470187072B627
:104490003446C4F2020445F001052046A84762B63E
:1044A000237813F070030ED140F641530121C0F27E
:1044B0000303C4F2020101E0013B02D00A78D207F3
:1044C000FAD505B0F0BD237005B0F0BD4BF2240263
:1044D0001146C4F20B01C4F2030213681B06FCD49C
:1044E0000B6813F08003F8D172B649F62E02C1F6BC
:1044F000FF721178002900F0B580F0B44BF23C0156
:104500004BF238044BF24000C4F20304C4F203003F
:10451000C4F203014BF24407256809680468C4F239
:1045200003074BF24800C4F203004BF24C060D4463
:10453000C4F20306396800682C440C4431682044F6
:1045400001444BF22C05C4F20305C1F34E014BF2BA
:1045500058044BF25C064BF2600041F40041C4F297
:104560000304C4F20306C4F2030029604BF264079B
:10457000256831680468C4F203074BF26800C4F28E
:1045800003004BF26C060D44C4F203063968006860
:104590002C440C443168204401444BF23005C4F2F1
:1045A0000305C1F34E014BF238044BF23C064BF2CB
:1045B000400041F40041C4F20B04C4F20B06C4F203
:1045C0000B0029604BF24407256831680468C4F287
:1045D0000B074BF24800C4F20B004BF24C060D44A3
:1045E000C4F20B06396800682C440C44316820443E
:1045F00001444BF22C05C4F20B05C1F34E014BF202
:1046000058044BF25C064BF2600041F40041C4F2E6
:104610000B04C4F20B06C4F20B0029604BF26407D2
:10462000256831680468C4F20B074BF26800C4F2D5
:104630000B004BF26C060D44C4F20B06396800689F
:104640002C440C443168204401444BF23000C4F245
:104650000B00C1F34E0141F400410160137062B6DA
:10466000F0BC704762B670472DE9F84F4DF2F00389
:10467000C0F20003184490F81090B9F1FF0F00F059
:10468000C98049F62E04C1F6FF742378002B7BD134
:1046900019F0800F7DD172B649F63406C1F6FF7667
:1046A0004FF43045B046C4F203050123C5F800902D
:1046B000637062B64AF20827C1F6FF774AF20A2C05
:1046C0004AF20C2E4AF20D204AF20E21C1F6FF7C6E
:1046D000C1F6FF7EC1F6FF70C1F6FF7172B62B689E
:1046E0001A0644D46378002BDFD062B63378002BEF
:1046F000F4D14AF20F22C1F6FF72B7F800A088F891
:104700000030BCF800309EF8003003780B78137846
:10471000EFF30583002BE1D1EFF3108172B64AF27B
:104720001023C1F6FF731868E8B14AF2142AC1F6E3
:10473000FF7A9AF80020B2B9D0F814E0C3F800E08C
:1047400001238AF80030BEF1000F01D0CEF8182006
:1047500001B962B64FF0000B80F81DB0836898472E
:104760008AF800B0AAE70029A8D162B6A6E74BF202
:104770001003C4F2030300221B68627062B6A078C3
:1047800043FA00F0BDE8F88FFFF7A0FE19F0800FA4
:1047900081D072B64BF20C0509F040064FF4304858
:1047A00049F6340AF6B209F03F09C4F20B05C4F227
:1047B0000B08C1F6FF7A01272B683EB323F01003E4
:1047C0002B60C8F80090E77062B672B6D8F8003077
:1047D0001B060ED4E378002BEED062B69AF80030B8
:1047E000002BF2D105F0FEFA72B6D8F800301B06A5
:1047F000F0D54BF21003C4F20B0300221B68E270E9
:1048000062B6A07843FA00F0BDE8F88F43F01003D9
:104810002B60D6E70020BDE8F88F00BF70B44FF4DE
:10482000804144F20103C4F20703C4F2070148F6D1
:104830003802E1206024C1F6FF720C701870137802
:104840004BF20806082B4BF20C0530464CD00A2BD5
:104850005AD00C2B2B46C4F20306C4F20305C4F253
:104860000B00C4F20B030CBF15243D24122134604D
:1048700029600460196049F62E03C1F6FF734BF2FC
:1048800020041979F9B12146C4F20B01C4F20304E2
:104890000120206008605278012A4BF2240047D999
:1048A000042A18D9082A3AD9102A0246C4F20B025F
:1048B000C4F2030094BF86218721016011600122A8
:1048C0001A7070BC70472046C4F20B00C4F2030497
:1048D00021600160DFE70246C4F20B02C4F203006C
:1048E000842101601160EAE72B46C4F20306C4F29A
:1048F0000305C4F20B00C4F20B030124132134603E
:10490000296004601960B6E72B46C4F20306C4F2BE
:104910000305C4F20B00C4F20B031924EEE70246B0
:10492000C4F20B02C4F20300852101601160C6E7E6
:104930000246C4F20B02C4F2030080210160116040
:10494000BDE700BF41EA0020704700BF10B5036813
:1049500014465B689847204610BD00BF0369D3F832
:104960004422B2F5817F03D90123037100207047EF
:10497000D3F8442210B49C180132C3F8442284F8BE
:104980003C11012010BC7047704700BF0369D3F889
:104990003411D3F8382191423DBFD3F834219B180C
:1049A00093F830004FF0FF30704700BF0369D3F831
:1049B0003411D3F83821914208D2D3F83421511C54
:1049C0001A44C3F8341192F8300070474FF0FF30AA
:1049D000704700BF0369D3F83801D3F83431C01AE7
:1049E000704700BF0020704770B448F63C03C1F622
:1049F000FF7348F21F02196BC4F2000208791070AD
:104A0000D86A48F21C02C4F20002047914700979D1
:104A100011709A6A002A4FD05968C9688A4247D8EB
:104A20000168CC8B240402F1FF3069D4C0F30E007E
:104A3000C883C88B80B2C882196B0968C88B000410
:104A400056D4C2F30E00C883C88B002480B212F182
:104A5000FF32C88218BF01229C62D96A086848F6F2
:104A60003C010568C1F6FF7101F12404A54237D06D
:104A70000968CC6814F0804F0468056815BF248865
:104A800024780235013544F0004405604C63196B0D
:104A900048F21B03C4F200030979197048F63C017F
:104AA000C1F6FF7112B1CA6A12791A7070BC7047F0
:104AB000521A9A620122D0E71968586B0A630024DF
:104AC000CFF60F74CC62CC68066824F08044CC60CA
:104AD0003468032583F825501146234670BC1847D7
:104AE000086891F82410C46841F000414163CEE7A2
:104AF000CC8BC2F3080004F47E442043C883A3E7B0
:104B0000CC8BC0F3080004F47E442043C88390E7B4
:104B10002DE9F04149F63305C1F6FF7504462B78BF
:104B2000C068A7680133DBB22B7006783B78DBB234
:104B300003F0200282B0F6B23AB313F0100F94F8EB
:104B40005E327AD0022B00F0DD8094F85E32032BC7
:104B500000F0D88094F85532082B00F03F8294F88A
:104B60005532092B00F07F8294F85532012B00F06A
:104B7000E68180233B70E36802221A702B78013BA8
:104B8000DBB22B7002B0BDE8F08102F0FF08F20644
:104B900024D406F0400202F0FF0E1ABB03F010030B
:104BA00003F0FF02002B00F0838016F0010640F0B6
:104BB000BB81D4F84022D4F844329A4207D2D4F8C8
:104BC00040325A1C2344C4F8402293F83C612369C4
:104BD0001E70A368D0221A70E0686EE01023037084
:104BE0007006C8D594F855320C2B00F0208106F0E1
:104BF000040606F0FF07002E64D0A3680021D0222F
:104C00000B2084F85502C4F844121A702269D4F8B3
:104C10006C1213785B0884F8563209B18847226910
:104C2000D4F84432002B00F0878194F83C8182F85C
:104C300000800123C4F840329DE7022B00F0B480CD
:104C400094F85E32032B00F0AF80D4F83831D4F8FA
:104C500058220233934200F0628194F85532012BBE
:104C600000F05881D4F838310133934280F02C8120
:104C700094F85532012B00F02281D4F838312269A2
:104C8000591CC4F838112344127883F83020E368A3
:104C900002221A7094F85532DBB2012B7FF46EAF0A
:104CA00094F85D22002A7FF469AF84F85D3265E7ED
:104CB00094F855320C2B00F0B2810223037002B03D
:104CC000BDE8F08148F6DD6249F26903C0F20002F6
:104CD000C0F20003002914BF1146194694F84B0294
:104CE00084F85C7205F008F8A3680C21C02284F8EF
:104CF0005512C4F838711A7023691B785B0884F860
:104D0000563238E7D4F8742213689B8B190604D501
:104D100094F85E32022B00F0C38094F85E32032BCD
:104D200000F0938048F22C03C4F200031279196852
:104D3000012393400B423FF421AF48F21E01C4F21D
:104D4000000148F21F030A70D4F87422C4F2000371
:104D500012791A700723002284F85E2284F85532F3
:104D6000D4F89432013304D0D4F894320133C4F827
:104D70009432F20611D5042384F85532D4F88C32DB
:104D8000013304D0D4F88C320133C4F88C32E26899
:104D9000102100231170C4F84032A36880221A70D9
:104DA000E36802221A703BE0D4F874321A68928BDE
:104DB000120603D594F85E22022A62D094F85E228D
:104DC000032A00F0DF8048F22C02C4F200021979B5
:104DD000126801238B4013423FF4D0AE48F21E020A
:104DE000C4F2000248F21F031170D4F87422C4F216
:104DF000000312791A70A36880220020072184F82A
:104E00005E0284F855121A70E36802221A70D4F810
:104E10009432013304D0D4F894320133C4F894327C
:104E2000D4F87032002B3FF4A9AE9847A6E6D4F828
:104E30006832002B3FF4DBAE0022C4F83421D4F8F2
:104E40003801019198470199D1E603781906FCD5FC
:104E500048F21C03C4F2000312791A70002384F88C
:104E60005E32D4F844322169013BC4F84032D4F8B0
:104E700040322344022293F83C310B70E3681A70ED
:104E80007CE648F21F01C4F200011B790B70A36895
:104E9000E8211970E368032184F85E121A706DE648
:104EA00048F21F01C4F2000112790A70A268F021D1
:104EB0001170E268032184F85E1213705EE694F8C4
:104EC0005D32002B3FF4D9AEA3680021B02284F8F4
:104ED0005D121A70D4F838312269591CC4F838119F
:104EE0002344127883F8302094F85432012B00F0D8
:104EF000CC80E36802221A7094F85532012B33D02B
:104F0000D4F86432002284F85522002B3FF4C2AE5C
:104F10009847BFE694F85D32002B7FF4A3AEE823F8
:104F20003B70D4F858229DE6C0233B702369E068AB
:104F30001B7884F855E2C0E684F83C3177E694F8B3
:104F40005432012B0CBF8023B0233B70E368022254
:104F50001A70D4F8803201333FF462AFD4F8803253
:104F60000133C4F880325BE7D4F88032013304D0D7
:104F7000D4F880320133C4F88032D4F87032002B78
:104F8000C6D187E648F21C02C4F200021B791370F6
:104F9000A3680021B02284F85E121A70D4F8583247
:104FA0002269013BC4F83831D4F83831591CC4F8AF
:104FB00038112344127883F8302094F85432012BAE
:104FC00000F0C680E36802221A70D4F8643200222E
:104FD00084F85522002B7FF428AFCFE506F01003AC
:104FE00003F0FF02002B57D000230421102284F885
:104FF0005E3284F855120270A26880211170E26856
:10500000C4F8403202231370D4F88C3201333FF4D9
:1050100007AFD4F88C320133C4F88C3200E748F67D
:10502000DD6549F26903C0F20003C0F20005002902
:1050300014BF2946194684F85C2294F84B0204F008
:105040005BFE23691B78D4F83821B2F5817FDBB28F
:1050500007D8D4F83821A1180132C4F8382181F8D2
:105060003030E06829E6F3062ED50422102384F8B8
:1050700055220370A36880221A70E36802221A7016
:10508000D4F88C320133C4D1CAE61823013BFDD1D8
:10509000A36880221A702CE716F0010628D084F845
:1050A0005E22D4F84032002B59D1022384F85532C5
:1050B000D4F88432013304D0D4F884320133C4F8F4
:1050C000843280233B706BE6F1072CD502238022CB
:1050D00084F855323A70E2681370D4F884320133A0
:1050E0003FF49EAED4F884320133C4F8843297E69C
:1050F000D4F840320133C4F84032D4F84422934209
:105100003AD394F8543284F85562012B0CBF8023B3
:10511000B0233B70E36802221A70D4F86032002B8F
:105120007FF483AE2AE594F85E32012B2CD0D4F8BC
:105130005832012B4FF00A020CBFE823E02384F819
:1051400055223B702269E368127802221A7015E535
:105150001823013BFDD1A36880221A7032E7032394
:1051600084F85532D4F888320133AAD0D4F8883282
:105170000133C4F88832A4E794F85E32012B15D0CD
:10518000D4F84032216974E60223E12284F85E32C9
:105190003A70D4F8741248F21B02C4F20002097982
:1051A00011702169E26809781370E7E40223F122A3
:1051B00084F85E323A70D4F8741248F21B02C4F2DA
:1051C000000209791170226994F83D111170E268AA
:1051D0001370D3E448F6BC300121C1F6FF7097E4A8
:1051E00048F62010C1F6FF70002191E438B503693C
:1051F0000546D3F84402B0F5817F1AD81446D3F897
:105200004422D3F84402C2F58172013203F59E7341
:10521000A242184402D2012314462B71224606F002
:10522000E5F92A69D2F844322344C2F844322046D0
:1052300038BD01232B71002038BD00BFD0F83421C8
:10524000D0F838319A4208D2D0F834315A1C03448D
:10525000C0F8342193F8300070474FF0FF307047AA
:105260002DE9F041154682B004460E461F4603F074
:1052700019FA85BBD4F8785203F014FAA1680A78B9
:10528000920680460B462DD4002D3BD1E268137860
:105290009806FCD40022B02384F849220B70A3683E
:1052A0001B7803F0200303F0FF00EBB9062384F81A
:1052B0005532D4F89032013304D0D4F8903201330F
:1052C000C4F89032D4F87032ABB10190984701988D
:1052D00002B0BDE8F08103F0E5F9A3681A78920600
:1052E00080460FD5B4221A7049F63303C1F6FF7316
:1052F0001B7873B1012002B0BDE8F081E3681B7830
:105300009B0648D503F0CEF9C8EB00008542F5D8DE
:10531000C5E794F84832013B012BEBD8EFF3138338
:10532000002B43D1EFF3108272B9EFF305831BB169
:105330000F2B35D8134601E04FF48073EFF3118241
:1053400012B1934228BF1346B6B1012E14D14EF2CA
:105350001942CEF2000212789A42CBDB0F2B1CDDF1
:1053600086B1012E0ED14EF21942103BCEF2000250
:10537000DBB230461370BEE74EF21842CEF20002A6
:105380001278E9E74EF21842103BCEF20002DBB28F
:1053900013700120AFE7A1687CE701203870AAE70D
:1053A0004EF2F032CEF200029B5CC7E74FF0FF33C3
:1053B000002ECAD1E0E700BF38B54DF2CC620369D8
:1053C000C0F20002026093F84822022A044601D08B
:1053D000204638BDD3F874020028F9D003790F2B8A
:1053E00011D848F21A02C4F20002137072B649F6DC
:1053F0003603C1F6FF73057919880122AA4021EA14
:1054000002021A8062B607F01BFE204638BD00BFBC
:105410004DF2A413017AC0F20003012253F8313097
:1054200083F88020704700BF4DF2A413017AC0F2C8
:105430000003012253F8313083F80021704700BF88
:105440002DE9F0410446002204F0ACF803F02AF9FB
:10545000D4F8785203F026F97DBB94F85532072B27
:10546000FBD894F85532072B84BF012384F85532BA
:105470006023013BFDD149F68C43C1F6FF7394F8DC
:1054800055221A6992F85502C0B2032809D00AD9E8
:10549000052805D001D3062809D10420BDE8F081F4
:1054A0000120BDE8F0810128F7D00228F9D0187951
:1054B000003018BF0120BDE8F08106464EF2180EFC
:1054C0004AF2C8114EF6045748F63960CEF2000E83
:1054D000C1F6FF71CEF20007C3F6E3004FF47A7C09
:1054E00094F85532072B18D972B6DEF800300A68E6
:1054F000D7F8008062B618F0806F02D0322B00D946
:105500000132C3F58C3303F23F13A0FB0383C6EBD8
:1055100013130CFB02339D42E2D803F0C3F8801B47
:1055200085429ED894F84832022B9AD194F85E3284
:10553000002B96D094F85532072BFBD8012384F822
:1055400055328EE749F68C43C1F6FF731A69D2F8DB
:105550004412B1F5817F04D901221A710023184643
:105560007047D2F84432D1180133C2F844320123D3
:1055700081F83C011846704749F68C43C1F6FF7329
:1055800000211A69400010B4012482F83C0119710D
:10559000C2F8444282F8551210BC70472DE9F84316
:1055A00072B64EF218034AF2C8174EF60452C1F60C
:1055B000FF77CEF20003CEF200021B683C6812684F
:1055C00062B6520102D5322B88BF0134C3F58C3349
:1055D00048F6396603F23F13C3F6E3064FF47A72D6
:1055E000A6FB031302FB04F44EF218094EF604580E
:1055F00004EB1314CEF20009CEF20008642572B653
:10560000D9F800103A68D8F800E062B6C1F58C33DA
:1056100003F23F13A6FB03031EF0806FC4EB1313CA
:105620004FF47A7002D0322988BF013200FB023376
:10563000B3F57A7F04D3013D0CD004F57A74DEE72C
:1056400049F63403C1F6FF731B78002BD7D104F061
:10565000C9FBD4E7BDE8F8834DF2A413C0F2000300
:1056600003EBC00253F83010536801204FF4A272CC
:1056700081F880021A601A6822F020021A607047CE
:105680002DE9F04104460D4600295CD148F234036F
:10569000C4F2040341691A68202042F040021A60F3
:1056A00084F8495284F85552087094F8983294F866
:1056B0009962002B00F0D5812EB1E2681278900635
:1056C00062D4002D58D194F84A22132A00F0D781D1
:1056D00094F84C3294F84A02002B14BF02210021A6
:1056E00003F008F84AF20803C4F204034FF41977F0
:1056F0001320002101221F6084F84A0284F84C1212
:1057000084F8982294F84B32122B00F0B4814EB1F9
:1057100094F84C3294F84B02002B14BF0221002164
:1057200002F0E8FF4AF20C03C4F204034FF41976C6
:105730001220002101221E6084F84B0284F84C12D2
:1057400084F8992220E0012907D148F23403C4F2F9
:1057500004031A6842F080021A6062690023202163
:1057600084F8493284F85532117094F8983294F8DC
:105770009962002B40F0718194F84A32132B01D1C9
:10578000002DBFD094F84B324DF2B021C0F2000191
:10579000002202E00132372A47D051F8043F1B02B1
:1057A000B3F5105FF6DD002A3FD14DF2A413114688
:1057B0001746C0F200031944626891F8EC111170A9
:1057C0003B44A269D3F8100103214FF4A243C0F275
:1057D0002523B3FBF0F3C4F850321170E3681B7853
:1057E000990652D4A36880221A70E36812221A70B4
:1057F00094F84932012B0CBF01220222002D4DD01A
:10580000012D06D14FF46141CEF200014FF000703E
:105810000860022A29D0012284F84822002B38D0BF
:10582000A368C0221A70BDE8F081511E4DF2A41386
:105830008F00C0F200034FEA820EDE1903EB0E0068
:10584000D6F81061D0F810013602C6F510560002E5
:10585000C0F51050002EB8BF76420028B8BF4042B5
:105860008642C4BF11467746A5E7D4F874020028E3
:1058700000F083800379102B18D107F0E1FB0022A0
:105880000123C4F8742284F8483294F84932002B7A
:10589000C6D1A36880221A70BDE8F0814FF461413F
:1058A000CEF200014FF080700860B2E7002D35D1D4
:1058B0000268938B9BB243F008039383027948F20A
:1058C0000021531102F11007C1F6FF7145F2E116F4
:1058D0009B00C0F2000641F8276003F1604303F526
:1058E0006143012102F01F0201FA02F201681A600D
:1058F0008B8B9BB243F002038B83037903F18043CC
:1059000003F5043396221D701A700223002284F8D6
:10591000483284F85E2294F849327FE7012DF4D1B1
:105920000268938B9BB243F008039383027948F299
:105930000021531102F11007C1F6FF7145F2D5168F
:105940009B00C0F2000641F8276003F1604303F5B5
:10595000614302F01F02954002681D60938B9BB269
:1059600043F002039383037903F1804303F5043387
:105970000021972219701A70C7E7082007F058FB1A
:1059800072B6016800296FD0037949F634060F2BEF
:10599000C1F6FF760AD872881A41D20706D503F1FC
:1059A000007303F59063B1EB431F62D0728800234C
:1059B00002E00133102B4BD042FA03F111F0010148
:1059C000F7D101279F403A43728062B648F2400205
:1059D000DEB2C4F204020671D2F800E048F23C07DD
:1059E000C4F204074EF0020EC2F800E03A684FF429
:1059F000004842F00202C4F200083A6003F100736A
:105A00008222C8F8002003F5906348F21A0C48F28D
:105A10001E0E48F2180748F21F025B01C4F2000C88
:105A2000C4F2000EC4F20007C4F200028CF8006059
:105A30008EF800603E7016700360196059609960BE
:105A4000D960196159619961D961C4F8740211E78B
:105A500062B6002203710260F7E7002E3FF48CAEBD
:105A60002BE694F84A323DE649F63406C1F6FF7655
:105A70009CE762B6E9E7002E3FF454AE84E6002BC3
:105A80003FF430AE3EE600BF2DE9F04149F68C47C9
:105A9000C1F6FF774AF25C163C6901210022C1F68B
:105AA000FF76C4F8441284F855223378D4F84402BF
:105AB0003A718B40B0F5817F84F83C3140F2EC8044
:105AC00039710022797B204603F06CFD02F0EAFD7B
:105AD000D4F8785202F0E6FD8046002D40F0968022
:105AE00094F85532072BFBD894F85532072B84BF16
:105AF000012384F855326023013BFDD13D693278A2
:105B0000797B94F8553295F855322846062303F0F0
:105B10006FFB02F0C7FDD5F8784202F0C3FD804666
:105B2000002C40F0968095F85532072BFBD895F85D
:105B30005532072B84BF012385F855326023013B82
:105B4000FDD195F855320BB9D5F838313B69D3F80A
:105B50003411D3F83821914280F0B080D3F8342149
:105B6000511C1A44C3F8341192F83000D3F83411A0
:105B7000D3F838213074914280F09E80D3F83421DC
:105B8000511C1A44C3F8341192F83000D3F8341180
:105B9000D3F83821F073914280F09280D3F8342109
:105BA000511C1A44C3F8341192F83000D3F8341160
:105BB000D3F83821B074914278D2D3F83421511CF3
:105BC0001A44C3F8341192F83000D3F83411D3F8E2
:105BD0003821707491426DD2D3F83421511C1A448B
:105BE000C3F8341192F83000D3F83411D3F83821C7
:105BF000307591425CD2D3F83421511C1A44C3F859
:105C0000341192F83030F374BDE8F08194F85532D5
:105C1000072B05D902F046FDC8EB0000A842F5D3DA
:105C200002F040FDC8EB000085423FF65DAF94F8FE
:105C30004832022B7FF458AF94F85E32002B3FF4C9
:105C400053AF94F85532072BFBD8012384F8553213
:105C50004AE795F85532072B05D902F023FDC8EB2A
:105C60000000A042F5D302F01DFDC8EB0000844205
:105C70003FF65DAF95F84832022B7FF458AF95F8A8
:105C80005E32002B3FF453AF95F85532072BFBD80B
:105C9000012385F855324AE7D4F84432E2180B4420
:105CA0009221C4F8443282F83C110AE7FF208CE7C5
:105CB000FF23A8E7FF2097E7FF2067E7FF2055E7CE
:105CC000FF2073E7F8B549F68C44C1F6FF744AF239
:105CD0005C15206901210022C1F6FF75C0F844124D
